:020000040800F2
:10000000D0100120AD03000871830108CB800108E6
:100010006F83010861570108318901080000000061
:10002000000000000000000000000000B90200080D
:100030000D5801080000000015030008D5830108D1
:10004000C7030008C7030008C7030008C703000868
:10005000C7030008C7030008C7030008C703000858
:10006000C7030008C7030008C7030008C703000848
:10007000C7030008C7030008C7030008C703000838
:10008000C7030008C7030008C7030008C703000828
:10009000C7030008C7030008C7030008C703000818
:1000A000C7030008C7030008C7030008C703000808
:1000B000C7030008C7030008C7030008C7030008F8
:1000C000C7030008C7030008C7030008C7030008E8
:1000D000C7030008C7030008C703000825890108F3
:1000E000C7030008C7030008C7030008C7030008C8
:1000F000C7030008C7030008C7030008C7030008B8
:1001000035580108C7030008C7030008C7030008E3
:10011000C7030008C703000821850108C7030008BA
:10012000C7030008C7030008C7030008C703000887
:10013000C7030008C7030008C7030008C703000877
:10014000C7030008C7030008C7030008C703000867
:10015000C7030008C7030008C7030008C703000857
:10016000C7030008C7030008C7030008C703000847
:10017000C7030008C7030008C70300080000000009
:10018000C7030008C7030008C7030008C703000827
:10019000C7030008C7030008C7030008C703000817
:1001A00005820108C70300086557010800F002F83E
:1001B00000F072F80AA090E8000C82448344AAF18F
:1001C0000107DA4501D100F067F8AFF2090EBAE88D
:1001D0000F0013F0010F18BFFB1A43F0010318477B
:1001E000A83D0600C83D06000A444FF0000C10F878
:1001F000013B13F0070408BF10F8014B1D1108BFA5
:1002000010F8015B641E05D010F8016B641E01F844
:10021000016BF9D113F0080F1EBF10F8014BAD1C94
:100220000C1B09D16D1E58BF01F801CBFAD505E0B2
:1002300014F8016B01F8016B6D1EF9D59142D6D30C
:10024000704700000023002400250026103A28BF34
:1002500078C1FBD8520728BF30C148BF0B60704738
:10026000642914F0AD85782914F0E685632915F02A
:10027000E380002070471FB51FF0A4FF9DE8030036
:1002800015F056F914F0B5FE14F0EAFF1FBD10B5D5
:10029000002015F0EFF810BD15F0D2F91146FFF768
:1002A000EAFF1DF03BFC15F00AFA03B4FFF7EFFF7D
:1002B00003BC1DF0F6FA00002C4B19680868B0E882
:1002C000F04F80F30988BFF36F8F4FF0000080F389
:1002D000118870470000000008480068006880F33B
:1002E00008884FF0000080F3148862B661B6BFF34F
:1002F0004F8FBFF36F8F00DF00BF00BF08ED00E03E
:10030000DFF80C00016841F470010160704700BF24
:1003100088ED00E0EFF30980BFF36F8F134B1A688D
:100320001EF0100F08BF20ED108A20E9F04F10607A
:1003300009B44FF0500080F31188BFF34F8FBFF323
:100340006F8F1EF045FA4FF0000080F3118809BC52
:1003500019680868B0E8F04F1EF0100F08BFB0EC45
:10036000108A80F30988BFF36F8F7047D80200208E
:10037000EFF30580704700000B49D1F800C04A68D0
:100380005CF8043B1068184442F8040B8C4528BF05
:10039000A1F1DC0C8A4228BFA1F1DC02C1F800C047
:1003A0004A6020F000407047BC9800200948804710
:1003B00009480047FEE7FEE7FEE7FEE7FEE7FEE747
:1003C000FEE7FEE7FEE7FEE704480549054A064B5F
:1003D00070470000CD840108AD010008D004012061
:1003E000D0100120D0080120D008012070471CF057
:1003F000A8BB70B5044600680D46016A20468847D0
:10040000A84206D32068C16920468847A18888424F
:1004100001D814F0F7FD2068426A20469047A18871
:10042000491CA18070BD70B50446006815460E4693
:10043000026A20469047A84201D214F0E3FD2068EA
:100440003146426A2046BDE87040104780887047B8
:1004500070B5044600680D460021426A2046904768
:10046000281A86B22068016A20468847B6FBF0F653
:10047000A088B04212D920680021426A20469047E5
:10048000281A85B22068016A20468847B5FBF0F13A
:1004900000FB1150002804BF304670BD14F0B2FDBF
:1004A00000218180704702490160002181807047EE
:1004B0007025020870472DE9F04F91B00E46804636
:1004C0001C461546114668461A9F1CF03EFB214605
:1004D00008A81CF03AFB684610F06AFD294608A8F7
:1004E00010F04EFDBDF92010BDF80420BDF822002B
:1004F00012FB001208EB42051644BDF80020BDF9BE
:1005000024401144ADF82010BDF802100844ADF8A5
:100510002200BDF926000490F94800680168096AC4
:100520008847F84ABDF92010BDF92230B2F800C062
:10053000FF2F0CFB031100EB41034FF0000172D2BF
:10054000DDF81090B9F1000F6BDD0020002C64DDA8
:10055000BDF9048006EB000C08FB01F212F80C2038
:10056000002A57D07A4302EB1222521CC2F3072210
:10057000002A4FD008FB01084FF0F80A35F8189010
:10058000C2F1FF0C0AEA192808FB02FBDFF87483AA
:10059000B8F8008008FB0108CDF81C8033F81880FB
:1005A0000AEA182A0AFB0CBA1FFA8AFB4FF0FC0A67
:1005B0000AEAD90E0AEAD80A0EFB02FE4FEAC96916
:1005C0004FEA19694FEAC86809FB02F24FEA186856
:1005D00008FB0C220AFB0CEA0BEB1B2C0CF1010CA8
:1005E0001FFA8AFA0CF478480AEB1A2C0CF101096C
:1005F0004FF4FC6C92B20CEA591C48EA0C0C02EB6A
:100600001222521CDDF81C80C2F307224CEAD202EF
:1006100023F81820401CA0429ADB0498491C814210
:1006200093DB62E0FFE7049F002F5EDD0020002CDB
:1006300057DD00BFBDF90470321807FB01FC1CF840
:100640000220EAB3FF2A58D007FB01074FF0F80950
:1006500035F81780C2F1FF0C09EA182707FB02FAE8
:10066000A84F3F8807FB010B33F81B7009EA1729D5
:1006700009FB0CA91FFA89FA4FF0FC0909EAD80E08
:1006800009EAD7090EFB02FE4FEAC8684FEA18686C
:10069000FF0608FB02F23F0E09FB0CE907FB0C22E8
:1006A0000AEB1A2C0CF1010C1FFA89F90CF47847AB
:1006B00009EB192C0CF1010892B24FF4FC6C00E02C
:1006C0000CE002EB12220CEA581C521C47EA0C0CFC
:1006D000C2F307224CEAD20223F81B20401CA0429E
:1006E000A8DB0498491C8142A0DB854800680168AA
:1006F000496A884711B0BDE8F08F07FB010235F861
:1007000012C0804A128802FB010223F812C0E5E7FA
:100710002DE9F04F8FB080460888189D1E4614467C
:100720000F46012801D014F06DFC002D04BF0FB05E
:10073000BDE8F08F11460AA81CF007FA31460CA854
:100740001CF003FA0AA810F033FC21460CA810F0A4
:1007500017FCBDF93000BDF82C20BDF8321012FB9B
:10076000010202EB0804BDF82820DFF89491104440
:10077000ADF83000BDF82A00BDF934600844ADF88A
:100780003200BDF936000190D9F800000168D1F8B7
:1007900090108847DFF86C81012877D048460068C0
:1007A0000168096A8847BDF93010BDF93220B8F8F0
:1007B000003003FB021100EB4103019800210028E7
:1007C0005BDD0020002E50DD227802EB42023A442D
:1007D000121DFF2D7BD092F802C092F800900CFB06
:1007E00005FEDFF820C192F801A04FF0F80BBCF82D
:1007F00000C0C5F1FF020CFB010809FB05F933F845
:1008000018C00BEA1C2B0BFB02EB0AFB05FE4FF09A
:10081000FC0A0AEADC0A0AFB02EA4FEACC6C4FEA5D
:100820001C6C0CFB02921FFA8BFB0BEB1B2C0CF1CC
:10083000010C1FFA8AFA0CF478490AEB1A2C92B2CE
:100840000CF1010A4FF4FC6C02EB12220CEA5A1C68
:10085000521C49EA0C0CC2F307224CEAD20223F8DC
:100860001820641C401CB042AEDBBDF92C00491CB2
:10087000801B044401988142A3DB21480068016881
:10088000496A88470FB0BDE8F08FFFE70DF1140A01
:1008900000230B22B8F800100120AAE80F000199EC
:1008A000BDF82C0089B2CDE90210B2B20192BDF8B8
:1008B000320004950090BDF830303A462146D9F810
:1008C000000009F0C4FC0FB0BDE8F08FFFE792F81C
:1008D00002804FF4784C0CEA082892F801904FF40B
:1008E000FC6C0CEAC90C127848EA0C0C4CEAD20CED
:1008F000044A128802FB010223F812C0B1E700008B
:10090000100400200A0400202DE9F04F0646088854
:1009100091B01C4615460F4608B114F073FB114602
:100920000AA81CF012F921460CA81CF00EF90AA81E
:1009300010F03EFB29460CA810F022FBBDF9300058
:10094000BDF82C20BDF8321012FB01029419BDF83D
:100950002820BDF934501044ADF83000BDF82A000D
:100960000844ADF83200BDF93600FE4E0090306804
:100970000168D1F890108847DFF8EC9301287DD00A
:10098000304600680168096A8847BDF93010BDF932
:100990003220B9F8003007F1040803FB021100EB24
:1009A000410600980022002862DD0021002D57DD5D
:1009B000207858F82000030E4ED0FF2B04BFDDF83E
:1009C00068C0BCF1FF0F7CD0DDF868C0C0F30747FA
:1009D0000CFB03F303EB13235B1CC3F30723C3F1EB
:1009E000FF0C17FB03F9E04F4FF0F80B3F8807FBB4
:1009F000021A36F81A700BEA172B1BFB0C991FFA18
:100A000089F9C0F3072B1BFB03FE4FF0FC0B0BEA2D
:100A1000D70B1BFB0CEB1FFA8BFBC0B210FB03F0D8
:100A2000FB061B0E13FB0C0009EB19235B1C03F4E4
:100A3000784C0BEB1B235F1C80B24FF4FC6300EB84
:100A4000102003EA5713401C4CEA0303C0F30720AD
:100A500043EAD00026F81A00641C491CA942A7DB0F
:100A6000BDF92C00521C401B0444009882429CDBC0
:100A7000BC4800680168496A884700E002E011B09C
:100A8000BDE8F08F0DF1140800230B22B9F8001017
:100A90000120A8E80F00009A1A98BDF82C10CDE9A3
:100AA000031092B2ABB2CDE90132BDF83200009032
:100AB000BDF830303A462146306809F0C8FBDCE723
:100AC000FFE74FF4784303EA102C4FF4FC6303EA8A
:100AD00050134CEA0303C0F3C4000343A248008848
:100AE00000FB021026F81030B6E72DE9F04F91B068
:100AF000074608881A9E1C4615468846022801D0DB
:100B000014F080FA002E04BF11B0BDE8F08F11463A
:100B10000AA81CF01AF821460CA81CF016F80AA81E
:100B200010F046FA29460CA810F02AFABDF9300058
:100B3000BDF82C20BDF8321012FB0102D419BDF80B
:100B40002820DFF820921044ADF83000BDF82A00CC
:100B5000BDF934500844ADF83200BDF936000190BB
:100B6000D9F800000168D1F8901088477E4F01281D
:100B700074D0484600680168096A8847BDF930109A
:100B8000BDF932203B88FF2E03FB021100EB41032D
:100B900008F104017ED20198C6F1FF024FF0000E69
:100BA000002859DD0020002D4DDD00BF94F800C065
:100BB000F827641C31F81CC007EA1C2808FB06F95A
:100BC000DFF8A481B8F8008008FB0E0A401C33F857
:100BD0001A8007EA182707FB02971FFA87F9FC27F4
:100BE00007EADC0B07EAD8074FEACC6C4FEA1C6C2B
:100BF0004FEAC8680CFB06FC4FEA186808FB02CCF9
:100C00000BFB06FB07FB02B709EB1928BFB207EB8A
:100C100017271FFA8CFC07F1010908F101084FF4AE
:100C2000FC670CEB1C2C08F4784807EA59170CF108
:100C3000010C48EA0707CCF3072C47EADC0C23F841
:100C40001AC08542B2DCBDF92C000EF1010E401B2A
:100C5000044401988645A5DB4CE0FFE73A88002074
:100C6000CDE905020B21CDE907100199BDF82C0053
:100C700089B2CDE90210AAB20192BDF83200049601
:100C80000090BDF8303042462146D9F8000009F006
:100C9000DEFA00E002E011B0BDE8F08F0198002616
:100CA000002827DD002D1DDD3888704303EB400050
:100CB000801E15F0010F05D014F8012B31F8122019
:100CC00020F8022F6A100DD014F801CB521E31F813
:100CD0001CC0A0F802C014F801CB31F81CC020F8E9
:100CE00004CFF1D1BDF92C00761C401B04440198BF
:100CF000B042D7DC1B4800680168496A8847C8E7EA
:100D000038B50C78DDF810C044B1012C0BD0022CA2
:100D100004BFCDF800C0FFF7E8FE38BDCDF800C035
:100D2000FFF7F2FD38BDCDF800C0FFF7F1FC38BD8C
:100D30002DE9F04F91B006461C4615460F4604A813
:100D40001BF003FF294606A81BF0FFFE04A810F0C5
:100D50002FF9394606A810F013F9BDF91810BDF89F
:100D6000142003E0100400200A040020BDF81A003B
:100D700012FB001206EB8206BDF81020BDF91C50D4
:100D80001144ADF81810BDF812100844ADF81A005F
:100D9000BDF91E00FA4F099038680168896B8847D1
:100DA000FF2C19D010F0400F19D000BF0999BDF8E1
:100DB0001400AAB289B203940092CDE901103868F8
:100DC000BDF81A30BDF818200168D1F848C0314686
:100DD000E04711B0BDE8F08F10F0200FE6D1E848F1
:100DE00000680168096A8847E64ABDF91810BDF92C
:100DF0001A30B2F800C00CFB031100EB410C09984B
:100E0000002100285CDD0020002D55DDBDF91420F7
:100E100002FB010256F82220130E4AD0FF2B08BF16
:100E2000FF2C55D0C2F30747C2F3072A02F0FF098F
:100E300004FB03F202EB1222521CC2F30722C2F19E
:100E4000FF0317FB02FECF4F4FF0F80B3F8807FB65
:100E500001083CF818700BEA172B1BFB03EB1FFA79
:100E60008BFB1AFB02FE4FF0FC0A0AEAD70A1AFBB8
:100E700003EA1FFA8AFA19FB02F2FF063F0E17FB7C
:100E800003220BEB1B235B1C03F478470AEB1A23AA
:100E900003F101094FF4FC6392B203EA59133B4397
:100EA00002EB1222521CC2F3072243EAD2022CF8B0
:100EB0001820401CA842A9DB0998491C8142A2DBEA
:100EC000AF4800680168496A884711B0BDE8F08FF3
:100ED0004FF4784303EA12274FF4FC6303EA5213FA
:100EE0003B43C2F3C4021343A64A128802FB010229
:100EF0002CF81230DDE72DE9F04F93B08A46DDE99A
:100F00001C458146002D04BF13B0BDE8F08F164686
:100F10009846084604F0BFFD0746504604F0DEFD43
:100F2000ADF81C70ADF81860ADF81E00ADF81A8071
:100F3000504604F07EFD58B1504604F07AFD022878
:100F400006D0504604F075FD0B2801D014F05AF875
:100F5000504604F005FD8046504604F021FD07464A
:100F6000504604F066FD022800F0EB80504604F085
:100F700060FD0B2800F0EE80504604F01AFE0026BB
:100F8000002800F00981514610A804F0CAFDDDE9EF
:100F90001001CDE90E010EA90AA81BF0D6FDB4F987
:100FA0000020B4F9040002EB000CBDF928008445D0
:100FB00040F3FE80BDF92C1000EB010A924540F38E
:100FC000F780B4F902B0B4F906100BEB0103BDF9D8
:100FD0002A108B4240F3EC80BDF92E300B445B4568
:100FE00040F3E6809042D8BF10465945D8BF5946D5
:100FF0000FFA8AF20FFA8CFC6245A8BF6246121AF9
:10100000ADF82C206288B4F806C01BB2624412B25C
:101010009342B8BF1A46521AADF82800ADF82E20F8
:10102000ADF82A10DDE90A01CDE90C01BDF8340064
:1010300000281CBFBDF8360000287CD0CDE9005642
:10104000D9F800000CAB06AAD0F810C041464846BB
:10105000E047BDF93210B4F90200814211DD238866
:10106000A288091AADF81420ADF81030ADF81610AA
:10107000ADF8120004AB06AA394640460095FFF7CA
:101080001AFABDF93010B4F90000814213DD091AD3
:10109000ADF81410BDF83630ADF81000BDF83220B0
:1010A000ADF81630ADF8122004AB06AA394640461A
:1010B0000095FFF700FA2088A188BDF83420084485
:1010C00001B2BDF83000104400B2814213DD091AAC
:1010D000ADF81410BDF83630ADF81000BDF8322070
:1010E000ADF81630ADF8122004AB06AA39464046DA
:1010F0000095FFF7E0F96088E188BDF836200844E4
:1011000001B2BDF83200104400B28142DCBF13B01E
:10111000BDE8F08F2288A388091AADF81430ADF825
:101120001020ADF81610ADF8120004AB06AA39462F
:101130004046009500E044E0FFF7BDF913B0BDE87C
:10114000F08F2B46224606A94046FFF7F1FD13B06B
:10115000BDE8F08F97F800C04046394606AA2346FE
:10116000BCF1000F10D0BCF1010F11D0BCF1020F87
:1011700004BF0095FFF7B9FC13B0BDE8F08F000085
:10118000100400200A0400200095FFF7BDFBF3E7E0
:101190000095FFF7BDFAEFE7CDE90056D9F800005A
:1011A000234606AAD0F810C041464846E047E3E788
:1011B000ADF82860ADF82C60ADF82A60ADF82E606F
:1011C00030E7234606AA394640460095FFF773F9F3
:1011D000D2E72DE9F04F8FB01D46DDE918481646DD
:1011E0000F46002C04BF0FB0BDE8F08F114606A8D3
:1011F0001BF0ABFC294608A81BF0A7FC06A80FF0C3
:10120000D7FE314608A80FF0BBFEBDF92010BDF88F
:101210001C20BDF8220012FB001207EB4206BDF8AD
:101220001820BDF924701144ADF82010BDF81A1033
:101230000844ADF82200BDF92600FE4D0290286852
:101240000168896B8847FF2C03D210F0040F07D187
:101250001DE008BFB8F1000F19D110F0010F16D032
:101260000299BDF81C0089B2CDE90110B8B2009016
:10127000CDE903482868BDF82230BDF82020016878
:10128000D1F844C03146E0470FB0BDE8F08FE948DF
:1012900000680168096A8847DFF89C83BDF920105F
:1012A000BDF92220B8F80030FF2C03FB021100EB3F
:1012B00041055AD202980021C4F1FF020028C8BF9C
:1012C000C6466FDD0020002F4ADD00BFBDF91C308F
:1012D0004FF0F80C03FB010336F813300CEA132827
:1012E00008FB04F9BEF8008008FB010A401C35F831
:1012F0001A800CEA182C0CFB029C1FFA8CF94FF098
:10130000FC0C0CEAD30B0CEAD80CDB061B0E4FEAE4
:10131000C86863434FEA186808FB02330BFB04FB01
:101320000CFB02BC09EB19281FFA8CFC9BB20CEBDE
:101330001C2C0CF1010903EB132308F101084FF4F5
:10134000FC6C5B1C08F478480CEA591C48EA0C0C4D
:10135000C3F307234CEAD30325F81A308742B5DCE0
:101360000298491C8142ADDB1CE002980024002851
:10137000C4BFDFF8C0927F0014DDD9F800003B46FF
:1013800032460168D1F834C02946E047B8F8000079
:10139000641C05EB4005BDF91C0006EB40060298F5
:1013A000A042EADCA34800680168496A88470FB098
:1013B000BDE8F08F70B582B00D46DDE90661DDF85D
:1013C00020C01C460C2A24BF02B070BDDFE802F02A
:1013D000061911191919191919191919CDE9001C2A
:1013E000016833462246D1F810C02946E04702B0D2
:1013F00070BD0B4602B0324621462846BDE870401B
:1014000096E413F0FFFD2DE9F04FDFF828B2044613
:101410008BB0DBF8000015460E4690F84800022815
:1014200000F0C080ADF8043001A804F002FB0746CC
:101430002068416A2046884787427DD101A804F090
:101440008FFA0490002877D0294608A81BF07DFB6E
:10145000314602A81BF079FB2E886F8801A804F0A2
:101460001AFB054601A804F039FBADF81C50ADF895
:101470001860ADF81E00ADF81A7008A80FF098FDBE
:1014800002A80FF095FD06A80FF092FDDFF8A881E5
:101490000022BDF90890B8F80000114603B2674871
:1014A0004B4500880FFA80FC10462FDDBDF90C502B
:1014B00009EB0507974229DD01EB0C06BDF90AC0CF
:1014C000664523DDBDF90E5065448D421EDD914514
:1014D000D4BF1046484681468C45C8BF614638B2E5
:1014E0001A4412B29042A8BF1046A0EB0900ADF812
:1014F0000C0028B232B29042A8BF1046401AADF894
:101500000890ADF80E00ADF80A1007E0ADF808003D
:10151000ADF80C00ADF80A00ADF80E00BDF90C50A6
:10152000002D1CBFBDF90EC0BCF1000F36D0BDF9B7
:101530000830BDF9202000E034E0934232DBBDF9F1
:101540000A10BDF9220081422CDB2B44BDF9245046
:101550002A449A4226DBBDF9262061441044814288
:1015600020DC2068816A204688470746DBF80000B7
:101570000168896A88470146BDF90820BDF818004E
:10158000BDF91C60101A00B2049D00280CDD05EBAB
:101590004005A6EB0000ADF81C000FE004980BB06E
:1015A000BDE8F08F13F02EFD08DAA2EB0002ADF8D3
:1015B0000820BDF80C201044ADF80C00BDF90A203D
:1015C000BDF81A00A2EB000000B200280ADD00FB03
:1015D00006F205EB4205BDF81E20A2EB0000ADF8B7
:1015E0001E0009E008DAA2EB0002ADF80A20BDF8FF
:1015F0000E201044ADF80E00BDF91CA0BAF1000F8A
:10160000C4BFBDF91E40002CC8DDBDF9082001EBA8
:101610004200BDF90A1001FB0709BDF90C00504555
:10162000B8BF8246B8F80000821A5245D8BF924629
:1016300006E00000100400200A0400200C04002032
:10164000BDF90E20A242B8BF1446FE4A1288511AB4
:10165000A142D8BF0C46824508BF864223D1DBF8A1
:1016600000000168896B884710F0010F10D0ADF8B9
:101670000CA0ADF80E400096DBF800002B46016888
:10168000D1F860C0DDE90212E0470BB0BDE8F08F91
:10169000DBF8000004FB07F34A460168D1F834C0C8
:1016A0002946E0477AE74FF00008002CC8BF4FEA10
:1016B0004A0A7FF773AF00BFDBF8000053464A4683
:1016C0000168D1F834C02946E04708F10108B9445F
:1016D00005EB46054445EFDC60E7002B08BF70478B
:1016E0002DE9F04F888887B01F469046002819BF23
:1016F000C888002807B0BDE8F08F04A81BF025FAC1
:1017000004A80FF055FCD04D28680168896B884704
:10171000FF2F03D010F0080F17D002E010F0020FD7
:1017200013D0BDF81600BDF81410CDE900100297D3
:101730002868BDF81230BDF810200168D1F854C0F7
:101740004146E04707B0BDE8F08FBDF91440BDF950
:1017500016000090BC4800680168096A8847BB4BC6
:10176000BDF91010BDF91220B3F800C04FF0F80A0F
:1017700002FB0C1100EB410CC8F3C4204FEAC00976
:10178000C8F3451086000AEAC800FF2F4DD2002298
:10179000DDF80080C7F1FF011546B8F1000F63DDE9
:1017A00009FB07F87E4347430020002C35DD00BFCE
:1017B00002EB00094FF0F80A3CF81930401C0AEA25
:1017C000132A0AFB018A1FFA8AFB4FF0FC0A0AEA75
:1017D000D30ADB060AFB016A1B0E03FB01731FFA27
:1017E0008AFA9BB20AEB1A2A0BEB1B2B0AF1010EA9
:1017F00003EB13230BF1010B4FF4FC6A5B1C0BF49E
:10180000784B0AEA5E1A4BEA0A0AC3F307234AEA4C
:10181000D3032CF819308442CADC8C486D1C008834
:10182000024400988542BFDB1EE000260098354642
:101830000028C8BF1FFA88F216DD002C0EDD0CEB65
:101840004600801E14F0010F18BF20F8022F61100F
:1018500004D0428020F8042F491EFAD118886D1C4C
:1018600006440098A842E8DC774800680168496AA5
:10187000884707B0BDE8F08F2DE9F04F1F462DEDEA
:10188000028BABB089463798379BDDE93B46008930
:101890009B89DDE938A50021DDF8D8B0ADF86400FA
:1018A000ADF860109046ADF86210ADF8663018A83B
:1018B0000FF07EFB3A68DBF80000BAF90030B5F9AA
:1018C00000E0811A03EB020CAEEB0C000D90884295
:1018D000A2BF2BB0BDEC028BBDE8F08FB5F9045070
:1018E0000EEB050008906045C2F211823798D9F8D6
:1018F00000B0C4F1FF05006812900590BAF902002B
:10190000D7F814A0D9F80490504400FB09301044D3
:101910000BEB40008E42C8BF0E46069600EE906A62
:10192000D8ED091A97ED070AF8EEE00AB7EE007A4B
:1019300097ED0A1A97ED0D3A61EEA05A00EE906A03
:10194000D8ED0B1AF8EEE00A70EE253A21EEA05A17
:1019500000EE906AD8ED0D1A0026F8EEE00A71EE5E
:10196000052A1096E64561EEA04AC7EE000A33EE5E
:10197000242A60EE811A20EE830A3ADDDDF818C0D1
:101980000D9E069F96FBFCFC00EE90CA07FB1C66B2
:10199000F8EEE00A1096BCF1000F45EEA03A00EE1A
:1019A00090CAF8EEE00A45EE202A00EE90CAF8EE62
:1019B000E00A04EEA02A14DD73EEE50AB0EE470A51
:1019C000F5EEC00AF1EE10FA03D080EE201AB0EE68
:1019D000410A72EEC50A60EE801A72EE640A20EEC9
:1019E000800A0CFB17110CFB07F60CFB072200EB1F
:1019F000460002EB010C03EB0C06DDF820C0B445F9
:101A0000BCBFACEB0301891A002942F38081069A1E
:101A1000069B91FBF2F203FB12111B92079111B985
:101A2000511E07931B91DFED0A7ADFED0A6A1B99BD
:101A3000B6EE006A0029DCBF0799002942F36781EE
:101A40000AE000000C040020100400200A0400201A
:101A50000000804700008037C7EE230ADDF818C079
:101A600020EEA21A20EE824A61EEA70AFDEEE00AFD
:101A700010EE902A60EE270A34EE400AFDEEE00AEE
:101A800020EE270A10EE901A71EE610ABDEEC00A30
:101A900060EEA70AFDEEE00A10EE903A93FBFCF729
:101AA00010EE103A93FBFCF61B9B002BD8BFDDF821
:101AB0001CC0109B002B09DD07FB032206FB031152
:101AC00000EB4300ACEB030C002310933A9B13F0A4
:101AD000010F04BF02F5004201F500414FEA22491F
:101AE000ACF1010303FB072803FB06134FEA284B65
:101AF0004FEA214A4FEA2348B9F1000FA4BFBDF9CC
:101B000064304B4513DDBAF1000FA4BFBDF96690F8
:101B1000D1450CDDBBF1000FA8BF5B4507DDB8F177
:101B2000000FA8BFC145C8BF4FF0000801DC4FF04F
:101B30000108DDF8E890B9F10A0F01F0BD840FDC6F
:101B4000B9F10A0F82F0D280DFE819F0170C960A7B
:101B50006E0B43086310631063106310540DE00FA5
:101B6000B9F12D0F14D009DCB9F10B0F01F0C085CC
:101B7000B9F12C0F00F0658302F0B8B8B9F12E0F5F
:101B800000F07B87B9F12F0F00F04C8502F0AEB862
:101B9000379B5B681B78002B00F06281012B04D01F
:101BA000022B00F0618202F0A1B800230493BCF183
:101BB000000F42F39B8013144FEA2149B8F1000F44
:101BC0000ED0002BA4BFBDF964A09A4540F33D811F
:101BD000B9F1000FA4BFBDF966A0CA4540F3358135
:101BE000DDF814A0BDF964B0534409FB0B33DDF8F4
:101BF000DC9093F800A09B44D9F804900AEB4A0AC1
:101C00000AF1040ACA44CDF88CA093F801A09BF80D
:101C100000300AEB4A0A0AF1040A09EB0A0E9BF8A3
:101C200001A003EB43031B1D0AEB4A0A4B440AF1D4
:101C3000040AD144DDF88CA09AF800A0CDF87CA06D
:101C4000DDF88CA00AF1010ACDF88CA09EF800B056
:101C50000EF1010ACDF884A0CDF878B093F800B069
:101C600003F1010ACDF868B0CDF888A019F801BBDE
:101C7000CDF83CB0CDF89890C2F3033BC1F30339E3
:101C80001BFB09FA4FEAEA03CDF890A009EB0B0A17
:101C9000CAF1000A03EB4A0A0AF1200EDDF87CA023
:101CA000CDF838E01EFB0AFEC3EB4B0ADDF878B036
:101CB000CDF834A01BFB0AEAC3EB4909DDF868B094
:101CC000CDF8309019FB0BF9DDF83CB01BFB03930A
:101CD0005344DDF88CA0C3F3471325931AF8019BF6
:101CE000CDF88CA0DDF884A0CDF87C901AF8013BEB
:101CF000CDF884A0DDF888A0DDF898909AF800A0CF
:101D0000CDF82CA0DDF888A00AF1010ACDF888A052
:101D100099F80090CDF87890DDF89890DDF890A0D3
:101D200009F10109CDF89890DDF838E0DDF87C90F4
:101D30004FEAEA0B1EFB09F9DDF834A013FB0A9306
:101D4000DDE90BA919FB0AFADDF8789019FB0BA95C
:101D5000DDF88CA04B44C3F3471B9AF80090DDF8E4
:101D600084A0CDF87C90DDF898909AF80030DDF8EA
:101D700088A09AF800A0CDF878A099F800A0CDF836
:101D800068A0DDF890A04FEAEA09CDF82C90DDF8C4
:101D90007C901EFB09F9DDF834A013FB0A93DDF8F3
:101DA00078A0DDF8309019FB0AFEDDF868A0DDF8B8
:101DB0002C901AFB09E94B44C3F34719FF2C36D08A
:101DC00003884FF0F80A0AEA132E4FF0FC0A0AEAD9
:101DD000D30A0BFB04FB0AFB05BADDF894B0DB0663
:101DE0001B0E09FB04F90BFB04FB0EFB059903FB1F
:101DF00005B31FFA89F91FFA83FB09EB19235B1C52
:101E00001FFA8AFA03F478490AEB1A2303F1010A4C
:101E10004FF4FC6303EA5A1349EA03030BEB1B2953
:101E200009F10109C9F3072943EAD9030CE04FF48A
:101E3000784303EA09294FF4FC6303EACB0349EA38
:101E40000309259B49EAD3030380049B801C5B1C88
:101E50003A44314404936345FFF6ADAE01F046BF0A
:101E600000230C93BCF1000F41F3408713144FEA99
:101E70002149B8F1000F0CD0002BA4BFBDF964A01C
:101E80009A457DDDB9F1000FA4BFBDF966A0CA4532
:101E900076DDDDF814A0BDF964E0534409FB0E3390
:101EA000DDF8DC9093F800B04FF0040AD9F8049004
:101EB0000AEB8B0A59F80AB0CDF868B093F801B074
:101EC00073444FF0040A0AEB8B0A93F800E04FF0DA
:101ED000040B0BEB8E0B59F80AA059F80BE093F8A2
:101EE00001B0042303EB8B0359F80330CDE91EAE98
:101EF000C2F3072AC1F307291AFB09FB4FEA1B2E7D
:101F0000AAEB0E0BCDF83CB0A9EB0E0BCAF5807A0C
:101F1000CDF82CE0AAEB0909CDF838B009EB0E0A90
:101F2000DDF868B0CDF810A00BF0FF1909FB0AF935
:101F3000DDF878A0DDF83CB00AF0FF1A0AFB0B9937
:101F4000DDF87CB00BF0FF1ADDF838B00AFB0BFAB5
:101F500003F0FF1B0BFB0EAACA444FF0FF1909EA5E
:101F60001A29DDF868B0DDF810A00BF47F4B0BFBED
:101F70000AFEDDF878A0DDF83CB00AF47F4A00E004
:101F800067E00AFB0BEADDF87CB003F47F430BF457
:101F90007F4EDDF838B0FF2C0EFB0BFBDDF82CE09C
:101FA00003FB0EB39A444FF47F4303EA1A2349EA32
:101FB00003033FD0C3F3074B03F0FF0AB0F80090D0
:101FC000C3F3072EF823CDF82CA003EA192A0BFB44
:101FD00004FB0AFB05BAFC2303EAD9031FFA8AFBB8
:101FE0000EFB04FA03FB05A3DDF82CA04FEAC96938
:101FF0004FEA19690AFB04FA09FB05A90BEB1B2A36
:102000009BB203EB13231FFA89F903F1010B0AF1C9
:10201000010A4FF4FC6309EB19290AF4784A03EA30
:102020005B1309F101094AEA0303C9F3072943EAEB
:10203000D9030DE04FF4784909EA132A4FF4FC69FB
:1020400009EA53194AEA0909C3F3C40349EA030335
:1020500003800C9B801C5B1C3A4431440C93634509
:10206000FFF604AF01F042BE00230493BCF1000F61
:1020700041F33C860B144FEA2249B8F1000F0CD013
:10208000B9F1000FA4BFBDF964A0CA457DDD002BE6
:10209000A4BFBDF966A09A4577DDDDF814A0BDF9AF
:1020A00064E0D14403FB0E9B379BCDF838B04FF072
:1020B000040AD3F804909BF800300AEB430339F884
:1020C00003300F939BF80130F3440AEB430339F8D4
:1020D00003301A939BF800300AEB430339F803E00E
:1020E0009BF80130C2F3033B0AEB430339F803903A
:1020F0000F9BCDF838E023F4FC6E03F4FC634EEA4A
:10210000034E1A9BCDF83CE023F4FC6E03F4FC6311
:102110004EEA034E0E9BCDF868E023F4FC6E03F408
:10212000FC634EEA034E29F4FC6309F4FC69C1F335
:10213000033A43EA09491BFB0AF3CDF838900AEB4E
:102140000B09DB10CDF878E0C9F1000903EB490970
:10215000DDF83CE009F1200909FB0EF9DDF868E043
:10216000C3EB4B0B0EFB0B9BDDF878E0C3EB4A098E
:1021700009FB0EFADDF8389009FB03A35B445B0909
:102180004FF4FC6A0AEA134900E04FE023F4FC63D1
:1021900049EA03039BB2FF2C47D04FF0F80BB0F88D
:1021A00000900BEA132ECDF868E04FF0FC0E0EEA1B
:1021B000D30EDB061B0E0B93FC230BEA192B03EA51
:1021C000D903CDF83CE04FEAC9694FEA196ECDF862
:1021D00030E0DDF868E00EFB04F90BFB05991FFA0F
:1021E00089FBDDF83CE00BEB1B2B0EFB04F903FB3A
:1021F00005931FFA83F90B9BDDF830E063430EFB78
:1022000005339BB209EB19290BF1010B09F1010907
:1022100003EB13230BF4784B0AEA59195B1C4BEAC6
:102220000909C3F3072349EAD3030380049B801CF5
:102230005B1C3A44314404936345FFF61BAF01F045
:1022400055BD379B5B681B78F3B3012B03D0022B82
:1022500075D001F04BBD00230493BCF1000F41F396
:10226000458500BF0B144FEA2249B8F1000F0CD08E
:10227000B9F1000FA4BFBDF964A0CA4572DD002BFF
:10228000A4BFBDF966A09A456CDDDDF814A0D14469
:10229000BDF964A003FB0A99379BD3F804A099F811
:1022A000003003EB43031B1D5344FF2C48D0B0F810
:1022B00000904FF0F80A4FF0FC0B0AEA192A0BEADB
:1022C000D90B4FEAC96900E057E0CDF834B04FEAC6
:1022D000196BCDF830B093F8029093F801B093F8F1
:1022E00000E009FB04F30AFB05331FFA83F90BFB3B
:1022F00004F3DDF834B00EFB04FA0BFB0533DDF814
:1023000030B09BB20BFB05AA03EB132309EB192991
:1023100003F1010B09F101094FF4FC6309F4784959
:1023200003EA5B131FFA8AFA49EA03030AEB1A2944
:1023300009F10109C9F3072943EAD90311E0A3E030
:1023400093F802A04FF4784909EA0A2A93F801B0F9
:102350004FF4FC6909EACB091B784AEA090949EA02
:10236000D3030380049B801C5B1C3A4431440493D8
:102370006345FFF677AF01F0B9BC4FF0000EBCF13A
:10238000000F41F3B38413144FEA2149B8F1000F51
:102390000CD0002BA4BFBDF964A09A456BDDB9F148
:1023A000000FA4BFBDF966A0CA4564DDDDF814A026
:1023B000FF2C5344BDF964A009FB0A39379B99F8F7
:1023C00000A04FF004095B6809EB8A0953F8093053
:1023D00042D0B0F800904FF0FC0B4FF0F80A0BEA37
:1023E000D90B0AEA192A4FEAC969CDF834B04FEA85
:1023F000196BCDF830B0C3F3074B0BFB04FB0AFBA2
:1024000005BAC3F30729DDF834B009FB04F90BFB67
:102410000599DBB2DDF830B063430BFB05331FFADF
:1024200089F91FFA8AFA09EB19299BB20AEB1A2AD1
:1024300009F1010B0AF1010A4FF4FC6903EB1323C4
:102440000AF4784A09EA5B195B1C4AEA0909C3F3F2
:10245000072349EAD3030DE04FF4784909EA132A28
:102460004FF4FC6909EA53194AEA0909C3F3C403A2
:1024700049EA03030380801C0EF1010E3A44314403
:10248000E64580DB01F032BCFF2C7CD200230493B4
:10249000BCF1000F41F32A840B144FEA2249B8F132
:1024A000000F0CD0B9F1000FA4BFBDF964A0CA455C
:1024B0005EDD002BA4BFBDF966A09A4558DDDDF8AE
:1024C00014A04FF0FC0ED144BDF964A003FB0A93A5
:1024D000DDF8DC901B784FF0040AD9F804900AEB81
:1024E000430399444FF0F80AB9F8009003880AEAC8
:1024F000192B0EEAD90E4FEAC9694FEA1969CDF8CE
:102500002C900AEA13294FF0FC0A0AEAD30ACDF804
:1025100030A00BFB04FA09FB05A91FFA89FBDDF8C3
:1025200030A00EFB04F90AFB05991FFA89FADDF8C1
:102530002C90DB061B0E09FB04F903FB05930BEB48
:102540001B2909F1010909F4784B0AEB1A299BB2FE
:1025500009F1010A4FF4FC6903EB132309EA5A1944
:102560005B1C4BEA0909C3F3072349EAD303038041
:10257000049B801C5B1C3A443144049363458BDB11
:1025800001F0B4BBFFE7BCF1000F41F3AF834FF0A4
:102590000009CDF838C003464FF0040BCDF8109079
:1025A000DDF81090B8F1000F07FB09294FEA294A1E
:1025B000DDF8109006FB09194FEA29490DD0BAF150
:1025C000000FA4BFBDF964E0D64519DDB9F1000FD5
:1025D000A4BFBDF966E0CE4512DDDDF814E0F2449B
:1025E000BDF964E009FB0EA9DDF8DCA099F80090C4
:1025F000DAF804A00BEB49093AF80990A3F8009027
:10260000DDF810909B1C09F10109CDF81090DDF860
:102610003890B9F10109CDF83890C1D100EB4C00E8
:1026200001F064BB379B5B681B78002B41F05E8335
:102630000493BCF1000F41F3598300BF0B144FEA20
:102640002249B8F1000F0ED0B9F1000FA4BFBDF9B7
:1026500064A0CA4540F30682002BA4BFBDF966A062
:102660009A4540F3FF81DDF814A0D144BDF964A080
:10267000CDF838A003FB0A93DDF8DC909E4613F8F2
:1026800001ABD9F804B04FF0040909EB8A0A5BF8F2
:102690000AA0CDF884A01B78DDF838A009EB8303ED
:1026A0005BF803301F930AEB0E0393F800A009EBCD
:1026B0008A0A5BF80AA0CDF888A05B7809EB83034F
:1026C0005BF803A0CDF894A0DDF884A01F9B4FEA2F
:1026D0001A69DDF888A01B0E4FEA1A6EDDF894A087
:1026E00001EE909A4FEA1A6ACDF830A01FFA82FAEA
:1026F00000EE10AA03EE103AF8EE611AB8EE400AA6
:10270000B8EE433A1FFA81FA00EE90AA20EE260AAC
:1027100033EE613ADDF830A0F8EE600A43EE001ABD
:1027200003EE10EA60EEA60AB8EE438A03EE10AAA2
:10273000B8EE433A33EE483A03EE008A38EE613A97
:1027400043EE201A71EE861AFCEEE11A11EE90AA01
:102750001AF0FF0ACDF878A07DD0DDF884A00AF049
:10276000FF1B0AF47F4A0BFB09FB0AFB09FA4FF037
:10277000FF1909EA1B29D94409F1011B4FF0FF1980
:1027800009EA1B2B0AEB1A2909F5807A4FF47F49D5
:1027900009EA1A2A4BEA0A0ACDF884A0DDF87CA0DF
:1027A000DDF87CB00AF0FF1A0BF47F4B0AFB03FA4A
:1027B0000BFB03F34FF0FF1B0BEA1A2BDA440AF171
:1027C000011B03EB13234FF0FF1A03F580730AEA92
:1027D0001B2A09EA13234AEA030B229BCDF87CB09B
:1027E00003F0FF1A03F47F4303FB0EFB0AFB0EFA10
:1027F0004FF0FF1303EA1A23534403F1011A4FF079
:10280000FF1303EA1A230BEB1B2A0AF5807ADDF883
:1028100094B0DDF830E009EA1A2A43EA0A030BF41F
:102820007F4BDDF894A00BFB0EFB0AF0FF1A0AFBAE
:102830000EFA4FF0FF1E0EEA1A2EF2440AF1011EA4
:102840000BEB1B2B4FF0FF1A0BF5807B0AEA1E2ABD
:1028500009EA1B2900E005E14AEA0909DDF884A03C
:102860004FEA1A4ECDF868E0DDF87CB04FEA134A23
:102870004FEA1B4ECDF830E0DDF868E04FEA194B27
:1028800001EE90EADDF830E008EE10BA03EE10EA4F
:10289000F8EE611AB8EE488AB8EE433ADDF87CB03B
:1028A00033EE613A43EE001A03EE10AAB8EE433A53
:1028B00038EE438A08EE003A33EE613A43EE201ACE
:1028C00071EE861AFCEEE11A11EE90AACAF3C40A60
:1028D0004FEACA0ACDF83CA0DDF884A0CAF3072E5F
:1028E000CDF898E0CBF3072ECDF82CE0DDF898E09A
:1028F000C3F3072B01EE90EADDF82CE0C9F3072AB9
:1029000003EE10EAF8EE611A08EE10AAB8EE433AA8
:10291000DBB2B8EE488A09F0FF0933EE613A43EEC4
:10292000001A03EE10BAB8EE433A38EE438A08EEC6
:10293000003A33EE613A43EE201A71EE861AFCEE4D
:10294000E11A11EE90AACAF3850A4FEA8A0ACDF875
:1029500068A0DDF884A0DDF87CB00AF0FF0A0BF077
:10296000FF0B01EE90AA03EE10BAF8EE611AB8EE72
:10297000433A33EE613A43EE001A03EE103AB8EEF2
:10298000433A08EE109AB8EE488A38EE438A08EEC9
:10299000003A33EE610A40EE201A31EE860ABCEEB0
:1029A000C00A10EE103AC3F3C4034FEAC30E1E9BD5
:1029B000FF2B08BFFF2C4CD003884FF0F80A0AEA1F
:1029C000132B4FF0FC0ADDF878900AEAD30ADB06F5
:1029D000CDF838B004FB09F94FEA136B09EB19295C
:1029E00009F10109CDF830B00F9BC9F30729DDF8D3
:1029F00038B0C9F1FF0963431BFB09331FFA83FB9E
:102A00001A9BCDF838B063431AFB0933DDF830B0B8
:102A10009BB20EFB04FA1BFB09A9DDF838B003EBEF
:102A200013230BEB1B2A03F1010B0AF1010A4FF4EC
:102A3000FC630AF4784A03EA5B131FFA89F94AEA4D
:102A4000030A09EB19235B1CC3F307234AEAD303E8
:102A500007E00F9B4FEA03291A9B49EAC30949EA99
:102A6000DE030380049B801C5B1C3A4431440493C6
:102A70006345FFF6E3AD01F039B9379B5B681B781E
:102A8000002B41F033810493BCF1000F41F32E8100
:102A900013144FEA2149B8F1000F0CD0002BA4BF4A
:102AA000BDF964A09A4579DDB9F1000FA4BFBDF965
:102AB00066A0CA4572DDDDF814A05344BDF964A0D8
:102AC00009FB0A33DDF8DC9093F800A00423D9F861
:102AD000049003EB8A0359F803E05FEA1E696DD0A6
:102AE000B9F1FF0F08BFFF2C59D003884FF0F80A47
:102AF0000AEA132ACDF87CA04FF0FC0A0AEAD30AAE
:102B0000DB061B0E1A9304FB09F303EB13235B1C78
:102B1000C3F30723C3F1FF09CDF878A0CDF83090B7
:102B2000CEF30749CEF3072B0EF0FF0A19FB03FE85
:102B3000CDF834A0DDF87CA0DDF830901AFB09E96F
:102B40001FFA89FE1BFB03FBDDF878A0DDF830904F
:102B50001AFB09B9DDF834A01FFA89FB1AFB03FA46
:102B6000DDF830901A9B13FB09A30EEB1E2909F127
:102B7000010909F4784A0BEB1B299BB209F1010BFF
:102B80004FF4FC6903EB132309EA5B195B1C4AEA67
:102B90000909C3F3072349EAD3030EE00EE04FF41B
:102BA000784909EA1E2A4FF4FC6909EA5E134AEAE9
:102BB0000309CEF3C40349EA03030380049B801C8A
:102BC0005B1C3A44314404936345FFF661AF01F066
:102BD0008DB800230493BCF1000F41F3878000BF40
:102BE0004FEA224A4FEA214BB8F1000F0FD0BAF159
:102BF000000FA4BFBDF96430534540F33282BBF1EE
:102C0000000FA4BFBDF966305B4540F32A82379BB5
:102C1000D3F80490BDF964300BFB0399D14499F8C3
:102C200000E0CDF888E099F801E0CDF884E019F8EB
:102C300003E009F10109CDF87CE013F80990DDF813
:102C400088E0CDF89CE0CDF89090DDF884E0CDF8F8
:102C500030E0DDF87CE0CDF898E0DDF89CE01FFA8C
:102C600082F901EE90EADDF830E000EE109A03EE12
:102C700010EAF8EE611AB8EE400AB8EE433A1FFACD
:102C800081F900EE909A20EE260A33EE613ADDF8E3
:102C900098E0DDF89090F8EE600A43EE001A03EE3B
:102CA00010EA08EE109A60EEA60AB8EE433AB8EEC3
:102CB000488A38EE438A08EE003A33EE613A43EE32
:102CC000201A71EE861AFCEEE11A11EE909A19F0B4
:102CD000FF09CDF8689000F0C481DDF8489009EB59
:102CE0004A0903FB0BFA09EB4A0E3EF813B0BEF893
:102CF00000A0BEF802900EEB4303CDF838B04FF0C1
:102D0000F80B0BEA1A2EDDF888B05B880EFB0BFE81
:102D10004FF0F80BCDF82CE00BEA192EDDF884B05B
:102D20000EFB0BFECDF83CE0DDF838B04FF0F80EAE
:102D30000EEA1B2EDDF87CB00EFB0BFE4FF0F80BFD
:102D4000CDF834E00BEA132EDDF890B00EFB0BFB50
:102D5000DDF82CE00BEB1B2B0EEB1E2E0EF1010E03
:102D6000CEF3072ECDF82CE0DDF83CE00BF1010BA3
:102D70000EEB1E2E0EF1010ECEF3072ECDF8A0E0C5
:102D8000DDF834E0CBF3072B0EEB1E2E0EF1010E17
:102D9000CEF3072ECDF83CE0DDF82CE008EE10BABB
:102DA00001EE90EADDF8A0E0B8EE488A03EE10EA02
:102DB000F8EE611ADDF83CE0B8EE433A33EE613AE2
:102DC00043EE001A03EE10EAB8EE433A38EE438AB7
:102DD00008EE003A33EE613A43EE201A71EE861A9D
:102DE000FCEEE11A11EE90BACBF3C40B4FEACB0B19
:102DF000CDF83CB04FF0FC0B0BEADA0EDDF888B0F2
:102E00000EFB0BFE4FF0FC0BCDF830E00BEAD90EB9
:102E1000DDF884B04FEACA6A0EFB0BFECDF8A0E0E5
:102E2000DDF838B04FF0FC0E0EEADB0EDDF87CB0BA
:102E30004FEAC9690EFB0BFE4FF0FC0BCDF834E0F6
:102E40000BEAD30EDDF890B0DB060EFB0BFBDDF8D2
:102E500030E00BEB1B2B0EEB1E2E0EF1010ECEF312
:102E6000072ECDF830E0DDF8A0E00BF1010B0EEB02
:102E70001E2E0EF1010ECEF3072ECDF8A4E0DDF8E4
:102E800034E0CBF3072B0EEB1E2E0EF1010ECEF32A
:102E9000072ECDF8A0E0DDF830E008EE10BA01EE24
:102EA00090EADDF8A4E0B8EE488A03EE10EAF8EE06
:102EB000611ADDF8A0E0B8EE433A33EE613A43EE32
:102EC000001A03EE10EAB8EE433A38EE438A08EEF1
:102ED000003A33EE613A43EE201A71EE861AFCEEA8
:102EE000E11A11EE90BACBF3850B4FEA8B0BCDF8BC
:102EF000A0B04FEA1A6BDDF888A00BFB0AFACDF8F8
:102F00002CA04FEA196ADDF88490DDF838B00AFB8E
:102F100009F9CDF830904FEACB694FEA196ADDF82C
:102F20007C900AFB09FE4FEA1369249BDDF82CA074
:102F300009FB03F30AEB1A2909F10109C9F3072B6D
:102F4000DDF8309001EE90BA09EB192909F1010979
:102F5000C9F3072A03EE10AAF8EE611A0EEB1E2938
:102F6000B8EE433A03EB132309F101095B1C33EE7E
:102F7000613AC9F30729C3F3072308EE103A43EE79
:102F8000001A03EE109AB8EE488AB8EE433A38EECB
:102F9000438A08EE003A33EE610A40EE201A31EE21
:102FA000860ABCEEC00A10EE103AC3F3C4034FEA1F
:102FB000C30E1A9BFF2B08BFFF2C49D003884FF08C
:102FC000FC0A0AEAD30B4FF0F80909EA1329DB06D9
:102FD0004FEA136A1A9BCDF834B0634303EB132313
:102FE0005B1CDDF83CB0C3F30723C3F1FF030BFB0D
:102FF00004FB19FB03B91FFA89FBCDF838B0DDF8E3
:10300000A090DDF834B009FB04F91BFB03991FFA0B
:1030100089F90EFB04FB1AFB03B3DDF838B009EBAA
:1030200019290BEB1B2A9BB209F1010B0AF1010ACA
:103030004FF4FC6903EB13230AF4784A09EA5B199D
:103040005B1C4AEA0909C3F3072349EAD30307E0F3
:103050000F9B4FEA0329289B49EAC30949EADE038B
:103060000380049B801C5B1C3A44314404936345F9
:10307000FFF6B6AD00F03ABE00230C93BCF1000F92
:1030800040F3348613144FEA2149B8F1000F0CD0F5
:10309000002BA4BFBDF964A09A457DDDB9F1000FF6
:1030A000A4BFBDF966A0CA4576DDDDF848A0BDF92C
:1030B00064E00AEB43030EFB09F903EB4909B9F895
:1030C0000030B9F802B039F81EA009EB4E09C1F37F
:1030D000033EB9F80290CDF838A023F4FC6A03F45B
:1030E000FC634AEA034ACDF83CA02BF4FC6A0BF4DB
:1030F000FC634AEA034BDDF838A0CDF82C902AF4A3
:10310000FC630AF4FC6A43EA0A4ACDF868B0CDF8D9
:1031100078A0DDF82CA0C2F303392AF4FC630AF48A
:10312000FC6A43EA0A4A19FB0EF3CDF838A00EEB0D
:10313000090ADB10CAF1000A03EB4A0A0AF1200B64
:10314000DDF83CA0C3EB49090BFB0AFADDF868B0D7
:103150000BFB09A9DDF878A0C3EB4E0B0BFB0AFBB8
:10316000DDF838A00AFB03B34B445B094FF4FC695C
:1031700009EA134923F4FC6349EA03039BB2FF2CD9
:1031800046D0B0F800904FF0F80E4FF0FC0B0EEA6E
:10319000192A0BEAD90B00E03BE04FEAC9694FEA74
:1031A0001969CDE90D9B4FF0FC0B0EEA13290BEAD0
:1031B000D30BDB064FEA136E09FB04F30AFB05335E
:1031C0001FFA83FA0BFB04F3DDF838B0DDF8349016
:1031D0000BFB05331FFA83FB0EFB04F309FB0533DE
:1031E0000AEB1A2909F1010909F4784E0BEB1B29A6
:1031F0009BB209F1010A4FF4FC6903EB132309EABE
:103200005A195B1C4EEA0909C3F3072349EAD303A1
:1032100003800C9B801C5B1C3A4431440C93634537
:10322000FFF630AF00F062BD4FF0000EBCF1000FB2
:1032300040F35C8513144FEA2149B8F1000F0CD01C
:10324000002BA4BFBDF964A09A457CDDB9F1000F45
:10325000A4BFBDF966A0CA4575DDDDF8DCA0BDF9E7
:1032600064B0DAF804A009FB0BAA13F80AA0CDF8A1
:1032700038A0BAF1000F76D0DDF848A00BFB09F9B1
:103280000AEB430333F81930DDF8389004FB09F9F1
:1032900009EB192909F10109C9F30729CDF834907F
:1032A000B9F1FF0F5ED2B0F800904FF0FC0B0BEAC3
:1032B000D90B4FF0F80ACDF87CB00AEA192A4FEA88
:1032C000C9694FEA1969CDF868904FF0FC0B4FF0CF
:1032D000F8090BEAD30B09EA1329DB06CDF838B05D
:1032E0004FEA136BCDF82CB00D9BDDF834B0C3F171
:1032F000FF0309FB0BF90AFB03991FFA89F9CDF8C3
:103300003C90DDE90D9B0BFB09F9DDF87CB00BFB74
:1033100003991FFA89FADDF82CB0DDF834900BFB25
:1033200009FBDDF8689009FB03B3DDF83C901FFA58
:1033300083FB09EB19235B1C03F478490AEB1A237E
:1033400003F1010A00E00EE04FF4FC6303EA5A13B4
:1033500049EA03030BEB1B2909F10109C9F307290A
:1033600043EAD9030380801C0EF1010E3A44314434
:10337000E645FFF65FAF00F0B9BCFF2C6BD200232F
:103380000C93BCF1000F40F3B18413144FEA2149B0
:10339000B8F1000F0CD0002BA4BFBDF964A09A4572
:1033A0004FDDB9F1000FA4BFBDF966A0CA4548DDE5
:1033B000DDF848A00AEB430ABDF9643003FB09F3CA
:1033C000B0F800903AF813304FF0F80A0AEA132BDD
:1033D0004FF0FC0A0AEAD30EDB061B0E1A93F82301
:1033E00003EA19230BFB04FB03FB05B30AEAD90A22
:1033F0001FFA83FB0EFB04F30AFB05331FFA83FA63
:103400001A9B4FEAC9694FEA1969634309FB0533FF
:103410000BEB1B2909F1010909F4784B0AEB1A2976
:103420009BB209F1010A4FF4FC6903EB132309EA8B
:103430005A195B1C4BEA0909C3F3072349EAD30372
:1034400003800C9B801C5B1C3A4431440C93634505
:103450009BDB00F04BBCBCF1000FC8BF002340F366
:10346000458400BF07FB03294FEA294A06FB0319DD
:103470004FEA2949B8F1000F0DD0BAF1000FA4BFEF
:10348000BDF964B0D34510DDB9F1000FA4BFBDF99B
:1034900066B0CB4509DDBDF964B009FB0BAADDF8C8
:1034A000489039F81A90A0F80090801C5B1CBCF181
:1034B000010CD7D100F01ABC00230493BCF1000F1B
:1034C00040F314840B144FEA2249B8F1000F0CD0DA
:1034D000B9F1000FA4BFBDF964A0CA457FDD002B80
:1034E000A4BFBDF966A09A4579DDDDF848A00AEBD6
:1034F000890ABDF9649009FB03F35AF823E05FEAF7
:103500001E696CD0B9F1FF0F08BFFF2C58D003889B
:103510004FF0F80A0AEA132ACDF87CA04FF0FC0A13
:103520000AEAD30ADB061B0E0B9304FB09F303EB39
:1035300013235B1CC3F30723C3F1FF09CDF878A065
:10354000CDF83090CEF3074ACEF3072B0EF0FF09EB
:103550001AFB03FECDF83C90DDF87CA0DDF830903E
:103560001AFB09E91FFA89FE1BFB03FBDDF878A0B3
:10357000DDF830901AFB09B91FFA89FADDF83C90A2
:1035800019FB03FBDDE90B3913FB09B30EEB1E2915
:1035900009F1010909F4784B0AEB1A299BB209F1E8
:1035A000010A4FF4FC6903EB132309EA5A195B1C67
:1035B0004BEA0909C3F3072349EAD3030EE00EE0FF
:1035C0004FF4784909EA1E2A4FF4FC6909EA5E13B0
:1035D0004AEA0309CEF3C40349EA03030380049BC8
:1035E000801C5B1C3A44314404936345FFF66AAF88
:1035F00000F07CBB00230493BCF1000F40F3768302
:103600000B144FEA2249B8F1000F0CD0B9F1000FAA
:10361000A4BFBDF964A0CA4560DD002BA4BFBDF9FD
:1036200066A09A455ADDDDF848A0FF2C0AEB890A0E
:10363000BDF9649009FB03F35AF823E03FD00388F7
:103640004FF0F80909EA132A4FF0FC0909EAD30BF5
:10365000DB064FEA1369CEF307436343CDE90C9BC6
:103660000AFB0533CEF3072B0BFB04FADDF834B06D
:103670000EF0FF090BFB05AA09FB04FB9BB2DDF86A
:10368000309003EB132309FB05B95B1C1FFA8AFA80
:1036900003F4784E1FFA89FB0AEB1A2303F10109A0
:1036A0004FF4FC6303EA59130BEB1B2909F10109E1
:1036B0004EEA0303C9F3072943EAD9030DE04FF4A7
:1036C00078434FF4FC6A03EA1E230AEA5E1943EAD0
:1036D0000909CEF3C40349EA03030380049B801C59
:1036E0005B1C3A4431440493634589DB00F0FEBA25
:1036F00000230493BCF1000F40F3F8820B144FEA4F
:103700002249B8F1000F0CD0B9F1000FA4BFBDF9E8
:1037100064A0CA457DDD002BA4BFBDF966A09A4513
:1037200077DDDDF848A00AEB890ABDF9649009FB52
:1037300003F30AEB8303D3F800A0CDF894A0D3F8E9
:1037400004A0CDF890A053F829B003EB8903DDF86D
:1037500094A05B684FEA1A69DDF890A001EE909A98
:103760004FEA1A6ACDF834A01FFA82FA00EE10AAC6
:103770001FFA81FA00EE90AADDF834A0B8EE400AF4
:1037800003EE10AAF8EE611A4FEA1B6EB8EE433A48
:1037900020EE260A23931B0E33EE613AF8EE600A00
:1037A000CDF82CE043EE001A03EE10EA60EEA60A14
:1037B000B8EE438A03EE103AB8EE433A33EE483A95
:1037C00003EE008A38EE613A43EE201A71EE861A53
:1037D000FCEEE11A11EE90AA1AF0FF0ACDF878A0DB
:1037E00017D0DDF894A0DDF894E00AF0FF1A0EF48B
:1037F0007F4E0AFB09FA0EFB09FE4FF0FF1909EA9A
:103800001A29D14409F1011A4FF0FF1909EA1A2ABD
:1038100000E071E10EEB1E2909F5807E4FF47F492F
:1038200009EA1E294AEA0909CDF89490DDF890A02A
:10383000DDF834E0DDF890900AF47F4A09F0FF19D2
:103840000AFB0EFA09FB0EF94FF0FF1E0EEA192EC5
:10385000F14409F1011E4FF0FF1909EA1E290AEB94
:103860001A2A0AF5807E4FF47F4A0AEA1E2A49EA9C
:103870000A09CDF890900BF0FF190BF47F4ADDF8A0
:103880002CB009FB0BF90AFB0BFA4FF0FF1B0BEAFC
:10389000192BD94409F1011B4FF0FF1909EA1B2B21
:1038A0000AEB1A2909F5807A4FF47F4909EA1A29A7
:1038B0004BEA090ADDF88C90DDF88CB009F0FF19AD
:1038C0000BF47F4B09FB03F90BFB03F34FF0FF1BDA
:1038D0000BEA192BD94409F1011B4FF0FF1909EA32
:1038E0001B2903EB132303F5807B4FF47F4303EA8B
:1038F0001B2349EA0303DDF894904FEA1A4E4FEA7E
:10390000194BDDF8909001EE90BA4FEA194903EE99
:10391000109AF8EE611ACDF83CE0B8EE433A4FEA5F
:10392000134ECDF838E0DDF83CE033EE613A43EE7B
:10393000001A03EE10EAB8EE433ADDF838E008EE7C
:1039400010EACAF3072E0AF0FF0AB8EE488A38EEEA
:10395000438A08EE003A33EE613A43EE201A71EEE4
:10396000861AFCEEE11A11EE909AC9F3C4094FEAE7
:10397000C909CDF83C90DDF89490C9F3072BDDF828
:10398000909001EE90BAC9F3072903EE109AF8EE71
:10399000611ACDF868E0B8EE433AC3F3072ECDF8CC
:1039A00038E0DDF868E033EE613ADBB243EE001A4E
:1039B00003EE10EADDF838E008EE10EAB8EE433A1C
:1039C000B8EE488A38EE438A08EE003A08EE103A1C
:1039D000B8EE488A33EE613A43EE201A71EE861A49
:1039E000FCEEE11A11EE909AC9F385094FEA8909B4
:1039F000CDF86890DDF8949009F0FF0BDDF8909019
:103A000001EE90BA09F0FF0903EE109AF8EE611A80
:103A1000B8EE433A33EE613A43EE001A03EE10AAD1
:103A2000B8EE433A38EE438A08EE003A33EE610AC4
:103A300040EE201A31EE860ABCEEC00A10EE103AB3
:103A4000C3F3C4034FEAC3091E9BFF2B08BFFF2C1F
:103A500049D003884FF0F80A0AEA132B4FF0FC0A0A
:103A60000AEAD30ADB064FEA136E1E9BCDF82CE060
:103A7000634303EB13235B1CDDF83CE0C3F3072334
:103A8000C3F1FF030EFB04FE1BFB03EB1FFA8BFBD2
:103A9000CDF838B0DDF868B00BFB04FB1AFB03BAB5
:103AA000DDF82CE01FFA8AFA09FB04F91EFB0393E8
:103AB000DDF838B01FFA83FE0BEB1B235B1C03F40D
:103AC00078490AEB1A2303F1010A4FF4FC6303EA75
:103AD0005A1349EA03090EEB1E235B1CC3F30723A9
:103AE00049EAD30307E00F9B4FEA032A1A9B4AEAED
:103AF000C30343EAD9030380049B801C5B1C3A4444
:103B0000314404936345FFF6F9ADEFE000230493DD
:103B1000BCF1000F7DDD00BF0B144FEA2249B8F164
:103B2000000F0CD0B9F1000FA4BFBDF964A0CA45C5
:103B300070DD002BA4BFBDF966A09A456ADDDDF8F3
:103B400048A0BDF964B00AEB89090BFB03F309EB4C
:103B50008303D3F800A0CDF83CA053F82BE0D3F8B2
:103B6000049003EB8B03C2F3072B5B68CDE91EE9DE
:103B7000CDF884A0C1F307291BFB09FA4FEA1A2EDE
:103B8000ABEB0E0ACDF83CA0A9EB0E0ACDF838A09D
:103B9000CBF5807AAAEB0909F144CDE90B9EDDF85B
:103BA00084A00AF0FF1A0AFB09FBDDF87C90DDF81F
:103BB0003CA009F0FF1909FB0AB9DDF878A00AF06A
:103BC000FF1BDDF838A00BFB0AFA03F0FF1B0BFB11
:103BD0000EAACA444FF0FF1909EA1A2BDDF884A097
:103BE000DDF82C900AF47F4A0AFB09FEDDF87C9090
:103BF000DDF83CA009F47F4909FB0AE9DDF878A06B
:103C000003F47F430AF47F4EDDF838A00EFB0AFA76
:103C100001E06BE061E0DDF830E0FF2C03FB0EA378
:103C20004B444FF47F4909EA13234BEA030345D081
:103C3000B0F800904FF0FC0B4FF0F80A0BEAD90BEC
:103C40000AEA192A4FEAC969CDF834B04FEA196B6C
:103C5000CDF830B0C3F3074BC3F30729DBB20F93A2
:103C60000BFB04F30AFB05331FFA83FEDDF834B0C7
:103C700009FB04F30BFB05331FFA83F90F9BDDF8F7
:103C800030B063430BFB05331FFA83FA0EEB1E23A0
:103C90005B1C03F4784B09EB192303F101094FF482
:103CA000FC6303EA59130AEB1A2909F101094BEAEB
:103CB0000303C9F3072943EAD9030DE04FF4784918
:103CC00009EA132A4FF4FC6909EA53194AEA090977
:103CD000C3F3C40349EA03030380049B801C5B1CF9
:103CE0003A44314404936345FFF616AF73EEA53AA8
:103CF00072EE852A32EE242A1B99F0EE411AB0EEBC
:103D0000440A0029C4BF491E1B913DF793AE2BB056
:103D1000BDEC028BBDE8F08F10B55FEA000C4FF6EA
:103D2000FF70FE4A128800EA42004FEA5000C0F1DC
:103D300000030BD001290FD0022903D0032911D091
:103D4000B2B113E0002A18BF10BD11E0012905D05F
:103D5000022907D0032908D0012010BD002A18BF6E
:103D600010BD05E04FF0FF3010BD0AB1184610BD80
:103D700011F048F9E94A10B55FEA000C12884FF6D5
:103D8000FF7000EA42004FEA5000C0F100030CD07F
:103D9000012904D0022910D0032904D015E0002AFB
:103DA00018BF10BD0FE062B90DE0012905D002294E
:103DB00006D0032909D032B110BD4FF0FF3010BD3D
:103DC0000AB1184610BD11F01DF9012010BD2DE9F2
:103DD000FF4F8FB0DDE92021DDF89C90B2F90000A3
:103DE00093881C9E03441BB204935388D288DDE958
:103DF00024A41A4412B20392DDE91E754A7BDDF851
:103E00008CB012F0080318BF4FF4807391F806C00D
:103E100012F0100243EA0C0818BF4FF48072CB79FD
:103E20001A430192B8F1000F12BF002A13B0BDE887
:103E3000F08F002F91F9091004BF31440EB207D062
:103E4000791A8FB239B2002902DAF11B0EB20027BB
:103E5000B04203DD811B39448FB20646B04800787A
:103E6000012818BF00204B460290314611A81D9A28
:103E700007F086FBADF818004B46314611A81D9A95
:103E800007F096FBADF81C0007A906A80DF008F88E
:103E90000298CDF800A059EA000005D0B9F1010F51
:103EA0004FD1029800284CD0DFF878A2DAF8000051
:103EB0000168896B884710F0800F06D0042C04D16C
:103EC000BBF1000F18BF012100D1002110F4807F49
:103ED00003D0082C08BF012000D00020084330D0B8
:103EE00000290CBF4FF48070802057EA050128D1CB
:103EF000049906EB08028A4223DC019A1D990A44C0
:103F0000039991421DDB082C1CBF08F1010121F02F
:103F100001082699CDE904100098CDF80080CDE97C
:103F20000280BDF81C0083B2BDF8180082B2DAF836
:103F300000000168D1F84CC02299E04713B0BDE8F9
:103F4000F08F109820B9774800680168096A88479F
:103F50007249BDF91820BDF91C30098803FB012204
:103F600000EB420C0120A040401E00F0FF0A012C93
:103F700008BFFF2007D0022C08BF552003D0042C17
:103F80000CBF112001200022C6460B90042C04D146
:103F9000BBF1000F18BF012000D1002010EA080F6C
:103FA00018BF0EF1010E229857EA05030BD00EFB45
:103FB0000572624393B203F0070200EBD300019B4A
:103FC0005B1B9BB20193029D4FF6FF73002D4D4684
:103FD0000AD0012D1FD0022D04D0B9F1030F12D049
:103FE00049B314E059B940E0012D07D0022D0AD0A1
:103FF000B9F1030F18BF012508D00CE0D9B103EACD
:1040000041056D0807E04FF0FF3504E099B103EA80
:1040100041056D086D42DDF808B0BBF1000F0DD011
:10402000B9F1010F06D0B9F1020F15D0B9F1030FA4
:1040300002D01CE061B918E091B916E0B9F1010FA6
:104040000AD0B9F1020F0AD0B9F1030F0FD061B154
:1040500003EA41014B080BE04FF0FF3308E021B1C8
:1040600003EA410149084B4202E010F0CBFF012373
:10407000DDF874900399A1EB090901998945C8BF3E
:104080008946F61B0499891B4145D8BF8846A8EB91
:1040900007010291AEEB0101614303910178CDF874
:1040A0000490D140B9F1000F7EDD009E009FC6F361
:1040B000C426F6000E96009EC6F34516B6000D9671
:1040C000F82606EAC7060C96029E05FB16330A93ED
:1040D000029B002B75DD00BF11EA0A0661D00B9F21
:1040E0007743009EFF2FB6B204DBDDF89880B8F16D
:1040F000FF0F54D2269E4FF0F80E7E43B6B20E9FAD
:1041000006EB16260997761CBCF80070C6F3072646
:10411000C6F1FF080EEA172E06E000000A04002090
:104120000004002010040020DDE90C9BCDF820E005
:104130004FF0FC0E0EEAD70EFF06CDF814E04FEA62
:10414000176ECDF810E0099FDDF820E077431EFBE5
:104150000877DDF814E0BFB20BFB06FB1EFB08BBC3
:10416000DDF810E01FFA8BFB09FB06F61EFB086664
:1041700007EB17277F1C07F478480BEB1B27B6B219
:1041800007F101094FF4FC6706EB162607EA5917F9
:10419000761C48EA0707C6F3072647EAD606ACF8B6
:1041A0000060224492B201E01EE00AE0E140082AE9
:1041B00002D310F8011F00225B1E0CEB450C002BF4
:1041C0008ADC039B3BB1D11889B200EBD10001F02E
:1041D00007020178D1400A9B0CEB430C019B5B1E4C
:1041E0000193002B3FF774AF109800281CBF13B049
:1041F000BDE8F08F034800680168496A884713B03A
:10420000BDE8F08F1004002010B400248480C48026
:10421000048144818481C481048244824461846134
:10422000C46180F82440012280F82520294A846254
:10423000026080F82C4080F82D4080F82E4010BCA1
:10424000704730B4DFF890C0ACFB014C4FEA1C1C47
:10425000ACEB8C0C01EBCC0180F82C101F49A1FBBE
:10426000024C4FEA5C1CACEB0C1C02EB8C0280F89D
:104270002D20A1FB03214909A1EB011103EB8101D1
:1042800080F82E100168D1F8901030BC084730B487
:10429000114CDDF808C0A4FB0154E408A4EB84042D
:1042A00001EB8401BCF1000F14BF4FF0000C4FF084
:1042B0000C0C6144D0F800C0C9B2DCF888C030BC36
:1042C000604790F82C00704790F82D00704790F8E8
:1042D0002E00704794210208ABAAAAAA8988888870
:1042E0000749016000218180C180FF210172704770
:1042F000704718F026BC8180C280704701727047F9
:104300005824020870B52DED028B82B0FFF77CFFB8
:104310000446FE4820604FF6FF72ADF800200026EC
:10432000A686E68626876687A687E68704F130009C
:10433000A4F84060A4F8426046618661C66180F8D6
:104340002460012280F82520F14A02604FF6FF73B5
:10435000C384FF226946354680F8282006F0A8FC71
:1043600004F15C0000F03AFBEC3000F037FBEC307D
:1043700000F034FBA0F50D74E648C4F82003A4F85F
:104380002453A4F82653A4F8285384F82A5384F815
:104390002B5384F82C5384F82D5384F82E5304F1B6
:1043A0003001204603F020FB04F15C009FEDDA8A27
:1043B000E16DD4ED250AB0EE481A096F94ED240A98
:1043C0008847D4F8481104F5A470B0EE481A096F74
:1043D000D4ED600A94ED5F0A8847D4F8341204F5EE
:1043E0000D70B0EE481A096FD4ED9B0A94ED9A0A4D
:1043F000884784F8815084F86D5184F8595202B08E
:104400002046BDEC028B70BD10B5C049016000F5BF
:104410000D7000F0FAFAEC3800F0F7FAEC3800F022
:10442000F4FA5C3810BD10B5B849016000F50D70A4
:1044300000F0EBFAEC3800F0E8FAEC3800F0E5FABE
:10444000BDE810405C3818F07CBB70B582B0054602
:104450000C4601A8ADF8041001F040FB4608684680
:10446000ADF8004001F017FB4208286833462146AA
:10447000D0F898C02846E04702B070BDF8B50446B1
:10448000ADF800101D4616466946303006F010FCA7
:10449000A4F82663A4F8285322682046B4F93810FB
:1044A000926B904722682046B4F93A10D26B90473D
:1044B000F8BDA0F82613A0F82823704738B5144695
:1044C000009302682346D2F8CCC00A4600F15C0192
:1044D000E04738BD38B51446009302682346D2F849
:1044E000CCC00A4600F5A471E04738BD38B5144683
:1044F000009302682346D2F8CCC00A4600F50D713D
:10450000E04738BD70B5044680F82D13FFF7DFFE95
:1045100005462046FFF7D8FE06462046FFF7D1FEA7
:10452000226801462B46D2F888C032462046BDE8B4
:104530007040604790F82D03704770B5044680F8CE
:104540002E13FFF7C4FE05462046FFF7BDFE0646C4
:104550002046FFF7B6FE226801462B46D2F888C0F7
:1045600032462046BDE87040604790F82E03704701
:10457000A0F82413C0F82023704770B50446FF202C
:1045800084F82A0384F82B0384F82C03B4F824530A
:104590000120A4F824032068D0F888C02046E04712
:1045A000A4F8245370BD30B45C4CDDF808C0A4FB03
:1045B0000154E408A4EB840401EB8401BCF1000F76
:1045C00014BF4FF0000C4FF00C0C6144D0F800C049
:1045D000C9B2DCF8C4C030BC604710B504462DED4C
:1045E000028B82B090F82A039FED4D8A78B194F83F
:1045F0002C0060B994ED260AE16D04F15C0030EE08
:10460000481A096FD4ED250A94ED240A884794F8D6
:104610002B0380B194F82D0068B994ED610AD4F8A9
:10462000481104F5A47030EE481A096FD4ED600A01
:1046300094ED5F0A884794F82C0380B194F82E001B
:1046400068B994ED9C0AD4F8341204F50D7030EE7C
:10465000481A096FD4ED9B0A94ED9A0A884794F89A
:10466000810000283FD094F82C2094F82A0382423D
:1046700008D194F82D03B0B394F82D0094F82B13BF
:10468000884230D094F82D03002814BF94F82D30C0
:10469000002320680C21D0F8D0C02046E0472068D5
:1046A000B0EE408AD0F8D4102046884728B104F1F3
:1046B0005C0000F0B9F900287DD02068D0F8D41053
:1046C0002046884700281CBF04F15C0000F0E1F997
:1046D00004F15C00E16DB0EE481AD4ED250A096FD3
:1046E00094ED240A884794F86D0100284FD094F87F
:1046F0002D2094F82B03824215D194F82E03E8B3B1
:1047000094F82E0094F82C1388420BE0101F020836
:10471000142B02083195000800000000ABAAAAAAD9
:10472000DB0FC94033D094F82E03002814BF94F84F
:104730002E30002320683C21D0F8D0C02046E0472E
:104740002068B0EE408AD0F8D4102046884728B1BF
:1047500004F5A47000F068F9002872D02068D0F841
:10476000D4102046884700281CBF04F5A47000F030
:1047700090F904F5A470B0EE481A00E007E0D4F810
:104780004811D4ED600A94ED5F0A096F884794F8E8
:10479000590290B394F82E2094F82C0382422CD026
:1047A000206800233C21D0F8D0C02046E047B0EE7E
:1047B000408A206800E030E0D0F8D41020468847D6
:1047C00020B104F50D7000F02FF9C0B32068D0F8C7
:1047D000D4102046884700281CBF04F50D7000F057
:1047E00058F904F50D70D4F83412B0EE481AD4ED2F
:1047F0009B0A096F94ED9A0A884794F82C0084F874
:104800002A0394F82D0084F82B0394F82E0084F8E2
:104810002C0302B0BDEC028B10BDD4F82003009035
:10482000B4F824230023B0EE480A022104F15C000E
:1048300000F0FDF804F15C0000F00DF953E712E020
:10484000FFE7D4F820030090B4F824230023B0EE4F
:10485000480A022104F5A47000F0E9F804F5A470F8
:1048600000F0F9F893E7D4F820030090B4F824237B
:104870000023B0EE480A022104F50D7000F0D7F8CD
:1048800004F50D7000F0E7F8B7E72DE9F0410546B3
:104890002DED028B82B0006816461F46826E0C46D4
:1048A000DDF8288028469047ADF800602268204651
:1048B0006946526E904722682046B5F90810926BFF
:1048C000904722682046B5F90A10D26B90472068BD
:1048D00000221146436B20469847B5F92803A0EB08
:1048E0000802B5F92603C11B2068D0F8C030204665
:1048F000984720689FED360AD0F8B41020468847C4
:104900002068D0F8B81020468847B5F92803B0EEE3
:10491000401A00EE100AB5F92603F8EEC00A00EEC0
:10492000100A2068B8EEC00AD0F8941020468847D4
:104930002068D0F8A010204688472068B0EE408A52
:10494000D0F89C10204688472068F0EE480AD0F83E
:10495000A8102046884720680121826E2046904793
:1049600028682146426E28469047012084F8250099
:1049700002B0BDEC028BBDE8F08100EE102AB8EE6B
:10498000401A00EE101AB8EE400AC1EE000A00EE1E
:10499000101A9FED101AB8EE400A20EE011A00EE30
:1049A000103AB8EE400AC0EE011A30EEA10AF0EE5D
:1049B000000A20EE200ADFED080A20EE200A7047E8
:1049C000B0F8240301288CBF0120002070470000AC
:1049D0000000964300007042DB0F494010B509F01B
:1049E000ADFD994901600021C0F8E010C0F8E41065
:1049F000A0F8E81080F8EA1080F8901080F8A41071
:104A000080F8B81080F8CC1010BD09F0EEBD10B5DC
:104A100009F0EBFDBDE8104018F093B8C0F8E010C5
:104A20007047C0F8E410704790F8EA00704710B47F
:104A300001EB810100EB81000124DDF804C080F866
:104A4000904080ED260AA0F89E20A0F89C30C0F887
:104A5000A0C010BC704710B5044600F0F9F821461C
:104A600000F0B2FE0020A4F8E80094ED0D0A012049
:104A700084ED250A94ED0E0A84ED2A0A94ED0F0ABE
:104A800084ED2F0A94ED100A84ED340A84F8EA00CC
:104A900010BD10B5044600F0DBF8214600F0D4FE4E
:104AA000002084F8EA0084F8900084F8A40084F8D8
:104AB000B80084F8CC0010BDB0F8E80070472DE9CC
:104AC000F04104462DED068B90F8EA00002804BF63
:104AD000BDEC068BBDE8F081002635469FED5B8A74
:104AE00004F13400D0EC048A05EB850004EB80006F
:104AF00090F89010002960D0B4F8E820B0F89C102D
:104B00008A4202D2002E08BF01268A4255D3B0F84D
:104B10009E3001EB030C94454FD3D0ED260A90ED67
:104B2000250A0226511AF4EEC00AF1EE10FA0ADD47
:104B300030EEC00A012720EE080ABDEEC00A10EED2
:104B4000102A12B20AE030EE600A4FF0FF3720EE72
:104B5000080ABDEEC00A10EE102A12B21FFA81F840
:104B6000D0F8A0C000214046E04700EE100A15F042
:104B7000FF00B8EEC00AC0EE080A00EE107AB8EEE8
:104B8000C00A20EE800A04BFD4ED250A70EE808AA8
:104B900013D0012804BFD4ED2A0A30EE809A0CD03D
:104BA000022804BFD4ED2F0A70EE809A05D00328A6
:104BB00004BFD4ED340A30EE80AA6D1C042D93DBC3
:104BC000022E19D0012E35D02068D0F808112046C9
:104BD0008847D4F8E400002831D00168C9688847C4
:104BE00000282CD0D4F8E40001688A682146BDEC86
:104BF000068BBDE8F04110472068B0EE691AF0EE70
:104C0000490A016FB0EE680A204688472068B0EE76
:104C10004A0AD0F88C1020468847D4F8E00048B102
:104C20000168C968884728B1D4F8E00001688A683B
:104C300021469047B4F8E800401CA4F8E800BDEC19
:104C4000068BBDE8F08100004826020800007A4487
:104C5000FE48C068704770B50C00054613D0FB4E87
:104C60000020A5F88400706810B101684969884780
:104C7000746021682046C96888472868816A284688
:104C8000BDE87040084710F0BDF9F14900B50A8849
:104C9000F04983B04FF0000C0988ADF800C0ADF8C2
:104CA0000420ADF802C0ADF806100168CA6A694672
:104CB000904703B000BD2DE9F04F824610B28DB091
:104CC0000C461546002812BF5FEA25400DB0BDE82E
:104CD000F08FBAF8E800002800F05981B0F101091E
:104CE00000F155811FFA89F00AEBC00021B2D0E92A
:104CF0002A870FFA88F0884214DC22144FEA2843EE
:104D000093420FDC0FFA85FC3EB28C440644B44556
:104D100008DC02EB254C03EB27429445DCBF0DB0C9
:104D2000BDE8F08F884239DB4FEA284223149A42CB
:104D300034DB0FFA87FC2EB284440E4466452DDB2B
:104D400002EB274C03EB2542624527DB0020ADF840
:104D50001800ADF81C00ADF81A00ADF81E00BAF846
:104D6000E8001FFA89F70AF1A806B84240F20B8161
:104D700006EBC701884606A817F0E7FEB6F8400024
:104D8000401E80B2A6F84000B84240F2FC8006EB1C
:104D9000C001404617F0D9FE00F0F5B82AB28B18D2
:104DA00083426ADD3BB203448B4266DD211401EB92
:104DB000254C4FEA28439C455FDD03EB27438B429C
:104DC0005BDD0020ADF82000ADF82400ADF8220036
:104DD000ADF82600BAF8E8001FFA89FB0AF1A80628
:104DE000584512D906EBCB0108A8009117F0ADFE8B
:104DF000B6F84000401E80B2A6F84000584504D9DD
:104E000006EBC001009817F0A0FE3BB2002B18BFC4
:104E10005FEA27467DD00FFA85FBBBF1000F18BF74
:104E20005FEA254776D022B20FFA88FC6245B4BF0C
:104E300010466046864620144FEA28484045B4BFD5
:104E4000014641465A44634412B21BB29A42D8BF4B
:104E50001A46384403B208EB060000B28342C8BFCA
:104E600018466EF30F04A2EB0E0262F30F05401A10
:104E700061F31F4460F31F4585E039B2A3462E4617
:104E8000002918BF5FEA274347D00FFA86FCCDF808
:104E900010C0BCF1000F7BD05FEA264CCDF80CC0EF
:104EA00076D00FFA8BFCCDF808C08445A8BF8446A5
:104EB0004FEA2B4ECDF814C04FEA284CCDE900EC58
:104EC000E645B8BFF446E646DDF810C0DDF80880D8
:104ED0000844C4440FFA8CFC00B28445D8BF844611
:104EE000E046DDF800C0039860440FFA80FC0198AA
:104EF000184400B28445C8BF6046059BA0EB0E0075
:104F000063F30F0BA8EB03036EF31F4B63F30F0662
:104F100001E038E042E060F31F46281442433814B1
:104F200001FB002000EB400101EBC00116FB16F075
:104F300000EB80004000814225DD0020ADF8280014
:104F4000ADF82C00ADF82A00ADF82E00BAF8E80054
:104F50001FFA89F50AF1A804A84212D904EBC50189
:104F60000F460AA817F0F1FDB4F84000401E80B2C9
:104F7000A4F84000A84204D904EBC001384617F059
:104F8000E4FD5C463546B9F101097FF5ABAE00E0C2
:104F90000FE0BAF8E800082816D07DE068F30F04A7
:104FA0004FEA284063F30F0560F31F4466F31F4583
:104FB000E9E760F30F0B4FEA284061F30F0660F357
:104FC0001F4B63F31F46A8E70020ADF80000ADF8C3
:104FD0000400ADF80200ADF80600BAF8E8000AF1E6
:104FE000A806072812D906F138010F46684617F0BF
:104FF000ACFDB6F84000401E80B2A6F8400007287D
:1050000004D906EBC001384617F09FFDDDE9000129
:105010000EB2002E18BF5FEA21493DD02FB2002FFB
:1050200018BF5FEA254B2ED022B201B28A42B4BF2C
:1050300094468C464FEA244800148045B4BF43464A
:1050400003463A44314417B209B205E0A4030020F4
:1050500006040020080400208F42D8BF0F4608EB4A
:105060000B01484409B202B29142C8BF0A466CF330
:105070000F04A7EB0C0060F30F05D01A63F31F4475
:1050800060F31F4508E060F30F04001466F30F059A
:1050900060F31F4469F31F45CDE90045BAF8E820E5
:1050A0000AF1A801082A01D30FF0ACFF01EBC200FE
:1050B000521CA1F84020694617F047FD0DB0BDE82D
:1050C000F08F2DE9F043002685B081460F46344627
:1050D000FE4800880FFA80F8FD48008805B268464F
:1050E00017F033FDBDF9001088452EDDBDF9040031
:1050F00001EB000CB44528DDBDF9020062198242C3
:1051000023DDBDF906300344A3421EDDB142D4BF06
:1051100035460D46A042C8BF04460FFA8CF006EB98
:10512000080109B28842A8BF0846401BADF8040038
:1051300018B211B28842A8BF0846001BADF8005053
:10514000ADF80600ADF8024008E00020ADF8000020
:10515000ADF80400ADF80200ADF80600009802902A
:105160000198039002A9384617F0EFFCD94840682F
:10517000002804BF05B0BDE8F08399F82C1151B1A7
:105180003946684617F0E1FCDDE9001205B04846F3
:10519000BDE8F0438FE501688A6839469047CE48FC
:1051A000006801684A6905B03946BDE8F043104718
:1051B000C8484068002808BF7047026892691047D5
:1051C000C4484068002808BF70470268D269104789
:1051D000C0484068002808BF70470268126A10473C
:1051E0002DE9F041BB4D04460026A86808B1017ABC
:1051F00019B194F82D11C1B906E084F82D61016848
:105200008968BDE8F041084700281CBF007A0028E3
:105210000BD0686810B1016809698847A8680168FF
:10522000C9688847012084F82D01B4F8840000275C
:1052300000280FDDE01990F8880030B1201DB9B2C8
:1052400050F821000168096D8847B4F884007F1C7C
:10525000B842EFDC80B2431E002BA8BF04F1880CDB
:1052600041DBE01890F88800D8BB211D98B20A46AF
:1052700051F82080B4F88410002000291DDD00BF03
:1052800052F82010414508BF014607D010E000BF8A
:1052900002EB81077F6842F82170491CB2F88070E8
:1052A000B942B8BF1F29F3DBB9B2491EA2F880107A
:1052B000B2F88010401C8142E2DCB4F8841098B24D
:1052C00081420AD92118401C91F8892081F8882050
:1052D000B4F8841080B28142F4D8B4F8840000F8A5
:1052E0000C605B1EBDD56868002808BFBDE8F08172
:1052F0000168496ABDE8F0410847764840680028DF
:1053000008BF70470268926A104770472DE9F04F56
:10531000A9B00025044680F82C1100291EBFA0F872
:10532000E85029B0BDE8F08FB4F8E800002804BFC9
:1053300029B0BDE8F08F04A808231A46674917F082
:105340002CFC0021634FA0F84010B4F8E8003E8820
:10535000B04288BF0DF170081CD900BF04F1A8004D
:1053600000EBC60104AD404617F0EFFBBDF850005E
:10537000082880F0158205EBC002401CADF85000F3
:105380004146104617F0E1FB701C86B2B4F8E80005
:105390008642E3D34F480588B4F82A01A84288BF63
:1053A00002AE11D904F1EA0000EBC501304617F056
:1053B000CCFBDDE902122046FFF77DFC681C85B2BC
:1053C000B4F82A01A842EDD84348006890F8480094
:1053D00001284AD00228DFF800813E4800F03081E1
:1053E0000588B4F8E800A84219D900BF04EBC5004D
:1053F000D0E92A10CDE90210BDF80C0000281CBF2E
:10540000BDF80E00002804D0206802A9C26A204618
:105410009047681C85B2B4F8E800A842E6D82D4D44
:10542000286958B12C490A6892F8761000291ABFE9
:10543000D16C0029916802689268904728480078EA
:10544000002804BF29B0BDE8F08F0020A4F82A018D
:105450002D88BDF85000A84287BF0DF110081EAF7F
:1054600029B0BDE8F08F00F08FB9DFF868C0B4F85C
:10547000E8200026BCF8000082420FDD04F1A803FA
:1054800081B203EBC101B1F90230B1F90610194440
:10549000B142C8BF0E46401C8242EFDC0C48008877
:1054A0000F288CBFC00801200022ADF85820ADF8AD
:1054B0005C201A90ADF85A20ADF85E201746002EF9
:1054C000C8BF0DF160087BDD034D0BE00604002032
:1054D00008040020A40300201004002079C1010862
:1054E0000104002028680168D1F88C108847BDF9B4
:1054F0005A10BDF95E2011441A9A0A448242C8BF6C
:10550000864203DD8142C8BF00297BDD0AB28242A8
:1055100001DC864200DA3046401A20A94FF0000C28
:10552000FE4B1B88ADF88430ADF880C0ADF8860026
:10553000ADF8822016A817F008FBF9480588B4F8E2
:10554000E800A8426ED900BF04F1A80000EBC50135
:10555000404617F0FAFABDF95820BDF95C00BDF9D4
:10556000601002EB000C8C454DDDBDF9640001EBD1
:105570000009914547DDBDF95A30BDF95E0003EBE6
:10558000000ABDF9620082453DDDBDF966B0834485
:105590009B4538DD9142D8BF11469842D8BF184686
:1055A0000FFA89F30FFA8CF29342B8BF1A46521AD7
:1055B000ADF864200FFA8BF20FFA8AF39A4200E0FA
:1055C00038E0A8BF1A46121AADF86010ADF8662090
:1055D000ADF86200DDE91801CDE92201BDF88C00CB
:1055E00000281CBFBDF88E00002804D0206822A926
:1055F000C26A20469047681C85B2B4F8E800A84209
:10560000A2D80FE008E0ADF86070ADF86470ADF8B6
:105610006270ADF86670DDE728680168D1F888200F
:1056200001219047BDF95A00BDF95E100844B0420F
:10563000FFF64AAFBB4800680168C9698847EEE6D3
:105640000688B4F8E800B04284BFB74F00257FF663
:10565000E6AE00BF04EBC601D1E92A01CDE9200185
:105660003878012804BF20A80BF0A2FCBDF9840003
:1056700000281CBFBDF8861000293CD0BDF8801062
:10568000ADF80810ADF80E50BDF88210ADF80A1054
:10569000ADF80C00BDF88200BDF88610BDF80C30E6
:1056A0000844BDF80A10401A80B20090D8F80000F3
:1056B0008AB2BDF80810D0F800C0DCF884C0E0471A
:1056C00000B2ADF80E00397801291BD0206802A97C
:1056D000C26A2046904700BFBDF80A00BDF80E1010
:1056E000BDF98620084400B2ADF80A00BDF9821069
:1056F00011448142CEDC701C86B2B4F8E800B0429E
:10570000A8D88CE6ADF80450ADF80650BDF80810E6
:10571000ADF85410BDF80A10ADF800500844401E12
:10572000ADF85800ADF8025016A915A80BF014FCFE
:10573000BDF85400ADF80000BDF85800ADF8020007
:10574000BDF80800BDF80C100844ADF85400BDF8D1
:105750000A00ADF8580016A915A80BF0FDFBBDF81E
:105760000000BDF85410081A401CADF80400BDF844
:105770000210BDF85800401AADF8060020686946CE
:10578000C26A20469047A7E708EBC50104F1EA0684
:10579000384617F0DAF9B6F84000082802D300BFFF
:1057A0000FF030FC06EBC002401CA6F84000394662
:1057B000104617F0CAF9681C85B2BDF85000854242
:1057C000E2D329B0BDE8F08F10B5B0F884300022E4
:1057D000002B12D900F1040C5CF822C08C4508D1D2
:1057E000811891F88800FF283CBF401C81F8880090
:1057F00010BD521C92B29342ECD8202B08D21A183A
:105800000123001D82F88830B0F88020202A01D3BF
:105810000FF0F8FB9300521CA0F88020C15010BD7F
:105820000021A0F88410C0F88810C0F88C10C0F8CF
:105830009010C0F89410C0F89810C0F89C10C0F8F0
:10584000A010C0F8A4107047B0F884300022002BDC
:1058500098BF704700F1040C5CF822C08C450DD154
:1058600000EB020C9CF888C0BCF1000F06D010447D
:1058700090F88810491E80F888107047521C92B228
:105880009342E7D87047B0F884007047B0F884308E
:105890000022002B0ED900BF00F1040C5CF822C0DE
:1058A0008C4503D1104490F888007047521C92B286
:1058B0009342F1D80020704770B51C490160002563
:1058C000A0F884500823A8301A46194917F065F942
:1058D000A0F84050082342301A46154917F05DF9E8
:1058E000A0F8405080F84250A0F1EA0480F84350FC
:1058F000104911480CF0F2F8094E002818BF358005
:1059000006D14FF4806030800220706007F02AFAE0
:10591000F5607560B560A4F884500FE006040020BF
:10592000A40300201004002000040020F01F02083F
:1059300079C10108CDB5E8B5C2A507F4C4F888500F
:10594000C4F88C50C4F89050C4F89450C4F89850DF
:10595000C4F89C50C4F8A0502046C4F8A45070BDB0
:10596000FD4A10B5936873B101884FF6FF7081420C
:1059700024BF002010BDA1F57F40FE3805D1F748B7
:105980000068406C10BD0FF03DFB1069002819BF86
:1059900050F82100002801EB810053F8200010BDD1
:1059A00002884FF6FE70824236D2EB4803464188A9
:1059B0001B698A4220D2806802EB820100EB8101E0
:1059C0004868002814BF002B704753F82220002A93
:1059D00008BF7047088A4B8A400BC00040EA53302A
:1059E0000B280889498900FB01F018BF4000C01C42
:1059F00020F0030010447047B0F804C08C44944574
:105A00000AD9511AC068C1EBC10100EB4100017B0A
:105A100001F01F010B2901D0002070470189408946
:105A20004843C01C53F8221020F00300084470477C
:105A3000B6E7C94900888B68DBB14A8890420AD230
:105A400000EB800003EB8000018A408A490BC9000B
:105A500041EA503070478B881344984209D2801A2B
:105A6000C968C0EBC00001EB4000007B00F01F00E4
:105A70007047A0F57F41FE391CBF00207047B74832
:105A8000016891F8760000281ABFC86C0028886861
:105A90000168496A0847B04910B58B68A3B100880E
:105AA0004A8890423CBF00EB800003EB800009D3A2
:105AB0008B881344984209D2801AC968C0EBC00091
:105AC00001EB4000008910BD0FF09CFAA0F57F416A
:105AD000FE3912BF0020A248008810BD9E4910B5B3
:105AE0008B68A3B100884A8890423CBF00EB8000DD
:105AF00003EB800009D38B881344984209D2801AA3
:105B0000C968C0EBC00001EB4000408910BD0FF038
:105B100079FAA0F57F41FE3912BF00209148008834
:105B200010BD8D4A10B5D2F808C0BCF1000F16D0D8
:105B300009885388994214D201EB81010CEB810151
:105B40000A8AB1F80CC0CB89498AA0F800C0C2F318
:105B50000C024380C1F30C018280C18010BD0FF0A4
:105B600051FAB2F804C09C4461450AD2C91AD268FD
:105B7000C1EBC10102EB41010A6802604968416062
:105B800010BDA1F57F424FF0000CFE3A634609D1EB
:105B900073490A8873490988A0F800C0438082804D
:105BA000C18010BDA0F800C0002243808280C28066
:105BB00010BD69498B6853B300884A88904210D25F
:105BC00000EB800003EB8000018A0289C1F30C0125
:105BD00091421AD3418A4089C1F30C01814214D306
:105BE00015E08B881344984211D2801AC968C0EB23
:105BF000C00001EB4000B0F904100289914204DBBF
:105C0000B0F906104089814201DA01207047002076
:105C1000704770B4504C2069002804BF70BC7047B6
:105C20006188A2884FF6FE7511444B1C2B404FEA49
:105C3000810CC2EBC2025B0055006044C218E260F6
:105C40002A44C4E9050200222280266AA6EB0C0C35
:105C5000ACEB03035B1BE361E28000291CBF002364
:105C60004FF6FF7C07D0256945F823205B1C20F800
:105C700002CB491EF7D1A188002904BF70BC704730
:105C800011F0010004D0E268137B23F020031373AA
:105C9000884232BFD4F80CC070BC7047C0EBC00261
:105CA0000CEB4202801C137B884223F02003137309
:105CB000937E23F020039376F0D370BC7047264B7D
:105CC000D3F818C0BCF1000F18BF7047002908BFF7
:105CD000704710B592B29A80B3F802C094440CEBAE
:105CE0004C0C4FEA4C0CC2EBC2020CEB42028A4253
:105CF00001D30FF087F919621861BDE8104088E7F9
:105D000070B5DFF854C0049CDCF80850002D18BFB3
:105D100070BDCCF80800ACF80210DCF818000028C0
:105D200018BF70BD002B08BF70BDA0B20144ACF815
:105D3000040001EB41014900C0EBC00001EB400051
:105D4000984201D30FF05EF9CCF82030CCF8102047
:105D5000BDE870405DE70000B8030020100400209B
:105D600006040020080400202DE9F0470E464FF6F7
:105D7000FE71884280F0F48000EB8004FE48826867
:105D800002EB8400018A438A490BC90041EA53317E
:105D90000389B0F80AC00C2903FB0CF580F0E08001
:105DA000DFE801F02412068BDC755F4F4F4F4FA1E7
:105DB000F248AB0052F8242000680168D1F834C0E2
:105DC0003146BDE8F047604705EB4500C01C20F0B8
:105DD0000303EA48E84952F8242000688969D0F8AA
:105DE00000C0DCF834C0BDE8F04760470320E34F53
:105DF00000EB450020F003083868DFF87C9352F888
:105E0000242001684346D1F834C03146E0470028D9
:105E100008BFBDE8F087D9F8081001EB84014A6893
:105E2000002A08BFBDE8F087E81C20F003033868AB
:105E300006EB0801D0F800C0DCF834C0BDE8F0473C
:105E40006047E81C20F00303CC48CB4952F82420DB
:105E500000688969D0F800C0DCF834C0BDE8F047BC
:105E6000604703891FFA8CF05B1C5B085843C01C19
:105E700020F00303C148C04952F824200068896912
:105E8000D0F800C0DCF834C0BDE8F04760470389B3
:105E90001FFA8CF0DB1C9B085843C01C20F0030346
:105EA000B648B54952F8242000688969D0F800C086
:105EB000DCF834C0BDE8F047604703891FFA8CF076
:105EC000DB1DDB085843C01C20F00303AB48AA4984
:105ED00052F8242000688969D0F800C0DCF834C08A
:105EE000BDE8F0476047E81CA44D20F00307DFF849
:105EF0008882286852F824203B460168D1F834C0D3
:105F00003146E047D8F808104FF0000C01EB84014F
:105F10004A6813785188002B04BF042303EB810CDB
:105F20000BD0012B04BF01EB410101F1040C04D0A3
:105F3000022B04BF042303EB410C002808BFBDE87B
:105F4000F0870CF1030020F003032868F119D0F862
:105F500000C0DCF834C0BDE8F04760470FF052F8ED
:105F60000020BDE8F0872DE9F0414FF6FE71884230
:105F70007DD281494F88C11BC1EBC1027E49B84225
:105F8000CB68896803EB420400EB800201EB8202DC
:105F900010D2138AB2F812C05B0BDB0043EA5C3606
:105FA000536811895589002B14BF4FF001084FF039
:105FB000000806E0237B2189658903F01F064FF066
:105FC000000801FB05FC0C2E73D2DFE806F00A1A6C
:105FD0000634702C24212121213C4FEA8C00BDE89D
:105FE000F081032000EB4C0020F00301B8F1000F1A
:105FF0001ABF0CF1030020F0030000200844BDE8A4
:10600000F0810CEB4C00C01C20F00300BDE8F081D7
:106010000CF1030013E0481C40086843C01C20F04A
:106020000300BDE8F081C81C80086843C01C20F054
:106030000300BDE8F081C81DC0086843C01C20F003
:106040000300BDE8F0810021B84216D25068027802
:106050004088002A04BF042101EB80011CD0012AE2
:1060600004BF00EB4000011D16D0022A00E01EE034
:1060700004BF042101EB40010EE0207B800908BF32
:1060800040F2044108D0012808BF4FF4417103D009
:10609000022808BF4FF401710CF10300C91C20F065
:1060A000030021F003010844BDE8F08101E00EF097
:1060B000A9FF0020BDE8F0812DE9F04F2E4983B003
:1060C0004FF6FE734A8888884FF0000802EB0009FB
:1060D0004FEA8902019209F101021A405200C0EB15
:1060E000C00000924FEA400B0869019A46461044EE
:1060F000009A5F1C104400EB0B0A544646E01E4811
:10610000006950F82500002808BF21F816703BD020
:106110002846FFF728FFDFF860E08446DEF810002D
:1061200050F82500844224D04FEA9C0100EB810105
:106130000B1A9910002912DD011F201F13F0040F04
:1061400003D051F8042F40F8042FDA1007D04B6821
:10615000436051F8083F40F8083F521EF7D1DEF87F
:10616000100040F82540DEF8140020F8167020F8E2
:106170001850644404E00000B8030020100400201C
:1061800008F101001FFA80F8701C86B24E4505D256
:10619000FB48416931F81650BD42B0D1F8488461DE
:1061A000A0F80080026A0199521A0099511AA1EBD5
:1061B0000B01A4EB0A02891AC16103B0BDE8F08F9C
:1061C00070B5EF4C0546A069002832D06088A188E0
:1061D0000844A8422DD9E088002818BFFFF76CFFBB
:1061E000206950F8250000281CBF012070BD2846FA
:1061F000FFF7B9FE0646E06986421AD860888542F4
:1062000004D22846A169FFF7AFFD90B12169A069CA
:1062100041F82500E069801BE061A0693044A0617D
:106220002188606920F811502088401C20800120BE
:1062300070BD002070BDD2498A6932B1096951F838
:10624000200000281CBF01207047002070472DE966
:10625000F041CB4E0D460446B1693069AC420AD1DB
:1062600000291FBF50F8240000280120BDE8F0815C
:106270000020BDE8F08100291CBF71888D4238BF25
:106280008C42F5D250F824100029F1D050F82500A6
:106290000028EDD12046FFF766FE07462846FFF7A7
:1062A00062FE8742E4D1306950F8241040F825108E
:1062B000002140F8241050F825102846FFF754FD1F
:1062C000030014D00023B6F800C01846BCF1000F3C
:1062D00088BF71690BD900BF31F81020A24203D1E9
:1062E00021F81050012302E0401C6045F4D3184609
:1062F000BDE8F08170B5A24CA16909B3216951F8DC
:106300002020EAB1002241F82020E188491CE180E8
:106310002188626902EB410232F8022C824229D1C3
:10632000002918BF4FF6FF7524D02088616901EB62
:106330004000216930F8020C51F82010D1B901E079
:10634000002070BDFFF70FFEA169091AA161E16984
:106350000844E0612088616901EB400020F8025C9C
:106360002088401E0004000C2080E188A1F101017A
:10637000E180DAD1012070BD10B500214FF6FE7228
:10638000904201D30EF03EFE7D4A9369002B1CBF64
:10639000116951F82010084610BD2DE9F041784CE4
:1063A000012600256088002838D9A069002838D047
:1063B0006088A1880844A84233D9E088002818BF23
:1063C000FFF77AFE2946206950F82500F8B90846FB
:1063D000FFF7C9FD0746E069874222D86188284651
:1063E0008D4203D2A169FFF7BFFCD0B12269A16938
:1063F00042F82510E069C01BE061A0693844A06143
:106400002288616921F812502088401C2080681C75
:1064100085B2608806F001068542C6D33046BDE8E5
:10642000F0810EF0EFFD2DE9F047554F06469046FE
:106430003846BA880024C06888B099460D46002ABC
:106440000CD900BFC4EBC40100EB4101097B01F092
:10645000200100291CBF641C9442F3D3944202BF64
:106460004FF6FF7008B0BDE8F087C4EBC40100EB45
:106470004101B8F10C0F0E814D810A7B68F30402D3
:1064800042F020020A7340D2DFE808F006064B060D
:106490000606064B4B4B4B150023ADF80030ADF80C
:1064A0000460C4EBC4026946ADF80230ADF8065092
:1064B00000EB420027E0C4EBC40100EB4100B9F15E
:1064C000000F017B69F38711017306D0B9F1010F49
:1064D00018BFB9F1020F0CD017E00021ADF8081079
:1064E000ADF80C1002AAADF80A10ADF80E10114666
:1064F00009E00023ADF81030ADF8146004A9ADF840
:106500001230ADF8165016F020FB788820441FFAA0
:1065100080FA5046FFF754FE20B3B8F10B0F0FD0AE
:106520001CE00021ADF81810ADF81C10ADF81A10E1
:10653000ADF81E10C4EBC40106AA00EB4100D6E77B
:10654000386950F82A1006FB05F0C01C20F0030043
:1065500008444FF48071A0F80090418008B0504684
:10656000BDE8F087F968C4EBC40001EB4000017B93
:1065700021F02001017308B04FF6FF70BDE8F087ED
:10658000B8030020BB494A88904211D38B8813443A
:1065900083420DD9821AC968C2EBC20201EB4202E2
:1065A000117B11F0200F03D021F020011173A1E61F
:1065B00000207047AF494A88904207D38B881A441D
:1065C00090423EBF096951F8200070470020704793
:1065D000A84A10B55388984212D3B2F804C09C441C
:1065E00084450DD9C01AD268C0EBC00002EB400050
:1065F000027B12F0200F03D016F0A7FA012010BD85
:10660000002010BD2DE9F04F06469A480D4683B094
:1066100041888E42C0F01D8182880A44B24240F215
:106620001881711AC068C1EBC10100EB4104207BE5
:1066300010F0200F00F00D81B5F90010B4F9000042
:1066400081421ADBB5F90230B4F90220934214DB1F
:10665000B5F904C001EB0C07B4F904C08444BC458F
:106660000BDBB5F906C09C44B4F906301A44624508
:10667000A2BF012003B0BDE8F08F884217DBB4F958
:106680000230B5F90220934211DBB4F9047000EB3B
:10669000070CB5F904700F44674508DBB4F906C070
:1066A0006344B5F906C062449A4280F2CC808142CC
:1066B00057D1B5F90400B4F90470B84251D1294654
:1066C000684616F042FA002F1CBFB4F90690B9F1E3
:1066D000000F3DD0BDF904B0BBF1000F1CBFBDF9E8
:1066E00006A0BAF1000F27D0BDF90030B4F9008040
:1066F0004345B4BF1A464246BDF90200B4F9021040
:106700008842B4BF84468C465B4447441BB23FB2C8
:10671000BB42D8BF3B465044494400B209B288420C
:10672000D8BF0846ADF80020991AADF802C0ADF800
:106730000410A0EB0C0009E02088ADF80000608890
:10674000ADF80200A088ADF80400E088ADF80600BE
:10675000B5F90600B4F906100844BDF906108842E0
:1067600060DDB5F90200B4F90210884261D1B5F9D3
:106770000600B4F9061088425BD12946684616F037
:10678000E4F9B4F904A0BAF1000F1CBFB4F9068013
:10679000B8F1000F3DD0BDF904B0BBF1000F1CBF34
:1067A000BDF90690B9F1000F27D0BDF90000B4F98A
:1067B0000070B842B4BF02463A46BDF90230B4F99F
:1067C00002C06345B4BF194661465844574400B2FD
:1067D0003FB2B842D8BF38464B44C4441BB20FFA4C
:1067E0008CFC6345D8BF6346ADF80020801AADF835
:1067F0000400ADF80210581A09E02088ADF8000036
:106800006088ADF80200A088ADF80400E088ADF81B
:106810000600B5F90400B4F904100844BDF90410E9
:10682000884206DC69463046FFF7D2FE03B0BDE879
:10683000F08FA888E98810FB01F0A188E28811FB9D
:1068400002F1884205D903B029463046BDE8F04F31
:10685000BEE603B00020BDE8F08F06480021C1600D
:10686000016141618161C161016201808180C180FA
:1068700070470000B803002070B4002691F82CC0C7
:1068800066F30F0366F30F0266F31F4366F31F42BE
:10689000BCF1000F04D191F826C0BCF1FF0F06D166
:1068A000B1F808C049896CF30F0261F31F4203601D
:1068B000426070BC704710B582B00446684616F05E
:1068C00044F920686946426A2046904709480168B1
:1068D00091F8760000281ABFC86C0028886894F8E0
:1068E0002630A26A0168D1F81CC06946E04702B0B0
:1068F00010BD0000100400202DE9F047074690F875
:106900002C0088B00E46002819BF386B0390F88D14
:10691000ADF80C000024254603A8FFF7BCF80FFAD9
:1069200080F903A8FFF7DAF803B2ADF81840ADF824
:106930001C90ADF81A50ADF81E30B6F90000B6F94B
:106940000410002200EB010C4FF00108BCF1000F15
:10695000C4BFA144814568DDB6F90210B6F906A0AE
:106960008A44AA45C4BF2B448B425EDD8442D8BF13
:1069700004468D42D8BF0D460FFA89F00FFA8CF10C
:106980008842A8BF0846001BADF81C0019B27088E9
:10699000F388184400B28142B8BF0846401BADF8E6
:1069A0001840ADF81E00ADF81A503F4800680028A6
:1069B00044D0BDF80C00A0F57F41FF3919BFBDF8E8
:1069C0001C00002808B0BDE8F087BDF81E000028B4
:1069D00004BF08B0BDE8F087ADF81020ADF8142072
:1069E000ADF81220ADF81620386804A9426A38467E
:1069F00090472E48016891F8760000281ABFC86CAD
:106A00000028886897F8321006AACDE90021CDF851
:106A100008800168BDF91230BDF91020D1F80CC012
:106A200003A9E04708B0BDE8F087ADF81820ADF83D
:106A30001C20ADF81A20ADF81E20B6E70EF0E2FAE1
:106A400010B504460888E0851088208604F13000DF
:106A5000FFF721F8208104F13000FFF73FF8608153
:106A600010BD10B5044691F8320084B0FF2806D25C
:106A7000002323806380A380E38004B010BD91F8DD
:106A80002C0038B130316846FFF74BF80098206091
:106A9000019806E02E3102A8FFF743F80298206023
:106AA0000398606004B010BDC003002010040020F3
:106AB00010B400248480C480048144818481C48112
:106AC0000482448244618461C46180F824400121CD
:106AD00080F825106C498462016047F6FF7181855A
:106AE000FF2180F82E1010BC7047704716F029B8AF
:106AF0008162704710B5806A002818BF10BD0EF083
:106B000081FA2DE9F04F93B0044604AF384616F0F1
:106B10001CF85E48007801281FBFBE1CBD1D07F190
:106B2000040802AF01BF04AE3D1D0DF10808BF1DF2
:106B300020682146426F0AA8904728884FF0000934
:106B4000002818BF4FF0010A5CD000BFB4F92C1028
:106B5000B5F900008142B8BF0846ADF8080000282A
:106B600033DD00BFB8F90010B7F90030BDF91020CF
:106B7000BDF91200ADF80020ADF80410ADF8020028
:106B8000ADF80630BDF928C0BDF92CB0E3449345FB
:106B9000C4BF1144614518DDBDF92A10BDF92E208E
:106BA0000A448242C4BF184488420EDD2068694608
:106BB000826F2046904740B9BDF908004FF00109A7
:106BC0004010ADF808000028CCDCBDF90800002812
:106BD0000CBFADF808A0B9F1000F06D0B4F92C2015
:106BE000A2F5FE41FF3908BFA0853088BDF8081026
:106BF000084430802888BDF80810401A00B2288068
:106C00000028A3D1B4F92C00A0F5FE41FF3904BF40
:106C1000401EA08513B0BDE8F08F0A894FF0000C2C
:106C20004989A0F800C0A0F802C08280C1807047E6
:106C300030B50446006883B02146426F68469047ED
:106C400021896089002561F30F0365F30F0260F36A
:106C50001F4365F31F4210B219B200EB010C20680C
:106C6000BDF90010694602692046904703B030BD67
:106C70004FF0000CA0F800C0A0F802C0A0F804C0BB
:106C8000A0F806C0704700002C2002080004002075
:106C9000314AC2E9000170472F4A10B51146936886
:106CA0000968984204BFD3688B4206D1D069102886
:106CB0003CBF002010BD012010BD5368C2E9020195
:106CC00083422CD310F0030C04D0CCF1040C6144AB
:106CD000A3EB0C0301EB000C411C1B1A21F001017A
:106CE000C2F810C08B421AD300F1010000F002007C
:106CF00011F00304C0F104001CBF84441B1A8C442F
:106D00005B1AC2F814C08B4209D3002C1CBF844408
:106D10001B1A8C44581AC2E906C01028CBD20EF0B8
:106D200071F90D48016800291BBF40680028002048
:106D3000012070470848806870470748C06870475E
:106D400005480069704704484069704702488069F7
:106D500070470148C0697047DC03002010B5FFF799
:106D6000A7FE0022FC4902630160426340F8382F0D
:106D7000114638384FF43452C0E90F1205224164ED
:106D800080F84820B42280F849200181418110BD5B
:106D90000129B8BF012102DB7829C8BF782180F81A
:106DA0004810704790F8480070470129B8BF01218A
:106DB00002DBB429C8BFB42180F84910704790F8AD
:106DC000490070472DE9F8431C46DDE9086815467F
:106DD00030680F46C0F5346015F0FEFAD8F800C0F0
:106DE00001466B464FF40042604609F027FA022143
:106DF00090FBF1F021680C1A306815F0EDFAD8F824
:106E000000C001466B464FF40042604609F016FA96
:106E1000022190FBF1F02968224601443846BDE882
:106E2000F84309F077BD00B583B0CDE9002300F148
:106E300034031A1FFFF7C6FF03B000BD2DE9F84366
:106E4000054610681E4690460F46C0F5346015F0A2
:106E5000C3FAD6F800C001466B464FF400426046C4
:106E600009F0ECF9022190FBF1F0696B0C1AD8F8EB
:106E7000000015F0B1FAD6F800C001466B464FF499
:106E80000042604609F0DAF9022190FBF1F0296B2B
:106E9000224601443846BDE8F84309F0C3BC2DE959
:106EA000F04FC1B00C46C16B05463291006C4FF4F7
:106EB000345731908142C8BFCDE93110DDE931014D
:106EC000401AB0F5345FA4BF0020CDE93170D5F889
:106ED00044C0BCF1000F7BD0B4F90000A28841018E
:106EE00080B210446288E38800B246011A44B4F9C3
:106EF0000200D5F8308012B240015201A8EB010324
:106F0000002BB8BF5B42A8EB06010029B8BF49427D
:106F10006E6B301A0028B8BF4042B21A002AB8BFC0
:106F200052428B42C8BF1946CB1701EBD3614911BE
:106F3000491C9042C8BF0246D01702EBD0604011F6
:106F4000401C494300FB001602209CFBF0F0A96B9B
:106F5000A1EB000C95F848004FF4B471401C4008B8
:106F6000C0F15A0090FBF1F201FB120000F5B47081
:106F700090FBF1F201FB120078495A28D8BF31F892
:106F8000101014DDB428DCBFC0F1B40031F81010CB
:106F90000DDDB0F5877FDDBF01EB4000A0F5B470DB
:106FA0000088C0F5B470C8BF31F810004142604697
:106FB0006B464FF4004209F041F9C11700EBD16074
:106FC00040114043B042C2BF012041B0BDE8F08F44
:106FD0002246294602A809F05BFAA86B696C4200B8
:106FE0000DF1C00A30918A4206DA022291FBF2F1D9
:106FF0000844309090FBF2F032993C9195F848109B
:107000004400339030984E0120443D903DAB3CAA63
:1070100002A92846FFF712FF002E04BF3C9800F19A
:10702000200819D03C99324601F12000B8BF7242C5
:1070300001F12001B4BF7342334691FBF3FC03FB23
:107040001C11A2EB0102B4BF7142314692FBF1F375
:1070500001FB132100EB01083198804511DC3098C9
:10706000CDF8F0803CAA3AAB2044CDE900233A9019
:1070700005F13403284602A91A1FFFF7A3FEB04406
:10708000EAE731993C9881420DDD309831AA2044DD
:10709000389038A8CDE9002005F1340302A91A1F61
:1070A0002846FFF78FFE3098002870D095F84900E9
:1070B0004FF4B4594FEA4018DDE93110081AB842CC
:1070C00035DA084615F088F901466B464FF4004260
:1070D000339809F0B3F8296B084438903198C0F51B
:1070E000346015F079F901466B464FF4004233984D
:1070F00009F0A4F8696B081A31993A9001EB08007D
:1071000001F5B45134908842B8BF0DF1D00B0EDABE
:10711000CDE900BA3AAB38AA02A92846FFF752FED9
:10712000349831994044494434908842F0DB319995
:107130003C9888420DDA309B31AAE31A3B933BAB73
:10714000CDE9002305F13403284602A91A1FFFF7F1
:1071500039FEDDF8F0B003E0082C0208AC3D02086F
:10716000329883451EDB3098CDF8F0B0201A3F905E
:107170003CA83FAACDE9000205F1340302A91A1F79
:107180002846FFF71FFEABEB060BE4E7FFE7DDE960
:107190003101401AB8424FDAD5E90C1202A809F0C1
:1071A000B9FB49E032993C9881420DDA309832AA15
:1071B000201A3A903AA8CDE9002005F1340302A93B
:1071C0001A1F2846FFF7FEFDDDE93101401AB842DB
:1071D00032DA084615F000F901466B464FF40042DA
:1071E000339809F02BF8296B084437903298C0F592
:1071F000346015F0F1F801466B464FF400423398C5
:1072000009F01CF8696B081A32993690A1EB090055
:10721000404433908842B8BF33AC0DDACDE9004A20
:1072200036AB37AA02A92846FFF7CCFD339832992E
:10723000404433908842F1DB02A809F0DAFB0446AF
:1072400002A809F078FA41B02046BDE8F08F70B48A
:107250000868DDE903541E68DDF814C0B042B8BF09
:107260001860086829688842C8BF286010682168CB
:107270008842B8BF20601068DCF800108842C8BFA0
:10728000CCF8000070BC70472DE9F84F8346DDE96B
:107290000B761D4691468A46DDF82880086815F071
:1072A0009BF8D9F800C001466B464FF40042604697
:1072B00008F0C4FF022190FBF1F0DBF830100C184D
:1072C000DAF80000C0F5346015F086F801466B4628
:1072D0004FF40042D9F8000008F0B0FF022190FB03
:1072E000F1F0DBF83410081A29688C42B8BF2C6022
:1072F000D8F800108C42C8BFC8F8004039688842EE
:10730000B8BF386031688842C8BF3060BDE8F88FC8
:107310002DE9FF478CB00446DDE91965DDE90D0173
:10732000189F98468842C8BFCDE90D104FF43469C4
:10733000DDE90D10401A4FF4345AB0F5345FA4BFA4
:107340000020CDE90D0A616CA06B009701EB4000B5
:107350000A90CDE901650AAA0DA92046FFF794FF1E
:107360000D9901F12000203191FBF9F209FB121176
:10737000A9EB010191FBF9F209FB121108440E99E6
:107380000390884213DC616CA06B009701EB400016
:107390000690CDE90165434606AA03A92046FFF7FA
:1073A00073FF03980E99484403908842EBDDA0EBED
:1073B000090088420DDA616CA06B009701EB400078
:1073C0000490CDE90165434604AA0EA92046FFF7C3
:1073D0005BFF616C002900F0CF80A06B0097C1EBD0
:1073E00040000490CDE90165434604AA0DA920465A
:1073F000FFF74AFF616CA06B0097C1EB400006905D
:10740000CDE90165434606AA0EA92046FFF73CFFD9
:1074100094F84900B42824BF10B0BDE8F087DDE936
:107420000D10401A5045A4BF10B0BDE8F0870846C3
:1074300014F0D2FFD4F838C001466B464FF4004236
:10744000604608F0FBFE216B01EB00090D98C0F5CA
:10745000346014F0C1FFD4F838C0014602AB4FF4D9
:107460000042604608F0EAFE616BD8F800300A1A64
:10747000616C022091FBF0F1A9EB0100511A9842D6
:10748000B8BFC8F800003B689842C8BF3860306891
:107490008142B8BF316028688142C8BF296002209C
:1074A000616C91FBF0F009EB00011044D8F800206A
:1074B0009142B8BFC8F800103A689142C8BF39601D
:1074C00031688842B8BF306029688842C8BF2860E8
:1074D0000E9814F081FFD4F838C001466B464FF483
:1074E0000042604608F0AAFE216B01EB00090E98ED
:1074F000C0F5346014F070FFD4F838C0014601AB19
:107500004FF40042604608F099FE616BD8F80030F5
:107510000A1A616C022091FBF0F1A9EB0100511AEB
:107520009842B8BFC8F800003B689842C8BF3860AE
:1075300030688142B8BF316028688142C8BF296085
:107540000220616C91FBF0F109EB01001144D8F8C5
:1075500000209042B8BFC8F800003A689042C8BF07
:10756000386030688142B8BF316028688142C8BF46
:10757000296010B0BDE8F087DDE90D10401A5045D4
:10758000BFF646AF0020069004900097CDE9016554
:10759000434606AA04A92046FFF776FE38E770B5F1
:1075A000044688B0B1F908008C46400103900020E1
:1075B0000490B1F90A00164640010590002006909B
:1075C00004A8009006AA05A9CDE901121D4603AB47
:1075D0002A4631466046FFF79BFE0398DDF810C04F
:1075E000C11700EBD16040114FEAEC75421E0CEB65
:1075F000D56C0599C0EB6C10CB17DDF818C001EB0A
:10760000D36149114B1E4FEAEC75801C0CEBD56C15
:107610002280C1EB6C116380891CA080E18008B0DE
:1076200070BDD1E90F23BAE75B015201B7E72DE93D
:10763000F003154691F84820D1E90FC453012A6898
:10764000A44541DA62451BDA002BC8BF1D46B8BF0E
:107650005D4208BF634610D06646B4BF5F421F4616
:1076600096FBF7F807FB18C6A5EB0605B8BF5B420B
:1076700095FBF3F603FB16536344A3426DDB21E055
:10768000A2426246A8BF2B6867DA002B0CBF2B68AA
:10769000D5F800C0C8BF1D46B8BF5D4210D06646D1
:1076A000B4BF5F421F4696FBF7F807FB18C6A5EB71
:1076B0000605B8BF5B4295FBF3F603FB1653634424
:1076C000A3424ADB234648E0944522DA002BC8BF98
:1076D0001A46B8BF5A4208BFCCF1000212D0CCF112
:1076E0000007B4BF5E421E4697FBF6F806FB18760D
:1076F000A2EB0602B8BF5B4292FBF3F603FB162235
:10770000A2EB0C02C2F10002A242D8BF22462B68B3
:1077100023E0944220DA002BC8BF1E46B8BF5E4269
:1077200008BF524213D02A68C2F10007B4BF5D42BD
:107730001D4697FBF5F805FB1875A6EB0505B8BFC8
:107740005B4295FBF3F603FB1653A3EB0202C2F177
:107750000002A242D8BF22466346BDE8F0031EE7FE
:107760002DE9F003154691F84820D1E90F4C53015B
:107770002A68644549DA944522DA002BC8BF1A46C4
:10778000B8BF5A4208BFCCF1000212D0CCF10007BA
:10779000B4BF5E421E4697FBF6F806FB1876A2EBD6
:1077A0000602B8BF5B4292FBF3F603FB1622A2EB84
:1077B0000C02C2F10002A242D8BF22462B6865E04B
:1077C000944220DA002BC8BF1E46B8BF5E4208BFF5
:1077D000524213D02A68C2F10007B4BF5D421D4671
:1077E00097FBF5F805FB1875A6EB0505B8BF5B42DE
:1077F00095FBF3F603FB1653A3EB0202C2F1000262
:10780000A242D8BF2246634640E062451BDA002B05
:10781000C8BF1D46B8BF5D4208BF634610D066466C
:10782000B4BF5F421F4696FBF7F807FB18C6A5EBEF
:107830000605B8BF5B4295FBF3F603FB16536344A2
:10784000A34223DB21E0A2426246A8BF2B681DDAD7
:10785000002B0CBF2B68D5F800C0C8BF1D46B8BFB1
:107860005D4210D06646B4BF5F421F4696FBF7F8F4
:1078700007FB18C6A5EB0605B8BF5B4295FBF3F600
:1078800003FB16536344A34200DB2346BDE8F00329
:1078900085E600002DE9F0070DF11C0ABAE8F013A7
:1078A00083808471C379DFF838A165F3060366F33A
:1078B000C713C371077280F80980A0F80A90A0F876
:1078C0000CC0484B036001618282BDE8F00770473D
:1078D00030B4828A0023521E002AA4BF0424D0F8A8
:1078E00010C017DB981800EBD0704010C0EBC0053B
:1078F00004EB45053CF805508D4238BF431C88BF5A
:10790000421E05D1C0EBC00030BC0CEB40007047FC
:107910009342E7DD30BC002070472DE9F047044674
:10792000808A17460022A0F1010C04251E46BCF1F6
:10793000000FA8BF236919DB02EB0C0000EBD0702D
:107940004010C0EBC00805EB480833F808908945A3
:1079500038BF421C88BFA0F1010C05D1C0EBC000AC
:1079600013EB400828D101E06245E5DD002918BF8E
:107970000A2931D020680169204688470346A08A39
:107980000022401E0028A8BFD4F810C024DB111824
:1079900001EBD1714910C1EBC10805EB48083CF877
:1079A0000880984538BF4A1C88BF481E12D1C1EBD9
:1079B000C1001CEB40080FD020684146826C204675
:1079C000904738602068416B2046884730704046B9
:1079D000BDE8F0878242DADD0020BDE8F0870000D4
:1079E000C42A0208102F020810B5814215D04A6936
:1079F0009AB90022C1E90502826A002A04BF8162A5
:107A000010BD906928B18A4207D0024680690028DB
:107A1000F9D18A421CBF916110BD0DF0F3FA826A60
:107A2000002A08BF704700238A4207D14B618A6948
:107A3000002A14BF8262836206D17047906988422F
:107A400004D1886990614B618B6170470200F5D168
:107A50007047816A002914BF002270478B698362D6
:107A60004A618A61816A0029F8D1704700218162E8
:107A7000704702460020926A002A08BF704700281B
:107A800018BF70478A420CBF012000209269F3E7BB
:107A9000836A2BB1002904BF9361826209D003E09D
:107AA00001684B6E114618478B4204D19969916168
:107AB0009A61506170479B69002BF5D170472DE9A1
:107AC000F0410E4690F824101F461546002918BFB5
:107AD0003860846A002C08BFBDE8F08194F8250066
:107AE000E0B1B4F90410201DB14217DCB0F9042054
:107AF0008B189E4212DAB0F9022095420EDBB0F9E3
:107B000006001318AB4209DD701A01B2A81A02B2BE
:107B100020683B46D0F81CC02046E047A469002CF2
:107B2000DCD1BDE8F08190F82520002A08BF70471D
:107B30002DE9F043846A87B0002C04BF07B0BDE88C
:107B4000F08304A815F001F86F46002694F825008C
:107B5000002860D0251D04A9384614F0F6FFB5F9B9
:107B60000020B5F90400BDF9001002EB000C8C45B3
:107B700057DDBDF9040001EB0009914551DDB5F970
:107B80000230B5F9060003EB0008BDF9020080459C
:107B900047DDBDF906808044984542DD9142D8BF5B
:107BA00011469842D8BF18460FFA89F20FFA8CF3A3
:107BB0009A42A8BF1A46521AADF804206A88EB8888
:107BC0000FFA88FC1A4412B29445B8BF6246121AE2
:107BD000ADF80010ADF80620ADF80200DDE90001B7
:107BE000CDE90201BDF80C0000281CBFBDF80E0055
:107BF000002810D0BDF80800A188401AADF8080090
:107C0000BDF80A00E188401AADF80A00206802A910
:107C1000826820469047A469002C97D107B0BDE840
:107C2000F083ADF80060ADF80460ADF80260ADF827
:107C30000660D3E74FF0000CA0F800C0A0F802C027
:107C4000A0F804C0A0F806C0704770B5846A0D465D
:107C5000002C08BF70BD28682146826828469047DE
:107C6000A469002CF7D170BD2DE9F04F0026D1F8A2
:107C700028C066F30F0366F30F0266F31F4366F333
:107C80001F42BCF1000F4BD0BCF908400CF10401BD
:107C9000002C1CBFB1F90650002D3CD00FFA82FA1F
:107CA000BAF1000F18BF5FEA224B28D0B1F900806B
:107CB0000FFA83F9C145B4BF4E4646461F14B1F9C9
:107CC00002E07745B4BF39467146D14444440FFAC7
:107CD00089F924B2A145D8BFA14607EB0B0475442E
:107CE00024B22DB2AC42D8BF2C4666F30F0361F329
:107CF0001F43A9EB060565F30F02611A09E00C8822
:107D000064F30F034C8864F31F438C88C98864F3C1
:107D10000F0261F31F42DCF818C0BCF1000FB3D1B1
:107D200003604260BDE8F08F70B5846A15460E4668
:107D3000002C08BF70BD20682A463146436D20469E
:107D40009847A469002CF6D170BD2DE9F04F0F467D
:107D500090F825108DB0914600291FBF846A002C31
:107D60000DF12008002604BF0DB0BDE8F08F00BF64
:107D700094F82500002861D0251D3946404614F0AE
:107D8000E4FEB5F90030B5F904001A18BDF9200079
:107D9000824259DDBDF9241000EB010C9C4553DDF6
:107DA000B5F90210B5F906A001EB0A0BBDF922A046
:107DB000D34549DDBDF926B0D3448B4544DD984217
:107DC000D8BF18468A45C8BF51460FFA8CF312B285
:107DD0009342A8BF13461A1AADF824206B88B5F851
:107DE00006C00FFA8BF263441BB29A42A8BF1A4630
:107DF000521AADF82000ADF82620ADF8221000BFD1
:107E0000DDE90801CDE90001BDF8040000281CBF30
:107E1000BDF80600002811D0BDF80000A1884A4630
:107E2000401AADF80000BDF80200E188401AADF834
:107E3000020020686946036E20469847A469002C1A
:107E400096D10DB0BDE8F08FADF82060ADF824609C
:107E5000ADF82260ADF82660D2E70000804B0360E9
:107E6000C0E901120021C16001617047D0E903102F
:107E700081420CBF012000207047D0E90321891AFC
:107E80000029DCBF806801440129D4BF0120002003
:107E9000704710B50446D4E90320801A0028DCBFDF
:107EA000A368184401280DD9606800EB42101F2216
:107EB0000DF04FF9E068A168401C814298BF401A5C
:107EC000E06010BD0DF09EF810B504460068016832
:107ED0002046884708B10DF095F82069A168401C3C
:107EE000814298BF401A206110BD4168006901EBD2
:107EF0004010704770B50D460446606801684A68D6
:107F000090470028F9D1574E30680168096F8847BB
:107F100013F094FD606801688A68294690472068DC
:107F2000C16A2046884730680168C96EBDE8704064
:107F3000084710B50446406801680968884700286A
:107F400018BF10BD607A002808BF10BD207A002835
:107F500018BF10BD2068416A2046BDE810400847A0
:107F6000406801680968084740680168496808472F
:107F700070B50446012020726068016889698847ED
:107F800005460068202811D00ADC01280ED00228FE
:107F90002FD0042815D008281FD000BF0DF032F8CC
:107FA00040281CBF8028B0F5807FF7D12068C16BC6
:107FB0002046884720682946026B2046BDE870406D
:107FC00010472068297F826B204690472068294609
:107FD000026B2046BDE8704010472068297F826B05
:107FE0002046904720682946426B2046BDE87040F5
:107FF00010472068C16B2046884720682946426B9D
:108000002046BDE87040104710B50446406801683E
:108010000968884738B9207A28B1606801684969D9
:10802000884700202072606801680968884718B195
:10803000BDE8104013F00ABD2068416A2046BDE843
:108040001040084701680969084770477047704742
:1080500010B513F0EBFCBDE8104013F0DDBC0000E0
:108060000426020810040020F0B50D46074680885B
:10807000098885B0084406B22E80F88869880844CB
:1080800004B26C80391D684614F05FFDB5F9040038
:108090003318BDF90000834240DDBDF9041000EB48
:1080A000010CB4453ADDB5F906106218BDF90210AD
:1080B0008A4233DDBDF906200A44A2422EDDB042D9
:1080C000C8BF0646A142C8BF0C460FFA8CF118B2D1
:1080D0008142B8BF0846801BADF8040011B2688821
:1080E000EA88104400B28142B8BF0846001BADF8D0
:1080F0000060ADF80600ADF80240009802900198CB
:10810000039002A9284614F020FD786980B1016827
:108110000A6905B02946BDE8F04010470020ADF8D7
:108120000000ADF80400ADF80200ADF80600E4E789
:10813000FCF78EFD0168CA6A05B02946BDE8F0402B
:10814000104700B5D0E9011283B0CDE9001200213B
:10815000ADF80010ADF8021001680A696946904751
:1081600003B000BD30B50546086883B00C46C26850
:108170006846904720686946426A204690470098C2
:1081800028600198686003B030BD2DE9F003828853
:108190000B8800261A4414B20C80C2884B881A44FB
:1081A0000FFA82FCA1F802C0B0F90420B0F908501F
:1081B000031D5719A74243DDB1F9045004EB05082C
:1081C00090453DDDB3F90250B3F90690A944E1456D
:1081D00036DDB1F90690E144A94531DD9442C8BFCE
:1081E0002246AC45D8BFAC460FFA88F43DB2AC424B
:1081F000A8BF2C46A41A8C804D88CC882C445D885E
:10820000DB8824B22B441BB29C42A8BF1C46A4EBC3
:108210000C03CB800A80A1F802C08A88002A19BF0B
:10822000CA88002ABDE8F00370474069002804BFEF
:10823000BDE8F00370470268126ABDE8F00310471A
:108240000E804E808E80CE80BDE8F003704710B562
:108250000A4682B00446098950894FF0000CADF8F7
:1082600000C0ADF80410ADF802C0ADF8060010680B
:108270006946436A104698470098206001986060FC
:1082800002B010BD82880B881A440A80C2884B88CD
:108290001A444A804069002808BF70470268526A41
:1082A000104710B5044684B051EA020004BF04B080
:1082B00010BDD4E90103CDE90003E088104402B207
:1082C000A088084401B22068436B20469847D4E94F
:1082D0000101CDE90201606950B101680A6969468E
:1082E0009047606901680A6902A9904704B010BD0F
:1082F000FCF7AEFC0168CA6A69469047FCF7A8FC27
:108300000168CA6A02A9904704B010BD84460448B7
:108310000A4600680168D1F89430614618470000A9
:108320001004002010B400248480C480048144819F
:108330008481C4810482448244618461C46180F880
:108340002440012280F82520F74A8462026080F8E8
:108350002C4080F82D40214604638186C186018728
:1083600041878187C18780F84010A0F8421041649E
:10837000816410BC70472DE9F05F04460163408FB3
:108380000D4600281ABF208F0028BDE8F09FA08E60
:1083900000281ABFA06C0028BDE8F09F0168C968DA
:1083A0008847002808BFBDE8F09F0020002D08DDA9
:1083B000B4F9342095FBF2F0411CC04301FB125587
:1083C00000B2B4F934104A42AA4205DB95FBF1F23F
:1083D000801A02FB115500B294F82D605EB1B4F919
:1083E000381090FBF1F201FB1200084490FBF1F20F
:1083F00001FB120010E00028BCBF00FB115500205B
:108400000BDBB4F93A201318B4F938209A4204DA95
:10841000D21A02FB0155104400B294F84010002714
:1084200000291CBFB4F93CC084451ED0B4F93A7091
:108430000121012F19DD00BF0CEB010243184EB1E1
:10844000B4F9388092FBF8F908FB192293FBF8F98C
:1084500008FB1933824201D14F4206E09C4501D10D
:108460000F4602E0491C8F42E6DCB4F93E100026BC
:10847000CA1BB4F93A100A4492FBF1F301FB132230
:10848000E287A0870029C8BF4FF0000B6FDD00BF57
:10849000B4F93E00B4F93A10821992FBF1F001FBF5
:1084A000102AB4F84200504401B2606C026892682D
:1084B0009047814694F82C00B4F934100028B4F9A0
:1084C000360006FB0100284407D001B2D9F80000AD
:1084D0000022836D4846984706E002B2D9F80000B2
:1084E0000021836D48469847B4F93C0000EB06082C
:1084F00094F82D0048B1B4F9380098FBF0F100FB76
:108500001188B8F1000F0ADA06E0B8F1000FA4BF35
:10851000B4F93800404502DC89F825B022E001209A
:1085200089F8250094F8400030B1BE4204DBB4F96C
:108530003A003844864215DBA06C0168C968884758
:1085400080B1B4F84200504402B2D4E9111003687B
:10855000D3F808C00FFA88F3E047D9F80000416962
:1085600048468847B4F93A00761CB04290DC0120B6
:1085700084F84000BDE8F09F426C002A1CBFB0F9AF
:1085800034100029DCBF0020704770B5054690F814
:108590002C00002814BFB5F90800B5F90A00801EA8
:1085A000084490FBF1F0401C04B295F82D0020B96E
:1085B000B5F93800A042B8BF04461068C16810463B
:1085C0008847B5F94210401AA042B8BF044620B20D
:1085D00070BDF8B500274787426C0446002A08BFE3
:1085E000F8BDB4F934100029D8BF384620DD94F81E
:1085F0002C00002814BFB4F90800B4F90A00801E4A
:10860000084490FBF1F0401C05B294F82D0020B90D
:10861000B4F93800A842B8BF05461068C1681046D2
:108620008847B4F94210401AA842B8BF054628B29C
:1086300060872046FFF70DFAB4F93A0000250028BC
:1086400036DD00BFB4F84200284401B2606C026815
:1086500092689047064694F82C00002830460FD0C8
:10866000B4F90A100091E28EA18E524201EB420150
:108670000BB201680022D1F828C01146E0470EE095
:10868000E28EA18E524201EB4201B4F9083009B2E8
:10869000009101680022D1F828C01146E047314618
:1086A0002046FFF7A1F9B4F93A006D1CA842C9DCD5
:1086B00084F84070A787E7872046216BBDE8F84023
:1086C00059E6018185E7418183E790F82C2009B1C3
:1086D0001AB17047002A08BF704780F82C1078E75D
:1086E00090F82C00704790F82D2009B11AB170470E
:1086F000002A08BF704780F82D106AE790F82D0017
:10870000704701EB42018186C2867047B0F93400A0
:108710007047818EC08E404201EB400000B270472E
:10872000B0F9360070470000B02002084164A0F89C
:10873000422083644DE7B0F93A007047018748E76B
:10874000B0F938007047006B70470029A4BFB0F93A
:108750003A208A421FDD002A1CBFB0F93830002BB6
:1087600019D0B0F93EC01144A1EB0C0191FBF2FC11
:1087700002FB1C11828F90F82D00114409B20028D1
:108780001CBF91FBF3F003FB10110029A8BF8B4223
:10879000C4BF084670474FF0FF307047F0B4B2F1E5
:1087A000FF3FA4BFB0F93A30934235DD002B1CBF28
:1087B000B0F93840002C2FD0002A09DBB0F93EC0B8
:1087C000A2EB0C021A4492FBF3FC03FB1C2212B234
:1087D000521C12B29342C4BFB0F93C6090F82D50C5
:1087E0001ADD00BF06EB020C0FFA8CFC002D1CBF3B
:1087F0009CFBF4F704FB17CC614509D1B0F93E00AE
:10880000F0BC104490FBF3F103FB110000B2704781
:10881000521C12B29342E5DCF0BC4FF0FF307047BF
:108820002DE9F00F8A464FF000094FF0FF3C03E0BE
:108830005146BCF1FF3F49DBB0F93A50654545DD93
:10884000002D1CBFB0F93880B8F1000F3ED0BCF14C
:10885000000F0ADBB0F93E40ACEB040CAC449CFBCF
:10886000F5F405FB14CC0FFA8CFC0CF1010C0FFA9B
:108870008CFC6545C4BFB0F93C7090F82D6025DDD7
:1088800007EB0C0424B2002E1CBF94FBF8FB08FB82
:108890001B44A14214D1B0F93E10614491FBF5FC98
:1088A00005FB1C110FFA81FCBCF1000F0EDB4B45E0
:1088B000BEDD22F819C009F101010FFA81F9B7E70D
:1088C0000CF1010C0FFA8CFC6545D9DC4846BDE87B
:1088D000F00F70472DE9F0418046806C0C4600286F
:1088E00008BFBDE8F0810168C9688847002814BF47
:1088F0004FF0FF36BDE8F081B8F93A50B542D8BF25
:10890000BDE8F081002D1ABFB8F938000028BDE895
:10891000F081002E08DBB8F93E10711A294491FB52
:10892000F5F205FB12110EB2711C0AB29542C6BFD8
:10893000B8F93C7098F82D60BDE8F081B9180FFACD
:1089400081FC002E1CBF9CFBF0F100FB11CC6445A8
:108950001BD1B8F93E00104490FBF5F105FB110066
:1089600006B2701C08BFBDE8F081B8F84200304480
:1089700002B2D8E911100368D3F808C02346E047D3
:10898000B6F1FF3FB8DABDE8F081511C0AB295425A
:10899000D4DCBDE8F081000001EB020C0FFA8CFC86
:1089A00098422FD273B3DFEDFE0A00EE100AB8EE44
:1089B000401A00EE103AF8EE401A81EE210A01EE5C
:1089C000102AB8EEC11A21EE001A21EE001ADFEDCE
:1089D000F51A51EE800A00EE101AB8EEC00A01EE48
:1089E000200AF6EE000AB5EEC00AF1EE10FAD4BF86
:1089F00030EE600A30EE200ABDEEC00A10EE100A1A
:108A00000FFA80FC6046704701EB020C0FFA8CFCF9
:108A1000984233D293B39FEDE20A00EE900AB8EE8B
:108A2000601A00EE903AF8EE601AC1EE210AB7EE35
:108A3000001A70EEC10A60EEA01A9FEDDA2A02EE6B
:108A4000200A00EE902AF8EEE00A01EE801A00EE0D
:108A5000101AB8EEC00A00EE810AF6EE000AB5EE72
:108A6000C00AF1EE10FAD4BF30EE600A30EE200AF0
:108A7000BDEEC00A10EE100A0FFA80FC6046704787
:108A80008446881800B29C4528BF7047002B08BF59
:108A900070479FEDC51A00EE103AF8EE400AB6EEA8
:108AA000000A60EE801A00EE90CAB8EE602AC2EEAC
:108AB000210A10EE900A9FEDBD2AB0F17E5F22DA06
:108AC00060EEA01A12EE201A00EE902AF8EEE00AEC
:108AD00021EE811A60EE801A00EE901AF8EEE00A9C
:108AE00041EE810AF5EEC00AF1EE10FA03DD00BF97
:108AF00030EE800A01E030EEC00ABDEEC00A10EE92
:108B0000100A00B27047F0EE001A70EEE10A60EE53
:108B1000A02A02EE201A00EE902AF8EEE00A42EEB9
:108B2000811A20EE801A00EE901AF8EEE00A41EE6B
:108B3000210AF5EEC00AF1EE10FADCDDD8E7844632
:108B4000881800B29C4528BF7047002B08BF7047AB
:108B500000EE10CAF8EE400A00EE103A944BB8EE60
:108B6000401A80EE810A10EE100A9FED921AF6EE7E
:108B7000000A83421DDD20EE011A61EE001A00EEAC
:108B8000101A01EE102AB8EEC00AB8EEC11A01EEB2
:108B9000210AB5EEC00AF1EE10FA02DD30EE200A2D
:108BA00001E030EE600ABDEEC00A10EE100A00B21D
:108BB000704710EE100A804B834219DDDFED7F1AFB
:108BC00030EE610AF6EE081A20EE011A41EE001AA4
:108BD00000EE101A01EE102AB8EEC00AB8EEC11A63
:108BE00001EE210AB5EEC00AF1EE10FAD9DDD5E7A3
:108BF00010EE100A724B834219DDDFED721A30EE6F
:108C0000610AF6EE0E1A20EE011A41EE001A00EE8D
:108C1000101A01EE102AB8EEC00AB8EEC11A01EE21
:108C2000210AB5EEC00AF1EE10FABADDB6E7DFEDC3
:108C3000661A30EE610A20EE011ADFED641A41EE89
:108C4000001A00EE101A01EE102AB8EEC00AB8EEB3
:108C5000C11A01EE210AB5EEC00AF1EE10FAA0DD4C
:108C60009CE730B514460D46214409B2984208D21B
:108C70003BB1181A80B20021FFF761FF201A284487
:108C800001B2084630BD30B514460D46214409B244
:108C9000984234D29BB300EE103AB6EE002AB8EEFA
:108CA000400A60EE020A00EE100AB8EE400AF4EE46
:108CB000C00AF1EE10FA24DD4FF6FF7101EA40011F
:108CC00020B2994206D2581A80B20021FFF737FF2E
:108CD000201A00B200EE100AF8EEC00A00EE105A98
:108CE000B8EEC00A00EE820AB5EEC00AF1EE10FA44
:108CF00024DC26E0BDEEC00A10EE100A01B20846E0
:108D000030BDC3EB400080B20021FFF718FF00EE3A
:108D1000100AB8EEC00A60EE020A00EE104AB8EE81
:108D2000C00A40EE020A00EE105AB8EEC00A30EE59
:108D3000800AB5EEC00AF1EE10FA02DD30EE020A4A
:108D4000D8E730EE420AD5E770B515460C462944FF
:108D50002DED028B09B2984252D2CBB300EE100A2D
:108D6000B7EE008AB8EE401A00EE103AB8EE400AAC
:108D7000C1EE000AB0EE480A00EEE00AF1EEC00AC9
:108D8000F4EE600AF1EE10FA03D014F033FCF0EECA
:108D9000400A00EE104A30EEC81AB8EEC00A18E0D9
:108DA00060CDD93FB0E62C40FF122640FF1266404E
:108DB0008C2EBA3E0000F2408C2E3A3FE9A20B3FC7
:108DC0002FBA683F5D74513F175D743F00007C3FD0
:108DD00016E0684200EE900AF8EEE00A00EE810A22
:108DE000F6EE000AB5EEC00AF1EE10FACCBF30EE96
:108DF000200A30EE600ABDEEC00A10EE100A01B281
:108E0000BDEC028B084670BD70B514460D4621447A
:108E100009B2984237D2B3B300EE100AB8EE401A46
:108E200000EE103AB8EE400AC1EE000AB7EE000AB2
:108E300070EEC00A00EEE00AF0EE400AB1EEE00A81
:108E4000B4EE400AF1EE10FA1CBFB0EE600A14F066
:108E5000D1FB00EE905A01EE104AF8EEE00AB8EEAF
:108E6000C11A41EE000AB6EE000AF5EEC00AF1EEB4
:108E700010FACCBF30EE800A30EEC00ABDEEC00A58
:108E800010EE100A01B2084670BD70B515460C46CA
:108E900029442DED028B09B2984240D2C3B300EEB3
:108EA000103AB6EE008AF7EE008AB8EE400A20EEDD
:108EB000081A00EE100AB8EE400AC0EE010A10EEE1
:108EC000900AB0F17E5F2EDAB0EE680A00EEE00A9A
:108ED000F1EEC00AF4EE600AF1EE10FA03D014F0DD
:108EE00089FBF0EE400A684200EE100A70EEE80AD4
:108EF000B8EEC00A20EE081A00EE104AB8EEC00A1A
:108F000001EE200AB5EEC00AF1EE10FA31DC33E0D2
:108F100005E000BFBDEEC00A10EE100A01B2BDECC4
:108F2000028B084670BDB0EE000A70EEC00AB0EECB
:108F3000680A00EEE00AF1EEC00AF4EE600AF1EE13
:108F400010FA03D014F056FBF0EE400A00EE105A6F
:108F500070EEA80AB8EEC00A20EE081A00EE104A19
:108F6000B8EEC00A01EE200AB5EEC00AF1EE10FA22
:108F700002DD30EE080ACDE730EE480ACAE701EB21
:108F8000020C0FFA8CFC984229D243B300EE100A6F
:108F9000B8EE401A00EE103AB8EE400AC1EE000AF0
:108FA00000EE102AB8EEC00A20EE200A20EE201AA9
:108FB00000EE101AB8EEC00A01EE200AF6EE000A22
:108FC000B5EEC00AF1EE10FAD4BF30EE600A30EE12
:108FD000200ABDEEC00A10EE100A0FFA80FC6046AF
:108FE000704701EB020C0FFA8CFC98422DD263B350
:108FF00000EE100AF8EE400A00EE103AB8EE401A01
:1090000080EE810AF7EE000A30EE600A20EE001AC8
:1090100041EE000A00EE101A01EE102AB8EEC00A66
:10902000B8EEC11A01EE200AF6EE000AB5EEC00A4B
:10903000F1EE10FAD4BF30EE600A30EE200ABDEE39
:10904000C00A10EE100A0FFA80FC60467047844692
:10905000881800B29C4528BF7047002B08BF704796
:1090600000EE103AF8EE400AB6EE000A20EE801A42
:1090700000EE90CAF8EE601AC1EE810A10EE900A76
:10908000B0F17E5F1EDA01EE102AB8EEC11A21EEB1
:10909000001A21EE201A61EE201A01EE101AB8EE25
:1090A000C11A01EEA01AB5EEC01AF1EE10FACCBF4B
:1090B00031EE000A31EE400ABDEEC00A10EE100A91
:1090C00000B27047B0EE001A01EE902A70EEC10AAD
:1090D000F8EEE11A20EEA02A61EE801A02EE201AC4
:1090E00000EE901AF8EEE00A41EE810AF5EEC00AB1
:1090F000F1EE10FAD4BF30EEC00A30EE800ADBE7A2
:1091000010B50C462DED048B114409B298423CD2A7
:10911000DBB3002802BF2046BDEC048B10BD00EE7F
:10912000100AB7EE008AF8EE400A00EE103AB8EEE8
:10913000400AC0EE808A38EE880ADFEDFB0A20EE96
:10914000200A14F08FF9B0EE409ABAEE040AF0EE5D
:10915000000A28EE800A13F053FE09EE008A00EEA2
:10916000104AF6EE000AB8EEC00A38EE000AB5EE74
:10917000C00AF1EE10FACCBF30EE200A30EE600AE1
:10918000BDEEC00A10EE100A01B2BDEC048B084619
:1091900010BD70B515460C4629442DED028B09B261
:1091A000984243D2002B41D0002802BF2046BDEC9C
:1091B000028B70BD00EE100AF8EE400A00EE103A85
:1091C000B8EE400A80EE808A9FEDD80A28EE000AA9
:1091D00014F048F9F0EE408AB7EE000AF2EE040A05
:1091E00038EE400A20EE200AF0EE000A13F008FEE6
:1091F000F0EE400A00EE104AB8EEC01A00EE105A27
:1092000008EEA01AB8EEC00AF6EE000A31EE000A27
:10921000B5EEC00AF1EE10FACCBF30EE200A30EE07
:10922000600ABDEEC00A10EE100A01B2BDEC028B5E
:10923000084670BD70B50C46154601462DED068BEF
:10924000601900B2994224BFBDEC068B70BD002BA3
:1092500004BFBDEC068B70BD002902BF2046BDECEB
:10926000068B70BD00EE101AF0EE008AB7EE008A91
:10927000F8EE400A00EE103AF6EE009AB8EE400A18
:1092800080EE809A19EE100AB0F17C5F2FDA29EE99
:10929000280ADFEDA60A20EE200A14F0E3F8B0EE6B
:1092A00040AAB0EE480AF2EE040A19EE280A20EEAF
:1092B000200AF0EE000A13F0A3FD1AEE008A00EE79
:1092C000104AB8EEC00A08EE290AB5EEC00AF1EE5F
:1092D00010FA02DD30EE290A01E030EE690ABDEC39
:1092E000068BBDEEC00A10EE100A00B270BDB0EEE3
:1092F000480A19EE280AB0EE409A30EE080ADFED6F
:109300008A0A20EE200A14F0ADF8B0EE408ABAEED8
:10931000040AF0EE000A29EE000A13F071FD48EE8F
:10932000008A00EE104AF8EEC00A00EE105A48EE2D
:10933000A90AB8EEC00A30EE800AB5EEC00AF1EE16
:1093400010FACADDC6E770B515460C46294409B2C5
:10935000984237D2B3B3002804BF00EE104AF8EEAB
:10936000C00A1FD000EE100AF8EE400A00EE103AD4
:10937000B8EE401A80EE810AF7EE000A30EE600A7D
:10938000F2EE040A60EE200AB0EE000A13F038FD97
:1093900000EE904A01EE105AF8EEE00AB8EEC11A5B
:1093A00041EE000AB6EE000AF5EEC00AF1EE10FA40
:1093B000CCBF30EE800A30EEC00ABDEEC00A10EE1F
:1093C000100A01B2084670BD70B514460D4621441E
:1093D00009B2984230D27BB300EE100AFAEE040ACA
:1093E000B8EE400A20EE201A00EE103AB8EE400A1D
:1093F000C1EE000AB0EE000A13F002FDF7EE000A1B
:1094000030EEC01A00EE105A00EE904AB8EEC00AD4
:10941000F8EEE00A00EE810AF6EE000AB5EEC00AA8
:10942000F1EE10FAD4BF30EE600A30EE200ABDEE45
:10943000C00A10EE100A01B2084670BD70B50C46A5
:109440001546014660192DED028B00B2994224BFEA
:10945000BDEC028B70BD002B04BFBDEC028B70BD58
:10946000002902BF2046BDEC028B70BD00EE103A11
:10947000B6EE008AB8EE400A60EE080A00EE101A56
:10948000B8EE401A81EE200AF7EE000A10EE100A3C
:1094900030EE600AB0F17E5F24DAF2EE040A60EE8C
:1094A000200AB0EE000A13F0ABFC00EE905AF8EE82
:1094B000E00A20EE881A00EE904AF8EEE00A41EE4B
:1094C000000AF5EEC00AF1EE10FACCBF30EE880AC1
:1094D00030EEC80ABDEEC00ABDEC028B10EE100AD9
:1094E00000B270BDFAEE040A60EE200AB0EE000A87
:1094F00013F086FCF0EE000A70EEC00A00EE105A7F
:10950000B8EEC00A20EE081A00EE104AB8EEC00A03
:1095100001EE200AB5EEC00AF1EE10FAD4BF30EE2B
:10952000480A30EE080AD5E7E25CA3C1E25CA34139
:1095300001EB020C0FFA8CFC984227D233B300EEF9
:10954000102AF8EEC00A00EE100AB8EE400A60EEEB
:10955000800A00EE103AB8EE400A80EE801A00EE63
:10956000101AF6EE000AB8EEC00A31EE000AB5EEA7
:10957000C00AF1EE10FAD4BF30EE600A30EE200AD5
:10958000BDEEC00A10EE100A0FFA80FC604670476C
:1095900001EB020C0FFA8CFC984227D233B300EE99
:1095A000102AF8EEC00A00EE100AB8EE400A60EE8B
:1095B000800A00EE103AB8EE400A80EE801A00EE03
:1095C000101AF6EE000AB8EEC00A31EE000AB5EE47
:1095D000C00AF1EE10FAD4BF30EE600A30EE200A75
:1095E000BDEEC00A10EE100A0FFA80FC604670470C
:1095F00001EB020C0FFA8CFC984227D233B300EE39
:10960000102AF8EEC00A00EE100AB8EE400A60EE2A
:10961000800A00EE103AB8EE400A80EE801A00EEA2
:10962000101AF6EE000AB8EEC00A31EE000AB5EEE6
:10963000C00AF1EE10FAD4BF30EE600A30EE200A14
:10964000BDEEC00A10EE100A0FFA80FC60467047AB
:1096500001EB020C0FFA8CFC984227D233B300EED8
:10966000102AF8EEC00A00EE100AB8EE400A60EECA
:10967000800A00EE103AB8EE400A80EE801A00EE42
:10968000101AF6EE000AB8EEC00A31EE000AB5EE86
:10969000C00AF1EE10FAD4BF30EE600A30EE200AB4
:1096A000BDEEC00A10EE100A0FFA80FC604670474B
:1096B00001EB020C0FFA8CFC984227D233B300EE78
:1096C000100AB8EE401A00EE103AB8EE400AC1EEA9
:1096D000000A00EE102AB8EEC00A20EE201A00EEB2
:1096E000101AB8EEC00A01EE200AF6EE000AB5EE36
:1096F000C00AF1EE10FAD4BF30EE600A30EE200A54
:10970000BDEEC00A10EE100A0FFA80FC60467047EA
:1097100001EB020C0FFA8CFC98422CD25BB300EEEA
:10972000100A5042F8EE400A00EE103AB8EE401A25
:1097300080EE810A00EE900AB0EE001AF8EEE00A20
:1097400060EE800A30EE411A00EE101AB8EEC00A40
:1097500000EE810AF6EE000AB5EEC00AF1EE10FA4C
:10976000D4BF30EE600A30EE200ABDEEC00A10EE23
:10977000100A0FFA80FC604670478446881800B2D1
:109780009C4528BF7047002B08BF704700EE103A79
:10979000F8EE400AB6EE000A20EE801A00EE90CAFB
:1097A000F8EE601AC1EE810A10EE900AB0F17E5F09
:1097B0001CDA01EE102AB8EEC11A21EE001A61EE91
:1097C000201A01EE101AB8EEC11A01EEA01AB5EE79
:1097D000C01AF1EE10FACCBF31EE000A31EE400AA9
:1097E000BDEEC00A10EE100A00B27047B0EE001ACB
:1097F000504270EEC10A01EE900AF8EEE11A10EE46
:10980000A01A00EE901A61EE801AF8EEE00A41EE1E
:10981000810AF5EEC00AF1EE10FAD4BF30EEC00AAC
:1098200030EE800ADCE701EB020C0FFA8CFC984268
:109830002BD253B300EE100AF8EE400A00EE103AB5
:10984000B8EE401A80EE810A00EE902AF8EEE00AA7
:1098500060EE800A60EE800A20EE801A00EE901A18
:10986000F8EEE00A41EE000AB6EE000AF5EEC00A94
:10987000F1EE10FAD4BF30EEC00A30EE800ABDEE31
:10988000C00A10EE100A0FFA80FC6046704701EB28
:10989000020C0FFA8CFC984230D27BB300EE100A17
:1098A0005042F8EE400A00EE103AB8EE401A80EE50
:1098B000810AF7EE000A30EE600A20EE001A21EE6F
:1098C000001A51EE000A00EE101A01EE100AB8EE6E
:1098D000C00AB8EEC11A01EE200AF6EE000AB5EE93
:1098E000C00AF1EE10FAD4BF30EE600A30EE200A62
:1098F000BDEEC00A10EE100A0FFA80FC60467047F9
:109900008446881800B29C4528BF7047002B08BFCA
:10991000704700EE103AF6EE000AB8EE400A20EE6C
:10992000201A00EE10CAF8EE401A81EE810A10EEFD
:10993000100AB0F17E5F20DA01EE102AB8EEC11AEB
:1099400021EE201A21EE001A21EE001A61EE001A13
:1099500001EE101AB8EEC11A01EE801AB5EEC01A67
:10996000F1EE10FACCBF31EE200A31EE600ABDEE06
:10997000C00A10EE100A00B27047B0EE001A504252
:1099800030EE410A01EE900A20EE002AF8EEE11ACC
:1099900022EE002A61EEA01A12EE001A00EE101A52
:1099A000B8EEC00A01EE810AB5EEC00AF1EE10FA77
:1099B000D4BF30EE600A30EE200AD8E701EB020C8B
:1099C0000FFA8CFC98422DD263B300EE100AF8EE29
:1099D000400A00EE103AB8EE401A80EE810A00EE1E
:1099E000902AF8EEE00A60EE800A60EE800A60EEEF
:1099F000800A20EE801A00EE901AF8EEE00A41EE9E
:109A0000000AB6EE000AF5EEC00AF1EE10FAD4BF75
:109A100030EEC00A30EE800ABDEEC00A10EE100A29
:109A20000FFA80FC6046704701EB020C0FFA8CFCC9
:109A3000984231D283B300EE100AF8EE400A00EEED
:109A4000103AB8EE401A80EE810AF7EE000A30EEC6
:109A5000600A20EE001A21EE001A21EE001A41EEF3
:109A6000000A00EE101A01EE102AB8EEC00AB8EE95
:109A7000C11A01EE200AF6EE000AB5EEC00AF1EEB8
:109A800010FAD4BF30EE600A30EE200ABDEEC00AF4
:109A900010EE100A0FFA80FC604670478446881862
:109AA00000B29C4528BF7047002B08BF704700EEEE
:109AB000103AF6EE000AB8EE400A20EE201A00EE48
:109AC00010CAF8EE401A81EE810A10EE100AB0F1C9
:109AD0007E5F22DA01EE102AB8EEC11A21EE201ABA
:109AE00021EE001A21EE001A21EE001A61EE001A92
:109AF00001EE101AB8EEC11A01EE801AB5EEC01AC6
:109B0000F1EE10FACCBF31EE200A31EE600ABDEE64
:109B1000C00A10EE100A00B27047B0EE001A01EE53
:109B2000902A30EE410AF8EEE11A20EE002A61EEAA
:109B3000A01A22EE002A22EE002A02EE001A00EEFF
:109B4000101AB8EEC00A01EE810AB5EEC00AF1EEB5
:109B500010FAD4BF30EE600A30EE200AD7E770B5B5
:109B600014460D46214409B2984231D283B300EE27
:109B7000100AF8EE400A00EE103AB8EE401A80EEF5
:109B8000810ADFED4C0A20EE200A13F059F86042FA
:109B900000EE904A01EE100AF8EEE00AB8EEC11AA3
:109BA00041EE000A00EE105AB8EEC00A30EE800A0C
:109BB000F6EE000AB5EEC00AF1EE10FAD4BF30EEB0
:109BC000600A30EE200ABDEEC00A10EE100A01B2A3
:109BD000084670BD70B514460D46214409B298423E
:109BE0002AD24BB300EE100AF8EE400A00EE103A0B
:109BF000B8EE401A80EE810ADFED2E0A20EE200A30
:109C000013F030FC00EE905A01EE104AF8EEE00A34
:109C1000B8EEC11A41EE000AB6EE000AF5EEC00A2F
:109C2000F1EE10FAD4BF30EEC00A30EE800ABDEE7D
:109C3000C00A10EE100A01B2084670BD70B5154694
:109C40000C46294409B2984231D283B300EE100A7F
:109C5000DFED190AB8EE400A60EE200A00EE103A75
:109C6000B8EE401A80EE810A12F0EAFFF7EE000A21
:109C7000684230EE601A00EE100AF6EE000AB8EE06
:109C8000C00A60EE201A00EE104AB8EEC00A01EEDB
:109C9000810AB5EEC00AF1EE10FAD4BF30EE600AC8
:109CA00030EE200ABDEEC00A10EE100A01B20846DE
:109CB00070BD0000DB0FC93FDB0F49400FB4C9493D
:109CC00010B5C84A496804ABD2F800C000EB610087
:109CD00011F0010F02D0016851F80CC00021039A65
:109CE000E04710BC5DF814FB0FB4BE4A10B5DFF8B6
:109CF000F4C2526805ABDCF800C000EB620012F061
:109D0000010F02D0026852F80CC0049AE04710BC60
:109D10005DF814FB10B50268D2689047002808BFB0
:109D200010BD417B11F0800118BF4FF48071807A23
:109D3000084310BD0FB430B597B005461CAC68465B
:109D400008F003F82868416C2846884703462246F5
:109D500068461B9908F02AF8002001461690FF2457
:109D600016AB2A46684608F03AFD00B30A281CBF25
:109D70001698002813D0417B11F0400218BF4FF411
:109D80007E4211F0200118BF4FF480711143007A18
:109D900008432979081AC0B2A04238BF044616AB5E
:109DA0002A460021684608F01AFD0028DED117B0C7
:109DB000204630BC5DF814FB0FB430B597B00546B3
:109DC0001CAC684607F0C1FF2868416C28468847EC
:109DD0000346224668461B9907F0E8FF002416ABAD
:109DE0002A4621466846169408F0F9FC002829D036
:109DF0000A281CBF169800281CD0417B11F0400295
:109E000018BF4FF47E4211F0200318BF4FF4807347
:109E10001A43037A1A43AB8812B29A1A11F010014E
:109E200018BF4FF48071C0790843104480B2A0423B
:109E3000C8BF04B216AB2A460021684608F0CFFC22
:109E40000028D5D117B0A0B230BC5DF814FB0FB418
:109E500030B597B005461CAC684607F076FF296818
:109E60002846496C88470346224668461B9907F0F6
:109E70009DFF0124684607F0BCFF40B10A2804BFDB
:109E8000601C04B2684607F0B4FF0028F6D117B092
:109E9000A0B230BC5DF814FB2DE9F04798B007463E
:109EA0001C4615468A46684607F04FFF3868416CE5
:109EB00038468847034622462946684607F076FF1B
:109EC00000252E462C46A946A04616AB3A465146DA
:109ED0006846CDF8589008F082FC040018BF0A2CA0
:109EE0001BD0169A002AEFD0386894884146C36B7D
:109EF0003846984701461698427B12F0800218BFF8
:109F00004FF48072807A10430844284485B2002CB4
:109F1000DAD118B03046BDE8F087B54288BF2E468A
:109F20000025F4E72DE9FF4FB7B006461D4614465D
:109F300008A807F00AFF3068426C30469047034695
:109F40002A46214608A807F031FF1EA807F0FDFEAB
:109F50003068426C3046904703462A4621461EA888
:109F600007F024FF002508A8389908F0CBF91E4F08
:109F7000DFF878B0ADF8D00000240DF120080DF125
:109F8000780947F6FF7A00BFADF8D440396891F8F8
:109F9000760000281ABFC86C00288868CDE905A49F
:109FA0000794DBE90012CDE9031234A9CDE90018CA
:109FB000CDF80890324635A9389B01F036FFBDF93F
:109FC000D410A942C8BF8DB218B11EA8389908F0A4
:109FD00099F9BDF8D0000028D6D13BB02846BDE89D
:109FE000F08F0000840300201004002048050208C0
:109FF000054908607047014603480068002808BF0B
:10A000007047026812681047FC03002010B5044630
:10A0100011F0BCFC60680168C9688847E0680168A5
:10A02000896888472068816E2046BDE8104008474F
:10A0300004460068416F204688472068C16E20466C
:10A04000884700BF11F0D6FC2068416E2046884743
:10A05000F8E7012180F84B1080F869107047012162
:10A0600080F84B1080F869107047416801224A72ED
:10A0700040680168096908474068016889680847BD
:10A0800070B5FB4D0446687848B96068FDF768FF15
:10A09000002818BF616802D04A7A002AFCD011F06B
:10A0A000C5FC687840B12068816A20468847E16B2A
:10A0B000884204BF206C70BDE06B70BD11F0ACBC79
:10A0C000704708467047002B04BF0120704730B42A
:10A0D000D007B0EBC17F18D0B3F1004FA3F101005E
:10A0E00007D300BF12F8013B01F8013B401EF9D233
:10A0F00074E0B0F1FF3F71DD12F8013B401E01F842
:10A10000013BB0F1FF3FF7DC68E012F0010F04D033
:10A1100012F8010B01F8010B5B1E0124012B27D95A
:10A120009007B0EB817F1BD0B3F1004F08D300BF85
:10A1300032F8020B9B1E21F8020B012BF8D817E016
:10A1400003EBD37C012004EB6C0C05E032F8025BDE
:10A150009B1E21F8025B401C8445F7DC012B07D9CC
:10A1600012F0030F04D032F8020B21F8020B9B1EF1
:10A17000B3F1004F08D300BF52F8040B1B1F41F886
:10A18000040B032BF8D81CE00120DD1703EB957CB2
:10A1900004EBAC0C06E000BF52F8044B1B1F41F867
:10A1A000044B401C8445F7DCB3F1004F09D3581E23
:10A1B00033B100BF12F8013B01F8013B401EF9D258
:10A1C0000CE0581EB0F1FF3F08DD00BF12F8013B64
:10A1D000401E01F8013BB0F1FF3FF7DC30BC01202D
:10A1E0007047704710B500200C2928BF10BDDFE86C
:10A1F00001F00A08060C0C0C0C0E0E0E0E0E2020A0
:10A2000010BD182010BD102010BD0AF0FBFE082064
:10A2100010BD70B50020DDE904549C460C2C10D212
:10A22000DFE804F00A08060C0C0C0C0E0E0E0E0EE5
:10A23000202006E0182004E0102002E00AF0E2FEF0
:10A24000082005FB0211C00801FB00C070BD2DE90C
:10A25000F04F89B00446DDE915B0DDE91858DDE9B5
:10A26000127A4FF0000EDDF85CC0DDF850901A9EB7
:10A27000CDF818E0B8F1020F2DD0FF2828BFBCF1AF
:10A28000000F0CBF4FF0010C4FF0040CCDF800C0D4
:10A29000CDE901128DF81C007548ADF810A0ADF89D
:10A2A0001290ADF814B040789B4640B12068816AA6
:10A2B00020468847E16B884208BF216C00D0E16BE3
:10A2C00000200C2E18D2DFE806F0141210383838AF
:10A2D000381616161616FF2828BFBCF1000F14BF3B
:10A2E0004FF0400C4FF0200CD0E7202004E0182065
:10A2F00002E0102000E0082005FB07B2C00802FBC6
:10A3000000108DF81D800390ADF816508DF81E607A
:10A31000BAF1000F18BFB9F1000F0ED02068816BA1
:10A32000204688470099084207D0606801684A685B
:10A330006946904709B0BDE8F08F0AF063FE2DE949
:10A34000F0478AB00DF1480EBEE8F0178DE8F81717
:10A3500013460022FFF77BFF0AB0BDE8F0872DE926
:10A36000FF4F89B0424CDDE919762169DDE9179884
:10A3700091F87600DDF858A01D46934600281ABFD4
:10A38000C86C002888680168496A88476189CDE9F6
:10A390000610CDE9005A0890CDE90476CDE902987F
:10A3A000DDE909015B460022FFF751FF0DB0BDE872
:10A3B000F08F2DE9FF4F2E4C89B08B462169DDE9E6
:10A3C0001876DDE9169891F876001D469246002829
:10A3D0001ABFC86C002888680168496A8847628982
:10A3E0000123CDF80880CDE905320221CDE907101F
:10A3F000CDE90059CDE90376534600225946099824
:10A40000FFF725FF0DB0BDE8F08F2DE9F0411848AA
:10A410000E461546016947891C4691F876000028CA
:10A420001ABFC86C002888680168496A88474FF0DD
:10A43000000C0C2814D2DFE800F00C09060F0F0FF7
:10A440000F11111111114FF0200C09E04FF0180CF1
:10A4500006E04FF0100C03E00AF0D4FD4FF0080CBA
:10A4600007FB05604FEADC0100FB0140BDE8F0811D
:10A47000000400202DE9F04788B09946DDE911631A
:10A4800092460446DDE91402109F4FF0000CCDF80F
:10A4900018C0CDE90021DDF84C80ADF81070ADF8A2
:10A4A0001260ADF814308DF81C00FE4D687848B18C
:10A4B0002068816A20468847E16B884204BF2046B5
:10A4C000236C01D0E36B20464A465146FFF79DFFBF
:10A4D00003906889ADF81600296991F87600002884
:10A4E0001ABFC86C002888680168496A88478DF8D7
:10A4F0001E008DF81D00002F18BF002E10D0206800
:10A50000816B204688470099084209D0CDF8188011
:10A51000606801684A686946904708B0BDE8F087FE
:10A520000AF070FD2DE9FF4F89B04FF00009DDE919
:10A5300017BADDE919650446CDF81890BAF1FF0F96
:10A5400034BF082002209046CDE90009D5481F46B7
:10A55000407840B12068816A20468847E16B884294
:10A5600008BF216C00D0E16B00200C2D0ED2DFE87B
:10A5700005F00A0806333333330C0C0C0C0C202086
:10A5800004E0182002E0102000E0082006FB07820B
:10A59000C00802FB001003901698ADF81000ADF84B
:10A5A0001490ADF816608DF81CA00A988DF81D5017
:10A5B000ADF812B006908DF81E502068816B2046D1
:10A5C00088470099084207D0606801684A68694670
:10A5D00090470DB0BDE8F08F0AF014FD2DE9F04F63
:10A5E000B04C85B08B4621690546DDE90F7691F8C0
:10A5F0007600DDF838809946924600281ABFC86C6C
:10A60000002888680168496A88476189CDF8008018
:10A61000CDE90310CDE9017628684B465246D0F8C3
:10A6200050C059462846E04705B0BDE8F08F816527
:10A630001C3006F0E7BCF0B59A4E044689B0B078FD
:10A640000F461546002834D00020069001200090C7
:10A650002068816A2046884703463A0CB9B22046F2
:10A66000FFF7D3FE0190606C0390ADF81050280CFA
:10A67000ADF812007089ADF81400ADF8160031691C
:10A6800091F8760000281ABFC86C00288868016815
:10A69000496A88478DF81D008DF81E00FF208DF84F
:10A6A0001C00606801684A6869469047606C09B0A0
:10A6B000F0BD0AF0A7FC2DE9F04188B00546002066
:10A6C00006900120009028680F461E46816A1446B5
:10A6D000DDF838802846884703463A0CB9B2284648
:10A6E000FFF793FE0190ADF81040200CADF812007A
:10A6F0006C4803964189ADF81410ADF816800169D5
:10A7000091F8760000281ABFC86C00288868016894
:10A71000496A88478DF81D008DF81E00FF208DF8CE
:10A720001C00686801684A686946904708B030466E
:10A73000BDE8F08110B5044690F86A00002808BF13
:10A7400010BD022011F010FD002084F86A0084F88A
:10A7500069005448407840B12068816A20468847A3
:10A76000E16B884208BF216C00D0E16B2068D0F813
:10A77000A8202046BDE8104010472DE9F04383B0E3
:10A7800005460F4680690A9999461646002837D033
:10A790000022029202AACDE9001201683246D1F8E5
:10A7A00000C03946E0473F4C8046A4F80A90216932
:10A7B00091F8760000281ABFC86C002888680168E4
:10A7C000496A88470C2817D2DFE800F0060E1A1AEB
:10A7D0001A1A1A1A1A1A1A1A6089029906FB0070B4
:10A7E000404201EB400006E06089029906FB0070E0
:10A7F000A0EB80000844E86303B04046BDE8F08366
:10A800000AF000FC10B504464FF0030059B111F0F6
:10A81000A8FC2069002808BF10BD01684A69BDE88E
:10A8200010400121104711F09EFC2069002808BF4C
:10A8300010BD01684A69BDE8104000211047006959
:10A84000002808BF704701680969084700B583B050
:10A850004FF0000CADF800C0ADF804C0ADF802C078
:10A86000ADF806C0D0F800C06B46DCF898C0E047F1
:10A8700003B000BD2DE9F04F064693B01D460C46CF
:10A8800090461046FBF796FE002804BF13B0BDE8C3
:10A89000F08F044F38690168096A88473869016890
:10A8A000496A01E0000400208847ADF83C807889BF
:10A8B0000E90B8890D900FA8FBF7EDF878810FA8DE
:10A8C000FBF70CF9B8813869C16B0C91006C0190F1
:10A8D0004046FBF76FFE396900220864C8632068B0
:10A8E000B4F80490B4F80680436B114620469847AC
:10A8F00094F82570012084F82500B5F904A0211DE5
:10A90000BAF1000F1CBFE88800287DD006A812F01D
:10A910001CF9B5F90020BDF9180002EB0A0C8445BA
:10A9200073DDBDF91C1000EB010A92456DDDB5F930
:10A9300002B0B5F906100BEB0103BDF91A108B42FA
:10A9400063DDBDF91E300B445B457EDD9042D8BF10
:10A9500010465945D8BF59460FFA8AF20FFA8CFCB7
:10A960006245A8BF6246121AADF81C201AB26B8865
:10A97000B5F806C063441BB29A42A8BF1A46521AE1
:10A98000ADF81800ADF81E20ADF81A10DDE906018B
:10A99000CDE90801C34D286990F8761000291ABF47
:10A9A000D0F84CA0BAF1000FD0F808A00FA8FBF720
:10A9B00040F88346DAF80000416A504688478345EC
:10A9C0001CBFF06C00280BD00FA8FBF732F88246B2
:10A9D000F06C0168496A8847824508BF012000D0B1
:10A9E000002086F876000020D4F814A0606120686A
:10A9F00008A98268204690470020C4F814A086F871
:10AA0000760084F8257001E01BE01EE020680FFA54
:10AA100088F20FFA89F1436B2046984728690C9910
:10AA2000C163019901640E9969810D99A981016839
:10AA3000096A884728690168496A884713B0BDE8F0
:10AA4000F08F08A812F081F8A4E70020ADF81800F4
:10AA5000ADF81C00ADF81A00ADF81E0096E7F0B591
:10AA60000446006885B0D0F8A010204688478D4F76
:10AA70000026002800F0A880012011F072FB94F855
:10AA8000660084F8670084F8666084F84B6094F888
:10AA9000750030B12068D0F8B4102046884784F89B
:10AAA000756094F84A10606800290CBF01210021EC
:10AAB00041720125FD70FAF7CBF801680A6B01219C
:10AAC000904794F86700002808BF84F86750FAF7A9
:10AAD000BFF8016849698847A06D0168096988471E
:10AAE00094F86700401EC0B284F8670094F86810BC
:10AAF000002918BF0028EAD13879401C40B23871CB
:10AB000094F96410814214DC3E71E06802AA016885
:10AB1000CB6801A998470028206806D0DDE901121A
:10AB2000D0F8AC302046984703E0D0F8B01020466B
:10AB300088478DF80060606950B10168CA6869464D
:10AB4000904728B1A06D0168CA689DF80010904731
:10AB500004F11C0006F058FA94F86C0000282DD07F
:10AB600020690168096988470546206F002808BFE9
:10AB70002567206F4C49281A88421FD9206901682F
:10AB8000896988470146206F484A281AA2FB00209D
:10AB90004009B1FBF0F00028D8BF642006DD64282E
:10ABA000ACBF84F86560C0F1640001DA84F8650028
:10ABB00020690168CA69002190472567FAF748F8BB
:10ABC00001680A6B002190472068D0F8A410204645
:10ABD0008847012011F0C7FAFE7005B0F0BD314979
:10ABE000497800291BBF90F86A0000280120002046
:10ABF000704710B50446406801688968884794F832
:10AC0000690000281CBF012084F86A0010BD10B53F
:10AC100084B00446CDE9021202A808F044FE02A85E
:10AC200003A906F099F994F86B000028039817D04F
:10AC300080B20090029883B2B4F8600082B2B4F897
:10AC40005C0081B204F11C0006F0EEF9002804BF9C
:10AC500004B010BD0298E0650398206604B010BDF2
:10AC600083B20298002182B204F11C0006F01FFAA0
:10AC7000012084F86B00EDE710B5044690F86B00F6
:10AC8000002808BF10BDB4F86000012183B2B4F8F9
:10AC90005C0082B204F11C0006F009FA002084F87E
:10ACA0006B0010BD0004002000E1F5051F85EB518D
:10ACB00010B504460888E08404F12600FAF7EBFE9C
:10ACC00001B22068826B2046904704F12600FAF713
:10ACD00005FF01B22068C26B2046904704F12600B0
:10ACE000FAF767FF84F8290010BD2DE9F0478AB014
:10ACF0000024ADF81040ADF814408046ADF8124085
:10AD0000ADF8164000680D4604A9426A40469047D7
:10AD100008F1260A5046FAF7BEFE81465046FAF779
:10AD2000DDFE69F30F0764F30F0660F31F4764F35A
:10AD30001F4608A96846CDE9086711F006FFB5F976
:10AD40000030B5F904004FF0010C03EB0009BDF928
:10AD5000000081455BDDBDF9041047189F4256DDB8
:10AD6000B5F90220B5F906105618BDF902108E4249
:10AD70004DDDBDF906600E44964248DD9842D8BFCD
:10AD800018469142C8BF0A463BB20FFA89F18B427E
:10AD9000B8BF1946091AADF804106B88EC8831B2B7
:10ADA00023441BB29942A8BF1946891AADF8000086
:10ADB000ADF80610ADF80220DDE90001CDE906018D
:10ADC000BDF81C00002819BFBDF81E0000280AB0FD
:10ADD000BDE8F0871B48016891F8760000281ABF8B
:10ADE000C86C0028886898F8281006AACDE90021C8
:10ADF000CDF808C00168BDF91230BDF91020D1F8B6
:10AE00000CC008F12601E0470AB0BDE8F087ADF8B4
:10AE10000040ADF80440ADF80240ADF80640CBE785
:10AE200091F82820FF2A0AD24FF0000CA0F800C0A9
:10AE3000A0F802C0A0F804C0A0F806C070472631F0
:10AE4000FAF76FBE1004002030B583B0DDE9074586
:10AE5000DDF818C0ADF80010ADF80430ADF80220F0
:10AE6000ADF806C001682B462246D1F81CC06946E1
:10AE7000E04703B030BD30B583B0DDE90745DDF80C
:10AE800018C0ADF80010ADF804C0ADF80220ADF860
:10AE9000063001682B462246D1F81CC06946E047BF
:10AEA00003B030BD2DE9F04782B00D46B1F80090F7
:10AEB000B1F802C0C9880A9FADF80090ADF804202F
:10AEC000ADF802C0ADF80610016898461446D1F8F6
:10AED0001CC006463B4642466946E047B5F90010AD
:10AEE000B5F90420304611444FF0FF3909FA81FCCE
:10AEF000B5F802A0E988ADF800C0ADF80440ADF89F
:10AF000002A0ADF8061031683B464246D1F81CC09D
:10AF10006946E047B5F800C0B5F802A0A988ADF8C9
:10AF200000C0ADF80410ADF802A0ADF806403168DD
:10AF300030463B46D1F81CC042466946E047B5F969
:10AF40000210B5F90620B5F800C03046114409FAE0
:10AF500081F6A988ADF800C0ADF80410ADF8026024
:10AF6000ADF80640016842463B46D1F81CC0694630
:10AF7000E04702B0BDE8F08708B500931346012210
:10AF8000FFF790FF08BD0FB4DFF848C410B5DCF838
:10AF900004C082B000EB6C001CF0010FDFF834C479
:10AFA0001A46089BDCF800C00AA902D0046854F8CD
:10AFB0000CC001910999009105A9E04702B010BCAD
:10AFC0005DF814FB2DE9FF4FD1B01F4615468046B2
:10AFD0009369D06AD5E9012CDDE95E64DDE961A9F8
:10AFE000FD49DDF880B18C45C7BFD5F81CC08C4544
:10AFF00055B0BDE8F08FD5F830C08C45DCBF55B0FA
:10B00000BDE8F08FD5F800C0F449CDF814C08C45E8
:10B01000C7BFD5F814C08C4555B0BDE8F08FD5F842
:10B0200028E0EE49CDF80CE08E45DCBF55B0BDE818
:10B03000F08FEB49DDF814E08E45D2BF8C4555B05A
:10B04000BDE8F08FDDF80CC08C45B9BFDFF88CC3CC
:10B05000944555B0BDE8F08F9C45B2BF844555B0CE
:10B06000BDE8F08F8A42D2BF8B4255B0BDE8F08F69
:10B070008842A4BF55B0BDE8F08F9A4221DA9042D1
:10B080000ADA02200390002004900120059000209D
:10B0900002900120019020E000210391834207DA11
:10B0A000012004900220059001200290022013E06C
:10B0B00002200490012005900220029001200190BE
:10B0C0000BE098422FDA0220039001200490002028
:10B0D00005900120029000200190294640A807F029
:10B0E000F7FF059800902A4640A910A8039B08F096
:10B0F0009CF9049800902A4640A930A8039B08F0C8
:10B1000094F9059800902A4640A920A8049B08F0CD
:10B110008CF9DDE90101884219DD00200A9010A8B0
:10B12000089030A818E001210391824207DA00203C
:10B13000049002200590032002900220CCE7022018
:10B14000049000200590022002900320C4E7012013
:10B150000A9030A8089010A809900898B6F9021033
:10B16000B4F906C04269B4F90200369D531884440C
:10B170009C4508DD9842C8BF002D12DD1144401ADD
:10B180000690A84200DD06950698002809DD0146D4
:10B1900030A810F09CFF10A8069910F098FF0698B0
:10B1A0002D1A281EA5F101057DDD00BFCDE9034B59
:10B1B000CDE905A90998CDE900070296D8F8000065
:10B1C00040AA089BD0F83CC040465299E0470898F6
:10B1D000B6F90210B4F9022040690844411CB4F9E0
:10B1E000060010448142A4BF55B0BDE8F08FDDE9F0
:10B1F0003001084430903598401C35903698401EF8
:10B2000036909DED3A0ADDED3B0A30EE200A8DEDD9
:10B210003A0ADDED3D0A9DED3E1A30EE811A8DEDC4
:10B220003D1ADDED370ADDED381A70EEA10ACDEDDD
:10B23000370A32993498084433993490884217DB9E
:10B240003098401C30903498401A3490DDED391A13
:10B2500070EEA10ACDED370ADDED3C0A30EE200A92
:10B260008DED3A0A9DED3F0A31EE000A8DED3D0A63
:10B27000DDE91001084410901598401C15901698AF
:10B28000401E16909DED1A0ADDED1B0A30EE200AD5
:10B290008DED1A0ADDED1D0A9DED1E1A30EE811AA4
:10B2A0008DED1D1A00E02BE0DDED170ADDED181A1B
:10B2B00070EEA10ACDED170A12991498084413995B
:10B2C0001490884217DB1098401C10901498401A74
:10B2D0001490DDED191A70EEA10ACDED170ADDED1F
:10B2E0001C0A30EE200A8DED1A0A9DED1F0A31EE80
:10B2F000000A8DED1D0A281EA5F101053FF756AF86
:10B300000A98269D002804BF10A8089020A81CBFFA
:10B31000089010A809900898B6F90230B4F906C050
:10B320004269B4F90200D11884448C4508DD884292
:10B33000C8BF002D12DD9918401A0690A84200DD02
:10B3400006950698002809DD014620A810F0BFFEEA
:10B3500010A8069910F0BBFE06982D1A281EA5F11C
:10B360000105DCBF55B0BDE8F08F00BFCDE9034B50
:10B37000CDE905A90998CDE900070296D8F80000A3
:10B3800040AA089BD0F83CC040465299E047089834
:10B39000B4F902204169B6F902000844411CB4F92D
:10B3A000060010448842DCBF55B0BDE8F08FDDE9EF
:10B3B0002001084420902598401C25902698401E86
:10B3C00026909DED2A0ADDED2B0A30EE201A8DED38
:10B3D0002A1A07E09C03002000002041008FFDFF97
:10B3E000007102009DED2D0ADDED2E0A30EE200ADF
:10B3F0008DED2D0ADDED270ADDED281A70EEA10A8C
:10B40000CDED270A2299249808442399249081425B
:10B4100017DC2098401C20902498401A2490DDEDE1
:10B42000291A70EEA10ACDED270ADDED2C0A71EE86
:10B43000200ACDED2A0ADDED2F0A30EE200A8DED2F
:10B440002D0ADDE91001084410901598401C159054
:10B450001698401E16909DED1A0ADDED1B0A30EE7F
:10B46000200A8DED1A0ADDED1D0A9DED1E1A30EE43
:10B47000811A8DED1D1ADDED170ADDED181A70EE3B
:10B48000A10ACDED170A1299149808441399149043
:10B49000884217DB1098401C10901498401A1490A2
:10B4A000DDED191A70EEA10ACDED170ADDED1C0ACB
:10B4B00030EE200A8DED1A0A9DED1F0A31EE000ACA
:10B4C0008DED1D0A281EA5F101053FF74FAF55B0C0
:10B4D000BDE8F08F30B587B0002A04BF07B030BD9B
:10B4E000012A1DD0022A30D0032A1CBF07B030BD6C
:10B4F00004ABCA88C188B0F802C0521AA2EB0C0291
:10B50000B0F800C08488ADF81410ADF81020ADF884
:10B5100012C0ADF81640194611F017FB07B030BD48
:10B520008A8881880488521A121BB0F802C0C48825
:10B53000ADF80440ADF800C0ADF80610ADF802203B
:10B54000694611F002FB07B030BDB1F804C0828833
:10B550000488ACEB020CACEB040CCC88C1884588A9
:10B56000641AADF80C2002AB641BADF808C0ADF84E
:10B570000E10ADF80A40194611F0E7FA07B030BDD9
:10B58000B0F900C0012B08D0022B0BD0032B0CBF4D
:10B590000CEB02000CEB01007047B0F904006044B2
:10B5A000801A03E0B0F904006044401A401E70475E
:10B5B000B0F902C0012B04BF0CEB01007047022B55
:10B5C0000AD0032B1CBF0CEB02007047B0F9060039
:10B5D0006044401A401E7047B0F906006044801A6B
:10B5E000F8E72DE9FF4F97B000242598DDE929827F
:10B5F00003888088269D184400B2119028682499F9
:10B600004746437A1493007A0F90B1F900000E94E4
:10B610000C9032B1287C04280CBF0220012000EBE2
:10B6200008070026002FC4BF4FF6FF6A42F20B0B3B
:10B6300040F312810020A1460D9046450EDB28689C
:10B640000168496988470446286815AB10AA016853
:10B65000D1F808C02146E0470D900AE015A910A8CE
:10B66000CDE90001DDE927100DAB2A6807F003F9E9
:10B670000446544518BF5C4500F0D680002C00F00D
:10B68000EB800A2C00F0E4800D98002818BF848815
:10B690000FD12868016809698847504518BF584587
:10B6A00000F0C2800D98002804BF00200E9000F02A
:10B6B000BB80279818B90C990E9808440C900D9AE5
:10B6C000507B10F0800018BF4FF48070917A0843CF
:10B6D0000E902798012803D10E990C98401A0C90CF
:10B6E0002798B9F1000F14D0002828680168CB6BA7
:10B6F000494604D098470C99081A0C900DE09847D9
:10B700000C9908440C900F99411A119881427DDCE4
:10B7100010E0002808BF0C98F5D02798012809D11F
:10B720000E990C980144149801442598B0F9000032
:10B7300081427DDB0D98417B11F0080118BF4FF469
:10B74000807182790A430C990A4490F9091025986E
:10B750000A44B0F90000824266DB0C9A0A4411994F
:10B76000914261DD0C994FF00009884202DD401AD8
:10B770001FFA80F90020009028680168C96A88478C
:10B780000D9B5A7B12F0400118BF4FF47E4112F01E
:10B79000200C18BF4FF4807C41EA0C0193F808C0DC
:10B7A00041EA0C01411A1A98084401B22598019106
:10B7B000B0F9020088420DDD12F0100218BF4FF4FC
:10B7C0008072DB791A430A4482422DDB0190401AD1
:10B7D00080B2009028680168896B8847AB79AA7BA2
:10B7E0009DF854100B93CDE90912A9680891259989
:10B7F0000D9B109ACDE90620CDE904130C9B009A0D
:10B800004B44CDE902921BB2009300E010E012A875
:10B81000199911F09AF917980068D0F840C0DDE93D
:10B820001701DDE91223E047761CBE42FFF602AFA6
:10B8300094B10A2C1CBF741C444509DADDE92710B9
:10B8400006F060FD40B10A281CBF641C4445F5DBCE
:10B850001BB00020BDE8F08F1BB00120BDE8F08FC9
:10B860002DE9FF4F4FF0000681B09B46B2F1000971
:10B87000884634463546C8BF4FF0000A25DD2746C6
:10B880006B4642465946CDF800A0019806F0A7FF46
:10B89000040018BF0A2C18D0009A9AB1D8F80000FA
:10B8A00094883946C36B4046984701460098427BCE
:10B8B00012F0800218BF4FF48072807A104308445F
:10B8C000304486B26D1C4D45D9DB05B03046BDE82D
:10B8D000F08F10B4C48AB0F812C0E41AA444A0F8DF
:10B8E00012C0B0F814C0624442830CEB01028282A1
:10B8F000C382028B511A018310BC70472DE9F04FAF
:10B9000083B04FF0000B0446CDF808B0407A5FEAF0
:10B910000109D846DA4629D0032818BF042822D0C6
:10B92000012818BF4FF000081DD002280CBF4FF0AF
:10B93000010A4FF0000A00266682A68242F20B0539
:10B94000019600962788217A6B46E268606806F0C7
:10B9500046FF2080C0B1E18A491CE1820A2813D049
:10B96000009A12B323E04FF00108DEE703281ABF64
:10B9700004284FF0000B4FF0010B012816BF0228DE
:10B98000012000200290D6E7638AE28A208B1A44C5
:10B990006282A28A002102446283A28A1044A082A9
:10B9A000E182268303B0BDE8F08FA842C9D100230D
:10B9B000A84212D090882080E0680168CB6B39469D
:10B9C000984701460098427B12F0800218BF4FF45E
:10B9D0008072807A1043084483B22188202918BFDE
:10B9E000A94204D1202F1EBFAF42208B0190208B93
:10B9F000C21892B22283A38AB4F810E003EB020CBF
:10BA0000F4458CBF01230023B9F1000F2BD0B8F10E
:10BA1000000F06D1BAF1000F09D0202918BFA942A2
:10BA200005D1A08B604470450FD9608A68B1002BA6
:10BA30001CBF608A002884D00120A077608BA18B76
:10BA40000844608303B0BDE8F08F618AE38A002078
:10BA500019446182A18A11446183A18A1144A1829F
:10BA6000E08226836DE7BBB3BBF1000F12D0E38AFF
:10BA7000628A5B1E1A446282A28A012102446283A6
:10BA8000A28A0244A282E182218B081A208303B099
:10BA9000BDE8F08F029A002A3FF453AF202918BF67
:10BAA000A9421AD0202F18BFAF4216D1B4F816C041
:10BAB000638AACF1010C634401996382A38A012279
:10BAC0001944618399B20144A182E282218B081A50
:10BAD000208303B0BDE8F08F09E020291EBFA942F2
:10BAE000608A00283FF42DAF03B0BDE8F08F202915
:10BAF00018BFA9423FF425AF202F18BFAF427FF4F3
:10BB000020AFB4F816C0638AACF1010C634401990C
:10BB10006382A38A01221944618399B20144A182FC
:10BB2000E282218B081A20830BE72DE9FF4FDDB05D
:10BB30001C46DDE96A56002D19BF2068002861B057
:10BB4000BDE8F08FA07B002804BF61B0BDE8F08F96
:10BB5000114654A810F0F9FF5E985E9A0021808883
:10BB6000D288ADF82010ADF82400ADF82210ADF861
:10BB70002620A27908A954A8FFF7ACFC08A9A2794D
:10BB80000846FFF7A7FC3EA806F0DFF8206801682A
:10BB9000496C884703463246B24629463EA806F01D
:10BBA00005F928A806F0D1F82079002808BF4FF041
:10BBB00000080BD020684FF001080168496C8847E5
:10BBC00003465246294628A806F0F0F82068016886
:10BBD000096B8847B4F90C100E18002E07DDBDF96B
:10BBE00052219042DCBF501890FBF6F700DD002791
:10BBF00012A806F0AAF8207C48B120680168496CB8
:10BC0000884703465246294612A806F0CFF8217C01
:10BC10002068CDE900016379BDF8242012A90AA8A3
:10BC200010F016FA207C4FF0000AA8B3002F56DD62
:10BC3000BDF92600B0EB460FB4BF012100210AA8D0
:10BC4000FFF75CFEBDF83A00411E8DB278B1617914
:10BC50003EA806F057FBB8F1000F03D0617928A881
:10BC600006F050FB2800A5F101018DB2EFD1BDF81F
:10BC700022007F1E3044ADF82200BDF82600801B54
:10BC8000ADF82600BDF82800002804BF61B0BDE86B
:10BC9000F08F002FCCDC22E0FFE7002F1FDD617961
:10BCA0003EA806F02FFB0546B8F1000F03D06179DE
:10BCB00028A806F027FB002D04BF61B0BDE8F08F77
:10BCC0000A2D0AD1BDF822007F1E3044ADF82200B3
:10BCD000BDF82600801BADF82600002FDFDC207C9D
:10BCE000002748B1BDF92600B0EB460FACBF0021DC
:10BCF00001210AA8FFF702FEB8F1000F08BFE77B99
:10BD000050D0207C002818BFBDF8420035D128A8AB
:10BD100056902068049047F6FF70069000205B90D4
:10BD2000054681465A90CDF864A1AB4659AB049ABA
:10BD30005B99569806F053FD050018BF0A2D1BD0DD
:10BD4000599AA2B10498958859460068C36B049823
:10BD5000984759994A7B12F0800218BF4FF48072BD
:10BD6000897A114301445A98084480B25A9006983F
:10BD700009F101098145D6DB5A9801B220790128E1
:10BD800002D0022808D00DE0BDF92400401A00EBD3
:10BD9000D07040F34F0705E0E27BBDF8240011446A
:10BDA000401A07B2BDF820003844ADF85C01207C91
:10BDB000002814BFBDF83A1047F6FF719DF8460001
:10BDC0003EAACDE9051054A857A9CDE90010029468
:10BDD000CDE903A2DDE95D02BDF922300021FFF7C4
:10BDE00000FC00281CBF61B0BDE8F08FBDF8220048
:10BDF000304401B2BDF82600ADF82210801B00B21D
:10BE0000ADF82600227C002A18BFB042BCBF61B04A
:10BE1000BDE8F08FBDF95201BDF9562110448842AA
:10BE2000BFF65DAF61B0BDE8F08F2DE9FF4F87B081
:10BE30000026DDE91747DDF850900A9900EB670B03
:10BE40000596DDF858A0DDF86C8019983546049603
:10BE50000029069650D0002840F3E382B9F800008C
:10BE6000002818BF0A2800F06282282818BF292855
:10BE700000F071817B2818BF7D2800F06C815B2861
:10BE800018BF5D2800F067813C281CBF3E280021B8
:10BE900000F06181A0F5A062B2F5007F22BFA0F59D
:10BEA0007B42503AB2F56C7F04D3002908BF4FF0B3
:10BEB000000C01D04FF0010CA0F13001092994BF12
:10BEC00001210021A0F14102192A84BFA0F16102E1
:10BED000192A40F24281802828BFBCF1000F18BF08
:10BEE000002200F03A81082E80F00E82DFE806F092
:10BEF000FEFDFCFDFBFAF9F8002840F3928200BF3A
:10BF0000B9F80000002818BF0A2800F0B7802828D8
:10BF100018BF292837D07B2818BF7D2833D05B284D
:10BF200018BF5D282FD03C281CBF3E2800232AD0F4
:10BF3000A0F5A061B1F5007F23BFA0F57B4150398A
:10BF4000B1F56C7F012128BF0021A0F13002092A40
:10BF500094BF01220022A0F1410CBCF1190F84BF53
:10BF6000A0F1610CBCF1190F0FD9802828BF00295E
:10BF700018BF002009D010431843042E6BD2DFE80D
:10BF800006F0060E28460123D2E70120F3E7002938
:10BF900014BF022601264FF001055ED176E000298C
:10BFA00008BF6D1C72D0584617F0010F0EBF214616
:10BFB000016809598C460021CDF800A0CDF80C800D
:10BFC000CDE901510B46DDE90812E04702260125C3
:10BFD00043E0A8B1584617F0010F0EBF2146016893
:10BFE00009598C460021CDF800A0CDF80C80CDE990
:10BFF0000151DDE908120123E0470126354645E0FD
:10C00000002912BF6D1C0326012026D121E021B199
:10C01000049802262844451C1FE0002804BF049809
:10C02000401C16D0584617F0010F0EBF214601687C
:10C0300009598C460021CDF800A0CDF80C80CDE93F
:10C040000151DDE908120123E04704980126451C4F
:10C050001CE0049001E0012E18D00021069808434E
:10C0600006900A99159806F04DF9A9F80000059870
:10C07000401C059019998842FFF642AF012E07D067
:10C08000022E0FD0032E17D000F0CBB90121E5E727
:10C09000584617F0010F1ABF0168095921468C460E
:10C0A00000F070B9584617F0010F1ABF016809591E
:10C0B00021468C4600F051B9069898B317F0010F4D
:10C0C00008BFA44603D0DBF8000050F804C00026E7
:10C0D000CDF800A0CDF80C80CDE90156012306E093
:10C0E000FDE0ECE09DE076E045E00DE137E0DDE9E4
:10C0F00008125846E04717F0010F08BFA44603D0C6
:10C10000DBF8000050F804C00498CDF800A0CDF88A
:10C110000C80CDE90106DDE9081200235846E0470E
:10C1200000F07FB9FFE7584617F0010F08BFA4469B
:10C1300002D0016851F804C0049A00212A44CDF8C5
:10C1400000A0CDF80C80CDE90121DDE90812012322
:10C15000E04700F066B901219CE60122C3E6002910
:10C1600018BF042635D1002A14BF062602264FF038
:10C1700001055BD1E6E0A1B1584617F0010F0EBFF3
:10C180002146016809598C460021CDF800A0CDF860
:10C190000C80CDE90151DDE908120123E0470426B6
:10C1A00017E0002A08BF6D1C6FD0584617F0010F2A
:10C1B0000EBF2146016809598C460021CDF800A028
:10C1C000CDF80C80CDE90151DDE908120123E047EB
:10C1D000062601259AE0E9BB2E2818BF2C2805D099
:10C1E000002A1CBF06266D1C04D08FE00526012006
:10C1F00004908BE0584617F0010F01D1214601E071
:10C2000001680959CDF800A08C460021CDF80C80BA
:10C21000CDE901510B46DDE90812E0470226012570
:10C2200090E021B1049804262844451C6EE06AB3CE
:10C2300017F0010F08BFA44603D0DBF8000050F848
:10C2400004C00026CDF800A0CDF80C80CDE9015641
:10C25000334600E036E0DDE908125846E04717F0C3
:10C26000010F0EBF2046DBF80000005984460498F9
:10C27000CDF800A0CDF80C80CDE90106DDE908126B
:10C2800001235846E0470626A3E75BE0FFE7584650
:10C2900017F0010F01D1214601E001680959CDF8DD
:10C2A00000A08C460021CDF80C80CDE901510B4651
:10C2B000DDE90812E04704980226451C42E052EAF4
:10C2C000010001D06D1C21E0BCF1000F04BF072666
:10C2D000012017D0584617F0010F91D18EE752EA8E
:10C2E000010004D0049806262844451C0EE0BCF149
:10C2F000000F04BF0498401C04D0584617F0010FEB
:10C30000CBD1C8E7049001E0022E1BD00021069893
:10C31000084306900A99159805F0F4FFA9F8000063
:10C320000598401C059019998842FFF697AD022E9A
:10C330000AD0042E18BF062E1BD0072E18BF052EBC
:10C340002CD06EE00121E2E7584617F0010F08BF3C
:10C35000A44602D0016851F804C00021CDF800A025
:10C36000CDF80C80CDE90151DDE908120123E04749
:10C3700057E0584617F0010F08BFA44602D00168E5
:10C3800051F804C00021CDF800A0CDF80C80CDE913
:10C3900001510B46DDE90812E04742E0069850B330
:10C3A00017F0010F08BFA44603D0DBF8000050F8D7
:10C3B00004C00026CDF800A0CDF80C80CDE90156D0
:10C3C000DDE9081233465846E04717F0010F08BF71
:10C3D000A44603D0DBF8000050F804C00498CDF860
:10C3E00000A0CDF80C80CDE90106DDE9081201239B
:10C3F0005846E04715E0584617F0010F08BFA4461D
:10C4000002D0016851F804C0049A00212A44CDF8F2
:10C4100000A0CDF80C80CDE901210B46DDE9081222
:10C42000E0471A9890B117F0010F02D0DBF8000036
:10C43000045901210020CDF800A0CDF80C80CDE9F1
:10C440000101DDE9081203465846A047B9F800008B
:10C450000A281EBF00200BB0BDE8F08F0A9915987E
:10C4600005F050FFA9F800000BB00120BDE8F08FE7
:10C470002DE9FF4FADF5277D1C46DDE9B4A58846C3
:10C48000BAF1000F19BF206800280DF52B7DBDE81B
:10C49000F08FA07B002804BF0DF52B7DBDE8F08F49
:10C4A000677911469AA810F050FBB8F80420B8F844
:10C4B00006000023ADF88420ADF88030ADF886008A
:10C4C000ADF88230A27920A99AA8FFF703F820A935
:10C4D000A2790846FEF7FEFF17B1012F07D00BE047
:10C4E0002079002804BF0026B14603D107E0207957
:10C4F000022801D0012600E000264FF001092AA8F9
:10C5000005F023FC20680168496C884703462A46E9
:10C5100051462AA8009505F049FC0AA805F015FC2B
:10C5200020680168496C8847034651460AA8009A6A
:10C5300005F03CFC6CA805F008FC20680168496C1B
:10C540008847034651466CA8009A05F02FFC40A886
:10C5500005F0FBFB82A805F0F8FB9EB1206801689E
:10C56000496C88470346514640A8009A05F01EFCD6
:10C5700020680168496C88470346514682A8009AA2
:10C5800005F014FC20680168096B8847B4F90C2099
:10C590001518002D07DDBDF96A128842DCBF881826
:10C5A00090FBF5FB01DD4FF0000B56A805F0CDFB2D
:10C5B000207C48B120680168496C88470346514691
:10C5C00056A8009A05F0F2FB217C2068CDE9000115
:10C5D0006379BDF8842056A922A80FF039FD207C8C
:10C5E000F0B3BBF1000F6FDDBDF98600B0EB450F76
:10C5F000B4BF0121002122A8FFF780F9BDF89A00FD
:10C60000411E1FFA81FAD8B139462AA805F07AFEF0
:10C6100039460AA805F076FE39466CA805F072FE88
:10C620003EB1394640A805F06DFE394682A805F0B6
:10C6300069FE5FEA0A00AAF101011FFA81FAE3D15B
:10C64000BDF88200ABF1010B2844ADF88200BDF8C3
:10C650008600401BADF88600BDF88800002800E089
:10C6600004E07DD0BBF1000FBEDC2DE0BBF1000F7C
:10C670002ADD39462AA805F045FE824639460AA831
:10C6800005F040FE39466CA805F03CFE3EB1394647
:10C6900040A805F037FE394682A805F033FEBAF10E
:10C6A000000F5DD0BAF10A0F0BD1BDF88200ABF1DB
:10C6B000010B2844ADF88200BDF88600401BADF8A0
:10C6C0008600BBF1000FD4DC0AA84FF0000AA1904D
:10C6D000CDE99CA8BDF88200ADF878029AA8CDE912
:10C6E0009F0439462AA805F00DFEADF864022EB16C
:10C6F000394640A805F006FEADF89402DFF8B48292
:10C700000DF1A80BADF88CA2207C48B1BDF98600D4
:10C71000B0EB450FACBF0021012122A8FFF7EEF8D6
:10C72000B9F1000F08BFE07B4AD0A6B3207CE8B97E
:10C7300047F6FF70CDE9050ACDF81CA0D8E9000145
:10C74000CDE9030140A9A5A882AACDE90001029282
:10C750003B46A3A92268A798FFF767FB207C00E06F
:10C760007CE0002808BFBDF98C0201D0BDF8A20012
:10C7700001B220793FB1012816D0002804BFE07B28
:10C7800008441DD01EE0012806D0E27BBDF88400DD
:10C790001144401A14E00FE0BDF98400401A00EB88
:10C7A000D07040F34F000BE0BDF98400084400EB6B
:10C7B000D07040F34F0003E0BDF88410E07B081A0E
:10C7C000ADF88C02207C002817BFBDF89A0047F610
:10C7D000FF709DF8A61000290CBF002101219CAA22
:10C7E0000792CDE90501D8E90201CDE9030199A934
:10C7F00000916CA8CDE901B03B46A3A92268A79897
:10C80000FFF713FBBDF878122944ADF87812BDF894
:10C810008610491B09B2ADF88610227C002A18BF89
:10C82000A9421BDB60B161790AA805F06BFD617953
:10C830006CA805F067FD1EB1394682A805F062FDBF
:10C84000BDF96A02BDF96E120144BDF97802814258
:10C8500004DBBDF8640200287FF454AF0DF52B7D96
:10C86000BDE8F08F70B58AB006460E9815460124D3
:10C8700091B1CDE9003182B22B46314602A80FF0CA
:10C88000E7FB002102A8FFF739F8BDF808000028EF
:10C8900018BF641CF5D10CE01146304605F032FD9E
:10C8A0000A2808BF641C2946304605F02BFD0028E5
:10C8B000F6D10AB0A0B270BD10B59446DDE902020F
:10C8C0000C466146FEF7CCFF21880844208010BD4D
:10C8D0002DE9FF4F87B00D46DDE916A4DDE914CB45
:10C8E000206990461F4601685A466046FEF7B8FF29
:10C8F0000646BAF1000F26D0D8F80000416940463C
:10C9000088470090F8B1D8F800000099C268404606
:10C9100090470246407B10F0800018BF4FF48070B3
:10C92000917A40EA010906EB090086B22069007C91
:10C93000042808D1D8F800000099C36B40469847F6
:10C940004844304486B22069407930B1012802BFA2
:10C95000002F2888801B05D005E0012F04BF288800
:10C96000304400D128806069CDE90370CDE905BA73
:10C97000D4E903010095CDE90101D4E90012B4F92D
:10C9800008300798FEF72DFE2069407950EA07012C
:10C9900004BF2888304408D0012803BF012F28880D
:10C9A000801B0BB018BFBDE8F08F28800BB0BDE82E
:10C9B000F08F00005005020801777047818201F472
:10C9C0007843C38201F4FC63038301F01F014183B8
:10C9D000027770472DE9F04116460D46F7F780FCC7
:10C9E000DFF80C83C1490160D8F80010044691F8C3
:10C9F000760000281ABFC86C002888680168496A58
:10CA0000884700280CBF01270027D8F80000C06C19
:10CA100038B10168496A884700280CBF012000200E
:10CA200007437FB1B3492160A58205F47841E182D3
:10CA300005F4FC61218305F01F0161832046267700
:10CA4000BDE8F08108F0DEFA808A7047007F704709
:10CA50002DE9F84F1A44DDE90B5C01EB4202037A41
:10CA6000017F13FB01F4012606EB142413FB0141A3
:10CA7000C1F307279CF800304FF00131FF2F7DD024
:10CA80007B4303EB13235B1CC3F307230CF101046B
:10CA9000FF2B08BF838A36D0B0F81680B2F800C0EA
:10CAA000C3F1FF0608FB03F80CF4784A0AFB068B77
:10CAB0004FF0013A4FF00008EBFB01A8B0F81890D6
:10CAC00008F4784A09FB03F80CF4FC6909FB068BAF
:10CAD000B0F81AE00CF01F0C0EFB03F30CFB06364B
:10CAE0004FF001394FF00008EBFB01984FF0013C8B
:10CAF0000023E6FB01C308F4FC684AEA080803F0D7
:10CB00001F0348EA03031380931C4FF0010CA9464E
:10CB1000012D98BFBDE8F88F14F8012B7A4302EB82
:10CB20001222521CC2F30722FF2A08BF828A3BD07E
:10CB3000B0F81680B0F818A0B0F81AB0CDF800B070
:10CB40001D88C2F1FF0608FB02F805F4784B0BFBC9
:10CB5000068E4FF0013B4FF00008EEFB01B808F4E1
:10CB6000784B0AFB02F805F4FC6A0AFB068E4FF0CC
:10CB7000013A4FF00008EEFB01A800E01CE008F4C9
:10CB8000FC684BEA0808DDF800B005F01F050BFB58
:10CB900002F205FB06264FF001350022E6FB0152AA
:10CBA00002F01F0248EA02020CF1010C23F8022BEA
:10CBB000CC45B1D3BDE8F88F0CF10104FF2B08BFC1
:10CBC000838A31D0C78AB2F800C0C3F1FF065F4341
:10CBD0000CF4784A0AFB067B4FF0013A0027EBFB86
:10CBE00001A7B0F8188007F4784A08FB03F70CF4A3
:10CBF000FC6808FB067BB0F81A900CF01F0C09FBD0
:10CC000003F30CFB06364FF001380027EBFB0187DE
:10CC10004FF0013C0023E6FB01C307F4FC674AEA3E
:10CC2000070703F01F033B431380931C4FF0010CD5
:10CC30002F46012D98BFBDE8F88F00BF14F8012BD7
:10CC4000FF2A08BF828A35D0B0F816901D88C2F13D
:10CC5000FF0609FB02F905F4784B0BFB069E4FF02B
:10CC6000013B4FF00009EEFB01B9B0F818A009F440
:10CC7000784B0AFB02F905F4FC6A0AFB069EB0F841
:10CC80001A8005F01F0508FB02F205FB06264FF08F
:10CC9000013A4FF00009EEFB01A94FF001350022E7
:10CCA000E6FB015209F4FC694BEA090902F01F0294
:10CCB00049EA02020CF1010C23F8022BBC45BDD35A
:10CCC000BDE8F88F10B4C48ADDF804C0240A0C70E3
:10CCD000018BC1F3C7011170817EC9001970007FFB
:10CCE0008CF8000010BC01207047000028260208C4
:10CCF000100400208422020870B50446FE4820601B
:10CD0000002525816581A581E58125826582A58231
:10CD1000211DE582A5618D61CD6181F8245001223C
:10CD200081F82520F54B8D620B602563A586F448BC
:10CD3000E58684F838200088002206B2F1481146C2
:10CD4000008805B26068436B201D984760683146D3
:10CD5000826B201D904760682946C26B201D90475A
:10CD6000204670BDE64900B50A88E64983B04FF019
:10CD7000000C0988ADF800C0ADF80420ADF802C081
:10CD8000ADF8061001688A686946904703B000BD97
:10CD90002DE9F0418046888890B014460D46002861
:10CDA00019BFE888002810B0BDE8F081B4F90C0084
:10CDB000401C13D1218963890022ADF80820ADF809
:10CDC0000C10ADF80A20ADF80E30206802A9026AF6
:10CDD00020469047DDE902122261E160B5F90020AA
:10CDE000B5F9041004F10C005318B4F90C108B427F
:10CDF00021DDB0F90430194491421CDDB5F902205F
:10CE0000B5F906105318B0F902108B4213DDB0F9D2
:10CE10000600084490420EDDE069002800F0DE8044
:10CE200020682146C26806A89047B4F920000AAFDE
:10CE3000401C06D00FE0E469002CB7D110B0BDE86B
:10CE4000F08121466846FBF702FABDF80010218404
:10CE5000BDF802106184208CBDF81810084406B299
:10CE6000B4F92200401C09D1214602A8FBF7EFF9D2
:10CE7000BDF808102184BDF80A106184608CBDF8EB
:10CE80001A10BDF81E200144BDF81C00ADF82C009E
:10CE9000ADF82860ADF82A10ADF82E2039462A46A4
:10CEA00008A80FF063FDDDE90801CDE90E01B4F932
:10CEB0000C00401C13D1208962890021ADF80810B4
:10CEC000ADF80C00ADF80A10ADF80E20206802A9EC
:10CED000026A20469047DDE902122261E16004F116
:10CEE0000C020EA908A80FF041FDDDE90867B5F9AD
:10CEF000002030B290420ED1B5F9021030148842B1
:10CF000009D1B5F9041038B2884204D1B5F9061038
:10CF10003814884262D038B2002818BF5FEA274030
:10CF200061D0B5F90210301488420EDDAB88401A8A
:10CF3000ADF81820ADF81C30ADF81A10ADF81E0091
:10CF400006A94046E269FFF723FFB5F9001030B2A9
:10CF500088420FDD421A3814ADF81810ADF81C20C5
:10CF60003314ADF81E00ADF81A3006A94046E26948
:10CF7000FFF70EFFB5F90000B5F904103AB201440D
:10CF800030B2104481420FDD0B1A3914ADF818008D
:10CF9000ADF81C303214ADF81E10ADF81A2006A9F9
:10CFA0004046E269FFF7F4FEB5F90200B5F9061054
:10CFB0000844311401EB274188420FDD2A88AB88F1
:10CFC000401AADF80820ADF80C30ADF80A10ADF8F5
:10CFD0000E0002A94046E269FFF7DAFEB4F90C0040
:10CFE000401C1AD105E029464046E269FFF7D0FE11
:10CFF000F4E7218960890023ADF80830ADF80C1002
:10D00000ADF80A30ADF80E00206802A9026A204689
:10D010009047DDE902122261E16004F10C02294629
:10D0200006A80FF0A3FCDDE90601CDE90401BDF877
:10D030001400002819BFBDF81600002810B0BDE884
:10D04000F081B4F92000401C09D121466846FBF765
:10D05000FEF8BDF800102184BDF802106184208C18
:10D06000BDF81010081AADF81000B4F92200401CE9
:10D0700009D121466846FBF7EAF8BDF80010218483
:10D08000BDF802106184608CBDF81210081AADF86A
:10D090001200206804A982682046904710B0BDE8BD
:10D0A000F08138B50446002000900D466A46201DE8
:10D0B000FAF74BFE009A002A08BF38BD29462046E1
:10D0C000FFF766FE38BD30B50A4685B0044600F16C
:10D0D000080102A80FF04AFCDDE90201CDE90001D8
:10D0E00094F83800D8B100206D46029002AA294673
:10D0F000201DFAF72AFE07E08C2C0208642F020894
:10D100000604002008040020029A002A04BF05B08B
:10D1100030BD29462046FFF73BFE05B030BD6946CD
:10D12000201DFAF700FD05B030BD2DE9F34F99B091
:10D130000C461998016B207929B1002804BF1BB057
:10D14000BDE8F08FB9E000287ED1D0480025006806
:10D1500090F849001890199885861998C5861898EE
:10D16000042872DB199805631898401E0B28C8BF65
:10D17000032004DCC64981FB0010A0EBE07017908F
:10D180004FF0FF3013900020034602461290C14832
:10D19000C14963F30F060088098860F30F0762F343
:10D1A0001F4661F31F474822BC49684607F0D1FF7C
:10D1B00017984FF00108012878DB1898A8F10105AD
:10D1C00008FB00F11798092D91FBF0F95EDA0020B9
:10D1D0001690684600EBC5003DF83510808801FBCD
:10D1E00009F100FB09F00FFA80FA0FFA81FB2089A0
:10D1F000E1885044594402B209B230B2884242DC5C
:10D200003BB2034499423EDA301482423BDB00EBEE
:10D210002743934237DD199816AB001DFAF74FFCF0
:10D22000169900291CBF129881422CD014A8FBF734
:10D230000EF8BDF95400BDF9501000EBD07001EBB1
:10D240006000B4F9061001E030E025E0091ABDF9EC
:10D250005600BDF9522000EBD07002EB6000B4F92B
:10D2600008204943101A00FB0010139988420AD283
:10D270001699CDE91210199801631998A0F834B0E5
:10D280001998A0F836A0AD1C092DA0DB179808F15D
:10D290000108804591DD09E01998B4F9082000F1F2
:10D2A0003003B4F90610001DFAF709FC1998006B59
:10D2B000002804BF1BB0BDE8F08F1998016B04A8CB
:10D2C000FAF7C5FF199AE088199B928E21791044CC
:10D2D000BDF81020DB8E821A2089DFF8C4C1184403
:10D2E000BDF81230CDF800C0C01AADF8080019988A
:10D2F00000238DF80410ADF80620ADF80A30006B5D
:10D3000001684A6C694690472079002804BF1BB029
:10D31000BDE8F08F0020199908631999888619993A
:10D32000C8861BB0BDE8F08F2DE9F0410C46016BBB
:10D330008EB00546002904BF0EB0BDE8F08102A8FA
:10D34000FAF785FFE088B5F93480DDE902C1404491
:10D3500003B22089B5F936700FFA8CF2384400B266
:10D360009A422CDC0EB21644B34228DA4FEA2C4320
:10D37000984224DB03EB214C604520DA608940446D
:10D3800001B2A0898A42384400B2D8BFB14203DA60
:10D39000984201DB604512DB02230020DFF800C168
:10D3A0008DF80430ADF80800CDF800C0ADF80600E7
:10D3B000ADF80A00286B01684A6C694690470AA8D4
:10D3C000296BFAF744FFE088AF8EB4F80A80C119E0
:10D3D000BDF82800EE8E0A1A21892379A489BDF8A8
:10D3E0002AC03144A1EB0C013444A4EB0C0C47449B
:10D3F000381A2C4C8DF81C30ADF820100694ADF87E
:10D400001E20ADF82200ADF824C0286B0168CA6C5C
:10D4100006A990470EB0BDE8F08130B50C46016B0F
:10D4200087B00546002904BF07B030BD04A8FAF74D
:10D430000EFF2089AA8EB5F836C01044BDF8102022
:10D440002379801A6289E1886244BDF812C08DF8A0
:10D450000430A2EB0C02DFF850C0ADF80800CDF8A4
:10D4600000C0ADF80610ADF80A20286B01688A6C80
:10D470006946904707B030BD0A4609684B69011DEF
:10D480001046184780F8381070470000100400203C
:10D490005655555506040020080400206005020872
:10D4A000081E0208F42F02086021020870B500244B
:10D4B0008480C480048144818481C4810482448244
:10D4C00044618461C46180F82440012680F82560AD
:10D4D000FE498462254640F82C1BFAF723FFA0F88A
:10D4E0004C50A0F12C04A0F84E50A0F850500A2047
:10D4F000A4F87E00A4F88000A4F88250F448C4F890
:10D5000084001E20A4F88800C4F88C50C4F8905001
:10D51000C4F89450C4F8985084F89C50C4F8A050B3
:10D52000C4F8A450C4F8A850C4F8AC50A4F8B05043
:10D53000A4F8B250C4F8B45084F8B85084F8B95084
:10D5400004F12C012046FAF74FFAE06A0021C26A82
:10D5500004F12C009047E06A0021026B04F12C00DA
:10D560009047002104F12C00FBF7AFF8002104F1F3
:10D570002C00FBF7B8F884F82460204670BD0181C8
:10D580002C30FBF79EB841812C30FBF79CB880F81B
:10D59000B810704780F8B910704780F8B91081F062
:10D5A000010280F8B8202C30FBF78FB82C30FBF745
:10D5B00097B82C30FBF797B82C30FBF79FB801EBEE
:10D5C0004203A0F87C302C30FBF79BB82C30FBF7E3
:10D5D000A0B82C30FBF7A4B870B5044600680D461F
:10D5E000D0F8A41020468847A84208BF70BD29463D
:10D5F00004F12C00FBF7A2F82068D0F89410204624
:10D600008847002818BF70BD2068D0F8B8102046A1
:10D610008847226801462046D2F8C0300022984749
:10D62000014620684FF0FF32D0F8C8302046BDE8F0
:10D63000704018472C30FBF783B8C0F8841070474F
:10D64000A0F888107047B0F888007047A0F87E10E6
:10D650007047B0F87E007047A0F882107047B0F8AD
:10D6600082007047A0F880107047B0F880007047C3
:10D6700070B5044600681546D0F8BC202046904797
:10D68000002DB8BFB4F888502AB22368014620465E
:10D69000D3F8C830BDE870401847C0F88C10704708
:10D6A000C0F894107047C0F89810704790F89C002C
:10D6B000002818BF0120704710B5044690F89C0060
:10D6C00001280BD1F7F7C4FA2146F8F7BDF8206816
:10D6D000D4F8AC10D0F8B42020469047002084F84D
:10D6E0009C0010BD70B5044690F89C000D460128C2
:10D6F0000BD1F7F7ADFA2146F8F7A6F82068D4F871
:10D70000AC10D0F8B42020469047022084F89C004A
:10D710002068D0F8B8102046884706462068D0F820
:10D720008C1020468847002819BF6889E988A88995
:10D730002989A0EB0100B4F8801000B200FB01F0D1
:10D74000644981FB00104FEAA001A1EBE07006EBF9
:10D750000001B4F97C0000EB40004FEAE07200EBFE
:10D76000927040F38F022068D0F8C030204698476E
:10D77000226801462046D2F8B420BDE87040104728
:10D7800070B5044600680D460E79D0F88C1020461E
:10D79000884780F00100864218BF70BDB5F90600C9
:10D7A0000028BDBF404200B24FF0FF360126A0F175
:10D7B00004010129B4BF0120001FC0EBC00005B265
:10D7C0002068D0F8B81020468847B4F87E1006FBD1
:10D7D00005F251433F4A82FB01218A10A2EBE1711D
:10D7E0000144B4F8820068B1B4F97C30D4F8B4C014
:10D7F00000FB03C28A42D8BF114600FB13C0884217
:10D80000A8BF014620680022D0F8C03020469847C3
:10D81000B4F88820AA42D8BF15462AB22168D1F8A8
:10D82000C83001462046BDE87040184770B505462F
:10D8300000680C46D0F8A41028468847002819BF75
:10D84000B5F97C100029204670BD414394FBF1F0EE
:10D8500001FB10400028C8BF401A70BD70B50446D7
:10D8600090F89C00012818BF70BDD4F8A000401C9F
:10D87000C4F8A000B4F8AC10B4F8A820D4F884C060
:10D88000891A0AB2B4F8A41080B28BB20021E04722
:10D89000D4F8A81001442068D0F8B420204690475E
:10D8A000D4E928018842D8BF70BD002084F89C00CC
:10D8B000C4F8A000F7F7CCF92146F7F7C5FF2068B8
:10D8C000D0F8B81020468847054605E01C1E02081F
:10D8D000098A0008676666662068D0F8A4102046AA
:10D8E000884700281ABFB4F97C100029284607D0C1
:10D8F000414395FBF1F001FB10500028C8BF401ACE
:10D900002168D1F8B420014620469047D4F894000D
:10D91000002808BF70BD0168C9688847002808BF93
:10D9200070BDD4F8940001688968BDE8704008476C
:10D9300009B22C30FAF7CEBFB0F97A202C3011445E
:10D94000FAF719BD10B504462C30FAF7FCFEB4F90D
:10D950007A10401A10BD70B50446B0F87C000D4630
:10D96000002804BF084670BD2068D0F894102046F7
:10D97000884788B1B4F97C00002D00EBD07105DA3E
:10D98000A5EB610191FBF0F1484370BD05EB61012E
:10D9900091FBF0F1484370BD206800222946D0F881
:10D9A000C030204698470146B4F97C0000EBD072A5
:10D9B000A1EB620191FBF0F1484370BD70B50446E4
:10D9C00000681546D0F8C420204690470646002D32
:10D9D000B8BFB4F98850012D206806DAD0F8B42019
:10D9E00031462046BDE870401047D0F8B8102046B8
:10D9F0008847C4E92A060020C4E9280594F89C0059
:10DA0000012808BF70BDF7F723F92146F7F7DCFEC0
:10DA1000012084F89C0070BD70B503F077FEF849D2
:10DA200000250160A0F8C050C430FAF77BFC4C30F0
:10DA3000FAF778FCA0F84C50A0F84E50A0F85050DF
:10DA4000A0F8525045658565C565A0F58874014606
:10DA500005662046F9F7C8FF04F1C4012046F9F72E
:10DA6000C3FF204670BD2DE9F05F0446D0F8640185
:10DA700000281ABFD4F868010028BDE8F09F20688C
:10DA8000D0F8B810204688478246B4F87A10B4F827
:10DA90005C01B4F862C10A1A16B2B4F87C208B1883
:10DAA000B4F85E1110448C440844634407B21DB2BC
:10DAB0002068B4F86031F31AD0F88C100FFA83F8AC
:10DAC00020468847002849D02089B4F90AB0401B75
:10DAD0000FFA80F9E06A00221146436B04F12C0032
:10DAE0009847E06A4146826B04F12C009047E06A57
:10DAF0005946C26B04F12C009047D4F8C40031465B
:10DB0000B4F90A60436B002204F1C4009847D4F8CA
:10DB1000C4003946826B04F1C4009047D4F8C400B5
:10DB20003146C26B04F1C4009047D4F81001294675
:10DB3000B4F90A50436B002204F588709847D4F872
:10DB400010014946826B04F588709047D4F81001A3
:10DB50002946C26B04F58870904748E06089B4F9A3
:10DB600008B0401B0FFA80F9E06A00221146436BAF
:10DB700004F12C009847E06A5946826B04F12C00AE
:10DB80009047E06A4146C26B04F12C009047D4F8FC
:10DB9000C4003246B4F90860436B002104F1C400AC
:10DBA0009847D4F8C4003146826B04F1C400904712
:10DBB000D4F8C4003946C26B04F1C4009047D4F8CD
:10DBC00010012A46B4F90850436B002104F588700F
:10DBD0009847D4F810012946826B04F58870904765
:10DBE000D4F810014946C26B04F58870904704F1DF
:10DBF0002C00F9F72EFF04F1C400F9F72AFF04F511
:10DC00008870F9F726FF002204F12C00D4F86C315B
:10DC1000D4F86411FAF78AFD04F12C00FAF78BFDB1
:10DC2000A4F8C000002204F1C400D4F87031D4F884
:10DC30006811FAF77BFDB4F9C02004F58870D4F8B8
:10DC40006C31D4F86411FAF771FD20680022514656
:10DC5000D0F8C03020469847226801462046D2F8C6
:10DC6000B420BDE8F05F104710B50446FFF787FC0D
:10DC70002068D0F88C1020468847002808BF10BDC7
:10DC80002046BDE81040EEE610B50446FFF77BFCE9
:10DC90002068D0F88C1020468847002818BF10BD97
:10DCA0002046BDE81040DEE670B50D460446FFF79D
:10DCB00074FC294604F1C400FAF707FD294604F56F
:10DCC0008870FAF702FD2046BDE87040CBE670B5DB
:10DCD0000D460446FFF76DFC294604F1C400FAF72F
:10DCE00002FD294604F58870BDE87040FAF7FBBCD8
:10DCF00070B5044600680D46D0F8A4102046884749
:10DD0000A84208BF70BD29462046FFF765FC29469A
:10DD100004F1C400FAF712FD294604F58870BDE845
:10DD20007040FAF70BBD10B5044603F001FD204624
:10DD3000BDE8104097E6A0F85C11A0F85E2192E6DD
:10DD4000B0F95C017047B0F95E017047A0F860114E
:10DD5000A0F8622187E6B0F960017047B0F962016E
:10DD600070472DE9F041044600681646DDE9067863
:10DD7000D0F8CC201D462046904720682A463146E0
:10DD8000D0F8D4C02046E047206842463946D0F853
:10DD9000E0302046BDE8F041184770B515460E4604
:10DDA0000446FFF70CFC2A46314604F1C400FAF79A
:10DDB000A8FC2A46314604F58870FAF7A2FC2068D0
:10DDC000B4F97A10D0F8CC20204690472046BDE820
:10DDD000704048E610B504460298C4E95913002182
:10DDE00084F89C10C4E95B202046FFF73CFE2068C5
:10DDF0000021D0F8B4202046BDE8104010470000B4
:10DE00009828020870B50D460446FFF791FD29B227
:10DE10000D4604F1C400FAF75DFD294604F588704B
:10DE2000BDE87040FAF756BD70B50D460446FFF7E1
:10DE300083FDB4F97A00B4F95C11411A401A411912
:10DE400004F1C400FAF797FAB4F97A00B4F97C1037
:10DE5000B4F95E21B4F9623101441A441144401A04
:10DE6000411904F58870BDE87040FAF784BA0000E3
:10DE700010B400248480C480048144818481C481DE
:10DE80000482448244618461C46180F82440012199
:10DE900080F82510544901604FF6FF71C184FF21BD
:10DEA00080F8281010BC704770470EF04ABEF0B5DD
:10DEB000044690F8280087B00E46002804BF07B03B
:10DEC000F0BDE08CA0F57F41FF3904BF07B0F0BD85
:10DED000002703A9ADF80C003D460846F7F7DBFD27
:10DEE0006189ADF81070ADF81400ADF81250ADF8BE
:10DEF0001610206804A9426A204690473B480068F3
:10DF000090F8761000291ABFC56C002D856803A80B
:10DF1000E18CADF80C10F7F723FD0146002294F8D0
:10DF20002800CDE900022868334604AAD0F810C0C2
:10DF30002846E04707B0F0BD91F82820FF2A04D317
:10DF4000CA8CA2F57F43FF3B0AD14FF0000CA0F82A
:10DF500000C0A0F802C0A0F804C0A0F806C0704736
:10DF60000A894FF0000C4989A0F800C0A0F802C04F
:10DF70008280C180704701688A6E4FF6FE7110473B
:10DF800030B5044687B00D46228961890023ADF87B
:10DF90000030ADF80420ADF80230ADF8061000688E
:10DFA0006946026A20469047214604A8FAF74FF9CD
:10DFB000DDE90401CDE902010C48016891F8760021
:10DFC00000281ABFC86C0028886801682B4602AA7E
:10DFD000D1F818C06946E047002808BF4FF6FF7522
:10DFE000E58407B030BD0000E423020810040020DF
:10DFF0000FB42DE9F047FB4F044698B038680DF197
:10E00000880A48B3DFF8E083E18CB8F80020914239
:10E0100022D2DFF8D89310F81100D9F8001051F887
:10E0200020603068016B3046884705B202A803F0D3
:10E030008CFE3068416C304688470346524602A841
:10E04000219903F0B3FEB4F908003A6822B1E18CDB
:10E05000B8F80030994201D306F0D4FF12F811301D
:10E06000D9F800C002EB410149785CF823300090F8
:10E07000C1F3810294F8311002A8FEF7F3FBB4F962
:10E080002C1000B24A19002A05DD00FB05F2401EE3
:10E0900000FB012502E00028D8BF002528B218B0F7
:10E0A000BDE8F0075DF814FB10B5C18C0446A1F57E
:10E0B0007F40FF3808BF10BDCA48006818B1CA4881
:10E0C0000088814201D306F09DFFC94800680EF028
:10E0D000A1FC01462046BDE8104089E72DE9F0414A
:10E0E000C18C0646A1F57F40FF3808BFBDE8F0812E
:10E0F000BC4D2868A0B1BC4F3A88914210D2BB4AAF
:10E1000010F81100126852F82040B94800680EF06B
:10E1100081FC2968024619B1F08C3B88984201D3F2
:10E1200006F070FF01EB40004078C0F381012068E9
:10E13000C3692046BDE8F04118472DE9F04F044679
:10E14000C08C0F46A0F57F418BB0FF3904BF0BB0E8
:10E15000BDE8F08FA3490968B9B3A34A1388984270
:10E1600033D2A24A11F81000126852F82000002899
:10E1700004BF0BB0BDE8F08F94F82EA0E28CB4F889
:10E180002C9001EB420194F83080497894F82F509C
:10E1900094F831C0D4F828B001F00302C1F3810132
:10E1A0008DF826A08DF81C208DF81D10ADF8249058
:10E1B000CDF820B006908DF81E808DF827508DF890
:10E1C00028C0E18C0026994201D306F01BFF884845
:10E1D00000680EF01FFC0546214604A8FAF737F840
:10E1E0008448016891F8760000281ABFC86C00289E
:10E1F000886806A90091CDE90156DDE904123B4685
:10E200000396FCF7C0FE0BB0BDE8F08F70B5044676
:10E21000C08CA0F57F41FF3908BF70BD2068016F39
:10E220002046884705462068C16E2046884786B24A
:10E2300094F83000002818BF02282068826B09D0AB
:10E2400031B220469047206829B2C26B2046BDE813
:10E250007040104729B220469047206831B2C26B07
:10E260002046BDE87040104773B5BDF80410C18466
:10E270000189002907BF4189002902B070BD044609
:10E28000C08CA0F57F41FF3904BF02B070BD20688B
:10E29000016F2046884705462068C16E20468847A2
:10E2A00086B294F83000002818BF02282068826BDC
:10E2B0000AD031B220469047206829B2C26B02B022
:10E2C0002046BDE87040104729B22046904720689C
:10E2D00031B2C26B02B02046BDE8704010472DE954
:10E2E000F0410446C08CA0F57F41FF3908BFBDE86E
:10E2F000F0813C49096819B13B4A1288904201D328
:10E3000006F080FE01EB4000407800F00305206835
:10E31000016F2046884706462068C16E2046884720
:10E3200087B294F83000002818BF022806D00128D0
:10E330003BD0032808BF022D67D037E050EA050123
:10E340000FD0022808BF022D1AD02189A088012DE4
:10E35000A1EB06010AD0084401B22068C26A204637
:10E36000904794F83000022813D109E001EBD171F5
:10E3700000EB610001B22068C26A20469047F0E7D6
:10E380006089E188C01B084401B22068026B204606
:10E390009047206831B2826B20469047206839B29E
:10E3A000C26B2046BDE8F0411047D5B16189E088D5
:10E3B000012DA1EB06010AD0084401B22068026BCE
:10E3C0002046904794F8300001281ED114E001EB5C
:10E3D000D17100EB610001B22068026B20469047CA
:10E3E000F0E709E014040020200400201C040020B1
:10E3F00018040020100400202089A188C01B0844B4
:10E4000001B22068C26A20469047206839B2826B08
:10E4100020469047206831B2C26B2046BDE8F041EB
:10E42000104710B50446C08CA0F57F41FF3908BFE6
:10E4300010BD2068C16E2046884794F8301080B225
:10E44000002918BF0229216805D08A6B01B2204635
:10E45000BDE810401047CA6B01B22046BDE810402D
:10E46000104700000FB42DE9F0470446C08C98B067
:10E47000A0F57F41FF3901BF002018B0BDE8F007CB
:10E480005DF814FB0DF1880A294F396841B3DFF8B4
:10E49000A480B8F80020904222D2DFF89C9011F8B6
:10E4A0001000D9F8001051F820603068016B304638
:10E4B000884705B202A803F048FC3068416C30463A
:10E4C00088470346524602A8219903F06FFCB4F92D
:10E4D00008003A6822B1E18CB8F80030994201D3C3
:10E4E00006F090FD12F81130D9F800C002EB41019E
:10E4F00049785CF823300090C1F3810294F8311020
:10E5000002A8FEF7AFF9B4F92C1000B24A19002A9C
:10E5100005DD00FB05F2401E00FB012502E000289E
:10E52000D8BF002528B218B0BDE8F0075DF814FB8D
:10E5300014040020200400201C04002010B4002437
:10E540008480C480048144818481C48104824482A3
:10E5500044618461C46180F82440012180F8251061
:10E56000FE49016080F826404FF6FF720285FF21C8
:10E5700080F82A109FEDFA0AF7EE000A80ED0B0AE8
:10E5800080ED0C0A80ED0D0A80ED0E0A80ED0F0A79
:10E59000C0ED100A80ED110A80ED120A9FEDF11A0C
:10E5A0000C2180ED131A80ED140A80ED150A80ED20
:10E5B000161A80ED170A80ED180AC0ED190A80EDD1
:10E5C0001A0A80ED1B0AC0ED1C0A80ED1D0A80EDC1
:10E5D0001E0AC0ED1F0A80ED200A80ED210AC0ED61
:10E5E000220AA0F88C1010BC704770470EF0A9BA30
:10E5F0002DE9F04104462DED068BADF5896D806A5D
:10E60000CDF840040DF58860F7F745FA08EE100ADA
:10E61000A06ACDF840040DF58860F7F75FFA94ED35
:10E620000B2AD4ED0C1A94ED161A8DED002ACDEDBF
:10E63000011AB7EE000A8DED021A8DED030AF8EE0D
:10E64000C81A94ED0B1A94ED162A00EE900A71EE9A
:10E65000211A94ED0C1AE846CDED041A8DED051A39
:10E660008DED062A8DED070AF8EEC81A94ED0B1A07
:10E67000B8EEE02AF8EEE00A31EE211AD4ED0C1AD9
:10E680000423102271EE821A94ED162A8DED081AD9
:10E69000CDED091A8DED0A2A8DED0B0AD4ED0C1A79
:10E6A00094ED0B1AB04971EEA01AD4ED160A8DED57
:10E6B0000C1ACDED0D1ACDED0E0A8DED0F0A10A836
:10E6C0000EF06BFA94ED119A94ED128AD4ED138A40
:10E6D000B0A802F045FDF1EE689AB1EE48AAB1EE9D
:10E6E000490AB0A802F074FEB0EE4A0A02F091FEA8
:10E6F000B0EE690A02F0AEFEC0A802F031FD94ED62
:10E700000D0AC0A802F06EFD94ED0E0A02F0BCFDE9
:10E7100094ED0F0A02F00AFED0A802F021FD94ED5C
:10E72000100AD0A802F0B7FE94ED100A02F0CCFE59
:10E7300094ED100A02F0E1FEE0A802F011FDB0EE47
:10E74000490AE0A802F044FEB0EE480A02F061FE79
:10E75000B0EE680A02F07EFED0AAE0A990A802F00E
:10E76000E5FE0DF5107EBEE8EF100DF1800EAEE86F
:10E77000EF100DF5187EBEE8EF100DF1A00EAEE81B
:10E78000EF10C0AA20A960A802F0D0FE0DF5C07E4F
:10E79000BEE8EF100DF5A07EAEE8EF100DF5D07ECF
:10E7A000BEE8EF100DF5B07EAEE8EF10B0AA50A9AC
:10E7B00030A802F0BBFE0DF1C00EBEE8EF100DF563
:10E7C000007EAEE8EF100DF1E00EBEE8EF100DF5A3
:10E7D000087EAEE8EF10A0A802F0C2FC94ED140A87
:10E7E000A0A8B1EE400A02F0F3FD94ED150AA0A82E
:10E7F000B1EE400A02F00DFEF0A802F0B1FC94ED7B
:10E80000160AF0A802F0D1FC0DF5806002F0A8FC19
:10E8100094ED140A0DF5806002F0DAFD94ED150A0E
:10E8200002F0F7FDF0AA0DF5806190A802F07EFEDF
:10E830000DF5107EBEE8EF100DF5807EAEE8EF100E
:10E840000DF5187EBEE8EF100DF5907EAEE8EF10E6
:10E85000A0AA40A960A802F069FE0DF5C07EBEE83E
:10E86000EF100DF5E07EAEE8EF100DF5D07EBEE8BE
:10E87000EF100DF5F07EAEE8EF1080AA70A930A879
:10E8800002F054FE0DF1C00EBEE8EF100DF5007E53
:10E89000AEE8EF100DF1E00EBEE8EF100DF5087ECA
:10E8A000AEE8EF10002510AF08EB051107EB0516D9
:10E8B00080A802F0F4FE86EC040A6D1C042DF3DB44
:10E8C000DDED100A94ED160A20EE801ADDED120A35
:10E8D000C1EE201AC4ED171ADDED110A20EE801AE0
:10E8E000DDED120AC1EE201AC4ED181ADDED120A90
:10E8F000C4ED190ADDED140A20EE801ADDED160ACA
:10E90000C1EE201AC4ED1A1ADDED150A20EE801AA8
:10E91000DDED160AC1EE201AC4ED1B1ADDED160A54
:10E92000C4ED1C0ADDED180A20EE801ADDED1A0A8E
:10E93000C1EE201AC4ED1D1ADDED190A20EE801A71
:10E94000DDED1A0AC1EE201AC4ED1E1ADDED1A0A19
:10E95000C4ED1F0ADDED1C0A08E00000A422020835
:10E960000000000000007A4451C3010820EE801A24
:10E97000DDED1E0AC1EE201AC4ED201ADDED1D0AE0
:10E9800060EE800A9DED1E0A80EE801A84ED211A49
:10E990009DED1E0A84ED220A0DF5896DBDEC068BF6
:10E9A000BDE8F08110B504460888208504F12800F0
:10E9B000F7F771F801B22068826B2046904704F1A6
:10E9C0002800F7F78BF801B22068C26B2046904709
:10E9D0002046BDE810400BE690F8261000F1280014
:10E9E00009B101F0FABB01F0EABB2DE9FF4FAFB06E
:10E9F0000446DDE93E8700896289DDE93CA94FF0E4
:10EA0000000CADF86C000D46ADF868C01E461AA9A2
:10EA1000ADF86AC0ADF86E2004A80EF096F8B5F90E
:10EA20000030B5F90400BDF9102003EB000E964547
:10EA300040F32A81BDF9140002EB000B9B4540F323
:10EA40002381B5F90210B5F9060001EB000CBDF900
:10EA50001200844540F31881BDF916C084448C45EA
:10EA600040F312819A42D8BF1A468842D8BF08465E
:10EA70000FFA8BF10FFA8EF39942A8BF1946891A43
:10EA8000ADF814100FFA8CF16B88B5F806C063442A
:10EA90001BB29942A8BF1946091AADF81020ADF86B
:10EAA0001610ADF8120000BFDDE90410CDE92A1000
:10EAB00008462B99CDE92801206828A9426A2046FA
:10EAC000904721466846F9F7C2FBDDE90001CDE930
:10EAD0001C011CA802F06CFA211D0D462AA802F0A8
:10EAE0004FFA28A802F064FA04F12800F6F738FF7C
:10EAF0005FEA000B04BF33B0BDE8F08F96ED000A6B
:10EB00002A468DED270A96ED010A2DA98DED2C0AD6
:10EB100096ED020A27A88DED190A9AED000A8DEDEF
:10EB20002D0A9AED010A8DED1E0A9AED020A8DED6D
:10EB30002E0A02F0CFF92A461EA92CA802F0CAF923
:10EB40002A462EA919A802F0C5F99DED2C1AB3EE9C
:10EB5000000ADDED270A21EE001A9DED2E6A60EE17
:10EB6000800A99ED003AFDEEC11A9DED1E1AFDEEE8
:10EB7000E02ADDED2D0A21EE001AD8ED003A60EE14
:10EB8000800A97ED004ABDEEC12A9DED191AFDEEEF
:10EB9000E00AD9ED014A21EE001A26EE000A98EDAE
:10EBA000015AD7ED015A99ED026AD8ED026A97ED44
:10EBB000027ACDED0A2A13EE901ACDED0B0A13EE70
:10EBC000100A14EE102ACDE90C010E9215EE902ACF
:10EBD000CDED0F1A15EE101A8DED102A14EE900AD5
:10EBE0001392BDEEC11ACDE91101BDEEC00A16EEB9
:10EBF000901A8DED141A16EE100A17EE102A8DEDEC
:10EC0000150A1892CDE9160131982090FE48008827
:10EC1000CDE9210B04F12800F6F7C2FE239004F1A0
:10EC20002800F6F738FF249004F12800F6F756FF85
:10EC3000259004F12800F6F72EFF269094F8260080
:10EC4000002804F1280029D001F0C7FA0146EF4856
:10EC5000026892F8760000281ABFD06C00289068ED
:10EC6000B4F88C2094F82A300DF1A00CCDE90213F1
:10EC70001CA9CDE9001C049222AB0AAA20A9FCF72A
:10EC8000A1F933B0BDE8F08F0020ADF81000ADF869
:10EC90001400ADF81200ADF8160005E701F08FFA88
:10ECA000D4E72DE9F04F04462DED088B9BB08A4642
:10ECB00090F82A00002802BF1BB0BDEC088BBDE80D
:10ECC000F08FD24D28680168096A8847834604F1AD
:10ECD0002800F6F7E0FE401E00EE100A04F12800BE
:10ECE000F8EEC0AAF6F7FAFE401E00EE100AF8EEA3
:10ECF000C09A5FEDE58AC648B0EE6A0AB0EE68BA1F
:10ED00000078B0EE6A8AB0EE69AAB0EE689A01287F
:10ED10000BD1B0EE680AB0EE698AB0EE699AF0EEF7
:10ED20006A8AB0EE40AAF0EE6A9AD4ED1A0A94ED1F
:10ED3000171A94ED172AD4ED182A70EEC11AD4EDE3
:10ED40001B0A94ED181A70EEC10A94ED1D1A31EEEB
:10ED5000421A94ED1E2A32EE622A61EE82AA40EE39
:10ED6000C1AAF5EEC0AAF1EE10FAD4ED170A30DD13
:10ED7000CDED170AD4ED1A0ACDED180AD4ED1D0A0F
:10ED8000CDED190AD4ED180ACDED040AD4ED1B0A15
:10ED9000CDED050AD4ED1E0ACDED060AD4ED190A13
:10EDA000CDED070AD4ED1C0ACDED080AD4ED1F0AFB
:10EDB000CDED090AF0EE4B0ACDED100A8DED110AEA
:10EDC0008DED128ACDED138AB0EE4B0A8DED140A4B
:10EDD0002FE0CDED180AD4ED1A0ACDED170AD4EDC7
:10EDE0001D0ACDED190AD4ED180ACDED050AD4EDB2
:10EDF0001B0ACDED040AD4ED1E0ACDED060AD4EDB2
:10EE0000190ACDED080AD4ED1C0ACDED070AD4EDA0
:10EE10001F0ACDED090AF0EE4B0ACDED110A8DED7A
:10EE2000100A8DED128ACDED148AB0EE4B0A8DEDED
:10EE3000130A8DED15AA13AE10AF0DF11C080DF1DC
:10EE40001009CDE90276CDE9009817AB5A46514634
:10EE50002046FFF7CAFDF5EEC0AAF1EE10FA94EDD8
:10EE6000170A2CDD8DED170A94ED1D0A8DED180A99
:10EE700094ED200A8DED190A94ED180A8DED040A1F
:10EE800094ED1E0A8DED050A94ED210A8DED060A1A
:10EE900094ED190A8DED070A94ED1F0A8DED080A0D
:10EEA00094ED220A8DED090A8DED10BA8DED118ACF
:10EEB0008DED129ACDED138A8DED14AA2BE08DED18
:10EEC000180A94ED1D0A8DED170A94ED200A8DEDB8
:10EED000190A94ED180A8DED050A94ED1E0A8DEDC0
:10EEE000040A94ED210A8DED060A94ED190A8DEDC0
:10EEF000080A94ED1F0A8DED070A94ED220A8DEDA4
:10EF0000090A8DED11BA8DED108A8DED129ACDEDB5
:10EF1000148A8DED13AACDED159ACDE90276CDE9CF
:10EF2000009817AB5A4651462046FFF75EFD286809
:10EF30000168496A88471BB0BDEC088BBDE8F08FBB
:10EF400091F82A104FF0000CA0F800C0A0F802C001
:10EF5000A0F804C0A0F806C070472DE9F0410D46A6
:10EF60002DED068B0446D1ED179A91ED1A8AF4EE39
:10EF7000C89AF1EE10FA34BFB0EE690AB0EE480A52
:10EF800095ED1D9AB4EEC09AF1EE10FAD8BFB0EE2E
:10EF9000490AD5ED208AF4EEC08AF1EE10FAD8BF06
:10EFA000B0EE680A0DF0F4FEB5EEC00A9FED19AAA6
:10EFB000F1EE10FA38BFB0EE4A0ABDEEC00AF4EE28
:10EFC000C89A10EE100AF1EE10FA07B2CCBFB0EEFC
:10EFD000690AB0EE480AB4EEC09AF1EE10FA28BF02
:10EFE000B0EE490AF4EEC08AF1EE10FA28BFB0EE96
:10EFF000680A0DF0EFFDB5F9080000EE900AF8EE92
:10F00000E00AF4EEC00A07E00A0400201004002021
:10F010000004002000000000F1EE10FA3CBF00EEFA
:10F02000100AB8EEC00ABDEEC00AD5ED189A95EDEB
:10F030001B9A10EE100AF4EEC99A0FFA80F8F1EE5E
:10F0400010FA34BFB0EE690AB0EE490AD5ED1E8A57
:10F05000F4EEC08AF1EE10FAD8BFB0EE680A95ED72
:10F06000218AB4EEC08AF1EE10FAD8BFB0EE480A99
:10F070000DF08EFEB5EEC00AF1EE10FA38BFB0EE1C
:10F080004A0ABDEEC00AF4EEC99A10EE100AF1EE7B
:10F0900010FA06B2CCBFB0EE690AB0EE490AF4EE3F
:10F0A000C08AF1EE10FA28BFB0EE680AB4EEC08A4A
:10F0B000F1EE10FA28BFB0EE480A0DF08BFDB5F95D
:10F0C0000A0000EE900AF8EEE00AF4EEC00AF1EE53
:10F0D00010FA3CBF00EE100AB8EEC00ABDEEC00A3E
:10F0E0002780A8EB070110EE100A6680A180801B24
:10F0F000E080BDEC068BBDE8F0812DE9F0470546C8
:10F100002DED048B84B00146B0EE419AF0EE608A9A
:10F11000B0EE408A02A8FFF720FFDDE9024685ED48
:10F120000D8AC5ED0E8A85ED0F9A2846FFF760FA25
:10F13000294602A8FFF711FFDDE902010FFA86F860
:10F14000B8F1000FCDE9000118BF5FEA26463ED0B6
:10F15000BDF904A0BAF1000F1CBFBDF90690B9F1CA
:10F16000000F2BD0BDF900C020B28445B4BF624669
:10F1700002461746BDF902102414A142B4BF0B4643
:10F1800023460CEB0A0240440FFA82FC00B284458D
:10F19000D8BF844601EB090002B2A01900B2824236
:10F1A000D8BF0246ADF80070ACEB0700ADF8040024
:10F1B000D01AADF80230ADF8060008E0ADF8004016
:10F1C0002014ADF80480ADF80200ADF806602868A0
:10F1D000694602692846904704B0BDEC048BBDE83F
:10F1E000F08780ED100AFFF703BA0000002808BF7F
:10F1F0007047002130F8022B2AB1491C30F8022B4D
:10F2000089B2002AF9D108467047002808BF704724
:10F21000002110F8012B2AB1491C10F8012B89B2EA
:10F22000002AF9D1084670470023002918BF00289A
:10F230000BD0934209D231F802CB20F802CBBCF1BB
:10F24000000F1CBF5B1C9BB2F3D118467047002314
:10F25000002918BF00280BD0934209D211F801CB26
:10F2600020F802CBBCF1000F1CBF5B1C9BB2F3D19A
:10F270001846704770B4002689B00028B8BF012630
:10F28000002902BF09B070BC7047022BBEBF09B095
:10F2900070BC7047102BC2BF09B070BC70474FF0F4
:10F2A000000C6D468DF820C01F24844690FBF3F0BF
:10F2B00003FB10CCBCF1000FB8BFCCF1000CBCF1CB
:10F2C0000A0FB4BF0CF1300C0CF1570C05F804C058
:10F2D000641E0028E9D116B12D202855641E281976
:10F2E000401C4FF0000311BF002909B070BC7047EB
:10F2F000934222BF09B070BC704710F801CB21F8CF
:10F3000002CBBCF1000F1CBF5B1C9BB2F0D109B05B
:10F3100070BC7047002908BF7047022BB8BF704708
:10F32000102BC8BF704730B489B04FF0000C8DF877
:10F3300020C06D464FF01F0C0446B0FBF3F003FBFA
:10F3400010440A2CB4BF3034573405F80C40ACF1EB
:10F35000010C0028F0D105EB0C00401C4FF000031D
:10F3600011BF002909B030BC7047934222BF09B0D9
:10F3700030BC704710F801CB21F802CBBCF1000F74
:10F380001CBF5B1C9BB2F0D109B030BC70470021A0
:10F3900078B10288303A092A0BD800BF01EB81010D
:10F3A000490030F8022B303911440288303A092ADA
:10F3B000F4D9084670472DE9F04F0568DDE90CA93E
:10F3C000DDE909BEDDF838C0DDF840802E004FF0E1
:10F3D000000408D035F8027B2FB1641C35F8027B9D
:10F3E000A4B2002FF9D1002914BF0125002525441E
:10F3F000AFB2128800256F2A0AD005DC582A1CBF3C
:10F40000642A692A1FD103E0732A16D0782A1AD1F8
:10F41000CBB14FF0000BBEF1000F02BF012C3288C0
:10F42000302A02D1B21C0024026077450BDAAEEB21
:10F43000070295B21FFA8EF705E0002B18BF74453E
:10F44000C8BF1FFA8EF400220F9BDDF82CE02026A7
:10F450005B1EBEF1000F18BF574522DAAAEB070268
:10F4600092B23BEA090718BF002C03D02A4495B298
:10F47000002216E0AAB1B9F1000F08D011E000BFD8
:10F4800028F81760DCF800707F1CCCF80070171E9D
:10F49000A2F1010292B21CBFDCF800709F42EFDBC8
:10F4A0000022DCF800709F4207DA31B128F817100B
:10F4B000DCF80010491CCCF800104FF030092F1E6A
:10F4C000A5F101018DB21CBFDCF80010994213DADE
:10F4D00028F81190DCF80010491CCCF80010EEE779
:10F4E0008D1C0560DCF80050098828F81510DCF840
:10F4F0000010491CCCF800102100A4F10104A4B2B2
:10F500000FD001680D88002D1CBFDCF800509D4213
:10F5100007DAE5E728F81060DCF80000401CCCF8BA
:10F520000000101EA2F101018AB21CBFDCF800002D
:10F530009842EFDBBDE8F08F2DE9F0034FF0000CAF
:10F54000DDE90964DDE90787DDF81890A1F800C05E
:10F5500082F800C083F800C089F800C088F800C0B5
:10F5600086F800C0D0F800C00125BCF800C0BCF18E
:10F57000000F2DD0D0F800C0BCF800C0BCF12B0F9C
:10F5800018BFBCF1200F06D0BCF12D0F0CD0BCF180
:10F59000230F11D01CE0A1F800C0D0F800C00CF17E
:10F5A000020CC0F800C00EE01570D0F800C00CF1DD
:10F5B000020CC0F800C006E01D70D0F800C00CF1CD
:10F5C000020CC0F800C0BCF800C0BCF1000FD1D1E3
:10F5D00001684FF0FF330988A1F13002092A01D9EF
:10F5E0002A2932D188F8005001680A88302A03D1CC
:10F5F000891C016089F800500168B1F800C0BCF1B5
:10F600002A0F59D0002299B1ACF1300CBCF1090F8E
:10F610000ED800BF02EB82025200B1F800C0303AAF
:10F62000624431F802CFACF1300CBCF1090FF1D9D2
:10F630003A60016809883039092906D80168891CAF
:10F640000160098830390929F8D9016809882E290B
:10F650001CBFBDE8F003704735700168891C01606C
:10F66000B1F800C0BCF12A0F2BD0002279B1ACF167
:10F670003003092B0BD800BF02EB8202520031F895
:10F68000023B303A1A440B88303B092BF4D92260F4
:10F69000016809883039092906D80168891C016088
:10F6A000098830390929F8D920680628A8BF06201A
:10F6B0002060BDE8F00370473B600168891C016071
:10F6C000C3E723600168891C0160EDE72DE9FF4F66
:10F6D000D1B00027884604461E464222394608A873
:10F6E0001A9700F04AFD002C02BF002055B0BDE87B
:10F6F000F08F5399002908BF278077D0DFF87CB5B9
:10F70000DBF800000268126B9047A8F101050DF1CB
:10F7100064090DF5907A0DF1680B53905EE000BF1F
:10F7200024F81200881C53901A98401C1A90539980
:10F730000888002857D025281CBF1A9AAA42EFDB58
:10F740001A98A8424CDA0591881C8DF834718DF80E
:10F7500038718DF83C718DF82C7148975390ADF845
:10F7600030718DF8287119974EA8CDF808A0CDE911
:10F7700003094BA94AA8CDE900014FAB4DAA4CA9FA
:10F7800053A8FFF7D9FE4898002806DA56F8040B6C
:10F7900048900028D8BF002048901998002806DA21
:10F7A00056F8040B19900028D8BF002019905398E0
:10F7B0000088692826D01DDC252835D058281CBF94
:10F7C000632864281ED00598539001881A9824F85D
:10F7D0001010401C1A905398801C5390008810B150
:10F7E0001A988542A3DC1A9824F8107055B0204668
:10F7F000BDE8F08F6F2818BF732803D0752818BF95
:10F800007828E0D108A85090539800886F2800F01D
:10F81000C3800EDC582800F02381632829D0642897
:10F8200018BF69283CD00BE01A99252024F8110054
:10F83000D1E7732824D075287DD0782800F0DE80A9
:10F84000ADF820709DF83401CDE9040BCDE90684B4
:10F850009DF828019DF82C21489B19998DE80F00EF
:10F860009DF83831BDF8301150A8539AFFF7A3FD29
:10F87000B1E716F8040BADF82000ADF82270E1E70F
:10F88000FE4856F8041B00680268126B90475090BF
:10F89000FA48006801680A6B539990475390D1E782
:10F8A00056F8041B08A805901A984FF00A0CA8EB0C
:10F8B000000080B24FF0000E02900029B8BF4FF058
:10F8C000010E24AB8DF8B0705FF01F0291FBFCF0CD
:10F8D0000CFB10110029B8BF49420A29B4BF3031CE
:10F8E00057319954521E0100F0D1BEF1000F02D0E1
:10F8F0002D209854521E98180599029B401C4FF0D9
:10F90000000218BF00290BD09A4209D210F801CB8F
:10F9100021F802CBBCF1000F1CBF521C92B2F3D1F4
:10F92000BDF820002D288DD1ADF830015098801CF5
:10F93000509087E7FFE71A9856F8041BA8EB0000E1
:10F9400080B20DF1200E4FF00A0C1BAB02908DF827
:10F950008C701F22B1FBFCF00CFB10110A29B4BF04
:10F96000303157319954521E0100F3D19818029A40
:10F97000401C18BFBEF1000F3FF464AF9142BFF4CA
:10F9800061AF10F8013B2EF8023B002B1CBF491C55
:10F9900089B2F3D156E700BF1A9856F8041BA8EBBA
:10F9A000000080B202900DF1200E4FF0080C36AB33
:10F9B0008DF8F8705FF01F02B1FBFCF00CFB10112A
:10F9C0000A29B4BF303157319954521E0100F3D186
:10F9D0009818029A401C18BFBEF1000F3FF432AFD6
:10F9E0009142BFF42FAF10F8013B2EF8023B002BE1
:10F9F0001CBF491C89B2F3D124E700BF1A9856F8FE
:10FA0000041BA8EB000080B20DF1200E4FF0100C8B
:10FA10002DAB02908DF8D4705FF01F02B1FBFCF0AB
:10FA20000CFB10110A29B4BF303157319954521EC2
:10FA30000100F3D19818029A401C18BFBEF1000FC4
:10FA40003FF400AF9142BFF4FDAE10F8013B2EF839
:10FA5000023B002B1CBF491C89B2F3D1F2E600BF68
:10FA60001A9856F8041BA8EB000080B20DF1200E86
:10FA70004FF0100C3FAB02908DF81C715FF01F022D
:10FA8000B1FBFCF00CFB10110A29B4BF3031573127
:10FA90009954521E0100F3D19818029A401C18BFC5
:10FAA000BEF1000F0AD0914208D210F8013B2EF8A7
:10FAB000023B002B1CBF491C89B2F4D1BDF82010B9
:10FAC00008A8002918BF4FF6E0723FF4BBAE0188CA
:10FAD000A1F16103192B9CBF1144018030F8021F72
:10FAE0000029F4D1AEE60FB410B505AB049AFFF7C8
:10FAF000EDFD10BC5DF814FB70B5A0B072B11578C7
:10FB0000002402F1010C4DB1641C1CF8015BA4B28D
:10FB1000002DF9D1402C01D305F074FA6C464FF05A
:10FB2000400C002552B103E06D1CADB2654505D215
:10FB300012F8016B24F8026B002EF5D16A46FFF72C
:10FB4000C5FD20B070BD0FB470B5A0B027AB269A2C
:10FB500072B11578002402F1010C4DB1641C1CF83F
:10FB6000015BA4B2002DF9D1402C01D305F04AFA73
:10FB70006C4640254FF0000C62B105E00CF1010C21
:10FB80001FFA8CFCAC4505D212F8016B24F8026B0D
:10FB9000002EF3D16A46FFF799FD20B070BC5DF8E6
:10FBA00014FB2DE9FF4F04460020D1B00F468046DC
:10FBB000499001463B90C82208A800F0DEFA002CCC
:10FBC00002BF002055B0BDE8F08F5399002908BF4F
:10FBD000A4F8008000F0A981284802681068036B2F
:10FBE00010469847DFED262AF2EE041A3FAE7D1E3E
:10FBF0009FED243A9FED244AF7EE003A539000F02F
:10FC00008AB900BF24F81200881C53903B98401C0E
:10FC10003B9053990888002800F0838125281CBF59
:10FC20003B9AAA42EEDB3B98A84280F27681002004
:10FC30008DF83401ADF830018DF820018DF82C01DC
:10FC40008DF8F8003D908DF828013A90881C884680
:10FC500053900DF104093AAB4AAA3DA93EA8A9E880
:10FC60000F0048A800904BAB4DAA4CA953A8FFF732
:10FC700063FC3D98002819DA499907E01004002038
:10FC8000CDCCCC3D0200003FD0CC4C3D549800EB95
:10FC90008100491C90ED000A4991BDEEC00A10EEAA
:10FCA000100A3D900028D8BF00203D903A980028C7
:10FCB00010DA4999549800EB8100491C90ED000A34
:10FCC0004991BDEEC00A10EE100A3A900028D8BF44
:10FCD00000203A905398008825280AD0662810D032
:10FCE0003B98CDF84C81B8F8001024F81010401C57
:10FCF00004E03B98252124F81010801C3B9000F074
:10FD000007B90DF1200ECDF838E14999549800EB70
:10FD10008100D0ED000A481C49909DF8280120B9C7
:10FD200001208DF8280103203A90F5EEC00AF1EE8B
:10FD300010FA04D22D20ADF83001F1EE600A3A98A5
:10FD40000023B0EE432A00280CDD10F0010F18BF8D
:10FD5000B0EE442A411005D022EE220A491E20EEC0
:10FD6000222AF9D130EE820AF0EE630A10EE102A50
:10FD7000B0EE401AFD498A420FDB00BF81EE212A16
:10FD800060EEA10AB0EE421A11EE102A8A42F5DAAC
:10FD900010EE901AB1F17C5F20DB3B99791AC91AF9
:10FDA00000291BDD642B19D280EE201ABDEEC11A8A
:10FDB00011EE101A0929A8BF092101F1300201EE44
:10FDC000101A2EF813205A1CB8EEC11A93B200EE86
:10FDD000C10A80EEA11AF0EE410AD9E701220028FB
:10FDE000D8BF3A9830DD10F0010F0BD020EE211A69
:10FDF000BDEEC10A10EE101AB8EEC00A01F10A02F7
:10FE000031EE400A41101DD020EE211A02EB820291
:10FE1000491EBDEEC10A10EE10CAB8EEC00A0CEBC6
:10FE2000420202EB820231EE400A20EE211ABDEEC0
:10FE3000C10A10EE10CAB8EEC00A0CEB420231EE55
:10FE4000400AE1D1001A3A90401E3A903B98111EA8
:10FE5000A7EB0000A0EB03000EEB43081FFA80FAAB
:10FE60004FF00A094FF0000BB8BF4FF0010BB8F18B
:10FE7000000F2DD000208DF81C011F2091FBF9FCF4
:10FE800009FB1C110029B8BF49420A29B4BF30310F
:10FE900057313154401E5FEA0C01EFD1BBF1000F26
:10FEA00002D02D213154401E3044401C4FF000013F
:10FEB00018BFB8F1000F0BD0514509D210F801CB93
:10FEC00028F802CBBCF1000F1CBF491C89B2F3D14A
:10FED000012ADCBF9DF82C01002818BF2E202EF827
:10FEE00013009DF834113BA8CDE90674CDE9041048
:10FEF0009DF820019DF8F8203D9B3A998DE80F0070
:10FF00009DF82831BDF830114EA8539AFFF753FAE7
:10FF10005398801C5390008818B13B9885423FF756
:10FF200078AE3B99002024F8110055B02046BDE87A
:10FF3000F08F70B5A0B072B11578002402F1010CF9
:10FF40004DB1641C1CF8015BA4B2002DF9D1402C0A
:10FF500001D305F057F86C464FF0400C002552B124
:10FF600003E06D1CADB2654505D212F8016B24F8B3
:10FF7000026B002EF5D16A46FFF713FE20B070BD6C
:10FF8000002A18BF88420ED098B1A9B1521E03882A
:10FF9000B1F800C092B2634507D1002A1EBF002B02
:10FFA000801C891CF2D1002070471804B0EB0C4F64
:10FFB00002D24FF0FF30704701207047018820299E
:10FFC00018BF704730F8021F2029FBD07047002A65
:10FFD00018BF88423DD0002834D0002936D003888D
:10FFE000202B03D130F8023F202BFBD00B88202B95
:10FFF0001AD100BF31F8023F202BFBD014E0002AB9
:020000040801F1
:1000000018BF002B25D030F8023F891C202B03D1CC
:1000100030F8023F202BFBD00B88202B04D100BFEF
:1000200031F8023F202BFBD01300A2F1010292B263
:1000300004D00388B1F800C06345E0D00088098887
:10004000884202D24FF0FF30704702D94FF00100D2
:1000500070474FF00000704770B44FF0000C002A5A
:100060003AD9037813F0800F04BF0B80401C2AD0CC
:1000700003F0E004C02C04D1447804F0C005802DC6
:1000800004D003F0F004E02C11D106E003F01F03CC
:1000900063F39F140C80801C15E0447804F0C005C5
:1000A000802D04D1857805F0C006802E01D0401C3B
:1000B00010E01B0304F03F0443EA841305F03F04FF
:1000C00023430B80C01C0CF101031FFA83FC31F8A1
:1000D000023B0BB19445C4D370BC6046704770B40A
:1000E00003460020002A87BFC025E02470BC70476B
:1000F000B3F800C0BCF17F0F04D8401C01F801CB5D
:1001000080B22EE0BCF5006F3CBF461C96420DD27B
:1001100045EA9C1C01F801CB93F800C0801C0CF050
:100120003F0C4CF0800C01F801CB19E0861C964284
:1001300024BF70BC704744EA1C3C01F801CBB3F803
:1001400000C0C01CCCF3851C4CF0800C01F801CB26
:1001500093F800C00CF03F0C4CF0800C01F801CB80
:1001600080B233F802CBBCF1000F01E00000204167
:1001700018BF9042BCD370BC7047B2F1004FA2F1DF
:10018000010202F1010307D3002B08BF704700F8FA
:10019000011B521EFBD27047002BD8BF7047401E78
:1001A00012F0010F08BF00F8011F521C521008BFC7
:1001B0007047417000F8021F521EFAD1704770B5A7
:1001C0000546F5F736FC04462846F5F7F2FC00280C
:1001D00018BF022040EA840070BD70B50546F5F7EF
:1001E00028FC04462846F5F7E4FC002818BF022046
:1001F00040EA840040F0010070BD0028B8BF4042D2
:1002000004BF1F2070474FF00001020C04BF1021F3
:10021000000410F07F4F04BF0831000210F0704F4F
:1002200004BF091D000110F0404F04BF891C80006D
:1002300010F0004F08BF491C481E7047F0B4B0F1E1
:10024000000CC0F10005B8BFAC4608BF1F241DD08C
:1002500000245FEA1C4604BF10244FEA0C4C1CF03B
:100260007F4F04BF08344FEA0C2C1CF0704F04BFC2
:10027000241D4FEA0C1C1CF0404F04BFA41C4FEA85
:100280008C0C1CF0004F08BF641C641E00FA04FCB8
:100290009CFBF2F602FB16C74FF0010C0028BCBF16
:1002A00028464FF0FF3C0029BCBF4942CCF1000C6E
:1002B000002ABCBF5242CCF1000C41FA04F56E4357
:1002C0007D43012707FA04F4641E2140484390FB54
:1002D000F2F102FB1100284490FBF2F402FB14003F
:1002E000214431441860F0BC01FB0CF0704770B53C
:1002F000044690F82C5008790E4600280CBF0120C7
:10030000002084F82C0008B11DB109E0002D08BFC1
:1003100070BD2068416920468847002D08BF70BD28
:100320003079012818BF70BDA06A002808BF70BDD1
:100330000168C9688847002808BF70BDA06A0168C5
:100340008A682146BDE87040104700002DE9F04F53
:10035000044685B0134401EB4305DDE90E07B4F90B
:100360000410109E1144E160B4F9061008442061A5
:100370002068C16820468847002804BF05B0BDE852
:10038000F08F0DF110084FF0F8094FF0FC0A00BF94
:10039000CDF80080206803AB02AAD0F810C001A9F4
:1003A0002046E04700284ED0207A9DF8101010FB20
:1003B00001F000EB1020401C16F8011BC0F30720D1
:1003C00010FB01F000EB1020401CC0F30720FF28B9
:1003D00042D0B5F800C09DF80CB009EA1C220AEA28
:1003E000DC034FEACC6CC0F1FF014FEA1C6C0BFB45
:1003F00000FB0CFB01BC9DF808B01FFA8CFC0BFB4A
:1004000000FB03FB01B39DF804B09BB20BFB00F0B3
:1004100002FB01000CEB1C2C03EB132380B20CF14C
:10042000010C5B1C00EB1020CCF3072C401CC0F32C
:100430000722CDF800C02068C3F307232946D0F86F
:1004400014C02046E047E068AD1C401CE0607F1E01
:100450009ED105B0BDE8F08F9DF80C00009020689B
:100460009DF808309DF80420D0F814C02946204695
:10047000E047E8E74FF4784C0CEA02224FF4FC6CBA
:100480000CEAC30300981A4342EAD0000880704780
:100490002DE9F041164688B0FE4AC0E9002100254A
:1004A0008560C56005614561183004F022FB143099
:1004B00003F069FA483004F050FB4838A0F12C04EE
:1004C00080F86C5080F87450012084F8A10084F802
:1004D000A250C4F8A450C4F8A85084F8AC5084F8D2
:1004E000AD50C4F8B050C4F8B450F6F71AFC002868
:1004F00000F01F816068AC4606A902894089ADF80A
:100500001C20ADF818C0ADF81E00ADF81AC0684642
:100510000CF01BFBB6F90020B6F90400BDF9003061
:1005200017189F427EDDBDF9040003EB00089045DB
:1005300078DDB6F90210B6F9060001EB000CBDF942
:10054000020084456EDDBDF906C084448C4569DD3A
:100550009342D8BF13468842D8BF08460FFA88F2A4
:1005600039B28A42B8BF1146C91AADF804100FFA61
:100570008CF27188B6F806C0614409B28A42B8BFED
:100580001146091AADF80030ADF80610ADF80200BA
:10059000DDE90010CDE9041008460599CDE9020116
:1005A000606801684A6A02A990476068011D04A852
:1005B00000F0E6FC02A800F0FBFCBDF91400F6F721
:1005C0006BFB84F8A00004F12C0003F0B9F9BDF92D
:1005D0001000A4F89C00BDF81210A4F89E10400171
:1005E000A060BDF91200DFF8B0824001E060BDF903
:1005F000140040012061BDF9160040016061D8F887
:1006000000000168096A8847D8F80010054691F88B
:10061000760000281ABFC86C002888680168896ABB
:10062000884700E017E0D8F800100746002691F848
:10063000760000281ABFC86C002888680168496ADB
:1006400088470C2862D2DFE800F03E47590F741F3C
:100650002F5151515151ADF80050ADF80450ADF843
:100660000250ADF8065093E7BDF90800BDF90A3015
:10067000C11700EB517105EBE10221F0070103FB0B
:100680000725401AC6B241E0BDF90800BDF90A309D
:10069000C11700EB917105EBA10221F0030103FBEF
:1006A0000725401AC6B231E0BDF90800BDF90A308D
:1006B00000EBD07105EB610221F0010103FB07257E
:1006C000401AC6B222E0BDF90800BDF90A1005EBD8
:1006D000400001FB070519E0BDF90800BDF90A104B
:1006E00000EB4000284401FB07050FE0BDF90800BE
:1006F000BDF90A1001FB0700054407E0BDF9080039
:10070000BDF90A1005EB800001FB0705BDF90E00DD
:10071000E066BDF90E00CDE90007BDF90C303246A8
:10072000294604F1180004F0F7F908B02046BDE8A6
:10073000F08104F067FC10B5044656482060564826
:1007400000680168496A884704F12C0003F054F9F5
:10075000143804F0D5F9183810BD10B504464D48CA
:1007600020604D4800680168496A884704F12C0000
:1007700003F042F9143804F0C3F9BDE8104018380A
:100780000CF0DFB912680020DDF800C0002AB8BF05
:10079000012004DBDCF800C09445D8BF02200968C2
:1007A0000029BCBF40F0040070471A688A42D8BFD5
:1007B00040F008007047394B1B78002B08BF70478A
:1007C000012B18BF704713684068D1F800C0B0F91A
:1007D0000800CCEB401010600B60704710B5044669
:1007E00090F8A100D0B994F8AC0094F8AD1008428C
:1007F00014D148B194F87030D4E9291204F12C00D6
:10080000002B08BF03F036FF04F12C0094F8703081
:10081000D4E92C12002B08BF03F02CFF002084F831
:10082000A10010BD2DE9F047044690F8A000154640
:100830000E46002808BFBDE8F08794F8A1004FF0ED
:100840000008E0B994F8AC0094F8AD10084214D157
:1008500048B194F87030D4E9291204F12C00002B2F
:1008600008BF03F007FF04F12C0094F87030D4E9BE
:100870002C12002B08BF03F0FDFE84F8A18007486E
:10088000007880B101280ED160682946B0F90800CF
:1008900006E00000F82B02081004002000040020ED
:1008A000C6EB40150E46A068311AE06800262D1AE6
:1008B0000F46002DB8BF012603DB6069A842D8BFF0
:1008C00002260029B8BF46F0040604DB20698842EE
:1008D000D8BF46F008064FF00109002E18BF84F873
:1008E000A19007D0C4E92C75C4E9297584F8AC60DF
:1008F000BDE8F08784F8AD6094F8703004F12C0006
:100900002A46002B08BF03F0EEFE84F8A18084F88D
:10091000A290E7E72DE9F041044690F8A0000028F6
:1009200008BFBDE8F081FE48007840B1012806D13B
:1009300060681346B0F90800C1EB40121946A06880
:100940000027091AE0680E46151A002DB8BF0127C6
:1009500003DB6069A842D8BF02270029B8BF47F06F
:10096000040704DB20698842D8BF47F0080794F8E1
:10097000AC0058B1002F1CBF10EA07010F460DD084
:10098000C4E9296584F8AC70BDE8F08194F8703052
:1009900004F12C002A46002BF2D127E094F8A11094
:1009A00091B184F8AD0094F87030D4E9291204F1C3
:1009B0002C00002B08BF03F096FE002084F8A10055
:1009C000012084F8A20009E094F87030D4E92912DB
:1009D00004F12C00002B08BF03F04CFE04F12C00A6
:1009E00094F8703031462A46002BC9D103F042FEFC
:1009F000C6E72DE9F04F044690F8A0009BB0002810
:100A000000F0BF8194F8700000281EBF00201BB0CA
:100A1000BDE8F08F94F8A200002800F0B281606871
:100A20000168096F8847002800F0AB8194F8A100A5
:100A3000D0B994F8AC0094F8AD10084214D148B184
:100A400094F87030D4E9291204F12C00002B08BF6F
:100A500003F010FE04F12C0094F87030D4E92C124D
:100A6000002B08BF03F006FE4FF0000984F8A190A8
:100A700060680168896E8847B4F89E20B4F89C10BD
:100A8000F3F739FC60680168096F884705466068BC
:100A900001688A6E90472946F3F730FC606804F1DC
:100AA00018050168896E8847064604F12C001095E8
:100AB000039003F0AFFF044603984FF0010A8568E6
:100AC000002D02BF50461BB0BDE8F08F90F84400E7
:100AD00000281EBF48461BB0BDE8F08F0398483081
:100AE00004F026F84FF0000804F10807B5F10105FD
:100AF000B4F90010B4F90200CDE90D0101EB004298
:100B0000B4F90410B4F906008844B5F1004F12D3CB
:100B10003C466D1EB4F900106388083701EB0341B1
:100B2000914221D1B4F90610002D0844B4F9041003
:100B30008844EDD117E001216B1C012B13DD3C46ED
:100B40006D1EB4F900C0B4F8029008370CEB094CE4
:100B5000944509D1B4F906C0491C6044B4F904C0F5
:100B60009942E044EBDB6D1E00287DD0C0EB88107D
:100B7000C0100028B8BF4042039991F86C100129B9
:100B800006D1C0F30800B0F5807FC8BFC0F5007083
:100B9000FF28C8BFFF201690D8BF002876D0039842
:100BA0000D99406D002855D00398006D884251D0B2
:100BB000002840DB1099C96881423CDD0399D1F8D7
:100BC00054B00021CDE9040110980269016804982D
:100BD00002FB00100A900398006E06900398D0E97B
:100BE00019A91098007908903AF8020F059942184F
:100BF000069901EB000339F8020F05D510440028CF
:100C0000C4BF9B1A002213DD109902EB000C896807
:100C10008C4502DB881A00280ADD0499CDE9001012
:100C2000029331683046089BD1F808C00A99E04722
:100C3000BBF1010BD8D1039947F6FF70C864039943
:100C400008650398816EC1650398416E81650399BB
:100C500000204865DDE90DB9DDF858A0B9F1000FB5
:100C60002EDBF6F767F800E02DE0484528D9039819
:100C7000006E00F809A00398C06C401C484506D1DE
:100C80000398C06D0188491C018013E018E00398A7
:100C90000121C06D821C0398C26511800398806D8C
:100CA000811C03988165A1F800900398406D411C58
:100CB000039841650398C0F84C900398C0F850B071
:100CC0000E98401C0E90681C11D0B4F900000E99CB
:100CD0008142BFF60DAF4FEA8810C0100028B8BFA0
:100CE0004042039991F86C10012955D14DE00398C9
:100CF000406DE8B30398056D002D42DB1098C06885
:100D0000A8423EDD03984FF00009D0F854801098B7
:100D10000168006900FB05100990039802E00000DB
:100D200000040020D0E91974D0F860A0109890F861
:100D300004B000BF37F8020F10EB09020AEB000104
:100D400034F8020F05D510440028C4BF891A0022C8
:100D500014DD109B02EB000C9B689C4502DB981A8B
:100D600000280BDD0095CDE9010130685B4600E00D
:100D700007E0D0F808C030460999E047B8F101080B
:100D8000D8D11BB00120BDE8F08FC0F30800B0F54A
:100D9000807FC8BFC0F50070FF28C8BFFF20169035
:100DA000D8BF00283FF4A4AE03980D99406DE8B376
:100DB0000398006D884254D0002842DB1099C9681E
:100DC00081423EDD0399D1F854B00690109800217D
:100DD000129102690168069802FB00100A900398BC
:100DE000006E13900398D0E919A910980079089023
:100DF0003AF8020F12994218139901EB000339F8DF
:100E0000020F05D510440028C4BF9B1A002215DD2F
:100E1000109902EB000C89688C4502DB881A0028C7
:100E20000CDD0699CDE90010029300E019E031686D
:100E30003046089BD1F808C00A99E047BBF1010B86
:100E4000D6D1039947F6FF70C864039908650398E3
:100E50000399806EC8650398416E816503990020EF
:100E6000486516980090B4F900100E980D9A0B1A68
:100E700001460398483003F08DFE39E65C4B1B7841
:100E8000002B08BF7047012B18BF70470388B1F8CB
:100E900000C0A0F800C09088C01A401E08807047AB
:100EA000544BB3F800C0544B6CF30F021B8863F330
:100EB0001F424F4B1B78002B08BF7047012B18BFF8
:100EC00070470388B1F800C0A0F800C0D01A401ED7
:100ED00008807047464B1B78002B08BF7047012BDA
:100EE00018BF704790ED000AD1ED000AC0ED000A6E
:100EF000B2F9040000EE900AF8EEE00A9FED3F1A06
:100F000070EEC10A30EEC00A81ED000A7047394B1D
:100F1000B3F800C0384B6CF30F021B8863F31F4219
:100F2000334B1B78002B08BF7047012B18BF70474D
:100F300090ED000AD1ED000AC0ED000A10B200EEFB
:100F4000900A9FED2E1AF8EEE00A70EEC10A30EE1C
:100F5000C00A81ED000A7047254A1278002A08BFAE
:100F60007047012A18BF704702880B88DFF890C0CD
:100F7000BCF800C0ACEB03035B1E03800A80704723
:100F80001B4A1278002A08BF7047012A18BF704711
:100F900002888388B0F802C0A0F800C01A4489888B
:100FA000521E891A491E4180C2888280C3807047C0
:100FB000104A114B12881B8862F30F010C4A63F32D
:100FC0001F411278002A08BF7047012A18BF7047D6
:100FD00002888388B0F802C01A44521E891AA0F809
:100FE00000C0491E4180C2888280C38070470000D3
:100FF00000040020060400200804002017B7D138A0
:101000000C04002001617047817B002908BF7047F4
:101010000189491C89B20181072998BF70470021C5
:1010200041818181817370472DE9F04184B004468C
:1010300088468088B4F906101D4600238DF80430D8
:101040000A9EADF806001746281A32B2DFF804C12E
:10105000ADF8081000B2CDF800C0ADF80A50ADF8F8
:101060000C200028BCBF404200B2A38A98420BDC8F
:10107000501A00B20028BCBF404200B29842DEBF06
:10108000002004B0BDE8F081206901684A68694623
:10109000904700202081A5EB08006081F01BA08113
:1010A000A580E6800120A07304B0BDE8F0812DE9A1
:1010B000F04186B01E4617460D460446012918BF6A
:1010C000022D04D0002D04BFA780E6802FE0B4F9E4
:1010D0000A00DFF88480C11C072911D3A188E288A7
:1010E00000238DF81030ADF81410CDF80C80ADF859
:1010F0001200ADF81620206901688A6803A990479C
:10110000B4F90C00C11C072911D3A388E28801217E
:101110008DF81010ADF81430CDF80C80ADF8120039
:10112000ADF81620206901688A6803A9904700205D
:101130000A498DF80450ADF808600091ADF80670CA
:10114000ADF80A00206901680A686946904706B050
:10115000BDE8F081F42F020860210208081E020891
:10116000F7EE000AC0ED000A9FEDFE0A80ED010ACD
:1011700080ED020A80ED030A80ED040AC0ED050A45
:1011800080ED060A80ED070A80ED080A80ED090A65
:10119000C0ED0A0A80ED0B0A80ED0C0A80ED0D0A05
:1011A00080ED0E0AC0ED0F0A7047B7EE001AC1EECF
:1011B000000A90ED080A20EE200A80ED0C0A90ED5E
:1011C000090A20EE200A80ED0D0A90ED0A0A20EEB1
:1011D000200A80ED0E0A90ED0B0A20EE200A80ED29
:1011E0000F0A704710B504462DED028BF0EE408AD1
:1011F0000CF038F9B0EE408AB0EE680A0BF020FD32
:1012000094ED041AD4ED081A204661EE000A21EE8E
:10121000081A41EEC80A01EE801AC4ED040A84EDF2
:10122000081A94ED051AD4ED091A61EE000A21EEB0
:10123000081A41EEC80A01EE801AC4ED050A84EDD1
:10124000091A94ED061AD4ED0A1A61EE000A21EE8D
:10125000081A41EEC80A01EE801AC4ED060A84EDB0
:101260000A1A94ED071AD4ED0B1A61EE000A21EE6A
:10127000081A41EEC80A01EE801AC4ED070A84ED8F
:101280000B1ABDEC028B10BD10B504462DED028B80
:10129000F0EE408A0CF0E6F8B0EE408AB0EE680A54
:1012A0000BF0CEFCD4ED001A94ED081A204661EE46
:1012B000800A41EE080A21EE001A01EEC81AC4EDB8
:1012C000000A84ED081AD4ED011A94ED091A61EEB2
:1012D000800A41EE080A21EE001A01EEC81AC4ED98
:1012E000010A84ED091AD4ED021A94ED0A1A61EE8E
:1012F000800A41EE080A21EE001A01EEC81AC4ED78
:10130000020A84ED0A1A94ED031AD4ED0B1A61EE69
:10131000000A21EE800A41EE880A01EE480AC4ED77
:10132000030A84ED0B0ABDEC028B10BD10B5044618
:101330002DED028BF0EE408A0CF094F8B0EE408A6E
:10134000B0EE680A0BF07CFC94ED001AD4ED041AA0
:10135000204661EE000A21EE081A41EEC80A01EEAD
:10136000801AC4ED000A84ED041A94ED011AD4ED3C
:10137000051A61EE000A21EE081A41EEC80A01EED4
:10138000801AC4ED010A84ED051A94ED021AD4ED19
:10139000061A61EE000A21EE081A41EEC80A01EEB3
:1013A000801AC4ED020A84ED061A94ED031AD4EDF6
:1013B000071A61EE000A21EE081A41EEC80A01EE92
:1013C000801AC4ED030A84ED071ABDEC028B10BD30
:1013D000D0ED000A90ED0C1A40EE010AC0ED000AB3
:1013E000D0ED010A90ED0D1A40EE010AC0ED010AA0
:1013F000D0ED020A90ED0E1A40EE010AC0ED020A8D
:10140000D0ED030A90ED0F1A40EE010AC0ED030A79
:101410007047D0ED040A90ED0C1A40EE010AC0EDC1
:10142000040AD0ED050A90ED0D1A40EE010AC0ED58
:10143000050AD0ED060A90ED0E1A40EE010AC0ED45
:10144000060AD0ED070A90ED0F1A40EE010AC0ED32
:10145000070A7047D0ED080A90ED0C1A40EE010A19
:10146000C0ED080AD0ED090A90ED0D1A40EE010A10
:10147000C0ED090AD0ED0A0A90ED0E1A40EE010AFD
:10148000C0ED0A0AD0ED0B0A90ED0F1A40EE010AEA
:10149000C0ED0B0A7047D0ED000A60EE800AC0ED87
:1014A000000AD0ED010A60EE800AC0ED010AD0ED1D
:1014B000020A60EE800AC0ED020AD0ED030A20EEB7
:1014C000800A80ED030A7047D0ED040A60EE800ABE
:1014D000C0ED040AD0ED050A60EE800AC0ED050AF1
:1014E000D0ED060A60EE800AC0ED060AD0ED070ACC
:1014F00020EE800A80ED070A7047D0ED080A60EE02
:10150000800AC0ED080AD0ED090A60EE800AC0ED3D
:10151000090AD0ED0A0A60EE800AC0ED0A0AD0ED91
:101520000B0A20EE800A80ED0B0A7047F0B490B0F1
:10153000F7EE000A9FED0B0ACDED000A8DED010AD2
:101540008DED020A8DED030A8DED040ACDED050A3D
:101550008DED060A8DED070A8DED080A8DED090A5D
:1015600002E0000000000000CDED0A0A8DED0B0A3C
:101570008DED0C0A8DED0D0A8DED0E0ACDED0F0AE5
:101580004FF0000C4FEA0D0501EB0C13D2ED001AE1
:1015900093ED001AF0EE400A05EB0C1441EE210A1F
:1015A00093ED011AD2ED041A0CF1010CBCF1040FF9
:1015B00041EE210A93ED021AD2ED081A41EE210AFA
:1015C00093ED031AD2ED0C1A41EE210AC4ED000A84
:1015D00093ED001AD2ED011AF0EE400A41EE210A15
:1015E00093ED011AD2ED051A41EE210A93ED021A8C
:1015F000D2ED091A41EE210A93ED031AD2ED0D1A2C
:1016000041EE210AC4ED010A93ED001AD2ED021A4F
:10161000F0EE400A41EE210A93ED011AD2ED061ACE
:1016200041EE210A93ED021AD2ED0A1A41EE210A87
:1016300093ED031AD2ED0E1A41EE210AC4ED020A0F
:1016400093ED001AD2ED031AF0EE400A41EE210AA2
:1016500093ED011AD2ED071A41EE210A93ED021A19
:10166000D2ED0B1A41EE210A93ED031AD2ED0F1AB7
:1016700041EE210AC4ED030A86DB9DE8FE1080E8F6
:10168000FE10DDE90812DDE90A34DDE90C56DDE97A
:101690000E7C2030A0E8FE1010B0F0BC704784B083
:1016A0005FED500AB7EE000ACDED000ACDED010A5C
:1016B000CDED020A8DED030A5FF0000200EB02138C
:1016C000D1ED001A93ED001AB0EE600A01EE210A86
:1016D00093ED011AD1ED011A01EE210A93ED021AE0
:1016E000D1ED021A01EE210A93ED031AD1ED031A8E
:1016F0006B4603EB8203521C01EE210A042A83EDA0
:10170000000ADBDB9DEC040A04B0704710B5FBF760
:10171000CDFE0446EF48206000200146C4F8BC001E
:101720002046FBF73AFF0121204684F8241010BD23
:1017300070B5044600680D46D0F8B81020468847BA
:10174000A4F87A502168D1F8B42001462046BDE8BB
:1017500070401047B0F97A00704710B50446B0F8F1
:101760007C00002808BF10BD94F89C0001280ED012
:101770002068D0F8B8102046884701462046FCF77C
:1017800055F8B4F97C10404290FBF1F010BD2046B2
:10179000D4F8AC10FCF74AF8B4F97C10404290FB46
:1017A000F1F010BD70B515460646A942A8BF114616
:1017B0000C463068D0F8A41030468847B6F97C1043
:1017C000401E01FB00504042A042B8BF204670BD01
:1017D00070B5044600680E46D0F8B8102046884719
:1017E00005463079E8B1012818BF70BD94F89C0017
:1017F000002852D002286FD0D4F88C00002808BFEF
:1018000070BD0168C9688847002808BF70BDB4F87A
:101810007C00D4F88C5070B394F89C0001281CD143
:101820002AE0F088A4F8B0003089A4F8B200C4F827
:10183000B450D4F89800002808BF70BD0168C9688A
:101840008847002808BF70BDB4F87C00D4F89850D1
:1018500088B194F89C0001280ED02068D0F8B81008
:101860002046884701462046FBF7E0FFB4F97C108C
:10187000404290FBF1F009E02046D4F8AC10FBF7B1
:10188000D5FFB4F97C10404290FBF1F001B228681A
:1018900082682846BDE8704010472068D0F88C1058
:1018A00020468847002814BFB4F9B000B4F9B2004C
:1018B000B4F97A10814210DD091AB4F97C004FF0B6
:1018C000FF3291FBF0F1491C01FB00512068D0F878
:1018D000C830204698478FE711E0B4F97C208B1878
:1018E00098420CDD401A90FBF2F000FB1251206888
:1018F0004FF0FF32D0F8C830204698477CE7206888
:101900004FF0FF322946D0F8C8302046984773E799
:1019100070B50546022085F89C0028680C46D0F872
:10192000B8102846884706462868D0F88C10284604
:101930008847002819BF6089E188A0892189A0EB28
:101940000100B5F8801000B200FB01F0624981FB94
:1019500000104FEAA001A1EBE07006EB000428683C
:10196000D0F8941028468847F0B9B5F97C0000EB10
:101970004000C11700EB9170B4EBA00FA8BF84101A
:101980002868D0F8A41028468847B5F97C20401E66
:1019900002EB42015043CA1701EB927100EBA10028
:1019A0004042A042A8BF044628682146D0F8B4208F
:1019B0002846BDE87040104770B5044600680D46E3
:1019C0000E79D0F88C102046884780F001008642BE
:1019D00018BF70BD2068D0F8B81020468847B5F908
:1019E0000610B4F87E2051433B4A82FB01218A1045
:1019F000A2EBE1710144B4F8820068B1B4F97C3023
:101A0000D4F8B4C000FB03C28A42D8BF114600FB21
:101A100013C08842A8BF014620684FF0FF32D0F8BB
:101A2000C8302046BDE870401847C0F8BC10704769
:101A300070B50546B0F97C00494200FB01F4286806
:101A4000D0F8941028468847C0B12868D0F8A41070
:101A500028468847B5F97C1000FB01462868D0F875
:101A6000B81028468847311A0029B8BF4942201AC1
:101A70000028B8BF40428142B8BF3446204670BDFE
:101A800070B50446D0F8BC0016460D46D0B10168CA
:101A9000C968884700281CBFB4F97C00002811DD04
:101AA00020682946D0F8C430204698470546B4F946
:101AB0007C00694291FBF0F001B2D4F8BC000268EE
:101AC00093689847324629462046BDE87040FBF7A8
:101AD00075BF00006C24020867666666214A10B470
:101AE000136823F0010313601F4A1368C3F30B1C30
:101AF0000123ACF54064243C07D01268C2F30B12FA
:101B0000A2F5406CBCF1270C22D1184A1268FAB930
:101B1000174AD2F800C0CCF30B0CBCF58A6F07D083
:101B20001268C2F30B02A2F5806CBCF1830C0FD1DA
:101B3000104A13601368002BFCD10F4A1060106824
:101B4000884202D010BC0020704710BC01207047B2
:101B50000A4A93609368002BFCD110601068884299
:101B6000F3D0EFE7002000E000ED00E0002004E00B
:101B70000010005C084C0258004C02580030024033
:101B800070B50446FA4D606838B92168002931D033
:101B900028680268126B90476060207C80B1E06822
:101BA00000281FBF01880029811CE16001D0008846
:101BB00070BD00202074286821680268126B90476D
:101BC00060680188B1B102291CBF811C6160EED13F
:101BD000801C6060A16828680A1DA260026809680C
:101BE000126B9047E06000281FBF0088002801208A
:101BF0002074C7E7002070BD2DE9F04704464FF080
