:020000040800F2
:10000000989F0020890200082D00010895FD000836
:100010002B00010805DB0008550301080000000063
:10002000000000000000000000000000C9010008FE
:10003000ABDB0008000000002502000831000108C9
:10004000A3020008A3020008A3020008A3020008FC
:10005000A3020008A3020008A3020008A3020008EC
:10006000A3020008A3020008A3020008A3020008DC
:10007000A3020008A3020008A3020008A3020008CC
:10008000A3020008A3020008A3020008A3020008BC
:10009000A3020008A3020008A3020008A3020008AC
:1000A000A3020008A3020008A3020008A30200089C
:1000B000A3020008A3020008A3020008A30200088C
:1000C000A3020008A3020008A3020008A30200087C
:1000D000A3020008A3020008A3020008A30200086C
:1000E000A3020008A3020008A3020008A30200085C
:1000F000A3020008A3020008A3020008A30200084C
:10010000A3020008A3020008A3020008A30200083B
:10011000A3020008A302000859010108A302000875
:10012000A3020008A3020008A3020008A30200081B
:10013000A3020008A3020008A3020008A30200080B
:10014000A3020008A3020008A3020008A3020008FB
:10015000A3020008A3020008A3020008A3020008EB
:10016000A3020008A3020008A3020008A3020008DB
:10017000A3020008A3020008A30200080000000078
:10018000A3020008A3020008A3020008A3020008BB
:10019000A3020008A3020008A3020008A3020008AB
:1001A000BDFE0008A302000809DB0008DFF814D038
:1001B0000DF06AFC0DF0FAFB004800472D310108F4
:1001C0000DF03FFC989F00202C4B19680868B0E8A0
:1001D000F04F80F30988BFF36F8F4FF0000080F37A
:1001E000118870470000000008480068006880F32C
:1001F00008884FF0000080F3148862B661B6BFF340
:100200004F8FBFF36F8F00DF00BF00BF08ED00E02E
:10021000DFF80C00016841F470010160704700BF15
:1002200088ED00E0EFF30980BFF36F8F134B1A687E
:100230001EF0100F08BF20ED108A20E9F04F10606B
:1002400009B44FF0500080F31188BFF34F8FBFF314
:100250006F8F13F0D1FC4FF0000080F3118809BCC0
:1002600019680868B0E8F04F1EF0100F08BFB0EC36
:10027000108A80F30988BFF36F8F7047B0020020A7
:10028000EFF30580704700000648804706480047A6
:10029000FEE7FEE7FEE7FEE7FEE7FEE7FEE7FEE736
:1002A000FEE7FEE705010108AD010008704711F007
:1002B0005EBD70B5044600680D46016A2046884759
:1002C000A84206D32068C16920468847A188884291
:1002D00001D8AFF300802068426A20469047A18889
:1002E000491CA18070BD70B50446006815460E46D5
:1002F000026A20469047A84201D2AFF300802068EE
:100300003146426A2046BDE87040104780887047F9
:1003100070B5044600680D460021426A20469047A9
:10032000281A86B22068016A20468847B6FBF0F694
:10033000A088B04212D920680021426A2046904726
:10034000281A85B22068016A20468847B5FBF0F17B
:1003500000FB1150002804BF304670BDAFF3008091
:10036000002181807047024901600021818070472F
:100370007C63010870472DE9F04F91B00E4680462E
:100380001C461546114668461A9F11F005FD214688
:1003900008A811F001FD68460BF0A8FA294608A844
:1003A0000BF08CFABDF92010BDF80420BDF8220036
:1003B00012FB001208EB42051644BDF80020BDF9FF
:1003C00024401144ADF82010BDF802100844ADF8E7
:1003D0002200BDF926000490F94800680168096A06
:1003E0008847F84ABDF92010BDF92230B2F800C0A4
:1003F000FF2F0CFB031100EB41034FF0000172D201
:10040000DDF81090B9F1000F6BDD0020002C64DDE9
:10041000BDF9048006EB000C08FB01F212F80C2079
:10042000002A57D07A4302EB1222521CC2F3072251
:10043000002A4FD008FB01084FF0F80A35F8189051
:10044000C2F1FF0C0AEA192808FB02FBDFF87483EB
:10045000B8F8008008FB0108CDF81C8033F818803C
:100460000AEA182A0AFB0CBA1FFA8AFB4FF0FC0AA8
:100470000AEAD90E0AEAD80A0EFB02FE4FEAC96957
:100480004FEA19694FEAC86809FB02F24FEA186897
:1004900008FB0C220AFB0CEA0BEB1B2C0CF1010CE9
:1004A0001FFA8AFA0CF478480AEB1A2C0CF10109AD
:1004B0004FF4FC6C92B20CEA591C48EA0C0C02EBAB
:1004C0001222521CDDF81C80C2F307224CEAD20231
:1004D00023F81820401CA0429ADB0498491C814252
:1004E00093DB62E0FFE7049F002F5EDD0020002C1D
:1004F00057DD00BFBDF90470321807FB01FC1CF882
:100500000220EAB3FF2A58D007FB01074FF0F80991
:1005100035F81780C2F1FF0C09EA182707FB02FA29
:10052000A84F3F8807FB010B33F81B7009EA172916
:1005300009FB0CA91FFA89FA4FF0FC0909EAD80E49
:1005400009EAD7090EFB02FE4FEAC8684FEA1868AD
:10055000FF0608FB02F23F0E09FB0CE907FB0C2229
:100560000AEB1A2C0CF1010C1FFA89F90CF47847EC
:1005700009EB192C0CF1010892B24FF4FC6C00E06D
:100580000CE002EB12220CEA581C521C47EA0C0C3D
:10059000C2F307224CEAD20223F81B20401CA042DF
:1005A000A8DB0498491C8142A0DB854800680168EB
:1005B000496A884711B0BDE8F08F07FB010235F8A2
:1005C00012C0804A128802FB010223F812C0E5E73C
:1005D0002DE9F04F8FB080460888189D1E461446BE
:1005E0000F46012801D0AFF30080002D04BF0FB0EB
:1005F000BDE8F08F11460AA811F0CEFB31460CA8D9
:1006000011F0CAFB0AA80BF071F921460CA80BF0F7
:1006100055F9BDF93000BDF82C20BDF8321012FBA1
:10062000010202EB0804BDF82820DFF89491104481
:10063000ADF83000BDF82A00BDF934600844ADF8CB
:100640003200BDF936000190D9F800000168D1F8F8
:1006500090108847DFF86C81012877D04846006801
:100660000168096A8847BDF93010BDF93220B8F831
:10067000003003FB021100EB410301980021002828
:100680005BDD0020002E50DD227802EB42023A446E
:10069000121DFF2D7BD092F802C092F800900CFB47
:1006A00005FEDFF820C192F801A04FF0F80BBCF86E
:1006B00000C0C5F1FF020CFB010809FB05F933F886
:1006C00018C00BEA1C2B0BFB02EB0AFB05FE4FF0DC
:1006D000FC0A0AEADC0A0AFB02EA4FEACC6C4FEA9F
:1006E0001C6C0CFB02921FFA8BFB0BEB1B2C0CF10E
:1006F000010C1FFA8AFA0CF478490AEB1A2C92B210
:100700000CF1010A4FF4FC6C02EB12220CEA5A1CA9
:10071000521C49EA0C0CC2F307224CEAD20223F81D
:100720001820641C401CB042AEDBBDF92C00491CF3
:10073000801B044401988142A3DB214800680168C2
:10074000496A88470FB0BDE8F08FFFE70DF1140A42
:1007500000230B22B8F800100120AAE80F0001992D
:10076000BDF82C0089B2CDE90210B2B20192BDF8F9
:10077000320004950090BDF830303A462146D9F851
:10078000000007F074FD0FB0BDE8F08FFFE792F8AE
:1007900002804FF4784C0CEA082892F801904FF44C
:1007A000FC6C0CEAC90C127848EA0C0C4CEAD20C2E
:1007B000044A128802FB010223F812C0B1E70000CC
:1007C000A40300209E0300202DE9F04F0646088870
:1007D00091B01C4615460F4608B1AFF30080114694
:1007E0000AA811F0D9FA21460CA811F0D5FA0AA8E6
:1007F0000BF07CF829460CA80BF060F8BDF930002E
:10080000BDF82C20BDF8321012FB01029419BDF87E
:100810002820BDF934501044ADF83000BDF82A004E
:100820000844ADF83200BDF93600FE4E0090306845
:100830000168D1F890108847DFF8EC9301287DD04B
:10084000304600680168096A8847BDF93010BDF973
:100850003220B9F8003007F1040803FB021100EB65
:10086000410600980022002862DD0021002D57DD9E
:10087000207858F82000030E4ED0FF2B04BFDDF87F
:1008800068C0BCF1FF0F7CD0DDF868C0C0F307473B
:100890000CFB03F303EB13235B1CC3F30723C3F12C
:1008A000FF0C17FB03F9E04F4FF0F80B3F8807FBF5
:1008B000021A36F81A700BEA172B1BFB0C991FFA59
:1008C00089F9C0F3072B1BFB03FE4FF0FC0B0BEA6F
:1008D000D70B1BFB0CEB1FFA8BFBC0B210FB03F01A
:1008E000FB061B0E13FB0C0009EB19235B1C03F426
:1008F000784C0BEB1B235F1C80B24FF4FC6300EBC6
:10090000102003EA5713401C4CEA0303C0F30720EE
:1009100043EAD00026F81A00641C491CA942A7DB50
:10092000BDF92C00521C401B0444009882429CDB01
:10093000BC4800680168496A884700E002E011B0DD
:10094000BDE8F08F0DF1140800230B22B9F8001058
:100950000120A8E80F00009A1A98BDF82C10CDE9E4
:10096000031092B2ABB2CDE90132BDF83200009073
:10097000BDF830303A462146306807F078FCDCE7B5
:10098000FFE74FF4784303EA102C4FF4FC6303EACB
:1009900050134CEA0303C0F3C4000343A248008889
:1009A00000FB021026F81030B6E72DE9F04F91B0A9
:1009B000074608881A9E1C4615468846022801D01C
:1009C000AFF30080002E04BF11B0BDE8F08F1146D8
:1009D0000AA811F0E1F921460CA811F0DDF90AA8E6
:1009E0000AF084FF29460CA80AF068FFBDF9300020
:1009F000BDF82C20BDF8321012FB0102D419BDF84D
:100A00002820DFF820921044ADF83000BDF82A000D
:100A1000BDF934500844ADF83200BDF936000190FC
:100A2000D9F800000168D1F8901088477E4F01285E
:100A300074D0484600680168096A8847BDF93010DB
:100A4000BDF932203B88FF2E03FB021100EB41036E
:100A500008F104017ED20198C6F1FF024FF0000EAA
:100A6000002859DD0020002D4DDD00BF94F800C0A6
:100A7000F827641C31F81CC007EA1C2808FB06F99B
:100A8000DFF8A481B8F8008008FB0E0A401C33F898
:100A90001A8007EA182707FB02971FFA87F9FC2735
:100AA00007EADC0B07EAD8074FEACC6C4FEA1C6C6C
:100AB0004FEAC8680CFB06FC4FEA186808FB02CC3A
:100AC0000BFB06FB07FB02B709EB1928BFB207EBCC
:100AD00017271FFA8CFC07F1010908F101084FF4F0
:100AE000FC670CEB1C2C08F4784807EA59170CF14A
:100AF000010C48EA0707CCF3072C47EADC0C23F883
:100B00001AC08542B2DCBDF92C000EF1010E401B6B
:100B1000044401988645A5DB4CE0FFE73A880020B5
:100B2000CDE905020B21CDE907100199BDF82C0094
:100B300089B2CDE90210AAB20192BDF83200049642
:100B40000090BDF8303042462146D9F8000007F049
:100B50008EFB00E002E011B0BDE8F08F01980026A6
:100B6000002827DD002D1DDD3888704303EB400091
:100B7000801E15F0010F05D014F8012B31F812205A
:100B800020F8022F6A100DD014F801CB521E31F854
:100B90001CC0A0F802C014F801CB31F81CC020F82A
:100BA00004CFF1D1BDF92C00761C401B0444019800
:100BB000B042D7DC1B4800680168496A8847C8E72B
:100BC00038B50C78DDF810C044B1012C0BD0022CE4
:100BD00004BFCDF800C0FFF7E8FE38BDCDF800C077
:100BE000FFF7F2FD38BDCDF800C0FFF7F1FC38BDCE
:100BF0002DE9F04F91B006461C4615460F4604A855
:100C000011F0CAF8294606A811F0C6F804A80AF09F
:100C10006DFE394606A80AF051FEBDF91810BDF860
:100C2000142003E0A40300209E030020BDF81A0056
:100C300012FB001206EB8206BDF81020BDF91C5015
:100C40001144ADF81810BDF812100844ADF81A00A0
:100C5000BDF91E00FA4F099038680168896B884712
:100C6000FF2C19D010F0400F19D000BF0999BDF822
:100C70001400AAB289B203940092CDE90110386839
:100C8000BDF81A30BDF818200168D1F848C03146C7
:100C9000E04711B0BDE8F08F10F0200FE6D1E84832
:100CA00000680168096A8847E64ABDF91810BDF96D
:100CB0001A30B2F800C00CFB031100EB410C09988C
:100CC000002100285CDD0020002D55DDBDF9142039
:100CD00002FB010256F82220130E4AD0FF2B08BF58
:100CE000FF2C55D0C2F30747C2F3072A02F0FF09D1
:100CF00004FB03F202EB1222521CC2F30722C2F1E0
:100D0000FF0317FB02FECF4F4FF0F80B3F8807FBA6
:100D100001083CF818700BEA172B1BFB03EB1FFABA
:100D20008BFB1AFB02FE4FF0FC0A0AEAD70A1AFBF9
:100D300003EA1FFA8AFA19FB02F2FF063F0E17FBBD
:100D400003220BEB1B235B1C03F478470AEB1A23EB
:100D500003F101094FF4FC6392B203EA59133B43D8
:100D600002EB1222521CC2F3072243EAD2022CF8F1
:100D70001820401CA842A9DB0998491C8142A2DB2B
:100D8000AF4800680168496A884711B0BDE8F08F34
:100D90004FF4784303EA12274FF4FC6303EA52133B
:100DA0003B43C2F3C4021343A64A128802FB01026A
:100DB0002CF81230DDE72DE9F04F93B08A46DDE9DB
:100DC0001C458146002D04BF13B0BDE8F08F1646C8
:100DD0009846084604F09BF80746504604F0BAF8D7
:100DE000ADF81C70ADF81860ADF81E00ADF81A80B3
:100DF000504604F05AF858B1504604F056F802280C
:100E000006D0504604F051F80B2801D0AFF3008013
:100E1000504603F0E1FF8046504603F0FDFF0746D1
:100E2000504604F042F8022800F0EB80504604F0EF
:100E30003CF80B2800F0EE80504604F0F6F800264F
:100E4000002800F00981514610A804F0A6F8DDE959
:100E50001001CDE90E010EA90AA810F09DFFB4F90A
:100E60000020B4F9040002EB000CBDF92800844511
:100E700040F3FE80BDF92C1000EB010A924540F3CF
:100E8000F780B4F902B0B4F906100BEB0103BDF919
:100E90002A108B4240F3EC80BDF92E300B445B45A9
:100EA00040F3E6809042D8BF10465945D8BF594616
:100EB0000FFA8AF20FFA8CFC6245A8BF6246121A3A
:100EC000ADF82C206288B4F806C01BB2624412B29E
:100ED0009342B8BF1A46521AADF82800ADF82E203A
:100EE000ADF82A10DDE90A01CDE90C01BDF83400A6
:100EF00000281CBFBDF8360000287CD0CDE9005684
:100F0000D9F800000CAB06AAD0F810C041464846FC
:100F1000E047BDF93210B4F90200814211DD2388A7
:100F2000A288091AADF81420ADF81030ADF81610EB
:100F3000ADF8120004AB06AA394640460095FFF70B
:100F40001AFABDF93010B4F90000814213DD091A14
:100F5000ADF81410BDF83630ADF81000BDF83220F1
:100F6000ADF81630ADF8122004AB06AA394640465B
:100F70000095FFF700FA2088A188BDF834200844C6
:100F800001B2BDF83000104400B2814213DD091AED
:100F9000ADF81410BDF83630ADF81000BDF83220B1
:100FA000ADF81630ADF8122004AB06AA394640461B
:100FB0000095FFF7E0F96088E188BDF83620084425
:100FC00001B2BDF83200104400B28142DCBF13B060
:100FD000BDE8F08F2288A388091AADF81430ADF867
:100FE0001020ADF81610ADF8120004AB06AA394671
:100FF0004046009500E044E0FFF7BDF913B0BDE8BE
:10100000F08F2B46224606A94046FFF7F1FD13B0AC
:10101000BDE8F08F97F800C04046394606AA23463F
:10102000BCF1000F10D0BCF1010F11D0BCF1020FC8
:1010300004BF0095FFF7B9FC13B0BDE8F08F0000C6
:10104000A40300209E0300200095FFF7BDFBF3E7FB
:101050000095FFF7BDFAEFE7CDE90056D9F800009B
:10106000234606AAD0F810C041464846E047E3E7C9
:10107000ADF82860ADF82C60ADF82A60ADF82E60B0
:1010800030E7234606AA394640460095FFF773F934
:10109000D2E72DE9F04F8FB01D46DDE9184816461E
:1010A0000F46002C04BF0FB0BDE8F08F114606A814
:1010B00010F072FE294608A810F06EFE06A80AF08D
:1010C00015FC314608A80AF0F9FBBDF92010BDF85F
:1010D0001C20BDF8220012FB001207EB4206BDF8EF
:1010E0001820BDF924701144ADF82010BDF81A1075
:1010F0000844ADF82200BDF92600FE4D0290286894
:101100000168896B8847FF2C03D210F0040F07D1C8
:101110001DE008BFB8F1000F19D110F0010F16D073
:101120000299BDF81C0089B2CDE90110B8B2009057
:10113000CDE903482868BDF82230BDF820200168B9
:10114000D1F844C03146E0470FB0BDE8F08FE94820
:1011500000680168096A8847DFF89C83BDF92010A0
:10116000BDF92220B8F80030FF2C03FB021100EB80
:1011700041055AD202980021C4F1FF020028C8BFDD
:10118000C6466FDD0020002F4ADD00BFBDF91C30D0
:101190004FF0F80C03FB010336F813300CEA132868
:1011A00008FB04F9BEF8008008FB010A401C35F872
:1011B0001A800CEA182C0CFB029C1FFA8CF94FF0D9
:1011C000FC0C0CEAD30B0CEAD80CDB061B0E4FEA26
:1011D000C86863434FEA186808FB02330BFB04FB43
:1011E0000CFB02BC09EB19281FFA8CFC9BB20CEB20
:1011F0001C2C0CF1010903EB132308F101084FF437
:10120000FC6C5B1C08F478480CEA591C48EA0C0C8E
:10121000C3F307234CEAD30325F81A308742B5DC21
:101220000298491C8142ADDB1CE002980024002892
:10123000C4BFDFF8C0927F0014DDD9F800003B4640
:1012400032460168D1F834C02946E047B8F80000BA
:10125000641C05EB4005BDF91C0006EB4006029836
:10126000A042EADCA34800680168496A88470FB0D9
:10127000BDE8F08F70B582B00D46DDE90661DDF89E
:1012800020C01C460C2A24BF02B070BDDFE802F06B
:10129000061911191919191919191919CDE9001C6B
:1012A000016833462246D1F810C02946E04702B013
:1012B00070BD0B4602B0324621462846BDE870405C
:1012C00096E4AFF300802DE9F04FDFF828B2044632
:1012D0008BB0DBF8000015460E4690F84800022857
:1012E00000F0C080ADF8043001A803F0DEFD074631
:1012F0002068416A2046884787427DD101A803F0D3
:101300006BFD0490002877D0294608A810F044FD12
:10131000314602A810F040FD2E886F8801A803F026
:10132000F6FD054601A803F015FEADF81C50ADF81A
:101330001860ADF81E00ADF81A7008A80AF0D6FAC9
:1013400002A80AF0D3FA06A80AF0D0FADFF8A881BA
:101350000022BDF90890B8F80000114603B26748B2
:101360004B4500880FFA80FC10462FDDBDF90C506C
:1013700009EB0507974229DD01EB0C06BDF90AC010
:10138000664523DDBDF90E5065448D421EDD914555
:10139000D4BF1046484681468C45C8BF614638B226
:1013A0001A4412B29042A8BF1046A0EB0900ADF853
:1013B0000C0028B232B29042A8BF1046401AADF8D5
:1013C0000890ADF80E00ADF80A1007E0ADF808007F
:1013D000ADF80C00ADF80A00ADF80E00BDF90C50E8
:1013E000002D1CBFBDF90EC0BCF1000F36D0BDF9F9
:1013F0000830BDF9202000E034E0934232DBBDF933
:101400000A10BDF9220081422CDB2B44BDF9245087
:101410002A449A4226DBBDF92620614410448142C9
:1014200020DC2068816A204688470746DBF80000F8
:101430000168896A88470146BDF90820BDF818008F
:10144000BDF91C60101A00B2049D00280CDD05EBEC
:101450004005A6EB0000ADF81C000FE004980BB0AF
:10146000BDE8F08FAFF3008008DAA2EB0002ADF820
:101470000820BDF80C201044ADF80C00BDF90A207E
:10148000BDF81A00A2EB000000B200280ADD00FB44
:1014900006F205EB4205BDF81E20A2EB0000ADF8F8
:1014A0001E0009E008DAA2EB0002ADF80A20BDF840
:1014B0000E201044ADF80E00BDF91CA0BAF1000FCB
:1014C000C4BFBDF91E40002CC8DDBDF9082001EBEA
:1014D0004200BDF90A1001FB0709BDF90C00504597
:1014E000B8BF8246B8F80000821A5245D8BF92466B
:1014F00006E00000A40300209E030020A0030020BB
:10150000BDF90E20A242B8BF1446FE4A1288511AF5
:10151000A142D8BF0C46824508BF864223D1DBF8E2
:1015200000000168896B884710F0010F10D0ADF8FA
:101530000CA0ADF80E400096DBF800002B460168C9
:10154000D1F860C0DDE90212E0470BB0BDE8F08FD2
:10155000DBF8000004FB07F34A460168D1F834C009
:101560002946E0477AE74FF00008002CC8BF4FEA51
:101570004A0A7FF773AF00BFDBF8000053464A46C4
:101580000168D1F834C02946E04708F10108B944A0
:1015900005EB46054445EFDC60E7002B08BF7047CC
:1015A0002DE9F04F888887B01F469046002819BF64
:1015B000C888002807B0BDE8F08F04A810F0ECFB45
:1015C00004A80AF093F9D04D28680168896B884710
:1015D000FF2F03D010F0080F17D002E010F0020F19
:1015E00013D0BDF81600BDF81410CDE90010029715
:1015F0002868BDF81230BDF810200168D1F854C039
:101600004146E04707B0BDE8F08FBDF91440BDF991
:1016100016000090BC4800680168096A8847BB4B07
:10162000BDF91010BDF91220B3F800C04FF0F80A50
:1016300002FB0C1100EB410CC8F3C4204FEAC009B7
:10164000C8F3451086000AEAC800FF2F4DD20022D9
:10165000DDF80080C7F1FF011546B8F1000F63DD2A
:1016600009FB07F87E4347430020002C35DD00BF0F
:1016700002EB00094FF0F80A3CF81930401C0AEA66
:10168000132A0AFB018A1FFA8AFB4FF0FC0A0AEAB6
:10169000D30ADB060AFB016A1B0E03FB01731FFA68
:1016A0008AFA9BB20AEB1A2A0BEB1B2B0AF1010EEA
:1016B00003EB13230BF1010B4FF4FC6A5B1C0BF4DF
:1016C000784B0AEA5E1A4BEA0A0AC3F307234AEA8E
:1016D000D3032CF819308442CADC8C486D1C008876
:1016E000024400988542BFDB1EE000260098354684
:1016F0000028C8BF1FFA88F216DD002C0EDD0CEBA7
:101700004600801E14F0010F18BF20F8022F611050
:1017100004D0428020F8042F491EFAD118886D1C8D
:1017200006440098A842E8DC774800680168496AE6
:10173000884707B0BDE8F08F2DE9F04F1F462DED2B
:10174000028BABB089463798379BDDE93B46008971
:101750009B89DDE938A50021DDF8D8B0ADF864003B
:10176000ADF860109046ADF86210ADF8663018A87C
:101770000AF0BCF83A68DBF80000BAF90030B5F9B5
:1017800000E0811A03EB020CAEEB0C000D908842D6
:10179000A2BF2BB0BDEC028BBDE8F08FB5F90450B1
:1017A0000EEB050008906045C2F211823798D9F817
:1017B00000B0C4F1FF05006812900590BAF902006C
:1017C000D7F814A0D9F80490504400FB0930104415
:1017D0000BEB40008E42C8BF0E46069600EE906AA4
:1017E000D8ED091A97ED070AF8EEE00AB7EE007A8D
:1017F00097ED0A1A97ED0D3A61EEA05A00EE906A45
:10180000D8ED0B1AF8EEE00A70EE253A21EEA05A58
:1018100000EE906AD8ED0D1A0026F8EEE00A71EE9F
:10182000052A1096E64561EEA04AC7EE000A33EE9F
:10183000242A60EE811A20EE830A3ADDDDF818C012
:101840000D9E069F96FBFCFC00EE90CA07FB1C66F3
:10185000F8EEE00A1096BCF1000F45EEA03A00EE5B
:1018600090CAF8EEE00A45EE202A00EE90CAF8EEA3
:10187000E00A04EEA02A14DD73EEE50AB0EE470A92
:10188000F5EEC00AF1EE10FA03D080EE201AB0EEA9
:10189000410A72EEC50A60EE801A72EE640A20EE0A
:1018A000800A0CFB17110CFB07F60CFB072200EB60
:1018B000460002EB010C03EB0C06DDF820C0B4453A
:1018C000BCBFACEB0301891A002942F38081069A60
:1018D000069B91FBF2F203FB12111B92079111B9C7
:1018E000511E07931B91DFED0A7ADFED0A6A1B99FF
:1018F000B6EE006A0029DCBF0799002942F3678130
:101900000AE00000A0030020A40300209E030020A2
:101910000000804700008037C7EE230ADDF818C0BA
:1019200020EEA21A20EE824A61EEA70AFDEEE00A3E
:1019300010EE902A60EE270A34EE400AFDEEE00A2F
:1019400020EE270A10EE901A71EE610ABDEEC00A71
:1019500060EEA70AFDEEE00A10EE903A93FBFCF76A
:1019600010EE103A93FBFCF61B9B002BD8BFDDF862
:101970001CC0109B002B09DD07FB032206FB031193
:1019800000EB4300ACEB030C002310933A9B13F0E5
:10199000010F04BF02F5004201F500414FEA224960
:1019A000ACF1010303FB072803FB06134FEA284BA6
:1019B0004FEA214A4FEA2348B9F1000FA4BFBDF90D
:1019C00064304B4513DDBAF1000FA4BFBDF966903A
:1019D000D1450CDDBBF1000FA8BF5B4507DDB8F1B9
:1019E000000FA8BFC145C8BF4FF0000801DC4FF091
:1019F0000108DDF8E890B9F10A0F01F0BD840FDCB1
:101A0000B9F10A0F82F0D280DFE819F0170C960ABC
:101A10006E0B43086310631063106310540DE00FE6
:101A2000B9F12D0F14D009DCB9F10B0F01F0C0850D
:101A3000B9F12C0F00F0658302F0B8B8B9F12E0FA0
:101A400000F07B87B9F12F0F00F04C8502F0AEB8A3
:101A5000379B5B681B78002B00F06281012B04D060
:101A6000022B00F0618202F0A1B800230493BCF1C4
:101A7000000F42F39B8013144FEA2149B8F1000F85
:101A80000ED0002BA4BFBDF964A09A4540F33D8160
:101A9000B9F1000FA4BFBDF966A0CA4540F3358176
:101AA000DDF814A0BDF964B0534409FB0B33DDF835
:101AB000DC9093F800A09B44D9F804900AEB4A0A02
:101AC0000AF1040ACA44CDF88CA093F801A09BF84F
:101AD00000300AEB4A0A0AF1040A09EB0A0E9BF8E5
:101AE00001A003EB43031B1D0AEB4A0A4B440AF116
:101AF000040AD144DDF88CA09AF800A0CDF87CA0AF
:101B0000DDF88CA00AF1010ACDF88CA09EF800B097
:101B10000EF1010ACDF884A0CDF878B093F800B0AA
:101B200003F1010ACDF868B0CDF888A019F801BB1F
:101B3000CDF83CB0CDF89890C2F3033BC1F3033924
:101B40001BFB09FA4FEAEA03CDF890A009EB0B0A58
:101B5000CAF1000A03EB4A0A0AF1200EDDF87CA064
:101B6000CDF838E01EFB0AFEC3EB4B0ADDF878B077
:101B7000CDF834A01BFB0AEAC3EB4909DDF868B0D5
:101B8000CDF8309019FB0BF9DDF83CB01BFB03934B
:101B90005344DDF88CA0C3F3471325931AF8019B37
:101BA000CDF88CA0DDF884A0CDF87C901AF8013B2C
:101BB000CDF884A0DDF888A0DDF898909AF800A010
:101BC000CDF82CA0DDF888A00AF1010ACDF888A094
:101BD00099F80090CDF87890DDF89890DDF890A015
:101BE00009F10109CDF89890DDF838E0DDF87C9036
:101BF0004FEAEA0B1EFB09F9DDF834A013FB0A9348
:101C0000DDE90BA919FB0AFADDF8789019FB0BA99D
:101C1000DDF88CA04B44C3F3471B9AF80090DDF825
:101C200084A0CDF87C90DDF898909AF80030DDF82B
:101C300088A09AF800A0CDF878A099F800A0CDF877
:101C400068A0DDF890A04FEAEA09CDF82C90DDF805
:101C50007C901EFB09F9DDF834A013FB0A93DDF834
:101C600078A0DDF8309019FB0AFEDDF868A0DDF8F9
:101C70002C901AFB09E94B44C3F34719FF2C36D0CB
:101C800003884FF0F80A0AEA132E4FF0FC0A0AEA1A
:101C9000D30A0BFB04FB0AFB05BADDF894B0DB06A4
:101CA0001B0E09FB04F90BFB04FB0EFB059903FB60
:101CB00005B31FFA89F91FFA83FB09EB19235B1C93
:101CC0001FFA8AFA03F478490AEB1A2303F1010A8E
:101CD0004FF4FC6303EA5A1349EA03030BEB1B2995
:101CE00009F10109C9F3072943EAD9030CE04FF4CC
:101CF000784303EA09294FF4FC6303EACB0349EA7A
:101D00000309259B49EAD3030380049B801C5B1CC9
:101D10003A44314404936345FFF6ADAE01F046BF4B
:101D200000230C93BCF1000F41F3408713144FEADA
:101D30002149B8F1000F0CD0002BA4BFBDF964A05D
:101D40009A457DDDB9F1000FA4BFBDF966A0CA4573
:101D500076DDDDF814A0BDF964E0534409FB0E33D1
:101D6000DDF8DC9093F800B04FF0040AD9F8049045
:101D70000AEB8B0A59F80AB0CDF868B093F801B0B5
:101D800073444FF0040A0AEB8B0A93F800E04FF01B
:101D9000040B0BEB8E0B59F80AA059F80BE093F8E3
:101DA00001B0042303EB8B0359F80330CDE91EAED9
:101DB000C2F3072AC1F307291AFB09FB4FEA1B2EBE
:101DC000AAEB0E0BCDF83CB0A9EB0E0BCAF5807A4E
:101DD000CDF82CE0AAEB0909CDF838B009EB0E0AD2
:101DE000DDF868B0CDF810A00BF0FF1909FB0AF977
:101DF000DDF878A0DDF83CB00AF0FF1A0AFB0B9979
:101E0000DDF87CB00BF0FF1ADDF838B00AFB0BFAF6
:101E100003F0FF1B0BFB0EAACA444FF0FF1909EA9F
:101E20001A29DDF868B0DDF810A00BF47F4B0BFB2E
:101E30000AFEDDF878A0DDF83CB00AF47F4A00E045
:101E400067E00AFB0BEADDF87CB003F47F430BF498
:101E50007F4EDDF838B0FF2C0EFB0BFBDDF82CE0DD
:101E600003FB0EB39A444FF47F4303EA1A2349EA73
:101E700003033FD0C3F3074B03F0FF0AB0F8009011
:101E8000C3F3072EF823CDF82CA003EA192A0BFB85
:101E900004FB0AFB05BAFC2303EAD9031FFA8AFBF9
:101EA0000EFB04FA03FB05A3DDF82CA04FEAC96979
:101EB0004FEA19690AFB04FA09FB05A90BEB1B2A77
:101EC0009BB203EB13231FFA89F903F1010B0AF10B
:101ED000010A4FF4FC6309EB19290AF4784A03EA72
:101EE0005B1309F101094AEA0303C9F3072943EA2D
:101EF000D9030DE04FF4784909EA132A4FF4FC693D
:101F000009EA53194AEA0909C3F3C40349EA030376
:101F100003800C9B801C5B1C3A4431440C9363454A
:101F2000FFF604AF01F042BE00230493BCF1000FA2
:101F300041F33C860B144FEA2249B8F1000F0CD054
:101F4000B9F1000FA4BFBDF964A0CA457DDD002B27
:101F5000A4BFBDF966A09A4577DDDDF814A0BDF9F0
:101F600064E0D14403FB0E9B379BCDF838B04FF0B3
:101F7000040AD3F804909BF800300AEB430339F8C5
:101F800003300F939BF80130F3440AEB430339F815
:101F900003301A939BF800300AEB430339F803E04F
:101FA0009BF80130C2F3033B0AEB430339F803907B
:101FB0000F9BCDF838E023F4FC6E03F4FC634EEA8B
:101FC000034E1A9BCDF83CE023F4FC6E03F4FC6353
:101FD0004EEA034E0E9BCDF868E023F4FC6E03F44A
:101FE000FC634EEA034E29F4FC6309F4FC69C1F377
:101FF000033A43EA09491BFB0AF3CDF838900AEB90
:102000000B09DB10CDF878E0C9F1000903EB4909B1
:10201000DDF83CE009F1200909FB0EF9DDF868E084
:10202000C3EB4B0B0EFB0B9BDDF878E0C3EB4A09CF
:1020300009FB0EFADDF8389009FB03A35B445B094A
:102040004FF4FC6A0AEA134900E04FE023F4FC6312
:1020500049EA03039BB2FF2C47D04FF0F80BB0F8CE
:1020600000900BEA132ECDF868E04FF0FC0E0EEA5C
:10207000D30EDB061B0E0B93FC230BEA192B03EA92
:10208000D903CDF83CE04FEAC9694FEA196ECDF8A3
:1020900030E0DDF868E00EFB04F90BFB05991FFA50
:1020A00089FBDDF83CE00BEB1B2B0EFB04F903FB7B
:1020B00005931FFA83F90B9BDDF830E063430EFBB9
:1020C00005339BB209EB19290BF1010B09F1010949
:1020D00003EB13230BF4784B0AEA59195B1C4BEA08
:1020E0000909C3F3072349EAD3030380049B801C37
:1020F0005B1C3A44314404936345FFF61BAF01F087
:1021000055BD379B5B681B78F3B3012B03D0022BC3
:1021100075D001F04BBD00230493BCF1000F41F3D7
:10212000458500BF0B144FEA2249B8F1000F0CD0CF
:10213000B9F1000FA4BFBDF964A0CA4572DD002B40
:10214000A4BFBDF966A09A456CDDDDF814A0D144AA
:10215000BDF964A003FB0A99379BD3F804A099F852
:10216000003003EB43031B1D5344FF2C48D0B0F851
:1021700000904FF0F80A4FF0FC0B0AEA192A0BEA1C
:10218000D90B4FEAC96900E057E0CDF834B04FEA07
:10219000196BCDF830B093F8029093F801B093F832
:1021A00000E009FB04F30AFB05331FFA83F90BFB7C
:1021B00004F3DDF834B00EFB04FA0BFB0533DDF855
:1021C00030B09BB20BFB05AA03EB132309EB1929D3
:1021D00003F1010B09F101094FF4FC6309F478499B
:1021E00003EA5B131FFA8AFA49EA03030AEB1A2986
:1021F00009F10109C9F3072943EAD90311E0A3E072
:1022000093F802A04FF4784909EA0A2A93F801B03A
:102210004FF4FC6909EACB091B784AEA090949EA43
:10222000D3030380049B801C5B1C3A443144049319
:102230006345FFF677AF01F0B9BC4FF0000EBCF17B
:10224000000F41F3B38413144FEA2149B8F1000F92
:102250000CD0002BA4BFBDF964A09A456BDDB9F189
:10226000000FA4BFBDF966A0CA4564DDDDF814A067
:10227000FF2C5344BDF964A009FB0A39379B99F838
:1022800000A04FF004095B6809EB8A0953F8093094
:1022900042D0B0F800904FF0FC0B4FF0F80A0BEA78
:1022A000D90B0AEA192A4FEAC969CDF834B04FEAC6
:1022B000196BCDF830B0C3F3074B0BFB04FB0AFBE3
:1022C00005BAC3F30729DDF834B009FB04F90BFBA9
:1022D0000599DBB2DDF830B063430BFB05331FFA21
:1022E00089F91FFA8AFA09EB19299BB20AEB1A2A13
:1022F00009F1010B0AF1010A4FF4FC6903EB132306
:102300000AF4784A09EA5B195B1C4AEA0909C3F333
:10231000072349EAD3030DE04FF4784909EA132A69
:102320004FF4FC6909EA53194AEA0909C3F3C403E3
:1023300049EA03030380801C0EF1010E3A44314444
:10234000E64580DB01F032BCFF2C7CD200230493F5
:10235000BCF1000F41F32A840B144FEA2249B8F173
:10236000000F0CD0B9F1000FA4BFBDF964A0CA459D
:102370005EDD002BA4BFBDF966A09A4558DDDDF8EF
:1023800014A04FF0FC0ED144BDF964A003FB0A93E6
:10239000DDF8DC901B784FF0040AD9F804900AEBC2
:1023A000430399444FF0F80AB9F8009003880AEA09
:1023B000192B0EEAD90E4FEAC9694FEA1969CDF80F
:1023C0002C900AEA13294FF0FC0A0AEAD30ACDF846
:1023D00030A00BFB04FA09FB05A91FFA89FBDDF805
:1023E00030A00EFB04F90AFB05991FFA89FADDF803
:1023F0002C90DB061B0E09FB04F903FB05930BEB8A
:102400001B2909F1010909F4784B0AEB1A299BB23F
:1024100009F1010A4FF4FC6903EB132309EA5A1985
:102420005B1C4BEA0909C3F3072349EAD303038082
:10243000049B801C5B1C3A443144049363458BDB52
:1024400001F0B4BBFFE7BCF1000F41F3AF834FF0E5
:102450000009CDF838C003464FF0040BCDF81090BA
:10246000DDF81090B8F1000F07FB09294FEA294A5F
:10247000DDF8109006FB09194FEA29490DD0BAF191
:10248000000FA4BFBDF964E0D64519DDB9F1000F16
:10249000A4BFBDF966E0CE4512DDDDF814E0F244DC
:1024A000BDF964E009FB0EA9DDF8DCA099F8009005
:1024B000DAF804A00BEB49093AF80990A3F8009068
:1024C000DDF810909B1C09F10109CDF81090DDF8A2
:1024D0003890B9F10109CDF83890C1D100EB4C002A
:1024E00001F064BB379B5B681B78002B41F05E8377
:1024F0000493BCF1000F41F3598300BF0B144FEA62
:102500002249B8F1000F0ED0B9F1000FA4BFBDF9F8
:1025100064A0CA4540F30682002BA4BFBDF966A0A3
:102520009A4540F3FF81DDF814A0D144BDF964A0C1
:10253000CDF838A003FB0A93DDF8DC909E4613F833
:1025400001ABD9F804B04FF0040909EB8A0A5BF833
:102550000AA0CDF884A01B78DDF838A009EB83032E
:102560005BF803301F930AEB0E0393F800A009EB0E
:102570008A0A5BF80AA0CDF888A05B7809EB830390
:102580005BF803A0CDF894A0DDF884A01F9B4FEA70
:102590001A69DDF888A01B0E4FEA1A6EDDF894A0C8
:1025A00001EE909A4FEA1A6ACDF830A01FFA82FA2B
:1025B00000EE10AA03EE103AF8EE611AB8EE400AE7
:1025C000B8EE433A1FFA81FA00EE90AA20EE260AEE
:1025D00033EE613ADDF830A0F8EE600A43EE001AFF
:1025E00003EE10EA60EEA60AB8EE438A03EE10AAE4
:1025F000B8EE433A33EE483A03EE008A38EE613AD9
:1026000043EE201A71EE861AFCEEE11A11EE90AA42
:102610001AF0FF0ACDF878A07DD0DDF884A00AF08A
:10262000FF1B0AF47F4A0BFB09FB0AFB09FA4FF078
:10263000FF1909EA1B29D94409F1011B4FF0FF19C1
:1026400009EA1B2B0AEB1A2909F5807A4FF47F4916
:1026500009EA1A2A4BEA0A0ACDF884A0DDF87CA020
:10266000DDF87CB00AF0FF1A0BF47F4B0AFB03FA8B
:102670000BFB03F34FF0FF1B0BEA1A2BDA440AF1B2
:10268000011B03EB13234FF0FF1A03F580730AEAD3
:102690001B2A09EA13234AEA030B229BCDF87CB0DC
:1026A00003F0FF1A03F47F4303FB0EFB0AFB0EFA51
:1026B0004FF0FF1303EA1A23534403F1011A4FF0BA
:1026C000FF1303EA1A230BEB1B2A0AF5807ADDF8C5
:1026D00094B0DDF830E009EA1A2A43EA0A030BF461
:1026E0007F4BDDF894A00BFB0EFB0AF0FF1A0AFBF0
:1026F0000EFA4FF0FF1E0EEA1A2EF2440AF1011EE6
:102700000BEB1B2B4FF0FF1A0BF5807B0AEA1E2AFE
:1027100009EA1B2900E005E14AEA0909DDF884A07D
:102720004FEA1A4ECDF868E0DDF87CB04FEA134A64
:102730004FEA1B4ECDF830E0DDF868E04FEA194B68
:1027400001EE90EADDF830E008EE10BA03EE10EA90
:10275000F8EE611AB8EE488AB8EE433ADDF87CB07C
:1027600033EE613A43EE001A03EE10AAB8EE433A94
:1027700038EE438A08EE003A33EE613A43EE201A0F
:1027800071EE861AFCEEE11A11EE90AACAF3C40AA1
:102790004FEACA0ACDF83CA0DDF884A0CAF3072EA0
:1027A000CDF898E0CBF3072ECDF82CE0DDF898E0DB
:1027B000C3F3072B01EE90EADDF82CE0C9F3072AFA
:1027C00003EE10EAF8EE611A08EE10AAB8EE433AEA
:1027D000DBB2B8EE488A09F0FF0933EE613A43EE06
:1027E000001A03EE10BAB8EE433A38EE438A08EE08
:1027F000003A33EE613A43EE201A71EE861AFCEE8F
:10280000E11A11EE90AACAF3850A4FEA8A0ACDF8B6
:1028100068A0DDF884A0DDF87CB00AF0FF0A0BF0B8
:10282000FF0B01EE90AA03EE10BAF8EE611AB8EEB3
:10283000433A33EE613A43EE001A03EE103AB8EE33
:10284000433A08EE109AB8EE488A38EE438A08EE0A
:10285000003A33EE610A40EE201A31EE860ABCEEF1
:10286000C00A10EE103AC3F3C4034FEAC30E1E9B16
:10287000FF2B08BFFF2C4CD003884FF0F80A0AEA60
:10288000132B4FF0FC0ADDF878900AEAD30ADB0636
:10289000CDF838B004FB09F94FEA136B09EB19299D
:1028A00009F10109CDF830B00F9BC9F30729DDF814
:1028B00038B0C9F1FF0963431BFB09331FFA83FBDF
:1028C0001A9BCDF838B063431AFB0933DDF830B0FA
:1028D0009BB20EFB04FA1BFB09A9DDF838B003EB31
:1028E00013230BEB1B2A03F1010B0AF1010A4FF42E
:1028F000FC630AF4784A03EA5B131FFA89F94AEA8F
:10290000030A09EB19235B1CC3F307234AEAD30329
:1029100007E00F9B4FEA03291A9B49EAC30949EADA
:10292000DE030380049B801C5B1C3A443144049307
:102930006345FFF6E3AD01F039B9379B5B681B785F
:10294000002B41F033810493BCF1000F41F32E8141
:1029500013144FEA2149B8F1000F0CD0002BA4BF8B
:10296000BDF964A09A4579DDB9F1000FA4BFBDF9A6
:1029700066A0CA4572DDDDF814A05344BDF964A019
:1029800009FB0A33DDF8DC9093F800A00423D9F8A2
:10299000049003EB8A0359F803E05FEA1E696DD0E7
:1029A000B9F1FF0F08BFFF2C59D003884FF0F80A88
:1029B0000AEA132ACDF87CA04FF0FC0A0AEAD30AEF
:1029C000DB061B0E1A9304FB09F303EB13235B1CBA
:1029D000C3F30723C3F1FF09CDF878A0CDF83090F9
:1029E000CEF30749CEF3072B0EF0FF0A19FB03FEC7
:1029F000CDF834A0DDF87CA0DDF830901AFB09E9B1
:102A00001FFA89FE1BFB03FBDDF878A0DDF8309090
:102A10001AFB09B9DDF834A01FFA89FB1AFB03FA87
:102A2000DDF830901A9B13FB09A30EEB1E2909F168
:102A3000010909F4784A0BEB1B299BB209F1010B40
:102A40004FF4FC6903EB132309EA5B195B1C4AEAA8
:102A50000909C3F3072349EAD3030EE00EE04FF45C
:102A6000784909EA1E2A4FF4FC6909EA5E134AEA2A
:102A70000309CEF3C40349EA03030380049B801CCB
:102A80005B1C3A44314404936345FFF661AF01F0A7
:102A90008DB800230493BCF1000F41F3878000BF81
:102AA0004FEA224A4FEA214BB8F1000F0FD0BAF19A
:102AB000000FA4BFBDF96430534540F33282BBF12F
:102AC000000FA4BFBDF966305B4540F32A82379BF7
:102AD000D3F80490BDF964300BFB0399D14499F805
:102AE00000E0CDF888E099F801E0CDF884E019F82D
:102AF00003E009F10109CDF87CE013F80990DDF855
:102B000088E0CDF89CE0CDF89090DDF884E0CDF839
:102B100030E0DDF87CE0CDF898E0DDF89CE01FFACD
:102B200082F901EE90EADDF830E000EE109A03EE53
:102B300010EAF8EE611AB8EE400AB8EE433A1FFA0E
:102B400081F900EE909A20EE260A33EE613ADDF824
:102B500098E0DDF89090F8EE600A43EE001A03EE7C
:102B600010EA08EE109A60EEA60AB8EE433AB8EE04
:102B7000488A38EE438A08EE003A33EE613A43EE73
:102B8000201A71EE861AFCEEE11A11EE909A19F0F5
:102B9000FF09CDF8689000F0C481DDF8489009EB9A
:102BA0004A0903FB0BFA09EB4A0E3EF813B0BEF8D4
:102BB00000A0BEF802900EEB4303CDF838B04FF002
:102BC000F80B0BEA1A2EDDF888B05B880EFB0BFEC3
:102BD0004FF0F80BCDF82CE00BEA192EDDF884B09D
:102BE0000EFB0BFECDF83CE0DDF838B04FF0F80EF0
:102BF0000EEA1B2EDDF87CB00EFB0BFE4FF0F80B3F
:102C0000CDF834E00BEA132EDDF890B00EFB0BFB91
:102C1000DDF82CE00BEB1B2B0EEB1E2E0EF1010E44
:102C2000CEF3072ECDF82CE0DDF83CE00BF1010BE4
:102C30000EEB1E2E0EF1010ECEF3072ECDF8A0E006
:102C4000DDF834E0CBF3072B0EEB1E2E0EF1010E58
:102C5000CEF3072ECDF83CE0DDF82CE008EE10BAFC
:102C600001EE90EADDF8A0E0B8EE488A03EE10EA43
:102C7000F8EE611ADDF83CE0B8EE433A33EE613A23
:102C800043EE001A03EE10EAB8EE433A38EE438AF8
:102C900008EE003A33EE613A43EE201A71EE861ADE
:102CA000FCEEE11A11EE90BACBF3C40B4FEACB0B5A
:102CB000CDF83CB04FF0FC0B0BEADA0EDDF888B033
:102CC0000EFB0BFE4FF0FC0BCDF830E00BEAD90EFB
:102CD000DDF884B04FEACA6A0EFB0BFECDF8A0E027
:102CE000DDF838B04FF0FC0E0EEADB0EDDF87CB0FC
:102CF0004FEAC9690EFB0BFE4FF0FC0BCDF834E038
:102D00000BEAD30EDDF890B0DB060EFB0BFBDDF813
:102D100030E00BEB1B2B0EEB1E2E0EF1010ECEF353
:102D2000072ECDF830E0DDF8A0E00BF1010B0EEB43
:102D30001E2E0EF1010ECEF3072ECDF8A4E0DDF825
:102D400034E0CBF3072B0EEB1E2E0EF1010ECEF36B
:102D5000072ECDF8A0E0DDF830E008EE10BA01EE65
:102D600090EADDF8A4E0B8EE488A03EE10EAF8EE47
:102D7000611ADDF8A0E0B8EE433A33EE613A43EE73
:102D8000001A03EE10EAB8EE433A38EE438A08EE32
:102D9000003A33EE613A43EE201A71EE861AFCEEE9
:102DA000E11A11EE90BACBF3850B4FEA8B0BCDF8FD
:102DB000A0B04FEA1A6BDDF888A00BFB0AFACDF839
:102DC0002CA04FEA196ADDF88490DDF838B00AFBD0
:102DD00009F9CDF830904FEACB694FEA196ADDF86E
:102DE0007C900AFB09FE4FEA1369249BDDF82CA0B6
:102DF00009FB03F30AEB1A2909F10109C9F3072BAF
:102E0000DDF8309001EE90BA09EB192909F10109BA
:102E1000C9F3072A03EE10AAF8EE611A0EEB1E2979
:102E2000B8EE433A03EB132309F101095B1C33EEBF
:102E3000613AC9F30729C3F3072308EE103A43EEBA
:102E4000001A03EE109AB8EE488AB8EE433A38EE0C
:102E5000438A08EE003A33EE610A40EE201A31EE62
:102E6000860ABCEEC00A10EE103AC3F3C4034FEA60
:102E7000C30E1A9BFF2B08BFFF2C49D003884FF0CD
:102E8000FC0A0AEAD30B4FF0F80909EA1329DB061A
:102E90004FEA136A1A9BCDF834B0634303EB132354
:102EA0005B1CDDF83CB0C3F30723C3F1FF030BFB4E
:102EB00004FB19FB03B91FFA89FBCDF838B0DDF824
:102EC000A090DDF834B009FB04F91BFB03991FFA4D
:102ED00089F90EFB04FB1AFB03B3DDF838B009EBEC
:102EE00019290BEB1B2A9BB209F1010B0AF1010A0C
:102EF0004FF4FC6903EB13230AF4784A09EA5B19DF
:102F00005B1C4AEA0909C3F3072349EAD30307E034
:102F10000F9B4FEA0329289B49EAC30949EADE03CC
:102F20000380049B801C5B1C3A443144049363453A
:102F3000FFF6B6AD00F03ABE00230C93BCF1000FD3
:102F400040F3348613144FEA2149B8F1000F0CD036
:102F5000002BA4BFBDF964A09A457DDDB9F1000F37
:102F6000A4BFBDF966A0CA4576DDDDF848A0BDF96D
:102F700064E00AEB43030EFB09F903EB4909B9F8D6
:102F80000030B9F802B039F81EA009EB4E09C1F3C0
:102F9000033EB9F80290CDF838A023F4FC6A03F49C
:102FA000FC634AEA034ACDF83CA02BF4FC6A0BF41C
:102FB000FC634AEA034BDDF838A0CDF82C902AF4E4
:102FC000FC630AF4FC6A43EA0A4ACDF868B0CDF81B
:102FD00078A0DDF82CA0C2F303392AF4FC630AF4CC
:102FE000FC6A43EA0A4A19FB0EF3CDF838A00EEB4F
:102FF000090ADB10CAF1000A03EB4A0A0AF1200BA6
:10300000DDF83CA0C3EB49090BFB0AFADDF868B018
:103010000BFB09A9DDF878A0C3EB4E0B0BFB0AFBF9
:10302000DDF838A00AFB03B34B445B094FF4FC699D
:1030300009EA134923F4FC6349EA03039BB2FF2C1A
:1030400046D0B0F800904FF0F80E4FF0FC0B0EEAAF
:10305000192A0BEAD90B00E03BE04FEAC9694FEAB5
:103060001969CDE90D9B4FF0FC0B0EEA13290BEA11
:10307000D30BDB064FEA136E09FB04F30AFB05339F
:103080001FFA83FA0BFB04F3DDF838B0DDF8349057
:103090000BFB05331FFA83FB0EFB04F309FB05331F
:1030A0000AEB1A2909F1010909F4784E0BEB1B29E7
:1030B0009BB209F1010A4FF4FC6903EB132309EAFF
:1030C0005A195B1C4EEA0909C3F3072349EAD303E3
:1030D00003800C9B801C5B1C3A4431440C93634579
:1030E000FFF630AF00F062BD4FF0000EBCF1000FF4
:1030F00040F35C8513144FEA2149B8F1000F0CD05E
:10310000002BA4BFBDF964A09A457CDDB9F1000F86
:10311000A4BFBDF966A0CA4575DDDDF8DCA0BDF928
:1031200064B0DAF804A009FB0BAA13F80AA0CDF8E2
:1031300038A0BAF1000F76D0DDF848A00BFB09F9F2
:103140000AEB430333F81930DDF8389004FB09F932
:1031500009EB192909F10109C9F30729CDF83490C0
:10316000B9F1FF0F5ED2B0F800904FF0FC0B0BEA04
:10317000D90B4FF0F80ACDF87CB00AEA192A4FEAC9
:10318000C9694FEA1969CDF868904FF0FC0B4FF010
:10319000F8090BEAD30B09EA1329DB06CDF838B09E
:1031A0004FEA136BCDF82CB00D9BDDF834B0C3F1B2
:1031B000FF0309FB0BF90AFB03991FFA89F9CDF804
:1031C0003C90DDE90D9B0BFB09F9DDF87CB00BFBB6
:1031D00003991FFA89FADDF82CB0DDF834900BFB67
:1031E00009FBDDF8689009FB03B3DDF83C901FFA9A
:1031F00083FB09EB19235B1C03F478490AEB1A23C0
:1032000003F1010A00E00EE04FF4FC6303EA5A13F5
:1032100049EA03030BEB1B2909F10109C9F307294B
:1032200043EAD9030380801C0EF1010E3A44314475
:10323000E645FFF65FAF00F0B9BCFF2C6BD2002370
:103240000C93BCF1000F40F3B18413144FEA2149F1
:10325000B8F1000F0CD0002BA4BFBDF964A09A45B3
:103260004FDDB9F1000FA4BFBDF966A0CA4548DD26
:10327000DDF848A00AEB430ABDF9643003FB09F30B
:10328000B0F800903AF813304FF0F80A0AEA132B1E
:103290004FF0FC0A0AEAD30EDB061B0E1A93F82342
:1032A00003EA19230BFB04FB03FB05B30AEAD90A63
:1032B0001FFA83FB0EFB04F30AFB05331FFA83FAA4
:1032C0001A9B4FEAC9694FEA1969634309FB053341
:1032D0000BEB1B2909F1010909F4784B0AEB1A29B8
:1032E0009BB209F1010A4FF4FC6903EB132309EACD
:1032F0005A195B1C4BEA0909C3F3072349EAD303B4
:1033000003800C9B801C5B1C3A4431440C93634546
:103310009BDB00F04BBCBCF1000FC8BF002340F3A7
:10332000458400BF07FB03294FEA294A06FB03191E
:103330004FEA2949B8F1000F0DD0BAF1000FA4BF30
:10334000BDF964B0D34510DDB9F1000FA4BFBDF9DC
:1033500066B0CB4509DDBDF964B009FB0BAADDF809
:10336000489039F81A90A0F80090801C5B1CBCF1C2
:10337000010CD7D100F01ABC00230493BCF1000F5C
:1033800040F314840B144FEA2249B8F1000F0CD01B
:10339000B9F1000FA4BFBDF964A0CA457FDD002BC1
:1033A000A4BFBDF966A09A4579DDDDF848A00AEB17
:1033B000890ABDF9649009FB03F35AF823E05FEA38
:1033C0001E696CD0B9F1FF0F08BFFF2C58D00388DD
:1033D0004FF0F80A0AEA132ACDF87CA04FF0FC0A55
:1033E0000AEAD30ADB061B0E0B9304FB09F303EB7B
:1033F00013235B1CC3F30723C3F1FF09CDF878A0A7
:10340000CDF83090CEF3074ACEF3072B0EF0FF092C
:103410001AFB03FECDF83C90DDF87CA0DDF830907F
:103420001AFB09E91FFA89FE1BFB03FBDDF878A0F4
:10343000DDF830901AFB09B91FFA89FADDF83C90E3
:1034400019FB03FBDDE90B3913FB09B30EEB1E2956
:1034500009F1010909F4784B0AEB1A299BB209F129
:10346000010A4FF4FC6903EB132309EA5A195B1CA8
:103470004BEA0909C3F3072349EAD3030EE00EE040
:103480004FF4784909EA1E2A4FF4FC6909EA5E13F1
:103490004AEA0309CEF3C40349EA03030380049B09
:1034A000801C5B1C3A44314404936345FFF66AAFC9
:1034B00000F07CBB00230493BCF1000F40F3768343
:1034C0000B144FEA2249B8F1000F0CD0B9F1000FEC
:1034D000A4BFBDF964A0CA4560DD002BA4BFBDF93F
:1034E00066A09A455ADDDDF848A0FF2C0AEB890A50
:1034F000BDF9649009FB03F35AF823E03FD0038839
:103500004FF0F80909EA132A4FF0FC0909EAD30B36
:10351000DB064FEA1369CEF307436343CDE90C9B07
:103520000AFB0533CEF3072B0BFB04FADDF834B0AE
:103530000EF0FF090BFB05AA09FB04FB9BB2DDF8AB
:10354000309003EB132309FB05B95B1C1FFA8AFAC1
:1035500003F4784E1FFA89FB0AEB1A2303F10109E1
:103560004FF4FC6303EA59130BEB1B2909F1010922
:103570004EEA0303C9F3072943EAD9030DE04FF4E8
:1035800078434FF4FC6A03EA1E230AEA5E1943EA11
:103590000909CEF3C40349EA03030380049B801C9A
:1035A0005B1C3A4431440493634589DB00F0FEBA66
:1035B00000230493BCF1000F40F3F8820B144FEA90
:1035C0002249B8F1000F0CD0B9F1000FA4BFBDF92A
:1035D00064A0CA457DDD002BA4BFBDF966A09A4555
:1035E00077DDDDF848A00AEB890ABDF9649009FB94
:1035F00003F30AEB8303D3F800A0CDF894A0D3F82B
:1036000004A0CDF890A053F829B003EB8903DDF8AE
:1036100094A05B684FEA1A69DDF890A001EE909AD9
:103620004FEA1A6ACDF834A01FFA82FA00EE10AA07
:103630001FFA81FA00EE90AADDF834A0B8EE400A35
:1036400003EE10AAF8EE611A4FEA1B6EB8EE433A89
:1036500020EE260A23931B0E33EE613AF8EE600A41
:10366000CDF82CE043EE001A03EE10EA60EEA60A55
:10367000B8EE438A03EE103AB8EE433A33EE483AD6
:1036800003EE008A38EE613A43EE201A71EE861A94
:10369000FCEEE11A11EE90AA1AF0FF0ACDF878A01C
:1036A00017D0DDF894A0DDF894E00AF0FF1A0EF4CC
:1036B0007F4E0AFB09FA0EFB09FE4FF0FF1909EADB
:1036C0001A29D14409F1011A4FF0FF1909EA1A2AFF
:1036D00000E071E10EEB1E2909F5807E4FF47F4971
:1036E00009EA1E294AEA0909CDF89490DDF890A06C
:1036F000DDF834E0DDF890900AF47F4A09F0FF1914
:103700000AFB0EFA09FB0EF94FF0FF1E0EEA192E06
:10371000F14409F1011E4FF0FF1909EA1E290AEBD5
:103720001A2A0AF5807E4FF47F4A0AEA1E2A49EADD
:103730000A09CDF890900BF0FF190BF47F4ADDF8E1
:103740002CB009FB0BF90AFB0BFA4FF0FF1B0BEA3D
:10375000192BD94409F1011B4FF0FF1909EA1B2B62
:103760000AEB1A2909F5807A4FF47F4909EA1A29E8
:103770004BEA090ADDF88C90DDF88CB009F0FF19EE
:103780000BF47F4B09FB03F90BFB03F34FF0FF1B1B
:103790000BEA192BD94409F1011B4FF0FF1909EA73
:1037A0001B2903EB132303F5807B4FF47F4303EACC
:1037B0001B2349EA0303DDF894904FEA1A4E4FEABF
:1037C000194BDDF8909001EE90BA4FEA194903EEDB
:1037D000109AF8EE611ACDF83CE0B8EE433A4FEAA1
:1037E000134ECDF838E0DDF83CE033EE613A43EEBD
:1037F000001A03EE10EAB8EE433ADDF838E008EEBE
:1038000010EACAF3072E0AF0FF0AB8EE488A38EE2B
:10381000438A08EE003A33EE613A43EE201A71EE25
:10382000861AFCEEE11A11EE909AC9F3C4094FEA28
:10383000C909CDF83C90DDF89490C9F3072BDDF869
:10384000909001EE90BAC9F3072903EE109AF8EEB2
:10385000611ACDF868E0B8EE433AC3F3072ECDF80D
:1038600038E0DDF868E033EE613ADBB243EE001A8F
:1038700003EE10EADDF838E008EE10EAB8EE433A5D
:10388000B8EE488A38EE438A08EE003A08EE103A5D
:10389000B8EE488A33EE613A43EE201A71EE861A8A
:1038A000FCEEE11A11EE909AC9F385094FEA8909F5
:1038B000CDF86890DDF8949009F0FF0BDDF890905A
:1038C00001EE90BA09F0FF0903EE109AF8EE611AC2
:1038D000B8EE433A33EE613A43EE001A03EE10AA13
:1038E000B8EE433A38EE438A08EE003A33EE610A06
:1038F00040EE201A31EE860ABCEEC00A10EE103AF5
:10390000C3F3C4034FEAC3091E9BFF2B08BFFF2C60
:1039100049D003884FF0F80A0AEA132B4FF0FC0A4B
:103920000AEAD30ADB064FEA136E1E9BCDF82CE0A1
:10393000634303EB13235B1CDDF83CE0C3F3072375
:10394000C3F1FF030EFB04FE1BFB03EB1FFA8BFB13
:10395000CDF838B0DDF868B00BFB04FB1AFB03BAF6
:10396000DDF82CE01FFA8AFA09FB04F91EFB039329
:10397000DDF838B01FFA83FE0BEB1B235B1C03F44E
:1039800078490AEB1A2303F1010A4FF4FC6303EAB6
:103990005A1349EA03090EEB1E235B1CC3F30723EA
:1039A00049EAD30307E00F9B4FEA032A1A9B4AEA2E
:1039B000C30343EAD9030380049B801C5B1C3A4485
:1039C000314404936345FFF6F9ADEFE0002304931F
:1039D000BCF1000F7DDD00BF0B144FEA2249B8F1A6
:1039E000000F0CD0B9F1000FA4BFBDF964A0CA4507
:1039F00070DD002BA4BFBDF966A09A456ADDDDF835
:103A000048A0BDF964B00AEB89090BFB03F309EB8D
:103A10008303D3F800A0CDF83CA053F82BE0D3F8F3
:103A2000049003EB8B03C2F3072B5B68CDE91EE91F
:103A3000CDF884A0C1F307291BFB09FA4FEA1A2E1F
:103A4000ABEB0E0ACDF83CA0A9EB0E0ACDF838A0DE
:103A5000CBF5807AAAEB0909F144CDE90B9EDDF89C
:103A600084A00AF0FF1A0AFB09FBDDF87C90DDF860
:103A70003CA009F0FF1909FB0AB9DDF878A00AF0AB
:103A8000FF1BDDF838A00BFB0AFA03F0FF1B0BFB52
:103A90000EAACA444FF0FF1909EA1A2BDDF884A0D8
:103AA000DDF82C900AF47F4A0AFB09FEDDF87C90D1
:103AB000DDF83CA009F47F4909FB0AE9DDF878A0AC
:103AC00003F47F430AF47F4EDDF838A00EFB0AFAB8
:103AD00001E06BE061E0DDF830E0FF2C03FB0EA3BA
:103AE0004B444FF47F4909EA13234BEA030345D0C3
:103AF000B0F800904FF0FC0B4FF0F80A0BEAD90B2E
:103B00000AEA192A4FEAC969CDF834B04FEA196BAD
:103B1000CDF830B0C3F3074BC3F30729DBB20F93E3
:103B20000BFB04F30AFB05331FFA83FEDDF834B008
:103B300009FB04F30BFB05331FFA83F90F9BDDF838
:103B400030B063430BFB05331FFA83FA0EEB1E23E1
:103B50005B1C03F4784B09EB192303F101094FF4C3
:103B6000FC6303EA59130AEB1A2909F101094BEA2C
:103B70000303C9F3072943EAD9030DE04FF4784959
:103B800009EA132A4FF4FC6909EA53194AEA0909B8
:103B9000C3F3C40349EA03030380049B801C5B1C3A
:103BA0003A44314404936345FFF616AF73EEA53AE9
:103BB00072EE852A32EE242A1B99F0EE411AB0EEFD
:103BC000440A0029C4BF491E1B913DF793AE2BB098
:103BD000BDEC028BBDE8F08F10B55FEA000C4FF62C
:103BE000FF70FE4A128800EA42004FEA5000C0F11E
:103BF00000030BD001290FD0022903D0032911D0D3
:103C0000B2B113E0002A18BF10BD11E0012905D0A0
:103C1000022907D0032908D0012010BD002A18BFAF
:103C200010BD05E04FF0FF3010BD0AB1184610BDC1
:103C3000AFF30080E94A10B55FEA000C12884FF636
:103C4000FF7000EA42004FEA5000C0F100030CD0C0
:103C5000012904D0022910D0032904D015E0002A3C
:103C600018BF10BD0FE062B90DE0012905D002298F
:103C700006D0032909D032B110BD4FF0FF3010BD7E
:103C80000AB1184610BDAFF30080012010BD2DE928
:103C9000FF4F8FB0DDE92021DDF89C90B2F90000E4
:103CA00093881C9E03441BB204935388D288DDE999
:103CB00024A41A4412B20392DDE91E754A7BDDF892
:103CC0008CB012F0080318BF4FF4807391F806C04F
:103CD00012F0100243EA0C0818BF4FF48072CB793F
:103CE0001A430192B8F1000F12BF002A13B0BDE8C9
:103CF000F08F002F91F9091004BF31440EB207D0A4
:103D0000791A8FB239B2002902DAF11B0EB20027FC
:103D1000B04203DD811B39448FB20646B0480078BB
:103D2000012818BF00204B460290314611A81D9A69
:103D300005F06AFBADF818004B46314611A81D9AF4
:103D400005F07AFBADF81C0007A906A807F046FDB0
:103D50000298CDF800A059EA000005D0B9F1010F92
:103D60004FD1029800284CD0DFF878A2DAF8000092
:103D70000168896B884710F0800F06D0042C04D1AD
:103D8000BBF1000F18BF012100D1002110F4807F8A
:103D900003D0082C08BF012000D00020084330D0F9
:103DA00000290CBF4FF48070802057EA050128D10C
:103DB000049906EB08028A4223DC019A1D990A4401
:103DC000039991421DDB082C1CBF08F1010121F071
:103DD00001082699CDE904100098CDF80080CDE9BE
:103DE0000280BDF81C0083B2BDF8180082B2DAF878
:103DF00000000168D1F84CC02299E04713B0BDE83B
:103E0000F08F109820B9774800680168096A8847E0
:103E10007249BDF91820BDF91C30098803FB012245
:103E200000EB420C0120A040401E00F0FF0A012CD4
:103E300008BFFF2007D0022C08BF552003D0042C58
:103E40000CBF112001200022C6460B90042C04D187
:103E5000BBF1000F18BF012000D1002010EA080FAD
:103E600018BF0EF1010E229857EA05030BD00EFB86
:103E70000572624393B203F0070200EBD300019B8B
:103E80005B1B9BB20193029D4FF6FF73002D4D46C5
:103E90000AD0012D1FD0022D04D0B9F1030F12D08A
:103EA00049B314E059B940E0012D07D0022D0AD0E2
:103EB000B9F1030F18BF012508D00CE0D9B103EA0E
:103EC00041056D0807E04FF0FF3504E099B103EAC2
:103ED00041056D086D42DDF808B0BBF1000F0DD053
:103EE000B9F1010F06D0B9F1020F15D0B9F1030FE6
:103EF00002D01CE061B918E091B916E0B9F1010FE8
:103F00000AD0B9F1020F0AD0B9F1030F0FD061B195
:103F100003EA41014B080BE04FF0FF3308E021B109
:103F200003EA410149084B4202E0AFF3008001235C
:103F3000DDF874900399A1EB090901998945C8BF7F
:103F40008946F61B0499891B4145D8BF8846A8EBD2
:103F500007010291AEEB0101614303910178CDF8B5
:103F60000490D140B9F1000F7EDD009E009FC6F3A2
:103F7000C426F6000E96009EC6F34516B6000D96B2
:103F8000F82606EAC7060C96029E05FB16330A932E
:103F9000029B002B75DD00BF11EA0A0661D00B9F62
:103FA0007743009EFF2FB6B204DBDDF89880B8F1AE
:103FB000FF0F54D2269E4FF0F80E7E43B6B20E9FEE
:103FC00006EB16260997761CBCF80070C6F3072688
:103FD000C6F1FF080EEA172E06E000009E0300203F
:103FE00094030020A4030020DDE90C9BCDF820E021
:103FF0004FF0FC0E0EEAD70EFF06CDF814E04FEAA4
:10400000176ECDF810E0099FDDF820E077431EFB26
:104010000877DDF814E0BFB20BFB06FB1EFB08BB04
:10402000DDF810E01FFA8BFB09FB06F61EFB0866A5
:1040300007EB17277F1C07F478480BEB1B27B6B25A
:1040400007F101094FF4FC6706EB162607EA59173A
:10405000761C48EA0707C6F3072647EAD606ACF8F7
:104060000060224492B201E01EE00AE0E140082A2A
:1040700002D310F8011F00225B1E0CEB450C002B35
:104080008ADC039B3BB1D11889B200EBD10001F06F
:1040900007020178D1400A9B0CEB430C019B5B1E8D
:1040A0000193002B3FF774AF109800281CBF13B08A
:1040B000BDE8F08F034800680168496A884713B07B
:1040C000BDE8F08FA4030020FE48C068704770B5BB
:1040D0000C00054613D0FB4E0020A5F88400706844
:1040E00010B1016849698847746021682046C96831
:1040F00088472868816A2846BDE870400847AFF3C2
:104100000080F14900B50A88F04983B04FF0000CF7
:104110000988ADF800C0ADF80420ADF802C0ADF8D4
:1041200006100168CA6A6946904703B000BD2DE9D0
:10413000F04F824610B28DB00C461546002812BFD3
:104140005FEA25400DB0BDE8F08FBAF8E80000281E
:1041500000F05981B0F1010900F155811FFA89F091
:104160000AEBC00021B2D0E92A870FFA88F0884212
:1041700014DC22144FEA284393420FDC0FFA85FC2B
:104180003EB28C440644B44508DC02EB254C03EBFC
:1041900027429445DCBF0DB0BDE8F08F884239DB83
:1041A0004FEA284223149A4234DB0FFA87FC2EB2DE
:1041B00084440E4466452DDB02EB274C03EB25427D
:1041C000624527DB0020ADF81800ADF81C00ADF803
:1041D0001A00ADF81E00BAF8E8001FFA89F70AF1D4
:1041E000A806B84240F20B8106EBC701884606A834
:1041F0000DF0D2FDB6F84000401E80B2A6F8400097
:10420000B84240F2FC8006EBC00140460DF0C4FD10
:1042100000F0F5B82AB28B1883426ADD3BB2034442
:104220008B4266DD211401EB254C4FEA28439C4567
:104230005FDD03EB27438B425BDD0020ADF8200000
:10424000ADF82400ADF82200ADF82600BAF8E80079
:104250001FFA89FB0AF1A806584512D906EBCB01D3
:1042600008A800910DF098FDB6F84000401E80B2FD
:10427000A6F84000584504D906EBC00100980DF09F
:104280008BFD3BB2002B18BF5FEA27467DD00FFAAB
:1042900085FBBBF1000F18BF5FEA254776D022B23D
:1042A0000FFA88FC6245B4BF10466046864620146B
:1042B0004FEA28484045B4BF014641465A4463444A
:1042C00012B21BB29A42D8BF1A46384403B208EB66
:1042D000060000B28342C8BF18466EF30F04A2EB7B
:1042E0000E0262F30F05401A61F31F4460F31F458D
:1042F00085E039B2A3462E46002918BF5FEA27435E
:1043000047D00FFA86FCCDF810C0BCF1000F7BD06F
:104310005FEA264CCDF80CC076D00FFA8BFCCDF8B6
:1043200008C08445A8BF84464FEA2B4ECDF814C080
:104330004FEA284CCDE900ECE645B8BFF446E64626
:10434000DDF810C0DDF808800844C4440FFA8CFC86
:1043500000B28445D8BF8446E046DDF800C003982B
:1043600060440FFA80FC0198184400B28445C8BF2D
:104370006046059BA0EB0E0063F30F0BA8EB030355
:104380006EF31F4B63F30F0601E038E042E060F389
:104390001F4628144243381401FB002000EB400163
:1043A00001EBC00116FB16F000EB800040008142DB
:1043B00025DD0020ADF82800ADF82C00ADF82A006E
:1043C000ADF82E00BAF8E8001FFA89F50AF1A80442
:1043D000A84212D904EBC5010F460AA80DF0DCFC77
:1043E000B4F84000401E80B2A4F84000A84204D9AE
:1043F00004EBC00138460DF0CFFC5C463546B9F100
:1044000001097FF5ABAE00E00FE0BAF8E80008283C
:1044100016D07DE068F30F044FEA284063F30F05E0
:1044200060F31F4466F31F45E9E760F30F0B4FEAA3
:10443000284061F30F0660F31F4B63F31F46A8E7A4
:104440000020ADF80000ADF80400ADF80200ADF8B2
:104450000600BAF8E8000AF1A806072812D906F102
:1044600038010F4668460DF097FCB6F84000401E34
:1044700080B2A6F84000072804D906EBC0013846F0
:104480000DF08AFCDDE900010EB2002E18BF5FEAD4
:1044900021493DD02FB2002F18BF5FEA254B2ED007
:1044A00022B201B28A42B4BF94468C464FEA2448F5
:1044B00000148045B4BF434603463A44314417B222
:1044C00009B205E0580300209A0300209C03002055
:1044D0008F42D8BF0F4608EB0B01484409B202B225
:1044E0009142C8BF0A466CF30F04A7EB0C0060F3BF
:1044F0000F05D01A63F31F4460F31F4508E060F313
:104500000F04001466F30F0560F31F4469F31F45A1
:10451000CDE90045BAF8E8200AF1A801082A01D33C
:10452000AFF3008001EBC200521CA1F840206946A5
:104530000DF032FC0DB0BDE8F08F2DE9F043002600
:1045400085B081460F463446FE4800880FFA80F851
:10455000FD48008805B268460DF01EFCBDF900104C
:1045600088452EDDBDF9040001EB000CB44528DDC3
:10457000BDF902006219824223DDBDF90630034411
:10458000A3421EDDB142D4BF35460D46A042C8BF8E
:1045900004460FFA8CF006EB080109B28842A8BF66
:1045A0000846401BADF8040018B211B28842A8BFFB
:1045B0000846001BADF80050ADF80600ADF802400B
:1045C00008E00020ADF80000ADF80400ADF80200EE
:1045D000ADF80600009802900198039002A93846B1
:1045E0000DF0DAFBD9484068002804BF05B0BDE8EB
:1045F000F08399F82C1151B1394668460DF0CCFB87
:10460000DDE9001205B04846BDE8F0438FE50168DA
:104610008A6839469047CE48006801684A6905B003
:104620003946BDE8F0431047C8484068002808BF35
:104630007047026892691047C4484068002808BF64
:1046400070470268D2691047C0484068002808BF18
:1046500070470268126A10472DE9F041BB4D0446CD
:104660000026A86808B1017A19B194F82D11C1B9D2
:1046700006E084F82D6101688968BDE8F0410847CB
:1046800000281CBF007A00280BD0686810B10168B0
:1046900009698847A8680168C9688847012084F8C3
:1046A0002D01B4F88400002700280FDDE01990F8F0
:1046B000880030B1201DB9B250F821000168096DA1
:1046C0008847B4F884007F1CB842EFDC80B2431EF8
:1046D000002BA8BF04F1880C41DBE01890F888009B
:1046E000D8BB211D98B20A4651F82080B4F8841036
:1046F000002000291DDD00BF52F82010414508BFF1
:10470000014607D010E000BF02EB81077F6842F846
:104710002170491CB2F88070B942B8BF1F29F3DB81
:10472000B9B2491EA2F88010B2F88010401C814234
:10473000E2DCB4F8841098B281420AD92118401CF6
:1047400091F8892081F88820B4F8841080B28142E1
:10475000F4D8B4F8840000F80C605B1EBDD568681E
:10476000002808BFBDE8F0810168496ABDE8F04152
:10477000084776484068002808BF70470268926A78
:10478000104770472DE9F04FA9B00025044680F886
:104790002C1100291EBFA0F8E85029B0BDE8F08F09
:1047A000B4F8E800002804BF29B0BDE8F08F04A8E1
:1047B00008231A4667490DF017FB0021634FA0F844
:1047C0004010B4F8E8003E88B04288BF0DF1700890
:1047D0001CD900BF04F1A80000EBC60104AD40469F
:1047E0000DF0DAFABDF85000082880F0158205EBCC
:1047F000C002401CADF85000414610460DF0CCFA06
:10480000701C86B2B4F8E8008642E3D34F480588AE
:10481000B4F82A01A84288BF02AE11D904F1EA0017
:1048200000EBC50130460DF0B7FADDE90212204673
:10483000FFF77DFC681C85B2B4F82A01A842EDD8C8
:104840004348006890F8480001284AD00228DFF861
:1048500000813E4800F030810588B4F8E800A842A5
:1048600019D900BF04EBC500D0E92A10CDE9021028
:10487000BDF80C0000281CBFBDF80E00002804D0B5
:10488000206802A9C26A20469047681C85B2B4F825
:10489000E800A842E6D82D4D286958B12C490A688D
:1048A00092F8761000291ABFD16C0029916802682D
:1048B0009268904728480078002804BF29B0BDE8D6
:1048C000F08F0020A4F82A012D88BDF85000A842DE
:1048D00087BF0DF110081EAF29B0BDE8F08F00F0C2
:1048E0008FB9DFF868C0B4F8E8200026BCF80000F3
:1048F00082420FDD04F1A80381B203EBC101B1F9DB
:104900000230B1F906101944B142C8BF0E46401C2E
:104910008242EFDC0C4800880F288CBFC0080120C1
:104920000022ADF85820ADF85C201A90ADF85A205E
:10493000ADF85E201746002EC8BF0DF160087BDD84
:10494000034D0BE09A0300209C0300205803002035
:10495000A40300201B1A01089503002028680168A1
:10496000D1F88C108847BDF95A10BDF95E2011446A
:104970001A9A0A448242C8BF864203DD8142C8BFF8
:1049800000297BDD0AB2824201DC864200DA304631
:10499000401A20A94FF0000CFE4B1B88ADF8843064
:1049A000ADF880C0ADF88600ADF8822016A80DF0F5
:1049B000F3F9F9480588B4F8E800A8426ED900BFB9
:1049C00004F1A80000EBC50140460DF0E5F9BDF982
:1049D0005820BDF95C00BDF9601002EB000C8C455D
:1049E0004DDDBDF9640001EB0009914547DDBDF9DE
:1049F0005A30BDF95E0003EB000ABDF96200824542
:104A00003DDDBDF966B083449B4538DD9142D8BF9A
:104A100011469842D8BF18460FFA89F30FFA8CF264
:104A20009342B8BF1A46521AADF864200FFA8BF2BF
:104A30000FFA8AF39A4200E038E0A8BF1A46121A29
:104A4000ADF86010ADF86620ADF86200DDE9180140
:104A5000CDE92201BDF88C0000281CBFBDF88E00F6
:104A6000002804D0206822A9C26A20469047681C0A
:104A700085B2B4F8E800A842A2D80FE008E0ADF88B
:104A80006070ADF86470ADF86270ADF86670DDE727
:104A900028680168D1F8882001219047BDF95A00A3
:104AA000BDF95E100844B042FFF64AAFBB4800684B
:104AB0000168C9698847EEE60688B4F8E800B042A4
:104AC00084BFB74F00257FF6E6AE00BF04EBC601FA
:104AD000D1E92A01CDE920013878012804BF20A8B6
:104AE00006F004FFBDF9840000281CBFBDF8861045
:104AF00000293CD0BDF88010ADF80810ADF80E507C
:104B0000BDF88210ADF80A10ADF80C00BDF88200B7
:104B1000BDF88610BDF80C300844BDF80A10401AE4
:104B200080B20090D8F800008AB2BDF80810D0F822
:104B300000C0DCF884C0E04700B2ADF80E00397860
:104B400001291BD0206802A9C26A2046904700BFF5
:104B5000BDF80A00BDF80E10BDF98620084400B269
:104B6000ADF80A00BDF9821011448142CEDC701C00
:104B700086B2B4F8E800B042A8D88CE6ADF804508C
:104B8000ADF80650BDF80810ADF85410BDF80A1085
:104B9000ADF800500844401EADF85800ADF8025082
:104BA00016A915A806F076FEBDF85400ADF8000071
:104BB000BDF85800ADF80200BDF80800BDF80C10B3
:104BC0000844ADF85400BDF80A00ADF8580016A925
:104BD00015A806F05FFEBDF80000BDF85410081AD5
:104BE000401CADF80400BDF80210BDF85800401A92
:104BF000ADF8060020686946C26A20469047A7E7DC
:104C000008EBC50104F1EA0638460DF0C5F8B6F820
:104C10004000082802D300BFAFF3008006EBC002BB
:104C2000401CA6F84000394610460DF0B5F8681C47
:104C300085B2BDF850008542E2D329B0BDE8F08FBF
:104C400010B5B0F884300022002B12D900F1040C0A
:104C50005CF822C08C4508D1811891F88800FF28A3
:104C60003CBF401C81F8880010BD521C92B2934298
:104C7000ECD8202B08D21A180123001D82F88830A6
:104C8000B0F88020202A01D3AFF300809300521C9B
:104C9000A0F88020C15010BD0021A0F88410C0F8F9
:104CA0008810C0F88C10C0F89010C0F89410C0F8AC
:104CB0009810C0F89C10C0F8A010C0F8A41070475D
:104CC000B0F884300022002B98BF704700F1040C2C
:104CD0005CF822C08C450DD100EB020C9CF888C01A
:104CE000BCF1000F06D0104490F88810491E80F8DF
:104CF00088107047521C92B29342E7D87047B0F8C0
:104D000084007047B0F884300022002B0ED900BF19
:104D100000F1040C5CF822C08C4503D1104490F8DB
:104D200088007047521C92B29342F1D8002070471D
:104D300070B51C4901600025A0F884500823A830F4
:104D40001A4619490DF050F8A0F840500823423097
:104D50001A4615490DF048F8A0F8405080F8425026
:104D6000A0F1EA0480F843501049114806F096FE7D
:104D7000094E002818BF358006D14FF4806030807E
:104D80000220706005F092FDF5607560B560A4F8D2
:104D900084500FE09A03002058030020A403002051
:104DA00094030020E06101081B1A0108CDB5E8B5A5
:104DB000C2A507F4C4F88850C4F88C50C4F89050C9
:104DC000C4F89450C4F89850C4F89C50C4F8A0504B
:104DD0002046C4F8A45070BDFD4A10B5936873B165
:104DE00001884FF6FF70814224BF002010BDA1F55D
:104DF0007F40FE3805D1F7480068406C10BDAFF326
:104E000000801069002819BF50F82100002801EB2C
:104E1000810053F8200010BD02884FF6FE708242D8
:104E200036D2EB48034641881B698A4220D280680B
:104E300002EB820100EB81014868002814BF002BBF
:104E4000704753F82220002A08BF7047088A4B8A0F
:104E5000400BC00040EA53300B280889498900FB09
:104E600001F018BF4000C01C20F003001044704740
:104E7000B0F804C08C4494450AD9511AC068C1EBFB
:104E8000C10100EB4100017B01F01F010B2901D0A2
:104E900000207047018940894843C01C53F8221004
:104EA00020F0030008447047B6E7C94900888B68C2
:104EB000DBB14A8890420AD200EB800003EB80000D
:104EC000018A408A490BC90041EA503070478B88FB
:104ED0001344984209D2801AC968C0EBC00001EBA4
:104EE0004000007B00F01F007047A0F57F41FE39B5
:104EF0001CBF00207047B748016891F87600002871
:104F00001ABFC86C002888680168496A0847B04918
:104F100010B58B68A3B100884A8890423CBF00EB73
:104F2000800003EB800009D38B881344984209D298
:104F3000801AC968C0EBC00001EB4000008910BDB9
:104F4000AFF30080A0F57F41FE3912BF0020A248D8
:104F5000008810BD9E4910B58B68A3B100884A88AF
:104F600090423CBF00EB800003EB800009D38B88AC
:104F70001344984209D2801AC968C0EBC00001EB03
:104F80004000408910BDAFF30080A0F57F41FE399D
:104F900012BF00209148008810BD8D4A10B5D2F88C
:104FA00008C0BCF1000F16D009885388994214D26A
:104FB00001EB81010CEB81010A8AB1F80CC0CB89AD
:104FC000498AA0F800C0C2F30C024380C1F30C016F
:104FD0008280C18010BDAFF30080B2F804C09C4451
:104FE00061450AD2C91AD268C1EBC10102EB410185
:104FF0000A6802604968416010BDA1F57F424FF028
:10500000000CFE3A634609D173490A88734909883E
:10501000A0F800C043808280C18010BDA0F800C00D
:10502000002243808280C28010BD69498B6853B3DF
:1050300000884A88904210D200EB800003EB800089
:10504000018A0289C1F30C0191421AD3418A408935
:10505000C1F30C01814214D315E08B8813449842AC
:1050600011D2801AC968C0EBC00001EB4000B0F952
:1050700004100289914204DBB0F906104089814294
:1050800001DA012070470020704770B4504C20694D
:10509000002804BF70BC70476188A2884FF6FE7577
:1050A00011444B1C2B404FEA810CC2EBC2025B0047
:1050B00055006044C218E2602A44C4E90502002297
:1050C0002280266AA6EB0C0CACEB03035B1BE361AE
:1050D000E28000291CBF00234FF6FF7C07D0256922
:1050E00045F823205B1C20F802CB491EF7D1A1888C
:1050F000002904BF70BC704711F0010004D0E268C1
:10510000137B23F020031373884232BFD4F80CC002
:1051100070BC7047C0EBC0020CEB4202801C137BDA
:10512000884223F020031373937E23F020039376A9
:10513000F0D370BC7047264BD3F818C0BCF1000FF9
:1051400018BF7047002908BF704710B592B29A8007
:10515000B3F802C094440CEB4C0C4FEA4C0CC2EB7D
:10516000C2020CEB42028A4201D3AFF30080196203
:105170001861BDE8104088E770B5DFF854C0049CA2
:10518000DCF80850002D18BF70BDCCF80800ACF852
:105190000210DCF81800002818BF70BD002B08BFF3
:1051A00070BDA0B20144ACF8040001EB410149001C
:1051B000C0EBC00001EB4000984201D3AFF3008088
:1051C000CCF82030CCF81020BDE870405DE700003E
:1051D0006C030020A40300209A0300209C030020FD
:1051E0002DE9F0470E464FF6FE71884280F0F480BC
:1051F00000EB8004FE48826802EB8400018A438A47
:10520000490BC90041EA53310389B0F80AC00C299F
:1052100003FB0CF580F0E080DFE801F02412068B40
:10522000DC755F4F4F4F4FA1F248AB0052F824207E
:1052300000680168D1F834C03146BDE8F0476047E6
:1052400005EB4500C01C20F00303EA48E84952F88A
:10525000242000688969D0F800C0DCF834C0BDE8BB
:10526000F04760470320E34F00EB450020F00308C0
:105270003868DFF87C9352F8242001684346D1F85F
:1052800034C03146E047002808BFBDE8F087D9F8B0
:10529000081001EB84014A68002A08BFBDE8F087C6
:1052A000E81C20F00303386806EB0801D0F800C0C2
:1052B000DCF834C0BDE8F0476047E81C20F0030389
:1052C000CC48CB4952F8242000688969D0F800C046
:1052D000DCF834C0BDE8F047604703891FFA8CF062
:1052E0005B1C5B085843C01C20F00303C148C04945
:1052F00052F8242000688969D0F800C0DCF834C076
:10530000BDE8F047604703891FFA8CF0DB1C9B085F
:105310005843C01C20F00303B648B54952F8242076
:1053200000688969D0F800C0DCF834C0BDE8F047F7
:10533000604703891FFA8CF0DB1DDB085843C01C53
:1053400020F00303AB48AA4952F824200068896979
:10535000D0F800C0DCF834C0BDE8F0476047E81C76
:10536000A44D20F00307DFF88882286852F8242033
:105370003B460168D1F834C03146E047D8F8081000
:105380004FF0000C01EB84014A6813785188002B20
:1053900004BF042303EB810C0BD0012B04BF01EBF2
:1053A000410101F1040C04D0022B04BF042303EBE0
:1053B000410C002808BFBDE8F0870CF1030020F085
:1053C00003032868F119D0F800C0DCF834C0BDE848
:1053D000F0476047AFF300800020BDE8F0872DE97B
:1053E000F0414FF6FE7188427DD281494F88C11B42
:1053F000C1EBC1027E49B842CB68896803EB420425
:1054000000EB800201EB820210D2138AB2F812C0C4
:105410005B0BDB0043EA5C36536811895589002B2E
:1054200014BF4FF001084FF0000806E0237B2189EC
:10543000658903F01F064FF0000801FB05FC0C2EE8
:1054400073D2DFE806F00A1A0634702C24212121D9
:10545000213C4FEA8C00BDE8F081032000EB4C00BA
:1054600020F00301B8F1000F1ABF0CF1030020F087
:10547000030000200844BDE8F0810CEB4C00C01C88
:1054800020F00300BDE8F0810CF1030013E0481C9C
:1054900040086843C01C20F00300BDE8F081C81C30
:1054A00080086843C01C20F00300BDE8F081C81DDF
:1054B000C0086843C01C20F00300BDE8F081002153
:1054C000B84216D2506802784088002A04BF0421EE
:1054D00001EB80011CD0012A04BF00EB4000011D3C
:1054E00016D0022A00E01EE004BF042101EB4001B7
:1054F0000EE0207B800908BF40F2044108D001285B
:1055000008BF4FF4417103D0022808BF4FF4017166
:105510000CF10300C91C20F0030021F00301084432
:10552000BDE8F08101E0AFF300800020BDE8F0812C
:105530002DE9F04F2E4983B04FF6FE734A888888D4
:105540004FF0000802EB00094FEA8902019209F1CD
:1055500001021A405200C0EBC00000924FEA400B1B
:105560000869019A46461044009A5F1C104400EBFB
:105570000B0A544646E01E48006950F825000028F2
:1055800008BF21F816703BD02846FFF728FFDFF848
:1055900060E08446DEF8100050F82500844224D0F4
:1055A0004FEA9C0100EB81010B1A9910002912DDD2
:1055B000011F201F13F0040F03D051F8042F40F8EF
:1055C000042FDA1007D04B68436051F8083F40F8C9
:1055D000083F521EF7D1DEF8100040F82540DEF8F3
:1055E000140020F8167020F81850644404E00000FD
:1055F0006C030020A403002008F101001FFA80F8CA
:10560000701C86B24E4505D2FB48416931F81650F0
:10561000BD42B0D1F8488461A0F80080026A0199C7
:10562000521A0099511AA1EB0B01A4EB0A02891A34
:10563000C16103B0BDE8F08F70B5EF4C0546A069BD
:10564000002832D06088A1880844A8422DD9E0887B
:10565000002818BFFFF76CFF206950F825000028CC
:105660001CBF012070BD2846FFF7B9FE0646E06961
:1056700086421AD86088854204D22846A169FFF77D
:10568000AFFD90B12169A06941F82500E069801B58
:10569000E061A0693044A0612188606920F8115060
:1056A0002088401C2080012070BD002070BDD249A0
:1056B0008A6932B1096951F8200000281CBF012015
:1056C0007047002070472DE9F041CB4E0D4604464F
:1056D000B1693069AC420AD100291FBF50F82400DB
:1056E00000280120BDE8F0810020BDE8F0810029FC
:1056F0001CBF71888D4238BF8C42F5D250F82410FF
:105700000029F1D050F825000028EDD12046FFF700
:1057100066FE07462846FFF762FE8742E4D13069FD
:1057200050F8241040F82510002140F8241050F8BB
:1057300025102846FFF754FD030014D00023B6F8C7
:1057400000C01846BCF1000F88BF71690BD900BFBB
:1057500031F81020A24203D121F81050012302E0B9
:10576000401C6045F4D31846BDE8F08170B5A24CEA
:10577000A16909B3216951F82020EAB1002241F85A
:105780002020E188491CE1802188626902EB410206
:1057900032F8022C824229D1002918BF4FF6FF753A
:1057A00024D02088616901EB4000216930F8020CA7
:1057B00051F82010D1B901E0002070BDFFF70FFEB5
:1057C000A169091AA161E1690844E0612088616961
:1057D00001EB400020F8025C2088401E0004000C11
:1057E0002080E188A1F10101E180DAD1012070BDC2
:1057F00010B500214FF6FE72904201D3AFF3008046
:105800007D4A9369002B1CBF116951F8201008468E
:1058100010BD2DE9F041784C012600256088002854
:1058200038D9A069002838D06088A1880844A842E7
:1058300033D9E088002818BFFFF77AFE294620698F
:1058400050F82500F8B90846FFF7C9FD0746E0699A
:10585000874222D8618828468D4203D2A169FFF78A
:10586000BFFCD0B12269A16942F82510E069C01BD4
:10587000E061A0693844A0612288616921F8125072
:105880002088401C2080681C85B2608806F00106D4
:105890008542C6D33046BDE8F081AFF300802DE9E4
:1058A000F047554F064690463846BA880024C068EF
:1058B00088B099460D46002A0CD900BFC4EBC4013C
:1058C00000EB4101097B01F0200100291CBF641C91
:1058D0009442F3D3944202BF4FF6FF7008B0BDE884
:1058E000F087C4EBC40100EB4101B8F10C0F0E814D
:1058F0004D810A7B68F3040242F020020A7340D211
:10590000DFE808F006064B060606064B4B4B4B1528
:105910000023ADF80030ADF80460C4EBC402694662
:10592000ADF80230ADF8065000EB420027E0C4EBC2
:10593000C40100EB4100B9F1000F017B69F387114D
:10594000017306D0B9F1010F18BFB9F1020F0CD0E5
:1059500017E00021ADF80810ADF80C1002AAADF860
:105960000A10ADF80E10114609E00023ADF8103012
:10597000ADF8146004A9ADF81230ADF816500CF073
:105980000BFA788820441FFA80FA5046FFF754FE3D
:1059900020B3B8F10B0F0FD01CE00021ADF81810A8
:1059A000ADF81C10ADF81A10ADF81E10C4EBC40110
:1059B00006AA00EB4100D6E7386950F82A1006FB2A
:1059C00005F0C01C20F0030008444FF48071A0F8DB
:1059D0000090418008B05046BDE8F087F968C4EBFC
:1059E000C40001EB4000017B21F02001017308B0ED
:1059F0004FF6FF70BDE8F0876C030020BB494A8872
:105A0000904211D38B88134483420DD9821AC968FE
:105A1000C2EBC20201EB4202117B11F0200F03D056
:105A200021F020011173A1E600207047AF494A8898
:105A3000904207D38B881A4490423EBF096951F8BF
:105A40002000704700207047A84A10B5538898423C
:105A500012D3B2F804C09C4484450DD9C01AD26850
:105A6000C0EBC00002EB4000027B12F0200F03D01D
:105A70000CF092F9012010BD002010BD2DE9F04F6F
:105A800006469A480D4683B041888E42C0F01D817B
:105A900082880A44B24240F21881711AC068C1EB90
:105AA000C10100EB4104207B10F0200F00F00D81BC
:105AB000B5F90010B4F9000081421ADBB5F90230E3
:105AC000B4F90220934214DBB5F904C001EB0C07D2
:105AD000B4F904C08444BC450BDBB5F906C09C4452
:105AE000B4F906301A446245A2BF012003B0BDE8F4
:105AF000F08F884217DBB4F90230B5F902209342E7
:105B000011DBB4F9047000EB070CB5F904700F4415
:105B1000674508DBB4F906C06344B5F906C06244C2
:105B20009A4280F2CC80814257D1B5F90400B4F991
:105B30000470B84251D1294668460CF02DF9002F67
:105B40001CBFB4F90690B9F1000F3DD0BDF904B007
:105B5000BBF1000F1CBFBDF906A0BAF1000F27D0A2
:105B6000BDF90030B4F900804345B4BF1A4642463F
:105B7000BDF90200B4F902108842B4BF84468C46D5
:105B80005B4447441BB23FB2BB42D8BF3B46504484
:105B9000494400B209B28842D8BF0846ADF8002097
:105BA000991AADF802C0ADF80410A0EB0C0009E0A2
:105BB0002088ADF800006088ADF80200A088ADF83C
:105BC0000400E088ADF80600B5F90600B4F9061047
:105BD0000844BDF90610884260DDB5F90200B4F949
:105BE0000210884261D1B5F90600B4F90610884266
:105BF0005BD1294668460CF0CFF8B4F904A0BAF19D
:105C0000000F1CBFB4F90680B8F1000F3DD0BDF9FC
:105C100004B0BBF1000F1CBFBDF90690B9F1000F35
:105C200027D0BDF90000B4F90070B842B4BF0246F5
:105C30003A46BDF90230B4F902C06345B4BF194613
:105C400061465844574400B23FB2B842D8BF3846C4
:105C50004B44C4441BB20FFA8CFC6345D8BF634667
:105C6000ADF80020801AADF80400ADF80210581A03
:105C700009E02088ADF800006088ADF80200A08837
:105C8000ADF80400E088ADF80600B5F90400B4F9F9
:105C900004100844BDF90410884206DC6946304609
:105CA000FFF7D2FE03B0BDE8F08FA888E98810FBAB
:105CB00001F0A188E28811FB02F1884205D903B006
:105CC00029463046BDE8F04FBEE603B00020BDE8EF
:105CD000F08F06480021C160016141618161C161AD
:105CE000016201808180C180704700006C03002048
:105CF00070B4002691F82CC066F30F0366F30F0210
:105D000066F31F4366F31F42BCF1000F04D191F804
:105D100026C0BCF1FF0F06D1B1F808C049896CF369
:105D20000F0261F31F420360426070BC704710B500
:105D300082B0044668460CF02FF820686946426A33
:105D4000204690470948016891F8760000281ABF5C
:105D5000C86C0028886894F82630A26A0168D1F8D7
:105D60001CC06946E04702B010BD0000A40300203B
:105D70002DE9F047074690F82C0088B00E46002821
:105D800019BF386B0390F88DADF80C000024254640
:105D900003A8FFF7BCF80FFA80F903A8FFF7DAF8B9
:105DA00003B2ADF81840ADF81C90ADF81A50ADF83C
:105DB0001E30B6F90000B6F90410002200EB010C09
:105DC0004FF00108BCF1000FC4BFA144814568DD5C
:105DD000B6F90210B6F906A08A44AA45C4BF2B44FE
:105DE0008B425EDD8442D8BF04468D42D8BF0D464B
:105DF0000FFA89F00FFA8CF18842A8BF0846001B01
:105E0000ADF81C0019B27088F388184400B28142C2
:105E1000B8BF0846401BADF81840ADF81E00ADF8FD
:105E20001A503F480068002844D0BDF80C00A0F587
:105E30007F41FF3919BFBDF81C00002808B0BDE83C
:105E4000F087BDF81E00002804BF08B0BDE8F08749
:105E5000ADF81020ADF81420ADF81220ADF81620E2
:105E6000386804A9426A384690472E48016891F87C
:105E7000760000281ABFC86C0028886897F832108E
:105E800006AACDE90021CDF808800168BDF91230DD
:105E9000BDF91020D1F80CC003A9E04708B0BDE857
:105EA000F087ADF81820ADF81C20ADF81A20ADF839
:105EB0001E20B6E7AFF3008010B504460888E085E1
:105EC0001088208604F13000FFF721F8208104F1CA
:105ED0003000FFF73FF8608110BD10B5044691F81F
:105EE000320084B0FF2806D2002323806380A38081
:105EF000E38004B010BD91F82C0038B13031684611
:105F0000FFF74BF800982060019806E02E3102A8B8
:105F1000FFF743F8029820600398606004B010BD5A
:105F200074030020A40300202DE9F0070DF11C0AE2
:105F3000BAE8F01383808471C379DFF838A165F380
:105F4000060366F3C713C371077280F80980A0F8CF
:105F50000A90A0F80CC0484B036001618282BDE842
:105F6000F007704730B4828A0023521E002AA4BF73
:105F70000424D0F810C017DB981800EBD070401044
:105F8000C0EBC00504EB45053CF805508D4238BF19
:105F9000431C88BF421E05D1C0EBC00030BC0CEBD7
:105FA000400070479342E7DD30BC002070472DE988
:105FB000F0470446808A17460022A0F1010C042510
:105FC0001E46BCF1000FA8BF236919DB02EB0C00D1
:105FD00000EBD0704010C0EBC00805EB480833F868
:105FE0000890894538BF421C88BFA0F1010C05D13B
:105FF000C0EBC00013EB400828D101E06245E5DDAD
:10600000002918BF0A2931D0206801692046884735
:106010000346A08A0022401E0028A8BFD4F810C062
:1060200024DB111801EBD1714910C1EBC10805EB5C
:1060300048083CF80880984538BF4A1C88BF481E6D
:1060400012D1C1EBC1001CEB40080FD020684146C3
:10605000826C2046904738602068416B2046884714
:1060600030704046BDE8F0878242DADD0020BDE8AE
:10607000F087000040650108CC67010810B5814237
:1060800015D04A699AB90022C1E90502826A002A3C
:1060900004BF816210BD906928B18A4207D00246D0
:1060A00080690028F9D18A421CBF916110BDAFF30D
:1060B0000080826A002A08BF704700238A4207D105
:1060C0004B618A69002A14BF8262836206D17047DD
:1060D0009069884204D1886990614B618B617047F7
:1060E0000200F5D17047816A002914BF0022704771
:1060F0008B6983624A618A61816A0029F8D170479D
:1061000000218162704702460020926A002A08BF7F
:106110007047002818BF70478A420CBF012000203A
:106120009269F3E7836A2BB1002904BF936182620D
:1061300009D003E001684B6E114618478B4204D129
:10614000996991619A61506170479B69002BF5D103
:1061500070472DE9F0410E4690F824101F46154671
:10616000002918BF3860846A002C08BFBDE8F081A0
:1061700094F82500E0B1B4F90410201DB14217DCF9
:10618000B0F904208B189E4212DAB0F90220954231
:106190000EDBB0F906001318AB4209DD701A01B22C
:1061A000A81A02B220683B46D0F81CC02046E0473F
:1061B000A469002CDCD1BDE8F08190F82520002AEC
:1061C00008BF70472DE9F043846A87B0002C04BFF4
:1061D00007B0BDE8F08304A80BF0DEFD6F46002693
:1061E00094F82500002860D0251D04A938460BF03E
:1061F000D3FDB5F90020B5F90400BDF9001002EB9C
:10620000000C8C4557DDBDF9040001EB00099145F8
:1062100051DDB5F90230B5F9060003EB0008BDF910
:106220000200804547DDBDF906808044984542DD87
:106230009142D8BF11469842D8BF18460FFA89F24A
:106240000FFA8CF39A42A8BF1A46521AADF80420EE
:106250006A88EB880FFA88FC1A4412B29445B8BFDA
:106260006246121AADF80010ADF80620ADF8020033
:10627000DDE90001CDE90201BDF80C0000281CBFDA
:10628000BDF80E00002810D0BDF80800A188401A03
:10629000ADF80800BDF80A00E188401AADF80A0020
:1062A000206802A9826820469047A469002C97D1F3
:1062B00007B0BDE8F083ADF80060ADF80460ADF85C
:1062C0000260ADF80660D3E74FF0000CA0F800C004
:1062D000A0F802C0A0F804C0A0F806C0704770B5CE
:1062E000846A0D46002C08BF70BD2868214682686C
:1062F00028469047A469002CF7D170BD2DE9F04FD6
:106300000026D1F828C066F30F0366F30F0266F388
:106310001F4366F31F42BCF1000F4BD0BCF908408D
:106320000CF10401002C1CBFB1F90650002D3CD02B
:106330000FFA82FABAF1000F18BF5FEA224B28D099
:10634000B1F900800FFA83F9C145B4BF4E46464605
:106350001F14B1F902E07745B4BF39467146D14404
:1063600044440FFA89F924B2A145D8BFA14607EBEE
:106370000B04754424B22DB2AC42D8BF2C4666F350
:106380000F0361F31F43A9EB060565F30F02611AC2
:1063900009E00C8864F30F034C8864F31F438C8876
:1063A000C98864F30F0261F31F42DCF818C0BCF126
:1063B000000FB3D103604260BDE8F08F70B5846A0E
:1063C00015460E46002C08BF70BD20682A4631468F
:1063D000436D20469847A469002CF6D170BD2DE985
:1063E000F04F0F4690F825108DB0914600291FBF41
:1063F000846A002C0DF12008002604BF0DB0BDE812
:10640000F08F00BF94F82500002861D0251D394683
:1064100040460BF0C1FCB5F90030B5F904001A187C
:10642000BDF92000824259DDBDF9241000EB010CBA
:106430009C4553DDB5F90210B5F906A001EB0A0B36
:10644000BDF922A0D34549DDBDF926B0D3448B4523
:1064500044DD9842D8BF18468A45C8BF51460FFA56
:106460008CF312B29342A8BF13461A1AADF8242037
:106470006B88B5F806C00FFA8BF263441BB29A42E0
:10648000A8BF1A46521AADF82000ADF82620ADF884
:10649000221000BFDDE90801CDE90001BDF80400CC
:1064A00000281CBFBDF80600002811D0BDF8000070
:1064B000A1884A46401AADF80000BDF80200E18804
:1064C000401AADF8020020686946036E20469847DE
:1064D000A469002C96D10DB0BDE8F08FADF8206016
:1064E000ADF82460ADF82260ADF82660D2E7000078
:1064F000804B0360C0E901120021C1600161704757
:10650000D0E9031081420CBF012000207047D0E980
:106510000321891A0029DCBF806801440129D4BF06
:1065200001200020704710B50446D4E90320801AEA
:106530000028DCBFA368184401280DD9606800EB6F
:1065400042101F2207F00DFAE068A168401C81424A
:1065500098BF401AE06010BDAFF3008010B504464C
:10656000006801682046884708B1AFF300802069C1
:10657000A168401C814298BF401A206110BD41684B
:10658000006901EB4010704770B50D460446606825
:1065900001684A6890470028F9D1574E3068016871
:1065A000096F88470AF028FF606801688A682946F1
:1065B00090472068C16A2046884730680168C96EE4
:1065C000BDE87040084710B5044640680168096896
:1065D0008847002818BF10BD607A002808BF10BD8A
:1065E000207A002818BF10BD2068416A2046BDE807
:1065F000104008474068016809680847406801681A
:106600004968084770B50446012020726068016837
:106610008969884705460068202811D00ADC0128CE
:106620000ED002282FD0042815D008281FD000BF74
:10663000AFF3008040281CBF8028B0F5807FF7D1E1
:106640002068C16B2046884720682946026B204697
:10665000BDE8704010472068297F826B2046904734
:1066600020682946026B2046BDE87040104720682C
:10667000297F826B2046904720682946426B20463E
:10668000BDE8704010472068C16B204688472068ED
:106690002946426B2046BDE87040104710B50446BD
:1066A000406801680968884738B9207A28B160686D
:1066B000016849698847002020726068016809689C
:1066C000884718B1BDE810400AF09EBE2068416AB4
:1066D0002046BDE81040084701680969084770472F
:1066E0007047704710B50AF07FFEBDE810400AF011
:1066F00071BE0000B0630108A4030020F0B50D4690
:1067000007468088098885B0084406B22E80F8883C
:106710006988084404B26C80391D68460BF03CFB64
:10672000B5F904003318BDF90000834240DDBDF91E
:10673000041000EB010CB4453ADDB5F906106218FF
:10674000BDF902108A4233DDBDF906200A44A24297
:106750002EDDB042C8BF0646A142C8BF0C460FFAA4
:106760008CF118B28142B8BF0846801BADF8040016
:1067700011B26888EA88104400B28142B8BF084666
:10678000001BADF80060ADF80600ADF802400098BF
:1067900002900198039002A928460BF0FDFA78694F
:1067A00080B101680A6905B02946BDE8F04010478C
:1067B0000020ADF80000ADF80400ADF80200ADF81F
:1067C0000600E4E7FDF780FC0168CA6A05B02946C7
:1067D000BDE8F040104700B5D0E9011283B0CDE923
:1067E00000120021ADF80010ADF8021001680A692E
:1067F0006946904703B000BD30B50546086883B0D0
:106800000C46C2686846904720686946426A20463E
:106810009047009828600198686003B030BD2DE96A
:10682000F00382880B8800261A4414B20C80C288B8
:106830004B881A440FFA82FCA1F802C0B0F9042078
:10684000B0F90850031D5719A74243DDB1F90450B0
:1068500004EB050890453DDDB3F90250B3F906900D
:10686000A944E14536DDB1F90690E144A94531DDA1
:106870009442C8BF2246AC45D8BFAC460FFA88F454
:106880003DB2AC42A8BF2C46A41A8C804D88CC885F
:106890002C445D88DB8824B22B441BB29C42A8BFE9
:1068A0001C46A4EB0C03CB800A80A1F802C08A88A6
:1068B000002A19BFCA88002ABDE8F0037047406962
:1068C000002804BFBDE8F00370470268126ABDE803
:1068D000F00310470E804E808E80CE80BDE8F0031E
:1068E000704710B50A4682B00446098950894FF0B6
:1068F000000CADF800C0ADF80410ADF802C0ADF862
:10690000060010686946436A104698470098206060
:106910000198606002B010BD82880B881A440A801A
:10692000C2884B881A444A804069002808BF7047D3
:106930000268526A104710B5044684B051EA02005A
:1069400004BF04B010BDD4E90103CDE90003E08821
:10695000104402B2A088084401B22068436B20466C
:106960009847D4E90101CDE90201606950B101689D
:106970000A6969469047606901680A6902A99047F7
:1069800004B010BDFDF7A0FB0168CA6A69469047D4
:10699000FDF79AFB0168CA6A02A9904704B010BDCE
:1069A000844604480A4600680168D1F8943061467C
:1069B00018470000A403002001EB020C0FFA8CFC26
:1069C00098422FD273B3DFEDFE0A00EE100AB8EE44
:1069D000401A00EE103AF8EE401A81EE210A01EE5C
:1069E000102AB8EEC11A21EE001A21EE001ADFEDCE
:1069F000F51A51EE800A00EE101AB8EEC00A01EE48
:106A0000200AF6EE000AB5EEC00AF1EE10FAD4BF85
:106A100030EE600A30EE200ABDEEC00A10EE100A19
:106A20000FFA80FC6046704701EB020C0FFA8CFCF9
:106A3000984233D293B39FEDE20A00EE900AB8EE8B
:106A4000601A00EE903AF8EE601AC1EE210AB7EE35
:106A5000001A70EEC10A60EEA01A9FEDDA2A02EE6B
:106A6000200A00EE902AF8EEE00A01EE801A00EE0D
:106A7000101AB8EEC00A00EE810AF6EE000AB5EE72
:106A8000C00AF1EE10FAD4BF30EE600A30EE200AF0
:106A9000BDEEC00A10EE100A0FFA80FC6046704787
:106AA0008446881800B29C4528BF7047002B08BF59
:106AB00070479FEDC51A00EE103AF8EE400AB6EEA8
:106AC000000A60EE801A00EE90CAB8EE602AC2EEAC
:106AD000210A10EE900A9FEDBD2AB0F17E5F22DA06
:106AE00060EEA01A12EE201A00EE902AF8EEE00AEC
:106AF00021EE811A60EE801A00EE901AF8EEE00A9C
:106B000041EE810AF5EEC00AF1EE10FA03DD00BF96
:106B100030EE800A01E030EEC00ABDEEC00A10EE91
:106B2000100A00B27047F0EE001A70EEE10A60EE53
:106B3000A02A02EE201A00EE902AF8EEE00A42EEB9
:106B4000811A20EE801A00EE901AF8EEE00A41EE6B
:106B5000210AF5EEC00AF1EE10FADCDDD8E7844632
:106B6000881800B29C4528BF7047002B08BF7047AB
:106B700000EE10CAF8EE400A00EE103A944BB8EE60
:106B8000401A80EE810A10EE100A9FED921AF6EE7E
:106B9000000A83421DDD20EE011A61EE001A00EEAC
:106BA000101A01EE102AB8EEC00AB8EEC11A01EEB2
:106BB000210AB5EEC00AF1EE10FA02DD30EE200A2D
:106BC00001E030EE600ABDEEC00A10EE100A00B21D
:106BD000704710EE100A804B834219DDDFED7F1AFB
:106BE00030EE610AF6EE081A20EE011A41EE001AA4
:106BF00000EE101A01EE102AB8EEC00AB8EEC11A63
:106C000001EE210AB5EEC00AF1EE10FAD9DDD5E7A2
:106C100010EE100A724B834219DDDFED721A30EE6E
:106C2000610AF6EE0E1A20EE011A41EE001A00EE8D
:106C3000101A01EE102AB8EEC00AB8EEC11A01EE21
:106C4000210AB5EEC00AF1EE10FABADDB6E7DFEDC3
:106C5000661A30EE610A20EE011ADFED641A41EE89
:106C6000001A00EE101A01EE102AB8EEC00AB8EEB3
:106C7000C11A01EE210AB5EEC00AF1EE10FAA0DD4C
:106C80009CE730B514460D46214409B2984208D21B
:106C90003BB1181A80B20021FFF761FF201A284487
:106CA00001B2084630BD30B514460D46214409B244
:106CB000984234D29BB300EE103AB6EE002AB8EEFA
:106CC000400A60EE020A00EE100AB8EE400AF4EE46
:106CD000C00AF1EE10FA24DD4FF6FF7101EA40011F
:106CE00020B2994206D2581A80B20021FFF737FF2E
:106CF000201A00B200EE100AF8EEC00A00EE105A98
:106D0000B8EEC00A00EE820AB5EEC00AF1EE10FA43
:106D100024DC26E0BDEEC00A10EE100A01B20846DF
:106D200030BDC3EB400080B20021FFF718FF00EE3A
:106D3000100AB8EEC00A60EE020A00EE104AB8EE81
:106D4000C00A40EE020A00EE105AB8EEC00A30EE59
:106D5000800AB5EEC00AF1EE10FA02DD30EE020A4A
:106D6000D8E730EE420AD5E770B515460C462944FF
:106D70002DED028B09B2984252D2CBB300EE100A2D
:106D8000B7EE008AB8EE401A00EE103AB8EE400AAC
:106D9000C1EE000AB0EE480A00EEE00AF1EEC00AC9
:106DA000F4EE600AF1EE10FA03D00BF0DDFCF0EE29
:106DB000400A00EE104A30EEC81AB8EEC00A18E0D9
:106DC00060CDD93FB0E62C40FF122640FF1266404E
:106DD0008C2EBA3E0000F2408C2E3A3FE9A20B3FC7
:106DE0002FBA683F5D74513F175D743F00007C3FD0
:106DF00016E0684200EE900AF8EEE00A00EE810A22
:106E0000F6EE000AB5EEC00AF1EE10FACCBF30EE95
:106E1000200A30EE600ABDEEC00A10EE100A01B280
:106E2000BDEC028B084670BD70B514460D4621447A
:106E300009B2984237D2B3B300EE100AB8EE401A46
:106E400000EE103AB8EE400AC1EE000AB7EE000AB2
:106E500070EEC00A00EEE00AF0EE400AB1EEE00A81
:106E6000B4EE400AF1EE10FA1CBFB0EE600A0BF06F
:106E70007BFC00EE905A01EE104AF8EEE00AB8EE04
:106E8000C11A41EE000AB6EE000AF5EEC00AF1EEB4
:106E900010FACCBF30EE800A30EEC00ABDEEC00A58
:106EA00010EE100A01B2084670BD70B515460C46CA
:106EB00029442DED028B09B2984240D2C3B300EEB3
:106EC000103AB6EE008AF7EE008AB8EE400A20EEDD
:106ED000081A00EE100AB8EE400AC0EE010A10EEE1
:106EE000900AB0F17E5F2EDAB0EE680A00EEE00A9A
:106EF000F1EEC00AF4EE600AF1EE10FA03D00BF0E6
:106F000033FCF0EE400A684200EE100A70EEE80A28
:106F1000B8EEC00A20EE081A00EE104AB8EEC00A19
:106F200001EE200AB5EEC00AF1EE10FA31DC33E0D2
:106F300005E000BFBDEEC00A10EE100A01B2BDECC4
:106F4000028B084670BDB0EE000A70EEC00AB0EECB
:106F5000680A00EEE00AF1EEC00AF4EE600AF1EE13
:106F600010FA03D00BF000FCF0EE400A00EE105ACD
:106F700070EEA80AB8EEC00A20EE081A00EE104A19
:106F8000B8EEC00A01EE200AB5EEC00AF1EE10FA22
:106F900002DD30EE080ACDE730EE480ACAE701EB21
:106FA000020C0FFA8CFC984229D243B300EE100A6F
:106FB000B8EE401A00EE103AB8EE400AC1EE000AF0
:106FC00000EE102AB8EEC00A20EE200A20EE201AA9
:106FD00000EE101AB8EEC00A01EE200AF6EE000A22
:106FE000B5EEC00AF1EE10FAD4BF30EE600A30EE12
:106FF000200ABDEEC00A10EE100A0FFA80FC6046AF
:10700000704701EB020C0FFA8CFC98422DD263B34F
:1070100000EE100AF8EE400A00EE103AB8EE401A00
:1070200080EE810AF7EE000A30EE600A20EE001AC8
:1070300041EE000A00EE101A01EE102AB8EEC00A66
:10704000B8EEC11A01EE200AF6EE000AB5EEC00A4B
:10705000F1EE10FAD4BF30EE600A30EE200ABDEE39
:10706000C00A10EE100A0FFA80FC60467047844692
:10707000881800B29C4528BF7047002B08BF704796
:1070800000EE103AF8EE400AB6EE000A20EE801A42
:1070900000EE90CAF8EE601AC1EE810A10EE900A76
:1070A000B0F17E5F1EDA01EE102AB8EEC11A21EEB1
:1070B000001A21EE201A61EE201A01EE101AB8EE25
:1070C000C11A01EEA01AB5EEC01AF1EE10FACCBF4B
:1070D00031EE000A31EE400ABDEEC00A10EE100A91
:1070E00000B27047B0EE001A01EE902A70EEC10AAD
:1070F000F8EEE11A20EEA02A61EE801A02EE201AC4
:1071000000EE901AF8EEE00A41EE810AF5EEC00AB0
:10711000F1EE10FAD4BF30EEC00A30EE800ADBE7A1
:1071200010B50C462DED048B114409B298423CD2A7
:10713000DBB3002802BF2046BDEC048B10BD00EE7F
:10714000100AB7EE008AF8EE400A00EE103AB8EEE8
:10715000400AC0EE808A38EE880ADFEDFB0A20EE96
:10716000200A0BF039FAB0EE409ABAEE040AF0EEBB
:10717000000A28EE800A0AF0FDFE09EE008A00EE01
:10718000104AF6EE000AB8EEC00A38EE000AB5EE74
:10719000C00AF1EE10FACCBF30EE200A30EE600AE1
:1071A000BDEEC00A10EE100A01B2BDEC048B084619
:1071B00010BD70B515460C4629442DED028B09B261
:1071C000984243D2002B41D0002802BF2046BDEC9C
:1071D000028B70BD00EE100AF8EE400A00EE103A85
:1071E000B8EE400A80EE808A9FEDD80A28EE000AA9
:1071F0000BF0F2F9F0EE408AB7EE000AF2EE040A64
:1072000038EE400A20EE200AF0EE000A0AF0B2FE44
:10721000F0EE400A00EE104AB8EEC01A00EE105A26
:1072200008EEA01AB8EEC00AF6EE000A31EE000A27
:10723000B5EEC00AF1EE10FACCBF30EE200A30EE07
:10724000600ABDEEC00A10EE100A01B2BDEC028B5E
:10725000084670BD70B50C46154601462DED068BEF
:10726000601900B2994224BFBDEC068B70BD002BA3
:1072700004BFBDEC068B70BD002902BF2046BDECEB
:10728000068B70BD00EE101AF0EE008AB7EE008A91
:10729000F8EE400A00EE103AF6EE009AB8EE400A18
:1072A00080EE809A19EE100AB0F17C5F2FDA29EE99
:1072B000280ADFEDA60A20EE200A0BF08DF9B0EEC9
:1072C00040AAB0EE480AF2EE040A19EE280A20EEAF
:1072D000200AF0EE000A0AF04DFE1AEE008A00EED7
:1072E000104AB8EEC00A08EE290AB5EEC00AF1EE5F
:1072F00010FA02DD30EE290A01E030EE690ABDEC39
:10730000068BBDEEC00A10EE100A00B270BDB0EEE2
:10731000480A19EE280AB0EE409A30EE080ADFED6E
:107320008A0A20EE200A0BF057F9B0EE408ABAEE36
:10733000040AF0EE000A29EE000A0AF01BFE48EEED
:10734000008A00EE104AF8EEC00A00EE105A48EE2D
:10735000A90AB8EEC00A30EE800AB5EEC00AF1EE16
:1073600010FACADDC6E770B515460C46294409B2C5
:10737000984237D2B3B3002804BF00EE104AF8EEAB
:10738000C00A1FD000EE100AF8EE400A00EE103AD4
:10739000B8EE401A80EE810AF7EE000A30EE600A7D
:1073A000F2EE040A60EE200AB0EE000A0AF0E2FDF6
:1073B00000EE904A01EE105AF8EEE00AB8EEC11A5B
:1073C00041EE000AB6EE000AF5EEC00AF1EE10FA40
:1073D000CCBF30EE800A30EEC00ABDEEC00A10EE1F
:1073E000100A01B2084670BD70B514460D4621441E
:1073F00009B2984230D27BB300EE100AFAEE040ACA
:10740000B8EE400A20EE201A00EE103AB8EE400A1C
:10741000C1EE000AB0EE000A0AF0ACFDF7EE000A79
:1074200030EEC01A00EE105A00EE904AB8EEC00AD4
:10743000F8EEE00A00EE810AF6EE000AB5EEC00AA8
:10744000F1EE10FAD4BF30EE600A30EE200ABDEE45
:10745000C00A10EE100A01B2084670BD70B50C46A5
:107460001546014660192DED028B00B2994224BFEA
:10747000BDEC028B70BD002B04BFBDEC028B70BD58
:10748000002902BF2046BDEC028B70BD00EE103A11
:10749000B6EE008AB8EE400A60EE080A00EE101A56
:1074A000B8EE401A81EE200AF7EE000A10EE100A3C
:1074B00030EE600AB0F17E5F24DAF2EE040A60EE8C
:1074C000200AB0EE000A0AF055FD00EE905AF8EEE0
:1074D000E00A20EE881A00EE904AF8EEE00A41EE4B
:1074E000000AF5EEC00AF1EE10FACCBF30EE880AC1
:1074F00030EEC80ABDEEC00ABDEC028B10EE100AD9
:1075000000B270BDFAEE040A60EE200AB0EE000A86
:107510000AF030FDF0EE000A70EEC00A00EE105ADC
:10752000B8EEC00A20EE081A00EE104AB8EEC00A03
:1075300001EE200AB5EEC00AF1EE10FAD4BF30EE2B
:10754000480A30EE080AD5E7E25CA3C1E25CA34139
:1075500001EB020C0FFA8CFC984227D233B300EEF9
:10756000102AF8EEC00A00EE100AB8EE400A60EEEB
:10757000800A00EE103AB8EE400A80EE801A00EE63
:10758000101AF6EE000AB8EEC00A31EE000AB5EEA7
:10759000C00AF1EE10FAD4BF30EE600A30EE200AD5
:1075A000BDEEC00A10EE100A0FFA80FC604670476C
:1075B00001EB020C0FFA8CFC984227D233B300EE99
:1075C000102AF8EEC00A00EE100AB8EE400A60EE8B
:1075D000800A00EE103AB8EE400A80EE801A00EE03
:1075E000101AF6EE000AB8EEC00A31EE000AB5EE47
:1075F000C00AF1EE10FAD4BF30EE600A30EE200A75
:10760000BDEEC00A10EE100A0FFA80FC604670470B
:1076100001EB020C0FFA8CFC984227D233B300EE38
:10762000102AF8EEC00A00EE100AB8EE400A60EE2A
:10763000800A00EE103AB8EE400A80EE801A00EEA2
:10764000101AF6EE000AB8EEC00A31EE000AB5EEE6
:10765000C00AF1EE10FAD4BF30EE600A30EE200A14
:10766000BDEEC00A10EE100A0FFA80FC60467047AB
:1076700001EB020C0FFA8CFC984227D233B300EED8
:10768000102AF8EEC00A00EE100AB8EE400A60EECA
:10769000800A00EE103AB8EE400A80EE801A00EE42
:1076A000101AF6EE000AB8EEC00A31EE000AB5EE86
:1076B000C00AF1EE10FAD4BF30EE600A30EE200AB4
:1076C000BDEEC00A10EE100A0FFA80FC604670474B
:1076D00001EB020C0FFA8CFC984227D233B300EE78
:1076E000100AB8EE401A00EE103AB8EE400AC1EEA9
:1076F000000A00EE102AB8EEC00A20EE201A00EEB2
:10770000101AB8EEC00A01EE200AF6EE000AB5EE35
:10771000C00AF1EE10FAD4BF30EE600A30EE200A53
:10772000BDEEC00A10EE100A0FFA80FC60467047EA
:1077300001EB020C0FFA8CFC98422CD25BB300EEEA
:10774000100A5042F8EE400A00EE103AB8EE401A25
:1077500080EE810A00EE900AB0EE001AF8EEE00A20
:1077600060EE800A30EE411A00EE101AB8EEC00A40
:1077700000EE810AF6EE000AB5EEC00AF1EE10FA4C
:10778000D4BF30EE600A30EE200ABDEEC00A10EE23
:10779000100A0FFA80FC604670478446881800B2D1
:1077A0009C4528BF7047002B08BF704700EE103A79
:1077B000F8EE400AB6EE000A20EE801A00EE90CAFB
:1077C000F8EE601AC1EE810A10EE900AB0F17E5F09
:1077D0001CDA01EE102AB8EEC11A21EE001A61EE91
:1077E000201A01EE101AB8EEC11A01EEA01AB5EE79
:1077F000C01AF1EE10FACCBF31EE000A31EE400AA9
:10780000BDEEC00A10EE100A00B27047B0EE001ACA
:10781000504270EEC10A01EE900AF8EEE11A10EE45
:10782000A01A00EE901A61EE801AF8EEE00A41EE1E
:10783000810AF5EEC00AF1EE10FAD4BF30EEC00AAC
:1078400030EE800ADCE701EB020C0FFA8CFC984268
:107850002BD253B300EE100AF8EE400A00EE103AB5
:10786000B8EE401A80EE810A00EE902AF8EEE00AA7
:1078700060EE800A60EE800A20EE801A00EE901A18
:10788000F8EEE00A41EE000AB6EE000AF5EEC00A94
:10789000F1EE10FAD4BF30EEC00A30EE800ABDEE31
:1078A000C00A10EE100A0FFA80FC6046704701EB28
:1078B000020C0FFA8CFC984230D27BB300EE100A17
:1078C0005042F8EE400A00EE103AB8EE401A80EE50
:1078D000810AF7EE000A30EE600A20EE001A21EE6F
:1078E000001A51EE000A00EE101A01EE100AB8EE6E
:1078F000C00AB8EEC11A01EE200AF6EE000AB5EE93
:10790000C00AF1EE10FAD4BF30EE600A30EE200A61
:10791000BDEEC00A10EE100A0FFA80FC60467047F8
:107920008446881800B29C4528BF7047002B08BFCA
:10793000704700EE103AF6EE000AB8EE400A20EE6C
:10794000201A00EE10CAF8EE401A81EE810A10EEFD
:10795000100AB0F17E5F20DA01EE102AB8EEC11AEB
:1079600021EE201A21EE001A21EE001A61EE001A13
:1079700001EE101AB8EEC11A01EE801AB5EEC01A67
:10798000F1EE10FACCBF31EE200A31EE600ABDEE06
:10799000C00A10EE100A00B27047B0EE001A504252
:1079A00030EE410A01EE900A20EE002AF8EEE11ACC
:1079B00022EE002A61EEA01A12EE001A00EE101A52
:1079C000B8EEC00A01EE810AB5EEC00AF1EE10FA77
:1079D000D4BF30EE600A30EE200AD8E701EB020C8B
:1079E0000FFA8CFC98422DD263B300EE100AF8EE29
:1079F000400A00EE103AB8EE401A80EE810A00EE1E
:107A0000902AF8EEE00A60EE800A60EE800A60EEEE
:107A1000800A20EE801A00EE901AF8EEE00A41EE9D
:107A2000000AB6EE000AF5EEC00AF1EE10FAD4BF75
:107A300030EEC00A30EE800ABDEEC00A10EE100A29
:107A40000FFA80FC6046704701EB020C0FFA8CFCC9
:107A5000984231D283B300EE100AF8EE400A00EEED
:107A6000103AB8EE401A80EE810AF7EE000A30EEC6
:107A7000600A20EE001A21EE001A21EE001A41EEF3
:107A8000000A00EE101A01EE102AB8EEC00AB8EE95
:107A9000C11A01EE200AF6EE000AB5EEC00AF1EEB8
:107AA00010FAD4BF30EE600A30EE200ABDEEC00AF4
:107AB00010EE100A0FFA80FC604670478446881862
:107AC00000B29C4528BF7047002B08BF704700EEEE
:107AD000103AF6EE000AB8EE400A20EE201A00EE48
:107AE00010CAF8EE401A81EE810A10EE100AB0F1C9
:107AF0007E5F22DA01EE102AB8EEC11A21EE201ABA
:107B000021EE001A21EE001A21EE001A61EE001A91
:107B100001EE101AB8EEC11A01EE801AB5EEC01AC5
:107B2000F1EE10FACCBF31EE200A31EE600ABDEE64
:107B3000C00A10EE100A00B27047B0EE001A01EE53
:107B4000902A30EE410AF8EEE11A20EE002A61EEAA
:107B5000A01A22EE002A22EE002A02EE001A00EEFF
:107B6000101AB8EEC00A01EE810AB5EEC00AF1EEB5
:107B700010FAD4BF30EE600A30EE200AD7E770B5B5
:107B800014460D46214409B2984231D283B300EE27
:107B9000100AF8EE400A00EE103AB8EE401A80EEF5
:107BA000810ADFED4C0A20EE200A0AF03BF9604220
:107BB00000EE904A01EE100AF8EEE00AB8EEC11AA3
:107BC00041EE000A00EE105AB8EEC00A30EE800A0C
:107BD000F6EE000AB5EEC00AF1EE10FAD4BF30EEB0
:107BE000600A30EE200ABDEEC00A10EE100A01B2A3
:107BF000084670BD70B514460D46214409B298423E
:107C00002AD24BB300EE100AF8EE400A00EE103A0A
:107C1000B8EE401A80EE810ADFED2E0A20EE200A2F
:107C20000AF0DAFC00EE905A01EE104AF8EEE00A93
:107C3000B8EEC11A41EE000AB6EE000AF5EEC00A2F
:107C4000F1EE10FAD4BF30EEC00A30EE800ABDEE7D
:107C5000C00A10EE100A01B2084670BD70B5154694
:107C60000C46294409B2984231D283B300EE100A7F
:107C7000DFED190AB8EE400A60EE200A00EE103A75
:107C8000B8EE401A80EE810A0AF0CCF8F7EE000A4E
:107C9000684230EE601A00EE100AF6EE000AB8EE06
:107CA000C00A60EE201A00EE104AB8EEC00A01EEDB
:107CB000810AB5EEC00AF1EE10FAD4BF30EE600AC8
:107CC00030EE200ABDEEC00A10EE100A01B20846DE
:107CD00070BD0000DB0FC93FDB0F49400FB4C9493D
:107CE00010B5C84A496804ABD2F800C000EB610087
:107CF00011F0010F02D0016851F80CC00021039A65
:107D0000E04710BC5DF814FB0FB4BE4A10B5DFF8B5
:107D1000F4C2526805ABDCF800C000EB620012F060
:107D2000010F02D0026852F80CC0049AE04710BC60
:107D30005DF814FB10B50268D2689047002808BFB0
:107D400010BD417B11F0800118BF4FF48071807A23
:107D5000084310BD0FB430B597B005461CAC68465B
:107D600003F0D3FF2868416C284688470346224623
:107D700068461B9903F0FAFF002001461690FF2485
:107D800016AB2A46684604F00AFD00B30A281CBF59
:107D90001698002813D0417B11F0400218BF4FF411
:107DA0007E4211F0200118BF4FF480711143007A18
:107DB00008432979081AC0B2A04238BF044616AB5E
:107DC0002A460021684604F0EAFC0028DED117B0FC
:107DD000204630BC5DF814FB0FB430B597B00546B3
:107DE0001CAC684603F091FF2868416C2846884720
:107DF0000346224668461B9903F0B8FF002416ABE1
:107E00002A4621466846169404F0C9FC002829D069
:107E10000A281CBF169800281CD0417B11F0400294
:107E200018BF4FF47E4211F0200318BF4FF4807347
:107E30001A43037A1A43AB8812B29A1A11F010014E
:107E400018BF4FF48071C0790843104480B2A0423B
:107E5000C8BF04B216AB2A460021684604F09FFC56
:107E60000028D5D117B0A0B230BC5DF814FB0FB418
:107E700030B597B005461CAC684603F046FF29684C
:107E80002846496C88470346224668461B9903F0FA
:107E90006DFF0124684603F08CFF40B10A2804BF3F
:107EA000601C04B2684603F084FF0028F6D117B0C6
:107EB000A0B230BC5DF814FB2DE9F04798B007463E
:107EC0001C4615468A46684603F01FFF3868416C19
:107ED00038468847034622462946684603F046FF4F
:107EE00000252E462C46A946A04616AB3A465146DA
:107EF0006846CDF8589004F052FC040018BF0A2CD4
:107F00001BD0169A002AEFD0386894884146C36B7C
:107F10003846984701461698427B12F0800218BFF7
:107F20004FF48072807A10430844284485B2002CB4
:107F3000DAD118B03046BDE8F087B54288BF2E468A
:107F40000025F4E72DE9FF4FB7B006461D4614465D
:107F500008A803F0DAFE3068426C304690470346CA
:107F60002A46214608A803F001FF1EA803F0CDFE13
:107F70003068426C3046904703462A4621461EA888
:107F800003F0F4FE002508A8389904F09BF91E4F71
:107F9000DFF878B0ADF8D00000240DF120080DF125
:107FA000780947F6FF7A00BFADF8D440396891F8F8
:107FB000760000281ABFC86C00288868CDE905A49F
:107FC0000794DBE90012CDE9031234A9CDE90018CA
:107FD000CDF80890324635A9389B01F06AFEBDF90C
:107FE000D410A942C8BF8DB218B11EA8389904F0A8
:107FF00069F9BDF8D0000028D6D13BB02846BDE8CD
:10800000F08F000038030020A4030020904F0108E7
:10801000054908607047014603480068002808BF0A
:1080200070470268126810479003002010B504469C
:1080300009F08AF960680168C9688847E0680168E2
:10804000896888472068816E2046BDE8104008474F
:1080500004460068416F204688472068C16E20466C
:10806000884700BF09F0A4F92068416E2046884780
:10807000F8E7012180F84B1080F869107047012162
:1080800080F84B1080F869107047416801224A72ED
:1080900040680168096908474068016889680847BD
:1080A00070B5FB4D0446687848B96068FEF7A2FADF
:1080B000002818BF616802D04A7A002AFCD009F073
:1080C00093F9687840B12068816A20468847E16B5F
:1080D000884204BF206C70BDE06B70BD09F07AB9B6
:1080E000704708467047002B04BF0120704730B42A
:1080F000D007B0EBC17F18D0B3F1004FA3F101005E
:1081000007D300BF12F8013B01F8013B401EF9D232
:1081100074E0B0F1FF3F71DD12F8013B401E01F841
:10812000013BB0F1FF3FF7DC68E012F0010F04D033
:1081300012F8010B01F8010B5B1E0124012B27D95A
:108140009007B0EB817F1BD0B3F1004F08D300BF85
:1081500032F8020B9B1E21F8020B012BF8D817E016
:1081600003EBD37C012004EB6C0C05E032F8025BDE
:108170009B1E21F8025B401C8445F7DC012B07D9CC
:1081800012F0030F04D032F8020B21F8020B9B1EF1
:10819000B3F1004F08D300BF52F8040B1B1F41F886
:1081A000040B032BF8D81CE00120DD1703EB957CB2
:1081B00004EBAC0C06E000BF52F8044B1B1F41F867
:1081C000044B401C8445F7DCB3F1004F09D3581E23
:1081D00033B100BF12F8013B01F8013B401EF9D258
:1081E0000CE0581EB0F1FF3F08DD00BF12F8013B64
:1081F000401E01F8013BB0F1FF3FF7DC30BC01202D
:108200007047704710B500200C2928BF10BDDFE86B
:1082100001F00A08060C0C0C0C0E0E0E0E0E20209F
:1082200010BD182010BD102010BDAFF30080082035
:1082300010BD70B50020DDE904549C460C2C10D212
:10824000DFE804F00A08060C0C0C0C0E0E0E0E0EE5
:10825000202006E0182004E0102002E0AFF30080A8
:10826000082005FB0211C00801FB00C070BD2DE90C
:10827000F04F89B00446DDE915B0DDE91858DDE9B5
:10828000127A4FF0000EDDF85CC0DDF850901A9EB7
:10829000CDF818E0B8F1020F2DD0FF2828BFBCF1AF
:1082A000000F0CBF4FF0010C4FF0040CCDF800C0D4
:1082B000CDE901128DF81C007548ADF810A0ADF89D
:1082C0001290ADF814B040789B4640B12068816AA6
:1082D00020468847E16B884208BF216C00D0E16BE3
:1082E00000200C2E18D2DFE806F0141210383838AF
:1082F000381616161616FF2828BFBCF1000F14BF3B
:108300004FF0400C4FF0200CD0E7202004E0182064
:1083100002E0102000E0082005FB07B2C00802FBC5
:1083200000108DF81D800390ADF816508DF81E607A
:10833000BAF1000F18BFB9F1000F0ED02068816BA1
:10834000204688470099084207D0606801684A685B
:108350006946904709B0BDE8F08FAFF300802DE982
:10836000F0478AB00DF1480EBEE8F0178DE8F81717
:1083700013460022FFF77BFF0AB0BDE8F0872DE926
:10838000FF4F89B0424CDDE919762169DDE9179884
:1083900091F87600DDF858A01D46934600281ABFD4
:1083A000C86C002888680168496A88476189CDE9F6
:1083B0000610CDE9005A0890CDE90476CDE902987F
:1083C000DDE909015B460022FFF751FF0DB0BDE872
:1083D000F08F2DE9FF4F2E4C89B08B462169DDE9E6
:1083E0001876DDE9169891F876001D469246002829
:1083F0001ABFC86C002888680168496A8847628982
:108400000123CDF80880CDE905320221CDE907101E
:10841000CDE90059CDE90376534600225946099823
:10842000FFF725FF0DB0BDE8F08F2DE9F0411848AA
:108430000E461546016947891C4691F876000028CA
:108440001ABFC86C002888680168496A88474FF0DD
:10845000000C0C2814D2DFE800F00C09060F0F0FF7
:108460000F11111111114FF0200C09E04FF0180CF1
:1084700006E04FF0100C03E0AFF300804FF0080C63
:1084800007FB05604FEADC0100FB0140BDE8F0811D
:10849000940300202DE9F04788B09946DDE9116387
:1084A00092460446DDE91402109F4FF0000CCDF80F
:1084B00018C0CDE90021DDF84C80ADF81070ADF8A2
:1084C0001260ADF814308DF81C00FE4D687848B18C
:1084D0002068816A20468847E16B884204BF2046B5
:1084E000236C01D0E36B20464A465146FFF79DFFBF
:1084F00003906889ADF81600296991F87600002884
:108500001ABFC86C002888680168496A88478DF8D6
:108510001E008DF81D00002F18BF002E10D02068FF
:10852000816B204688470099084209D0CDF8188011
:10853000606801684A686946904708B0BDE8F087FE
:10854000AFF300802DE9FF4F89B04FF00009DDE95E
:1085500017BADDE919650446CDF81890BAF1FF0F96
:1085600034BF082002209046CDE90009D5481F46B7
:10857000407840B12068816A20468847E16B884294
:1085800008BF216C00D0E16B00200C2D0ED2DFE87B
:1085900005F00A0806333333330C0C0C0C0C202086
:1085A00004E0182002E0102000E0082006FB07820B
:1085B000C00802FB001003901698ADF81000ADF84B
:1085C0001490ADF816608DF81CA00A988DF81D5017
:1085D000ADF812B006908DF81E502068816B2046D1
:1085E00088470099084207D0606801684A68694670
:1085F00090470DB0BDE8F08FAFF300802DE9F04F4C
:10860000B04C85B08B4621690546DDE90F7691F8BF
:108610007600DDF838809946924600281ABFC86C6B
:10862000002888680168496A88476189CDF8008018
:10863000CDE90310CDE9017628684B465246D0F8C3
:1086400050C059462846E04705B0BDE8F08F816527
:108650001C3003F075B9F0B59A4E044689B0B07875
:108660000F461546002834D00020069001200090C7
:108670002068816A2046884703463A0CB9B22046F2
:10868000FFF7D3FE0190606C0390ADF81050280CFA
:10869000ADF812007089ADF81400ADF8160031691C
:1086A00091F8760000281ABFC86C00288868016815
:1086B000496A88478DF81D008DF81E00FF208DF84F
:1086C0001C00606801684A6869469047606C09B0A0
:1086D000F0BDAFF300802DE9F04188B005460020E1
:1086E00006900120009028680F461E46816A1446B5
:1086F000DDF838802846884703463A0CB9B2284648
:10870000FFF793FE0190ADF81040200CADF8120079
:108710006C4803964189ADF81410ADF816800169D4
:1087200091F8760000281ABFC86C00288868016894
:10873000496A88478DF81D008DF81E00FF208DF8CE
:108740001C00686801684A686946904708B030466E
:10875000BDE8F08110B5044690F86A00002808BF13
:1087600010BD022009F058F9002084F86A0084F84E
:1087700069005448407840B12068816A20468847A3
:10878000E16B884208BF216C00D0E16B2068D0F813
:10879000A8202046BDE8104010472DE9F04383B0E3
:1087A00005460F4680690A9999461646002837D033
:1087B0000022029202AACDE9001201683246D1F8E5
:1087C00000C03946E0473F4C8046A4F80A90216932
:1087D00091F8760000281ABFC86C002888680168E4
:1087E000496A88470C2817D2DFE800F0060E1A1AEB
:1087F0001A1A1A1A1A1A1A1A6089029906FB0070B4
:10880000404201EB400006E06089029906FB0070DF
:10881000A0EB80000844E86303B04046BDE8F08365
:10882000AFF3008010B504464FF0030059B109F0D2
:10883000F0F82069002808BF10BD01684A69BDE84A
:1088400010400121104709F0E6F82069002808BF10
:1088500010BD01684A69BDE8104000211047006959
:10886000002808BF704701680969084700B583B050
:108870004FF0000CADF800C0ADF804C0ADF802C078
:10888000ADF806C0D0F800C06B46DCF898C0E047F1
:1088900003B000BD2DE9F04F064693B01D460C46CF
:1088A00090461046FDF7C2F8002804BF13B0BDE89B
:1088B000F08F044F38690168096A88473869016890
:1088C000496A01E0940300208847ADF83C8078892C
:1088D0000E90B8890D900FA8FCF719FB78810FA8AE
:1088E000FCF738FBB8813869C16B0C91006C0190C2
:1088F0004046FDF79BF8396900220864C863206888
:10890000B4F80490B4F80680436B114620469847AB
:1089100094F82570012084F82500B5F904A0211DE4
:10892000BAF1000F1CBFE88800287DD006A809F026
:1089300033FAB5F90020BDF9180002EB0A0C8445A2
:1089400073DDBDF91C1000EB010A92456DDDB5F930
:1089500002B0B5F906100BEB0103BDF91A108B42FA
:1089600063DDBDF91E300B445B457EDD9042D8BF10
:1089700010465945D8BF59460FFA8AF20FFA8CFCB7
:108980006245A8BF6246121AADF81C201AB26B8865
:10899000B5F806C063441BB29A42A8BF1A46521AE1
:1089A000ADF81800ADF81E20ADF81A10DDE906018B
:1089B000CDE90801C34D286990F8761000291ABF47
:1089C000D0F84CA0BAF1000FD0F808A00FA8FCF71F
:1089D0006CFA8346DAF80000416A504688478345BE
:1089E0001CBFF06C00280BD00FA8FCF75EFA824683
:1089F000F06C0168496A8847824508BF012000D0B1
:108A0000002086F876000020D4F814A06061206869
:108A100008A98268204690470020C4F814A086F870
:108A2000760084F8257001E01BE01EE020680FFA54
:108A300088F20FFA89F1436B2046984728690C9910
:108A4000C163019901640E9969810D99A981016839
:108A5000096A884728690168496A884713B0BDE8F0
:108A6000F08F08A809F098F9A4E70020ADF81800E5
:108A7000ADF81C00ADF81A00ADF81E0096E7F0B591
:108A80000446006885B0D0F8A010204688478D4F76
:108A90000026002800F0A880012008F0BAFF94F812
:108AA000660084F8670084F8666084F84B6094F888
:108AB000750030B12068D0F8B4102046884784F89B
:108AC000756094F84A10606800290CBF01210021EC
:108AD00041720125FD70FBF7F7FA01680A6B01216D
:108AE000904794F86700002808BF84F86750FBF7A8
:108AF000EBFA016849698847A06D016809698847F0
:108B000094F86700401EC0B284F8670094F86810BB
:108B1000002918BF0028EAD13879401C40B23871CA
:108B200094F96410814214DC3E71E06802AA016885
:108B3000CB6801A998470028206806D0DDE901121A
:108B4000D0F8AC302046984703E0D0F8B01020466B
:108B500088478DF80060606950B10168CA6869464D
:108B6000904728B1A06D0168CA689DF80010904731
:108B700004F11C0002F0E6FE94F86C0000282DD0F1
:108B800020690168096988470546206F002808BFE9
:108B90002567206F4C49281A88421FD9206901682F
:108BA000896988470146206F484A281AA2FB00209D
:108BB0004009B1FBF0F00028D8BF642006DD64282E
:108BC000ACBF84F86560C0F1640001DA84F8650028
:108BD00020690168CA69002190472567FBF774FA8C
:108BE00001680A6B002190472068D0F8A410204645
:108BF0008847012008F00FFFFE7005B0F0BD314935
:108C0000497800291BBF90F86A0000280120002045
:108C1000704710B50446406801688968884794F831
:108C2000690000281CBF012084F86A0010BD10B53F
:108C300084B00446CDE9021202A804F014FE02A892
:108C400003A902F027FE94F86B000028039817D0C0
:108C500080B20090029883B2B4F8600082B2B4F897
:108C60005C0081B204F11C0002F07CFE002804BF0D
:108C700004B010BD0298E0650398206604B010BDF2
:108C800083B20298002182B204F11C0002F0ADFE12
:108C9000012084F86B00EDE710B5044690F86B00F6
:108CA000002808BF10BDB4F86000012183B2B4F8F9
:108CB0005C0082B204F11C0002F097FE002084F8F0
:108CC0006B0010BD9403002000E1F5051F85EB51FA
:108CD00030B583B0DDE90745DDF818C0ADF8001008
:108CE000ADF80430ADF80220ADF806C001682B469F
:108CF0002246D1F81CC06946E04703B030BD30B50C
:108D000083B0DDE90745DDF818C0ADF80010ADF817
:108D100004C0ADF80220ADF8063001682B462246AB
:108D2000D1F81CC06946E04703B030BD2DE9F047DB
:108D300082B00D46B1F80090B1F802C0C9880A9F10
:108D4000ADF80090ADF80420ADF802C0ADF8061003
:108D5000016898461446D1F81CC006463B46424678
:108D60006946E047B5F90010B5F9042030461144D2
:108D70004FF0FF3909FA81FCB5F802A0E988ADF897
:108D800000C0ADF80440ADF802A0ADF8061031689F
:108D90003B464246D1F81CC06946E047B5F800C0E2
:108DA000B5F802A0A988ADF800C0ADF80410ADF880
:108DB00002A0ADF80640316830463B46D1F81CC0F1
:108DC00042466946E047B5F90210B5F90620B5F804
:108DD00000C03046114409FA81F6A988ADF800C0F8
:108DE000ADF80410ADF80260ADF8064001684246E7
:108DF0003B46D1F81CC06946E04702B0BDE8F087A9
:108E000008B5009313460122FFF790FF08BD0FB489
:108E1000DFF848C410B5DCF804C082B000EB6C0089
:108E20001CF0010FDFF834C41A46089BDCF800C0C0
:108E30000AA902D0046854F80CC001910999009164
:108E400005A9E04702B010BC5DF814FB2DE9FF4F07
:108E5000D1B01F46154680469369D06AD5E9012CEA
:108E6000DDE95E64DDE961A9FD49DDF880B18C458D
:108E7000C7BFD5F81CC08C4555B0BDE8F08FD5F8FC
:108E800030C08C45DCBF55B0BDE8F08FD5F800C0D0
:108E9000F449CDF814C08C45C7BFD5F814C08C4533
:108EA00055B0BDE8F08FD5F828E0EE49CDF80CE0DC
:108EB0008E45DCBF55B0BDE8F08FEB49DDF814E01E
:108EC0008E45D2BF8C4555B0BDE8F08FDDF80CC0A3
:108ED0008C45B9BFDFF88CC3944555B0BDE8F08F21
:108EE0009C45B2BF844555B0BDE8F08F8A42D2BFE1
:108EF0008B4255B0BDE8F08F8842A4BF55B0BDE8A5
:108F0000F08F9A4221DA90420ADA02200390002080
:108F1000049001200590002002900120019020E0A3
:108F200000210391834207DA01200490022005907A
:108F300001200290022013E00220049001200590FD
:108F400002200290012001900BE098422FDA0220CB
:108F50000390012004900020059001200290002041
:108F60000190294640A804F093F8059800902A46FD
:108F700040A910A8039B04F038FA049800902A46F0
:108F800040A930A8039B04F030FA059800902A46C7
:108F900040A920A8049B04F028FADDE901018842D9
:108FA00019DD00200A9010A8089030A818E00121CF
:108FB0000391824207DA00200490022005900320EA
:108FC00002900220CCE702200490002005900220AD
:108FD00002900320C4E701200A9030A8089010A84E
:108FE00009900898B6F90210B4F906C04269B4F9BC
:108FF0000200369D531884449C4508DD9842C8BF42
:10900000002D12DD1144401A0690A84200DD06959D
:109010000698002809DD014630A808F0B0FC10A829
:10902000069908F0ACFC06982D1A281EA5F101053A
:109030007DDD00BFCDE9034BCDE905A90998CDE958
:1090400000070296D8F8000040AA089BD0F83CC060
:1090500040465299E0470898B6F90210B4F9022048
:1090600040690844411CB4F9060010448142A4BF81
:1090700055B0BDE8F08FDDE93001084430903598F7
:10908000401C35903698401E36909DED3A0ADDED35
:109090003B0A30EE200A8DED3A0ADDED3D0A9DEDEA
:1090A0003E1A30EE811A8DED3D1ADDED370ADDED09
:1090B000381A70EEA10ACDED370A32993498084477
:1090C00033993490884217DB3098401C30903498A4
:1090D000401A3490DDED391A70EEA10ACDED370A51
:1090E000DDED3C0A30EE200A8DED3A0A9DED3F0A97
:1090F00031EE000A8DED3D0ADDE9100108441090C3
:109100001598401C15901698401E16909DED1A0A51
:10911000DDED1B0A30EE200A8DED1A0ADDED1D0A89
:109120009DED1E1A30EE811A8DED1D1A00E02BE028
:10913000DDED170ADDED181A70EEA10ACDED170A64
:1091400012991498084413991490884217DB1098C8
:10915000401C10901498401A1490DDED191A70EE0E
:10916000A10ACDED170ADDED1C0A30EE200A8DEDC7
:109170001A0A9DED1F0A31EE000A8DED1D0A281E08
:10918000A5F101053FF756AF0A98269D002804BFB8
:1091900010A8089020A81CBF089010A80990089853
:1091A000B6F90230B4F906C04269B4F90200D11828
:1091B00084448C4508DD8842C8BF002D12DD991813
:1091C000401A0690A84200DD06950698002809DDA1
:1091D000014620A808F0D3FB10A8069908F0CFFBA1
:1091E00006982D1A281EA5F10105DCBF55B0BDE873
:1091F000F08F00BFCDE9034BCDE905A90998CDE972
:1092000000070296D8F8000040AA089BD0F83CC09E
:1092100040465299E0470898B4F902204169B6F9EE
:1092200002000844411CB4F9060010448842DCBF27
:1092300055B0BDE8F08FDDE9200108442090259865
:10924000401C25902698401E26909DED2A0ADDEDB3
:109250002B0A30EE201A8DED2A1A07E05003002069
:1092600000002041008FFDFF007102009DED2D0ADE
:10927000DDED2E0A30EE200A8DED2D0ADDED270AF8
:10928000DDED281A70EEA10ACDED270A2299249867
:10929000084423992490814217DC2098401C209098
:1092A0002498401A2490DDED291A70EEA10ACDED24
:1092B000270ADDED2C0A71EE200ACDED2A0ADDED3C
:1092C0002F0A30EE200A8DED2D0ADDE91001084449
:1092D00010901598401C15901698401E16909DED04
:1092E0001A0ADDED1B0A30EE200A8DED1A0ADDEDBB
:1092F0001D0A9DED1E1A30EE811A8DED1D1ADDED51
:10930000170ADDED181A70EEA10ACDED170A1299B1
:109310001498084413991490884217DB1098401C45
:1093200010901498401A1490DDED191A70EEA10AED
:10933000CDED170ADDED1C0A30EE200A8DED1A0A7C
:109340009DED1F0A31EE000A8DED1D0A281EA5F1C4
:1093500001053FF74FAF55B0BDE8F08F30B587B08E
:10936000002A04BF07B030BD012A1DD0022A30D028
:10937000032A1CBF07B030BD04ABCA88C188B0F84F
:1093800002C0521AA2EB0C02B0F800C08488ADF8FB
:109390001410ADF81020ADF812C0ADF81640194603
:1093A00008F0FAFC07B030BD8A8881880488521A18
:1093B000121BB0F802C0C488ADF80440ADF800C07C
:1093C000ADF80610ADF80220694608F0E5FC07B0DC
:1093D00030BDB1F804C082880488ACEB020CACEB61
:1093E000040CCC88C1884588641AADF80C2002AB07
:1093F000641BADF808C0ADF80E10ADF80A40194670
:1094000008F0CAFC07B030BDB0F900C0012B08D08D
:10941000022B0BD0032B0CBF0CEB02000CEB01005A
:109420007047B0F904006044801A03E0B0F904000A
:109430006044401A401E7047B0F902C0012B04BFBF
:109440000CEB01007047022B0AD0032B1CBF0CEB66
:1094500002007047B0F906006044401A401E704791
:10946000B0F906006044801AF8E72DE9FF4F97B085
:1094700000242598DDE9298203888088269D1844E8
:1094800000B21190286824994746437A1493007AD1
:109490000F90B1F900000E940C9032B1287C042892
:1094A0000CBF0220012000EB08070026002FC4BFDC
:1094B0004FF6FF6A42F20B0B40F312810020A146E7
:1094C0000D9046450EDB28680168496988470446C7
:1094D000286815AB10AA0168D1F808C02146E047FA
:1094E0000D900AE015A910A8CDE90001DDE92710CB
:1094F0000DAB2A6803F09FF90446544518BF5C453C
:1095000000F0D680002C00F0EB800A2C00F0E48004
:109510000D98002818BF84880FD128680168096950
:109520008847504518BF584500F0C2800D98002864
:1095300004BF00200E9000F0BB80279818B90C994A
:109540000E9808440C900D9A507B10F0800018BFC4
:109550004FF48070917A08430E902798012803D128
:109560000E990C98401A0C902798B9F1000F14D05E
:10957000002828680168CB6B494604D098470C99AD
:10958000081A0C900DE098470C9908440C900F991C
:10959000411A119881427DDC10E0002808BF0C9828
:1095A000F5D02798012809D10E990C9801441498F8
:1095B00001442598B0F9000081427DDB0D98417B84
:1095C00011F0080118BF4FF4807182790A430C9999
:1095D0000A4490F9091025980A44B0F90000824223
:1095E00066DB0C9A0A441199914261DD0C994FF0A7
:1095F0000009884202DD401A1FFA80F9002000901D
:1096000028680168C96A88470D9B5A7B12F040019F
:1096100018BF4FF47E4112F0200C18BF4FF4807C2D
:1096200041EA0C0193F808C041EA0C01411A1A986A
:10963000084401B225980191B0F9020088420DDD7D
:1096400012F0100218BF4FF48072DB791A430A44FB
:1096500082422DDB0190401A80B200902868016898
:10966000896B8847AB79AA7B9DF854100B93CDE9A1
:109670000912A968089125990D9B109ACDE9062039
:10968000CDE904130C9B009A4B44CDE902921BB226
:10969000009300E010E012A8199908F07DFB1798DC
:1096A0000068D0F840C0DDE91701DDE91223E0478A
:1096B000761CBE42FFF602AF94B10A2C1CBF741C8C
:1096C000444509DADDE9271002F0FCFD40B10A2823
:1096D0001CBF641C4445F5DB1BB00020BDE8F08FC7
:1096E0001BB00120BDE8F08F2DE9FF4F4FF00006C1
:1096F00081B09B46B2F10009884634463546C8BF62
:109700004FF0000A25DD27466B4642465946CDF804
:1097100000A0019803F043F8040018BF0A2C18D0E9
:10972000009A9AB1D8F8000094883946C36B404635
:10973000984701460098427B12F0800218BF4FF410
:109740008072807A10430844304486B26D1C4D45C7
:10975000D9DB05B03046BDE8F08F10B4C48AB0F84C
:1097600012C0E41AA444A0F812C0B0F814C06244B5
:1097700042830CEB01028282C382028B511A018365
:1097800010BC70472DE9F04F83B04FF0000B04463A
:10979000CDF808B0407A5FEA0109D846DA4629D008
:1097A000032818BF042822D0012818BF4FF0000852
:1097B0001DD002280CBF4FF0010A4FF0000A00260E
:1097C0006682A68242F20B05019600962788217ACE
:1097D0006B46E268606802F0E2FF2080C0B1E18A77
:1097E000491CE1820A2813D0009A12B323E04FF0FB
:1097F0000108DEE703281ABF04284FF0000B4FF0E2
:10980000010B012816BF0228012000200290D6E794
:10981000638AE28A208B1A446282A28A002102446F
:109820006283A28A1044A082E182268303B0BDE84D
:10983000F08FA842C9D10023A84212D0908820807E
:10984000E0680168CB6B3946984701460098427B37
:1098500012F0800218BF4FF48072807A10430844DF
:1098600083B22188202918BFA94204D1202F1EBF0E
:10987000AF42208B0190208BC21892B22283A38A20
:10988000B4F810E003EB020CF4458CBF0123002375
:10989000B9F1000F2BD0B8F1000F06D1BAF1000FCB
:1098A00009D0202918BFA94205D1A08B604470457A
:1098B0000FD9608A68B1002B1CBF608A002884D051
:1098C0000120A077608BA18B0844608303B0BDE8C2
:1098D000F08F618AE38A002019446182A18A1144D1
:1098E0006183A18A1144A182E08226836DE7BBB324
:1098F000BBF1000F12D0E38A628A5B1E1A446282B7
:10990000A28A012102446283A28A0244A282E182E5
:10991000218B081A208303B0BDE8F08F029A002A39
:109920003FF453AF202918BFA9421AD0202F18BFE7
:10993000AF4216D1B4F816C0638AACF1010C63448F
:1099400001996382A38A01221944618399B2014477
:10995000A182E282218B081A208303B0BDE8F08F38
:1099600009E020291EBFA942608A00283FF42DAFDC
:1099700003B0BDE8F08F202918BFA9423FF425AFFE
:10998000202F18BFAF427FF420AFB4F816C0638A0F
:10999000ACF1010C634401996382A38A012219444A
:1099A000618399B20144A182E282218B081A20834B
:1099B0000BE72DE9FF4FDDB01C46DDE96A56002DAF
:1099C00019BF2068002861B0BDE8F08FA07B002897
:1099D00004BF61B0BDE8F08F114654A808F0DCF96F
:1099E0005E985E9A00218088D288ADF82010ADF88C
:1099F0002400ADF82210ADF82620A27908A954A8B9
:109A0000FFF7ACFC08A9A2790846FFF7A7FC3EA81F
:109A100002F07BF920680168496C884703463246AA
:109A2000B24629463EA802F0A1F928A802F06DF935
:109A30002079002808BF4FF000080BD020684FF0B5
:109A400001080168496C884703465246294628A800
:109A500002F08CF920680168096B8847B4F90C1092
:109A60000E18002E07DDBDF952219042DCBF5018C0
:109A700090FBF6F700DD002712A802F046F9207CE3
:109A800048B120680168496C884703465246294618
:109A900012A802F06BF9217C2068CDE900016379FE
:109AA000BDF8242012A90AA807F02AFF207C4FF055
:109AB000000AA8B3002F56DDBDF92600B0EB460F13
:109AC000B4BF012100210AA8FFF75CFEBDF83A00EF
:109AD000411E8DB278B161793EA802F0F3FBB8F176
:109AE000000F03D0617928A802F0ECFB2800A5F153
:109AF00001018DB2EFD1BDF822007F1E3044ADF8D8
:109B00002200BDF82600801BADF82600BDF8280015
:109B1000002804BF61B0BDE8F08F002FCCDC22E04C
:109B2000FFE7002F1FDD61793EA802F0CBFB054661
:109B3000B8F1000F03D0617928A802F0C3FB002D13
:109B400004BF61B0BDE8F08F0A2D0AD1BDF8220034
:109B50007F1E3044ADF82200BDF82600801BADF812
:109B60002600002FDFDC207C002748B1BDF926004D
:109B7000B0EB460FACBF002101210AA8FFF702FE9F
:109B8000B8F1000F08BFE77B50D0207C002818BF39
:109B9000BDF8420035D128A856902068049047F6B9
:109BA000FF70069000205B90054681465A90CDF8E4
:109BB00064A1AB4659AB049A5B99569802F0EFFD4D
:109BC000050018BF0A2D1BD0599AA2B10498958898
:109BD00059460068C36B0498984759994A7B12F01C
:109BE000800218BF4FF48072897A114301445A9859
:109BF000084480B25A90069809F101098145D6DBE4
:109C00005A9801B22079012802D0022808D00DE02C
:109C1000BDF92400401A00EBD07040F34F0705E077
:109C2000E27BBDF824001144401A07B2BDF82000C1
:109C30003844ADF85C01207C002814BFBDF83A1010
:109C400047F6FF719DF846003EAACDE9051054A8DD
:109C500057A9CDE900100294CDE903A2DDE95D0228
:109C6000BDF922300021FFF700FC00281CBF61B0C5
:109C7000BDE8F08FBDF82200304401B2BDF82600E7
:109C8000ADF82210801B00B2ADF82600227C002A1D
:109C900018BFB042BCBF61B0BDE8F08FBDF9520142
:109CA000BDF9562110448842BFF65DAF61B0BDE8F2
:109CB000F08F2DE9FF4F87B00026DDE91747DDF86B
:109CC00050900A9900EB670B0596DDF858A0DDF877
:109CD0006C801998354604960029069650D00028C5
:109CE00040F3E382B9F80000002818BF0A2800F00A
:109CF0006282282818BF292800F071817B2818BFAC
:109D00007D2800F06C815B2818BF5D2800F067811A
:109D10003C281CBF3E28002100F06181A0F5A06214
:109D2000B2F5007F22BFA0F57B42503AB2F56C7FBE
:109D300004D3002908BF4FF0000C01D04FF0010CF4
:109D4000A0F13001092994BF01210021A0F14102B5
:109D5000192A84BFA0F16102192A40F242818028A9
:109D600028BFBCF1000F18BF002200F03A81082E76
:109D700080F00E82DFE806F0FEFDFCFDFBFAF9F84C
:109D8000002840F3928200BFB9F80000002818BFF5
:109D90000A2800F0B780282818BF292837D07B2848
:109DA00018BF7D2833D05B2818BF5D282FD03C28F2
:109DB0001CBF3E2800232AD0A0F5A061B1F5007F8A
:109DC00023BFA0F57B415039B1F56C7F012128BF3D
:109DD0000021A0F13002092A94BF01220022A0F143
:109DE000410CBCF1190F84BFA0F1610CBCF1190F3B
:109DF0000FD9802828BF002918BF002009D01043A0
:109E00001843042E6BD2DFE806F0060E2846012325
:109E1000D2E70120F3E7002914BF022601264FF004
:109E200001055ED176E0002908BF6D1C72D058464E
:109E300017F0010F0EBF2146016809598C46002119
:109E4000CDF800A0CDF80C80CDE901510B46DDE93D
:109E50000812E0470226012543E0A8B1584617F052
:109E6000010F0EBF2146016809598C460021CDF82B
:109E700000A0CDF80C80CDE90151DDE908120123E5
:109E8000E0470126354645E0002912BF6D1C032638
:109E9000012026D121E021B1049802262844451C46
:109EA0001FE0002804BF0498401C16D0584617F045
:109EB000010F0EBF2146016809598C460021CDF8DB
:109EC00000A0CDF80C80CDE90151DDE90812012395
:109ED000E04704980126451C1CE0049001E0012E97
:109EE00018D000210698084306900A99159802F0A8
:109EF000E9F9A9F800000598401C059019998842D5
:109F0000FFF642AF012E07D0022E0FD0032E17D03E
:109F100000F0CBB90121E5E7584617F0010F1ABF51
:109F20000168095921468C4600F070B9584617F06F
:109F3000010F1ABF0168095921468C4600F051B93A
:109F4000069898B317F0010F08BFA44603D0DBF8BA
:109F5000000050F804C00026CDF800A0CDF80C8019
:109F6000CDE90156012306E0FDE0ECE09DE076E05E
:109F700045E00DE137E0DDE908125846E04717F00B
:109F8000010F08BFA44603D0DBF8000050F804C05E
:109F90000498CDF800A0CDF80C80CDE90106DDE9EC
:109FA000081200235846E04700F07FB9FFE7584603
:109FB00017F0010F08BFA44602D0016851F804C091
:109FC000049A00212A44CDF800A0CDF80C80CDE9F8
:109FD0000121DDE908120123E04700F066B9012103
:109FE0009CE60122C3E6002918BF042635D1002AC9
:109FF00014BF062602264FF001055BD1E6E0A1B1B1
:10A00000584617F0010F0EBF2146016809598C46CA
:10A010000021CDF800A0CDF80C80CDE90151DDE99B
:10A0200008120123E047042617E0002A08BF6D1C30
:10A030006FD0584617F0010F0EBF2146016809592D
:10A040008C460021CDF800A0CDF80C80CDE901515F
:10A05000DDE908120123E047062601259AE0E9BB65
:10A060002E2818BF2C2805D0002A1CBF06266D1CE0
:10A0700004D08FE00526012004908BE0584617F0AD
:10A08000010F01D1214601E001680959CDF800A076
:10A090008C460021CDF80C80CDE901510B46DDE95D
:10A0A0000812E0470226012590E021B10498042619
:10A0B0002844451C6EE06AB317F0010F08BFA446A0
:10A0C00003D0DBF8000050F804C00026CDF800A053
:10A0D000CDF80C80CDE90156334600E036E0DDE9ED
:10A0E00008125846E04717F0010F0EBF2046DBF874
:10A0F0000000005984460498CDF800A0CDF80C80EB
:10A10000CDE90106DDE9081201235846E04706269D
:10A11000A3E75BE0FFE7584617F0010F01D12146A6
:10A1200001E001680959CDF800A08C460021CDF866
:10A130000C80CDE901510B46DDE90812E047049897
:10A140000226451C42E052EA010001D06D1C21E0CC
:10A15000BCF1000F04BF0726012017D0584617F0A6
:10A16000010F91D18EE752EA010004D0049806262F
:10A170002844451C0EE0BCF1000F04BF0498401CAD
:10A1800004D0584617F0010FCBD1C8E7049001E086
:10A19000022E1BD000210698084306900A991598B4
:10A1A00002F090F8A9F800000598401C0590199954
:10A1B0008842FFF697AD022E0AD0042E18BF062E55
:10A1C0001BD0072E18BF052E2CD06EE00121E2E730
:10A1D000584617F0010F08BFA44602D0016851F895
:10A1E00004C00021CDF800A0CDF80C80CDE90151CC
:10A1F000DDE908120123E04757E0584617F0010F48
:10A2000008BFA44602D0016851F804C00021CDF86F
:10A2100000A0CDF80C80CDE901510B46DDE9081214
:10A22000E04742E0069850B317F0010F08BFA4467C
:10A2300003D0DBF8000050F804C00026CDF800A0E1
:10A24000CDF80C80CDE90156DDE9081233465846B9
:10A25000E04717F0010F08BFA44603D0DBF8000069
:10A2600050F804C00498CDF800A0CDF80C80CDE9DA
:10A270000106DDE9081201235846E04715E058467B
:10A2800017F0010F08BFA44602D0016851F804C0BE
:10A29000049A00212A44CDF800A0CDF80C80CDE925
:10A2A00001210B46DDE90812E0471A9890B117F03A
:10A2B000010F02D0DBF80000045901210020CDF885
:10A2C00000A0CDF80C80CDE90101DDE908120346BC
:10A2D0005846A047B9F800000A281EBF00200BB05E
:10A2E000BDE8F08F0A99159801F0ECFFA9F800007D
:10A2F0000BB00120BDE8F08F2DE9FF4FADF5277DB4
:10A300001C46DDE9B4A58846BAF1000F19BF2068E4
:10A3100000280DF52B7DBDE8F08FA07B002804BF41
:10A320000DF52B7DBDE8F08F677911469AA807F0EF
:10A3300033FDB8F80420B8F806000023ADF88420F7
:10A34000ADF88030ADF88600ADF88230A27920A952
:10A350009AA8FFF703F820A9A2790846FEF7FEFFA6
:10A3600017B1012F07D00BE02079002804BF002689
:10A37000B14603D107E02079022801D0012600E090
:10A3800000264FF001092AA801F0BFFC20680168EF
:10A39000496C884703462A4651462AA8009501F091
:10A3A000E5FC0AA801F0B1FC20680168496C884707
:10A3B000034651460AA8009A01F0D8FC6CA801F0A7
:10A3C000A4FC20680168496C8847034651466CA884
:10A3D000009A01F0CBFC40A801F097FC82A801F0A4
:10A3E00094FC9EB120680168496C88470346514639
:10A3F00040A8009A01F0BAFC20680168496C8847BF
:10A400000346514682A8009A01F0B0FC206801681A
:10A41000096B8847B4F90C201518002D07DDBDF92C
:10A420006A128842DCBF881890FBF5FB01DD4FF013
:10A43000000B56A801F069FC207C48B12068016837
:10A44000496C88470346514656A8009A01F08EFC95
:10A45000217C2068CDE900016379BDF8842056A9EC
:10A4600022A807F04DFA207CF0B3BBF1000F6FDD9E
:10A47000BDF98600B0EB450FB4BF0121002122A831
:10A48000FFF780F9BDF89A00411E1FFA81FAD8B192
:10A4900039462AA801F016FF39460AA801F012FF32
:10A4A00039466CA801F00EFF3EB1394640A801F0D4
:10A4B00009FF394682A801F005FF5FEA0A00AAF108
:10A4C00001011FFA81FAE3D1BDF88200ABF1010B63
:10A4D0002844ADF88200BDF88600401BADF8860028
:10A4E000BDF88800002800E004E07DD0BBF1000F3B
:10A4F000BEDC2DE0BBF1000F2ADD39462AA801F0B1
:10A50000E1FE824639460AA801F0DCFE39466CA815
:10A5100001F0D8FE3EB1394640A801F0D3FE3946DD
:10A5200082A801F0CFFEBAF1000F5DD0BAF10A0F98
:10A530000BD1BDF88200ABF1010B2844ADF88200CD
:10A54000BDF88600401BADF88600BBF1000FD4DCDF
:10A550000AA84FF0000AA190CDE99CA8BDF882009E
:10A56000ADF878029AA8CDE99F0439462AA801F0EF
:10A57000A9FEADF864022EB1394640A801F0A2FE52
:10A58000ADF89402DFF8B4820DF1A80BADF88CA2FF
:10A59000207C48B1BDF98600B0EB450FACBF00216F
:10A5A000012122A8FFF7EEF8B9F1000F08BFE07B08
:10A5B0004AD0A6B3207CE8B947F6FF70CDE9050A7A
:10A5C000CDF81CA0D8E90001CDE9030140A9A5A858
:10A5D00082AACDE9000102923B46A3A92268A7986E
:10A5E000FFF767FB207C00E07CE0002808BFBDF996
:10A5F0008C0201D0BDF8A20001B220793FB1012840
:10A6000016D0002804BFE07B08441DD01EE00128BE
:10A6100006D0E27BBDF884001144401A14E00FE03C
:10A62000BDF98400401A00EBD07040F34F000BE0FE
:10A63000BDF98400084400EBD07040F34F0003E004
:10A64000BDF88410E07B081AADF88C02207C00284D
:10A6500017BFBDF89A0047F6FF709DF8A6100029B5
:10A660000CBF002101219CAA0792CDE90501D8E980
:10A670000201CDE9030199A900916CA8CDE901B0CF
:10A680003B46A3A92268A798FFF713FBBDF87812F1
:10A690002944ADF87812BDF88610491B09B2ADF80F
:10A6A0008610227C002A18BFA9421BDB60B16179A9
:10A6B0000AA801F007FE61796CA801F003FE1EB143
:10A6C000394682A801F0FEFDBDF96A02BDF96E129D
:10A6D0000144BDF97802814204DBBDF86402002820
:10A6E0007FF454AF0DF52B7DBDE8F08F70B58AB0C7
:10A6F00006460E981546012491B1CDE9003182B28B
:10A700002B46314602A807F0FBF8002102A8FFF70C
:10A7100039F8BDF80800002818BF641CF5D10CE01A
:10A720001146304601F0CEFD0A2808BF641C2946B8
:10A73000304601F0C7FD0028F6D10AB0A0B270BDC6
:10A7400010B59446DDE902020C466146FEF7CCFFE7
:10A7500021880844208010BD2DE9FF4F87B00D46A9
:10A76000DDE916A4DDE914CB206990461F46016897
:10A770005A466046FEF7B8FF0646BAF1000F26D0EB
:10A78000D8F800004169404688470090F8B1D8F8F1
:10A7900000000099C268404690470246407B10F096
:10A7A000800018BF4FF48070917A40EA010906EBEF
:10A7B000090086B22069007C042808D1D8F800007E
:10A7C0000099C36B404698474844304486B220699C
:10A7D000407930B1012802BF002F2888801B05D0A6
:10A7E00005E0012F04BF2888304400D1288060692B
:10A7F000CDE90370CDE905BAD4E903010095CDE9AF
:10A800000101D4E90012B4F908300798FEF72DFED3
:10A810002069407950EA070104BF2888304408D0F5
:10A82000012803BF012F2888801B0BB018BFBDE88B
:10A83000F08F28800BB0BDE8F08F0000984F010822
:10A8400070B50446FE482060002525816581A581FC
:10A85000E58125826582A582211DE582A5618D6144
:10A86000CD6181F82450012281F82520F54B8D62BD
:10A870000B602563A586F448E58684F838200088B7
:10A88000002206B2F1481146008805B26068436BA9
:10A89000201D984760683146826B201D9047606894
:10A8A0002946C26B201D9047204670BDE64900B581
:10A8B0000A88E64983B04FF0000C0988ADF800C063
:10A8C000ADF80420ADF802C0ADF8061001688A6842
:10A8D0006946904703B000BD2DE9F0418046888865
:10A8E00090B014460D46002819BFE888002810B023
:10A8F000BDE8F081B4F90C00401C13D121896389B3
:10A900000022ADF80820ADF80C10ADF80A20ADF823
:10A910000E30206802A9026A20469047DDE9021243
:10A920002261E160B5F90020B5F9041004F10C00D2
:10A930005318B4F90C108B4221DDB0F904301944DE
:10A9400091421CDDB5F90220B5F906105318B0F993
:10A9500002108B4213DDB0F90600084490420EDD70
:10A96000E069002800F0DE8020682146C26806A861
:10A970009047B4F920000AAF401C06D00FE0E4690C
:10A98000002CB7D110B0BDE8F08121466846FBF736
:10A99000A8FFBDF800102184BDF802106184208C4E
:10A9A000BDF81810084406B2B4F92200401C09D1C1
:10A9B000214602A8FBF795FFBDF808102184BDF8D9
:10A9C0000A106184608CBDF81A10BDF81E20014485
:10A9D000BDF81C00ADF82C00ADF82860ADF82A10C9
:10A9E000ADF82E2039462A4608A807F03AF9DDE9E5
:10A9F0000801CDE90E01B4F90C00401C13D12089E7
:10AA000062890021ADF80810ADF80C00ADF80A100D
:10AA1000ADF80E20206802A9026A20469047DDE9C1
:10AA200002122261E16004F10C020EA908A807F0ED
:10AA300018F9DDE90867B5F9002030B290420ED16F
:10AA4000B5F902103014884209D1B5F9041038B2B2
:10AA5000884204D1B5F906103814884262D038B261
:10AA6000002818BF5FEA274061D0B5F90210301402
:10AA700088420EDDAB88401AADF81820ADF81C30C6
:10AA8000ADF81A10ADF81E0006A94046E269FFF7BE
:10AA900023FFB5F9001030B288420FDD421A381496
:10AAA000ADF81810ADF81C203314ADF81E00ADF849
:10AAB0001A3006A94046E269FFF70EFFB5F900001B
:10AAC000B5F904103AB2014430B2104481420FDDAE
:10AAD0000B1A3914ADF81800ADF81C303214ADF86B
:10AAE0001E10ADF81A2006A94046E269FFF7F4FEF1
:10AAF000B5F90200B5F906100844311401EB2741FD
:10AB000088420FDD2A88AB88401AADF80820ADF8DE
:10AB10000C30ADF80A10ADF80E0002A94046E2690B
:10AB2000FFF7DAFEB4F90C00401C1AD105E0294603
:10AB30004046E269FFF7D0FEF4E7218960890023EF
:10AB4000ADF80830ADF80C10ADF80A30ADF80E00D5
:10AB5000206802A9026A20469047DDE902122261BC
:10AB6000E16004F10C02294606A807F07AF8DDE955
:10AB70000601CDE90401BDF81400002819BFBDF895
:10AB80001600002810B0BDE8F081B4F92000401C88
:10AB900009D121466846FBF7A4FEBDF800102184C8
:10ABA000BDF802106184208CBDF81010081AADF8B1
:10ABB0001000B4F92200401C09D121466846FBF779
:10ABC00090FEBDF800102184BDF802106184608CF5
:10ABD000BDF81210081AADF81200206804A98268A6
:10ABE0002046904710B0BDE8F08138B504460020FB
:10ABF00000900D466A46201DFBF7F1FB009A002AE3
:10AC000008BF38BD29462046FFF766FE38BD30B57F
:10AC10000A4685B0044600F1080102A807F021F8B1
:10AC2000DDE90201CDE9000194F83800D8B1002037
:10AC30006D46029002AA2946201DFBF7D0FB07E0D3
:10AC400004660108206801089A0300209C03002084
:10AC5000029A002A04BF05B030BD29462046FFF7FE
:10AC60003BFE05B030BD6946201DFBF7A6FA05B0D6
:10AC700030BD2DE9F34F99B00C461998016B20793E
:10AC800029B1002804BF1BB0BDE8F08FB9E000284F
:10AC90007ED1D0480025006890F849001890199896
:10ACA00085861998C5861898042872DB199805635B
:10ACB0001898401E0B28C8BF032004DCC64981FB3E
:10ACC0000010A0EBE07017904FF0FF3013900020C1
:10ACD000034602461290C148C14963F30F0600883B
:10ACE000098860F30F0762F31F4661F31F4748228C
:10ACF000BC49684602F035FE17984FF0010801285C
:10AD000078DB1898A8F1010508FB00F11798092DC8
:10AD100091FBF0F95EDA00201690684600EBC50062
:10AD20003DF83510808801FB09F100FB09F00FFAAE
:10AD300080FA0FFA81FB2089E1885044594402B21D
:10AD400009B230B2884242DC3BB2034499423EDA57
:10AD5000301482423BDB00EB2743934237DD1998E6
:10AD600016AB001DFBF7F5F9169900291CBF1298C8
:10AD700081422CD014A8FBF7B4FDBDF95400BDF9F5
:10AD8000501000EBD07001EB6000B4F9061001E048
:10AD900030E025E0091ABDF95600BDF9522000EB5C
:10ADA000D07002EB6000B4F908204943101A00FB90
:10ADB0000010139988420AD21699CDE912101998F9
:10ADC00001631998A0F834B01998A0F836A0AD1C0A
:10ADD000092DA0DB179808F10108804591DD09E0F5
:10ADE0001998B4F9082000F13003B4F90610001DD9
:10ADF000FBF7AFF91998006B002804BF1BB0BDE842
:10AE0000F08F1998016B04A8FBF76BFD199AE08885
:10AE1000199B928E21791044BDF81020DB8E821A86
:10AE20002089DFF8C4C11844BDF81230CDF800C045
:10AE3000C01AADF80800199800238DF80410ADF879
:10AE40000620ADF80A30006B01684A6C69469047ED
:10AE50002079002804BF1BB0BDE8F08F00201999AD
:10AE60000863199988861999C8861BB0BDE8F08FC8
:10AE70002DE9F0410C46016B8EB00546002904BF58
:10AE80000EB0BDE8F08102A8FBF72BFDE088B5F914
:10AE90003480DDE902C1404403B22089B5F936703F
:10AEA0000FFA8CF2384400B29A422CDC0EB21644EF
:10AEB000B34228DA4FEA2C43984224DB03EB214CBF
:10AEC000604520DA6089404401B2A0898A42384452
:10AED00000B2D8BFB14203DA984201DB604512DB11
:10AEE00002230020DFF800C18DF80430ADF808001F
:10AEF000CDF800C0ADF80600ADF80A00286B016877
:10AF00004A6C694690470AA8296BFBF7EAFCE0887F
:10AF1000AF8EB4F80A80C119BDF82800EE8E0A1A67
:10AF200021892379A489BDF82AC03144A1EB0C0101
:10AF30003444A4EB0C0C4744381A2C4C8DF81C30CC
:10AF4000ADF820100694ADF81E20ADF82200ADF843
:10AF500024C0286B0168CA6C06A990470EB0BDE8F2
:10AF6000F08130B50C46016B87B00546002904BF5F
:10AF700007B030BD04A8FBF7B4FC2089AA8EB5F851
:10AF800036C01044BDF810202379801A6289E18808
:10AF90006244BDF812C08DF80430A2EB0C02DFF859
:10AFA00050C0ADF80800CDF800C0ADF80610ADF8FF
:10AFB0000A20286B01688A6C6946904707B030BD4B
:10AFC0000A4609684B69011D1046184780F8381079
:10AFD00070470000A4030020565555559A030020E1
:10AFE0009C030020A84F0108AC610108B06801086B
:10AFF0001C62010810B400248480C4800481448150
:10B000008481C4810482448244618461C46180F883
:10B010002440012180F82510544901604FF6FF714A
:10B02000C184FF2180F8281010BC7047704706F0DB
:10B030009EBEF0B5044690F8280087B00E46002862
:10B0400004BF07B0F0BDE08CA0F57F41FF3904BF1D
:10B0500007B0F0BD002703A9ADF80C003D46084637
:10B06000F9F755FF6189ADF81070ADF81400ADF82F
:10B070001250ADF81610206804A9426A2046904785
:10B080003B48006890F8761000291ABFC56C002D67
:10B09000856803A8E18CADF80C10F9F79DFE014618
:10B0A000002294F82800CDE900022868334604AA5B
:10B0B000D0F810C02846E04707B0F0BD91F828202E
:10B0C000FF2A04D3CA8CA2F57F43FF3B0AD14FF07D
:10B0D000000CA0F800C0A0F802C0A0F804C0A0F8BE
:10B0E00006C070470A894FF0000C4989A0F800C0DB
:10B0F000A0F802C08280C180704701688A6E4FF656
:10B10000FE71104730B5044687B00D46228961892B
:10B110000023ADF80030ADF80420ADF80230ADF8F2
:10B12000061000686946026A20469047214604A836
:10B13000FBF7D7FBDDE90401CDE902010C4801680A
:10B1400091F8760000281ABFC86C0028886801684A
:10B150002B4602AAD1F818C06946E047002808BF6C
:10B160004FF6FF75E58407B030BD0000E0620108CE
:10B17000A40300200FB42DE9F047FB4F044698B01C
:10B1800038680DF1880A48B3DFF8E083E18CB8F83D
:10B190000020914222D2DFF8D89310F81100D9F89C
:10B1A000001051F820603068016B3046884705B2C6
:10B1B00002A800F0AAFD3068416C3046884703467B
:10B1C000524602A8219900F0D1FDB4F908003A686E
:10B1D00022B1E18CB8F80030994201D3AFF300807E
:10B1E00012F81130D9F800C002EB410149785CF83F
:10B1F00023300090C1F3810294F8311002A8FFF7C8
:10B2000075FAB4F92C1000B24A19002A05DD00FBCA
:10B2100005F2401E00FB012502E00028D8BF0025F2
:10B2200028B218B0BDE8F0075DF814FB10B5C18C6A
:10B230000446A1F57F40FF3808BF10BDCA4800682A
:10B2400018B1CA480088814201D3AFF30080C948D1
:10B25000006806F059FD01462046BDE8104089E728
:10B260002DE9F041C18C0646A1F57F40FF3808BFAB
:10B27000BDE8F081BC4D2868A0B1BC4F3A8891422E
:10B2800010D2BB4A10F81100126852F82040B94899
:10B29000006806F039FD2968024619B1F08C3B8838
:10B2A000984201D3AFF3008001EB40004078C0F337
:10B2B00081012068C3692046BDE8F04118472DE9A7
:10B2C000F04F0446C08C0F46A0F57F418BB0FF398C
:10B2D00004BF0BB0BDE8F08FA3490968B9B3A34A16
:10B2E0001388984233D2A24A11F81000126852F81B
:10B2F0002000002804BF0BB0BDE8F08F94F82EA00A
:10B30000E28CB4F82C9001EB420194F8308049783B
:10B3100094F82F5094F831C0D4F828B001F003020B
:10B32000C1F381018DF826A08DF81C208DF81D1029
:10B33000ADF82490CDF820B006908DF81E808DF8E1
:10B3400027508DF828C0E18C0026994201D3AFF335
:10B3500000808848006806F0D7FC0546214604A80E
:10B36000FBF7BFFA8448016891F8760000281ABFFD
:10B37000C86C0028886806A90091CDE90156DDE96E
:10B3800004123B460396FDF742FD0BB0BDE8F08F7B
:10B3900070B50446C08CA0F57F41FF3908BF70BD71
:10B3A0002068016F2046884705462068C16E204608
:10B3B000884786B294F83000002818BF0228206819
:10B3C000826B09D031B220469047206829B2C26B07
:10B3D0002046BDE87040104729B2204690472068BB
:10B3E00031B2C26B2046BDE87040104773B5BDF85E
:10B3F0000410C1840189002907BF4189002902B0D6
:10B4000070BD0446C08CA0F57F41FF3904BF02B077
:10B4100070BD2068016F2046884705462068C16ED0
:10B420002046884786B294F83000002818BF0228CA
:10B430002068826B0AD031B220469047206829B23A
:10B44000C26B02B02046BDE87040104729B22046CA
:10B450009047206831B2C26B02B02046BDE8704010
:10B4600010472DE9F0410446C08CA0F57F41FF391B
:10B4700008BFBDE8F0813C49096819B13B4A128810
:10B48000904201D3AFF3008001EB4000407800F020
:10B4900003052068016F2046884706462068C16E74
:10B4A0002046884787B294F83000002818BF022849
:10B4B00006D001283BD0032808BF022D67D037E013
:10B4C00050EA05010FD0022808BF022D1AD02189A9
:10B4D000A088012DA1EB06010AD0084401B2206822
:10B4E000C26A2046904794F83000022813D109E040
:10B4F00001EBD17100EB610001B22068C26A204605
:10B500009047F0E76089E188C01B084401B22068D9
:10B51000026B20469047206831B2826B20469047EC
:10B52000206839B2C26B2046BDE8F0411047D5B162
:10B530006189E088012DA1EB06010AD0084401B21F
:10B540002068026B2046904794F8300001281ED1F5
:10B5500014E001EBD17100EB610001B22068026BD5
:10B5600020469047F0E709E0A8030020B40300203C
:10B57000B0030020AC030020A40300202089A18890
:10B58000C01B084401B22068C26A20469047206868
:10B5900039B2826B20469047206831B2C26B204698
:10B5A000BDE8F041104710B50446C08CA0F57F41BE
:10B5B000FF3908BF10BD2068C16E2046884794F847
:10B5C000301080B2002918BF0229216805D08A6B8B
:10B5D00001B22046BDE810401047CA6B01B22046B8
:10B5E000BDE810401047B2F1004FA2F1010202F194
:10B5F000010307D3002B08BF704700F8011B521E40
:10B60000FBD27047002BD8BF7047401E12F0010FCD
:10B6100008BF00F8011F521C521008BF704741704C
:10B6200000F8021F521EFAD1704770B50546F9F7AF
:10B630003CFC04462846F9F7F8FC002818BF022015
:10B6400040EA840070BD70B50546F9F72EFC04464B
:10B650002846F9F7EAFC002818BF022040EA8400D7
:10B6600040F0010070BD0028B8BF404204BF1F2059
:10B6700070474FF00001020C04BF1021000410F0CD
:10B680007F4F04BF0831000210F0704F04BF091D46
:10B69000000110F0404F04BF891C800010F0004FE3
:10B6A00008BF491C481E7047F0B4B0F1000CC0F14F
:10B6B0000005B8BFAC4608BF1F241DD000245FEAB8
:10B6C0001C4604BF10244FEA0C4C1CF07F4F04BFF3
:10B6D00008344FEA0C2C1CF0704F04BF241D4FEAB5
:10B6E0000C1C1CF0404F04BFA41C4FEA8C0C1CF037
:10B6F000004F08BF641C641E00FA04FC9CFBF2F6B9
:10B7000002FB16C74FF0010C0028BCBF28464FF0C3
:10B71000FF3C0029BCBF4942CCF1000C002ABCBF51
:10B720005242CCF1000C41FA04F56E437D430127EF
:10B7300007FA04F4641E2140484390FBF2F102FB37
:10B740001100284490FBF2F402FB14002144314420
:10B750001860F0BC01FB0CF0704770B5044690F81F
:10B760002C5008790E4600280CBF0120002084F8D8
:10B770002C0008B11DB109E0002D08BF70BD206884
:10B78000416920468847002D08BF70BD30790128E7
:10B7900018BF70BDA06A002808BF70BD0168C968E5
:10B7A0008847002808BF70BDA06A01688A682146E2
:10B7B000BDE87040104700005C4B1B78002B08BFB1
:10B7C0007047012B18BF70470388B1F800C0A0F87C
:10B7D00000C09088C01A401E08807047544BB3F8D0
:10B7E00000C0544B6CF30F021B8863F31F424F4B96
:10B7F0001B78002B08BF7047012B18BF70470388C8
:10B80000B1F800C0A0F800C0D01A401E08807047F0
:10B81000464B1B78002B08BF7047012B18BF7047A1
:10B8200090ED000AD1ED000AC0ED000AB2F9040063
:10B8300000EE900AF8EEE00A9FED3F1A70EEC10AA2
:10B8400030EEC00A81ED000A7047394BB3F800C0F2
:10B85000384B6CF30F021B8863F31F42334B1B788A
:10B86000002B08BF7047012B18BF704790ED000AEE
:10B87000D1ED000AC0ED000A10B200EE900A9FED73
:10B880002E1AF8EEE00A70EEC10A30EEC00A81ED21
:10B89000000A7047254A1278002A08BF7047012A1B
:10B8A00018BF704702880B88DFF890C0BCF800C052
:10B8B000ACEB03035B1E03800A8070471B4A1278BF
:10B8C000002A08BF7047012A18BF70470288838882
:10B8D000B0F802C0A0F800C01A448988521E891A24
:10B8E000491E4180C2888280C3807047104A114B34
:10B8F00012881B8862F30F010C4A63F31F41127810
:10B90000002A08BF7047012A18BF70470288838841
:10B91000B0F802C01A44521E891AA0F800C0491E8D
:10B920004180C2888280C380704700009403002059
:10B930009A0300209C03002017B7D138A0030020F1
:10B9400001617047817B002908BF70470189491C4C
:10B9500089B20181072998BF704700214181818107
:10B96000817370472DE9F04184B004468846808891
:10B97000B4F906101D4600238DF804300A9EADF878
:10B9800006001746281A32B2DFF804C1ADF80810D5
:10B9900000B2CDF800C0ADF80A50ADF80C20002878
:10B9A000BCBF404200B2A38A98420BDC501A00B2DE
:10B9B0000028BCBF404200B29842DEBF002004B065
:10B9C000BDE8F081206901684A6869469047002017
:10B9D0002081A5EB08006081F01BA081A580E68096
:10B9E0000120A07304B0BDE8F0812DE9F04186B0DC
:10B9F0001E4617460D460446012918BF022D04D0E5
:10BA0000002D04BFA780E6802FE0B4F90A00DFF81C
:10BA10008480C11C072911D3A188E28800238DF8F6
:10BA20001030ADF81410CDF80C80ADF81200ADF860
:10BA30001620206901688A6803A99047B4F90C00B0
:10BA4000C11C072911D3A388E28801218DF81010A9
:10BA5000ADF81430CDF80C80ADF81200ADF816201A
:10BA6000206901688A6803A9904700200A498DF877
:10BA70000450ADF808600091ADF80670ADF80A000A
:10BA8000206901680A686946904706B0BDE8F08100
:10BA9000B06801081C620108AC610108214A10B4B9
:10BAA000136823F0010313601F4A1368C3F30B1CD0
:10BAB0000123ACF54064243C07D01268C2F30B129A
:10BAC000A2F5406CBCF1270C22D1184A1268FAB9D1
:10BAD000174AD2F800C0CCF30B0CBCF58A6F07D024
:10BAE0001268C2F30B02A2F5806CBCF1830C0FD17B
:10BAF000104A13601368002BFCD10F4A10601068C5
:10BB0000884202D010BC0020704710BC0120704752
:10BB10000A4A93609368002BFCD110601068884239
:10BB2000F3D0EFE7002000E000ED00E0002004E0AB
:10BB30000010005C084C0258004C025800300240D3
:10BB400070B50446FA4D606838B92168002931D0D3
:10BB500028680268126B90476060207C80B1E068C2
:10BB600000281FBF01880029811CE16001D00088E6
:10BB700070BD00202074286821680268126B90470D
:10BB800060680188B1B102291CBF811C6160EED1DF
:10BB9000801C6060A16828680A1DA26002680968AC
:10BBA000126B9047E06000281FBF0088002801202A
:10BBB0002074C7E7002070BD2DE9F04704464FF020
:10BBC0000108DC4F1BE08288491EBCF10A0F30F8E7
:10BBD000123028EA02028280C18004F11A005BD28E
:10BBE000818A6144A7FB01C2D208524202EB820261
:10BBF00001EB420120F81130C18A491CC182B4F81E
:10BC000030C0BCF10A0F08BFBDE8F087218F0029C2
:10BC100018BF04F13200D6D1C54E8946606804F1E0
:10BC20001A0538B92168002938D030680268126BCB
:10BC300090476060207C80B1E06800281FBF0188C9
:10BC40000029821CE26001D0008822E084F8109074
:10BC5000306821680268126B904760680188E9B11A
:10BC600002291CBF821C6260EED1811C6160A16848
:10BC700030680B1DA36002680968126B9047E06092
:10BC800000281EBF0088002884F810802046FFF797
:10BC900057FFE98A0A2903D3AFF300804846F8E743
:10BCA000AA8A1144A7FB0132D208524202EB820257
:10BCB00001EB420125F81100E88A401C80B2E882BD
:10BCC0000A28ABD1BDE8F08710B5044600206060BB
:10BCD000E06020742086208320872046FFF76CFFD9
:10BCE0009548016851B1426804EB620012F0010FFF
:10BCF00001D002685158BDE810400847426812F070
:10BD0000010F18BF002AEED110BD10B50446002067
:10BD100020606060E0602074E0822083E0852086FF
:10BD2000E0862087E063A4F84E00A4F85000A4F851
:10BD30005200012184F8541084F855002046FFF782
:10BD40003BFF7D4A116851B1526804EB620012F06A
:10BD5000010F01D0026851588847204610BD506835
:10BD600010F0010F18BF0028EED1F6E710B5C3633D
:10BD70008260016000214160C1600174018601831D
:10BD800004460187FFF718FF6B48016851B142680C
:10BD900004EB620012F0010F01D002685158BDE8B7
:10BDA00010400847426812F0010F18BF002AEED178
:10BDB00010BD70B505461A30C18A002929D0818A84
:10BDC0005C4A30F81140491CA2FB0132D2085242B1
:10BDD00002EB820201EB42018182C18A491EC182CB
:10BDE0002846FFF7E9FE288B022801D1012129838B
:10BDF000298B05F11200491C02290AD80179491E34
:10BE000001F001018180C188491C89B2C1800029EB
:10BE100001D8AFF30080027902F0010220F812404D
:10BE2000204670BD2DE9F047424D8A423ED9A2EB33
:10BE3000010C1FFA8CF70026002F37D9048E00F171
:10BE40001A0C002C63D0641EA4B2ACF81640BCF8E7
:10BE500014804444A5FB04984FEAD808C8F10008B0
:10BE600008EB880804EB4804B0F838803CF814C0AC
:10BE700008F1010900F13204B9F1020F47D894F832
:10BE800004801FFA89F9A8F1010808F00108A4F854
:10BE90000480A4F80690B9F1000F38D924F818C02E
:10BEA00006F1010C1FFA8CF6B742C7D8048E00F1D8
:10BEB0001A0CA1422BD8BCF814400C44A5FB047604
:10BEC000F608764206EB860604EB4604ACF814400E
:10BED000BCF81640611AACF8161032B3511E8AB283
:10BEE000048E33F812C0661C00F11A010A2E0ED817
:10BEF0008C8A0934A5FB0487FF087F4207EB87077C
:10BF000004EB4707B4B28F82CC82002C01D8AFF388
:10BF10000080A5FB0764E408644204EB840407EB9B
:10BF20004404002A21F814C0D8D1BDE8F04743E604
:10BF3000A4030020CDCCCCCC400300202DE9F04759
:10BF40004FF0000CDDF82080002A88BF078B19D93C
:10BF5000A2EB0C04641E31F8026BA4B200F11205CE
:10BF6000A7421BD995F8049089EA040404F001045F
:10BF700035F81440A64225D10CF1010C1FFA8CFCB7
:10BF80009445E5D3002213EB080622D0058EFE4F20
:10BF900031F8024B00F11A03954201D8AFF300804B
:10BFA000B3F8148008EB020CA7FB0C984FEAD808F2
:10BFB000C8F1000808EB88080CEB480C33F81C307B
:10BFC0009C4202D00020BDE8F087521C92B29642FB
:10BFD000DED80120BDE8F0872DE9F74FDFF8A8B3E0
:10BFE00082B000BF31F8022BDDF810C0130B31F81E
:10BFF0001340644503D005B00020BDE8F08FC2F3C4
:10C000000327C2F3031902F00F02CDE900920A469A
:10C010004FF0000C002B88BFB0F818801AD900BF71
:10C02000A3EB0C04641E32F8026BA4B200F11205FB
:10C03000A0457DD995F804A08AEA040404F001041F
:10C0400035F81440A64274D10CF1010C1FFA8CFC97
:10C050009C45E5D3B9444FF0000CB9F1000F88BFFF
:10C06000B0F830801ED900BF32F8026B00F11A041C
:10C07000E0455DD9B4F814A00AEB0C05ABFB05EA6A
:10C080004FEADA0ACAF1000A0AEB8A0A05EB4A0506
:10C0900034F81540A6424CD10CF1010C1FFA8CFC6F
:10C0A000E145E1D803EB070CDDE90032634401EB25
:10C0B0004304BA4237D9D11B8BB20026002B32D9A8
:10C0C000B0F830C000F11A01BCF1000F62D0ACF141
:10C0D000010C1FFA8CFCA1F816C08D8AAC44ABFB96
:10C0E0000C584FEAD8056D4205EB85050CEB450C65
:10C0F000058F31F81CC0183105F10108B8F1020FA5
:10C1000048D80D791FFA88F86D1E05F001058D805D
:10C11000A1F80680B8F1000F3CD921F815C0711CB8
:10C120008EB2B342CCD8038E00F11A019F4201E0D7
:10C1300030E043E02ED88B8A3B44ABFB035C4FEAF4
:10C14000DC0CCCF1000C0CEB8C0C03EB4C038B8265
:10C15000CB8ADB1BCB825AB3511E8AB2B0F830C0F7
:10C1600034F812300CF1010500F11A010A2D11D832
:10C17000B1F814C0ADB20CF1090CABFB0C76F608AB
:10C18000764206EB86060CEB460CA1F814C0CD8275
:10C19000002D01D8AFF30080ABFB0C65ED086D42BC
:10C1A00005EB85050CEB450C002A21F81C30D3D19A
:10C1B000FFF702FD05B00120BDE8F08F01EB430160
:10C1C00001EB4702009902EB4102019902EB4101A8
:10C1D00008E710B410884FF0000C83421CD302EB28
:10C1E000810030F8040C984228BF002914D900BF00
:10C1F0000CEB0100400832F820409C4288BF81B21D
:10C200003CBF401C1FFA80FC04D102EB8000408838
:10C2100010BC70478C45EBD310BC002070472DE953
:10C22000F047C56B0746DFF860A168884FF001084A
:10C23000460805EB860900BF398E07F11A00002970
:10C2400001D8AFF30080818A3446AAFB0132D208BC
:10C25000524202EB820201EB420130F811202888A1
:10C26000002190429ABF39F8043C9A42BDE8F08719
:10C27000002C98BFBDE8F0870819400835F8203039
:10C28000934288BF84B23CBF401C81B216D105EBFB
:10C2900080004088002808BFBDE8F08705EB40011A
:10C2A0003846FFF799FE002808BFBDE8F0874046F2
:10C2B00008F101080A28BFDBBDE8F087A142DBD303
:10C2C000BDE8F0872DE9F047054630482E4E02685C
:10C2D0004068002A00F0C68005F11A0405EB6003EF
:10C2E00010F0010F01D01868825818469047014697
:10C2F000E08A002840F2D380A08AA6FB0032D20850
:10C30000524202EB820200EB420024F81010EF6B65
:10C31000002F7DD0298E05F11A00002979D9818A54
:10C32000A6FB0132D208524202EB820201EB42012B
:10C3300030F81100002879D078884FF0010A4FEAD0
:10C34000500807EB880900BF298E05F11A00002963
:10C350005FD9818A4446A6FB0132D208524202EBE1
:10C36000820201EB420130F811203888002190420E
:10C370009CBF39F8040C824220D8002C1ED9081921
:10C38000400837F8203003E0CDCCCCCC4803002067
:10C39000934288BF84B23CBF401C81B269D107EB95
:10C3A0008000408850B107EB40012846FFF714FE9B
:10C3B00020B150460AF1010A0A28C5DB298E05F191
:10C3C0001A0001296BD9818A4A1CA6FB02C3DB082B
:10C3D0005B4203EB830302EB430200EB4202108853
:10C3E000A0F510633F3B21D1A6FB01C3DB085B42F4
:10C3F00003EB830305F11A0001EB430130F8110050
:10C4000010802A8E05F11A0040F63F11002A01E043
:10C410000CE044E043D9828AA6FB02C3DB085B42FE
:10C4200003EB830302EB430220F81210298E05F17F
:10C430001A00A1B3818A30F81140491CA6FB0132D1
:10C44000D208524202EB820201EB42018182C18A90
:10C45000491EC1822846FFF7AFFB288B02280BD06C
:10C460000CE000BF10F0010F18BF00287FF434AFBC
:10C470004DE7A14283D3A1E701212983298B05F14F
:10C480001200491C02290AD80179491E01F0010154
:10C490008180C188491C89B2C180002901D8AFF3CD
:10C4A0000080027902F0010220F812402046BDE827
:10C4B000F087B9B10A6802644A6842648A68826493
:10C4C0008989A0F84C1090F84D1011F0080118BFA0
:10C4D0004FF4807190F846201143494280F849108A
:10C4E00000F140010846704710B50C46116810462F
:10C4F000CA6819469047002808BF204610BD8C46E0
:10C500002DE9F041044600214AB390881368236462
:10C51000536863649368A3649389A4F84C3094F8D7
:10C520004D3013F0100318BF4FF4807394F8475048
:10C53000A0F631671D43EE101E2F7CD2DFE807F016
:10C54000189494181818186C6C6C9494949494948F
:10C550009494949494941818181818181818A4F807
:10C560004E10A4F85010A0F852100846BDE8F08113
:10C57000218E04F11A00002901D8AFF30080818ACE
:10C58000FE4AA2FB0132D208524202EB820201EBC8
:10C59000420130F81100A0F56061333916D1DCF8A2
:10C5A000000040F63361C26860469047417B11F05D
:10C5B000400218BF4FF47E4211F0200118BF4FF423
:10C5C00080711143007A0843A4F84E00B4F84E007D
:10C5D000A919084400B2A4F84E0084F8480094F861
:10C5E0004D2004F1400122F0600284F84D2010F447
:10C5F000807F1CBF42F020024A7310F4007F03D0FA
:10C60000D0B240F04000487394F8490094F85210BA
:10C61000401A84F8490023E0B4F8500004F14001C6
:10C62000801B00B284F8480094F84D2022F060028C
:10C6300084F84D2000E017E010F4807F1CBF42F02A
:10C6400020024A7310F4007F03D0D0B240F04000C3
:10C650004873B4F85000A919B0EB0100A4F85000D9
:10C6600004F14000BDE8F081A0F560631B3B1FBFF3
:10C67000A0F56063B3F11D03A0F56063B3F11F0380
:10C6800046D1401E81B2DCF800001646C268604602
:10C690009047002808BF3046417B11F0400118BF89
:10C6A0004FF47E41427B12F0200218BF4FF480729B
:10C6B0001143007A0843A4F84E0094F84D0000F0AE
:10C6C0008000002814BF4FF48071002194F84A00C4
:10C6D00041EA00014FEA910114BF4FF48072002239
:10C6E00042EA000001EB5010A4F8520094F84D000B
:10C6F00010F0400118BF4FF47E4110F0200018BF29
:10C700004FF48070084394F848100843401BA5E795
:10C7100094F84D3013F0400618BF4FF47E4613F0E6
:10C72000200318BF4FF48073334394F848603343B9
:10C73000A4F84E30A0F56063093B1CBFA0F5606310
:10C74000B3F1130306D0A0F56063193B18BFA4F83A
:10C750005210CBD1A0F56061164613390CBF40F6DC
:10C760000C60401E81B2DCF80000C2686046904751
:10C77000002808BF304694F84D1011F0800118BF12
:10C780004FF4807194F84A201143427B12F08002EA
:10C7900018BF4FF48072807A1043081AA4E72DE97D
:10C7A000F0411E4617460446FFF78CFD05463868E3
:10C7B0002946C26838469047A5F5606130607F29F8
:10C7C00006D8024639462046FFF799FE306020E041
:10C7D00094F85510E9B1A5F51061023919D1B8B135
:10C7E00002682264426862648268A2648089A4F854
:10C7F0004C0094F84D0010F0080118BF4FF4807100
:10C8000094F846000843404284F8490004F140008F
:10C81000306050B1417B11F0800118BF4FF480713E
:10C82000807A084308BF012000D0002084F855001A
:10C830002846BDE8F0812DE9F0471E46DDE908896C
:10C8400017460446FFF73EFD054638684B4642460C
:10C85000D0F808C029463846E047A5F56061306049
:10C860007F2906D8024639462046FFF748FE306049
:10C8700020E094F85510E9B1A5F51061023919D1FD
:10C88000B8B102682264426862648268A2648089E6
:10C89000A4F84C0094F84D0010F0080118BF4FF4B4
:10C8A000807194F846000843404284F8490004F13E
:10C8B0004000306050B1417B11F0800118BF4FF44F
:10C8C0008071807A084308BF012000D0002084F8DE
:10C8D00055002846BDE8F087012180F854107047C4
:10C8E00010B44FF0000C002B1ADD00BF0CEB03005E
:10C8F00000EBD070401000EB800432F814408C4202
:10C9000088BF034638BF00F1010C07D100EB80005F
:10C9100002EB400010BC00F1020070479C45E5DBD3
:10C9200010BC0020704710B4A1F22160192807D86C
:10C93000134810BC00EBC100A0F544500838704704
:10C94000A1F24160092807D80E4810BC00EBC100D5
:10C95000A0F5485008387047A1F27160622824D8C9
:10C960002820DFF824C000231A1802EBD2725210DC
:10C9700002EB82043CF814408C4207E0CDCCCCCCD6
:10C98000C25A0108925B0108E25B010888BF1046A9
:10C9900038BF531C07D102EB82000CEB400010BCE7
:10C9A00000F1020070478342DEDB10BC00207047BC
:10C9B0002DE9F04F03461A3083B0C68A002E40F2AC
:10C9C0004C83828AFE4C0092A4FB025C4FEADC0C92
:10C9D000CCF1000C0CEB8C0C02EB4C0230F812008A
:10C9E000002804BF03B0BDE8F08F012933D18028AF
:10C9F00031D25B2802BF5D2003B0BDE8F08F18DCA8
:10CA0000282802BF292003B0BDE8F08F292802BFE3
:10CA1000282003B0BDE8F08F3C2802BF3E2003B0C1
:10CA2000BDE8F08F3E2802BF3C2003B0BDE8F08F88
:10CA300011E05D2802BF5B2003B0BDE8F08F7B28CA
:10CA400002BF7D2003B0BDE8F08F7D2802BF7B20B0
:10CA500003B0BDE8F08F03F11A02012E40F2FD820F
:10CA600000991746491CA4FB015C4FEADC0CCCF191
:10CA7000000C0CEB8C0C01EB4C05022E32F815105F
:10CA8000029140F2EA82009A921CA4FB028C4FEAC7
:10CA9000DC0CCCF1000C0CEB8C0C02EB4C0C4FF0D2
:10CAA000010837F81C20202828D1A1F24C69B9F1DF
:10CAB000040F9CBFA2F5C069B9F151090AD1A7F8CA
:10CAC00014C0FA8A4FF21260921EFA8283F85480E0
:10CAD000084472E0A1F5C069B9F151090ED1B2F56F
:10CAE000CE6F60D1A7F814C0F98A4FF66340891E53
:10CAF000F98283F8548003B0BDE8F08FA1F5C067D8
:10CB0000443F36D140F2356940F2D26A40F2426782
:10CB100048450FD1A2F5C065493D0CD1A3F82EC000
:10CB2000198E4FF6F950891E198683F8548003B088
:10CB3000BDE8F08F0DD1524543D1A3F82EC0198E18
:10CB40004FF6F050891E198683F8548003B0BDE873
:10CB5000F08FB8420DD1524533D1A3F82EC0198EB3
:10CB60004FF6F150891E198683F8548003B0BDE852
:10CB7000F08F202813D0A0F2216CBCF11A0F21BF36
:10CB8000A0F2416CBCF10A0FA0F2716CBCF1630F12
:10CB900017D300BF83F8548003B0BDE8F08FA1F233
:10CBA0004B62072AF6D8DD851A8E4FF2DA10521E34
:10CBB0001A8683F8548000EB410003B080B2BDE8D0
:10CBC000F08F03F11A05032E40F24782DDF800C012
:10CBD0007B4C0CF1030CA4FB0C74E408644204EBE2
:10CBE00084040CEB440BA0F2276C35F81B50BCF10D
:10CBF000210F9CBF40F2276494424ED840F24A6411
:10CC0000944224BF40F22F67BD4246D3B5F5C96FA9
:10CC100043D2CCEB4C1702EBC204C7EB0C2C04EB59
:10CC2000021404EB8C0404EB050CACF51E4CACF5C3
:10CC3000FF7C1FFA8CF9DFF88CA14FF0080C00275D
:10CC400007EB0C0404EBD474641004EB840E3AF884
:10CC50001EE0CE4588BFA44638BF671C1BD104EB3D
:10CC6000840C0AEB4C0C1CF1020C16D0BCF80240F0
:10CC70008C4212D103F11A00032EC0F0EE81A0F80D
:10CC800014B0C18AC91EC18283F85480BCF8000068
:10CC900003B0BDE8F08F6745D2DB4FF0000CA0F584
:10CCA000C5676446222F9CBF40F22C68884543D854
:10CCB000B1F5CA6F9EBF904540F2516842453BD8DE
:10CCC00040F27E5C07FB0CFC01EB410707EB011710
:10CCD0000CEB470C94440CF64C7C1FFA8CFADFF8F2
:10CCE000E8904FF0620C4FF0000800BF08EB0C0713
:10CCF00007EBD7777F1007EB870B39F81BB0D345CD
:10CD000088BFBC4638BF07F101080ED107EB870C7E
:10CD100009EB4C0C1CF1020C0ED00224032E84BF34
:10CD20002946002740F2998147E0E045DEDB4FF0DD
:10CD3000000C674684B900E00027A1F24B68B8F107
:10CD40000A0F02D9B8F1290806D10F461146032E61
:10CD500088BF2A4640F28181A0F22665242D9CBF1F
:10CD600040F222658D4228D840F2D5658D4224D309
:10CD700000F0FF0C88466CF31F28DFF850A04FF03E
:10CD8000AB0C4FF0000900BF09EB0C0505EBD575A6
:10CD90006D1005EB850B3AF81BB0C34588BFAC4658
:10CDA00038BF05F1010933D105EB850C0AEB4C0CBA
:10CDB0001CF1020C1CBF0124114640F2216207E065
:10CDC000CDCCCCCCF04F01084050010814540108E0
:10CDD0008A4205D240F2D3628A4228BF002500D29F
:10CDE000012593F854200192002A0CBF0122002251
:10CDF000002D14BF4FF000084FF002084244BCF170
:10CE0000000F7CD03CF81280B8F1000F05D0D8E0BC
:10CE1000E145B9DB4FF0000CCFE7002C70D0022ABF
:10CE200002D0032A0BD01CE0BCF80010C9B1A0F559
:10CE3000C061443908BF002213D10125ECE0BCF8E1
:10CE40000280B8F1000F0CD0A0F58068B8F5117819
:10CE500007D1A1F5C068B8F1470818BF0122ECD18D
:10CE60000EE0A0F22161192906D8854901EBC00125
:10CE7000A1F54451083930E0A0F24161092906D8F2
:10CE8000804901EBC001A1F54851083925E0A0F225
:10CE90007161622920D8DFF8F0A1282183464FF084
:10CEA000000900BF09EB010808EBD8784FEA6808D1
:10CEB00008EB880E3AF81EE0DE4588BF414638BFD1
:10CEC00008F1010906D108EB88010AEB410101F1E3
:10CED000020102E08945E5DB0021012E79D9DDF868
:10CEE000088040F22169C84506D940F2D369C84597
:10CEF00098BF4FF0000801D94FF0010801E01EE093
:10CF00005FE0DDF80490B9F1000F0CBF4FF00109AC
:10CF10004FF00009B8F1000F14BF4FF0000A4FF0B6
:10CF2000020AD14400291CBF31F81910002903D08E
:10CF300045464A46002402E0BCF1000F41D1A0F270
:10CF40002161192907D84E4901EBC001A1F5405CC8
:10CF5000ACF5847C2FE0A0F24161092907D849494A
:10CF600001EBC001A1F5405CACF5027C23E0A0F22E
:10CF70007161622984BF03B0BDE8F08F2821DFF81A
:10CF800008A181464FF0000808EB010C0CEBDC7C9B
:10CF90004FEA6C0C0CEB8C0B3AF81BB0CB4588BFFE
:10CFA000614638BF0CF1010814D10CEB8C010AEB7F
:10CFB000410101F1020CBCF1000F04BF03B0BDE858
:10CFC000F08F022A0BD0032A11D0012A16D0DAB131
:10CFD00022E042E08845D7DB03B0BDE8F08FBCF823
:10CFE0000410002904BF0125002215D10CE0BCF873
:10CFF0000610002904BF01252A460DD1BCF80210F5
:10D00000002908BF002207D1BCF8001021B9BCF8E4
:10D010000210002918BF01223CF81210002904BF99
:10D0200003B0BDE8F08F83F8545003F11A00A64214
:10D0300013D300990D191549A1FB0586F608764210
:10D0400006EB860605EB46058582C58A2C1BA4B235
:10D05000C48287B11A33012C01D8AFF30080988ABB
:10D06000401CA1FB0041C908494201EB810100EBD2
:10D07000410023F810703CF8120003B0BDE8F08FB7
:10D08000C25A0108925B0108E25B0108CDCCCCCC0E
:10D090002DE9F00F8F6A4A69CE6A4B68D21BA3EB69
:10D0A00006034FF0000C6FF0004514BF002B6446E0
:10D0B00038D002FB03F494FBF3F8904504D1E21757
:10D0C00004EB127214112DE00124002BBCBF4FF0B1
:10D0D000FF345B42002ABCBF644252429A4202DAE9
:10D0E00090461A46434695FBF2FA93FBFAF80AFB80
:10D0F000183902FB0AF34FEAE37A03EB1A7A2AF0B3
:10D100000F0BA3EB0B0303FB08F309FB02324FEAFF
:10D110002A1303FB08F34FEAE27802EB187203EBE1
:10D12000221254430A688B69D21BA3EB060318BF73
:10D13000002B38D002FB03FC9CFBF3F6964206D191
:10D140004FEAEC720CEB12724FEA221C2BE04FF00C
:10D15000010C002BBCBF4FF0FF3C5B42002ABCBF60
:10D16000CCF1000C52429A4202DA16461A46334675
:10D1700095FBF2F693FBF6F506FB153702FB06F37B
:10D18000DE1703EB167626F00F08A3EB08036B43BC
:10D1900007FB023233116B43D51702EB157203EB19
:10D1A000221202FB0CFCA4EB0C0200EE102AF8EE9B
:10D1B000C00A9FEDFE0AF7EE003A91ED021A60EE0A
:10D1C000800A83EEA03AC3EE810AC0ED000A91ED19
:10D1D000031A21EE202A80ED032A91ED041A61EE54
:10D1E000202AC0ED062A91ED071AC3EE811AC0ED80
:10D1F000011A91ED081A21EE215A80ED045A91EDA1
:10D20000091A61EE214AC0ED074A91ED0C4A83EEFE
:10D21000841A80ED021AD1ED0D3A71EEC11A23EE97
:10D22000814A80ED054AD1ED0E3A63EE813AC0EDB8
:10D23000083A4B68CA6A9B1A05EE903A8B69F8EE79
:10D24000E55A9A1A65EE805A21EEA56A70EEC15A27
:10D2500001EE102AB8EEC11A21EE001A05EEC16ADD
:10D2600026EE031A80ED091A0B688A6A9B1A06EEED
:10D27000103A4B69B8EEC66A9A1A26EE006A61EE59
:10D28000861A06EE102AB8EEC66A26EE006A45EE49
:10D29000C61A75EE445A32EE444A63EE611AC0ED86
:10D2A0000A1A4B68CA6A9B1A05EE103AB8EEC55ABC
:10D2B00025EE005A25EE855A8B6974EEE34A9A1AD8
:10D2C00006EE102AB8EEC66A26EE006A04EE465A4A
:10D2D00025EE035A80ED0B5A0B688A6A9B1A06EEFC
:10D2E000103A4B69B8EEC66A9A1A26EE006A65EEE5
:10D2F000865A06EE102AB8EEC66A26EE006A44EE9A
:10D30000465A23EE654A80ED0C4A4B68CA6A9B1A5E
:10D3100005EE903A8B69F8EEE55A9A1A65EE805A56
:10D3200024EEA56A72EEE35A03EE902AF8EEE33A91
:10D3300063EE803A05EEE36A66EE033AC0ED0D3A1D
:10D340000B688A6A49699B1A06EE103A891AB8EE88
:10D35000C66A26EE006A64EE864A06EE101A4FF49C
:10D3600000414A1EB8EEC66A26EE000A45EEC04AE3
:10D3700025EE200A02EE410A23EE643A80ED0E3AD1
:10D38000B5EEC00AF1EE10FA0DDCB5EEC00AF1EE12
:10D3900010FA0AD324EE200A02EE610AB5EEC00AA2
:10D3A000F1EE10FA01DBC16300E0C26323EEA00AD4
:10D3B00002EEC10AB5EEC00AF1EE10FA03DD016417
:10D3C000BDE8F00F7047B5EEC00AF1EE10FA08D3D1
:10D3D00023EE200A02EEE10AB5EEC00AF1EE10FAE1
:10D3E000EDDA0264BDE8F00F70472DE9F05F03EB62
:10D3F000830702EB87060A9DD6F804C01CF10F0CC8
:10D400003DD44FEAEC740CEB147C4FEA2C1400BFB3
:10D4100005EB850502EB85084461D8F804C01CF1D2
:10D420000F0C3CD44FEAEC790CEB197C4FEA2C1C26
:10D43000BCEB040CC0F818C008BFBDE8F09FD8F8DA
:10D4400004C052F8258052F82750D6F80490A8EB73
:10D450000508ACEB090C09FB08F904FB08FAC9EB59
:10D460000A190CFB05954FF0FF3909EB0C194FEA2F
:10D470000C1C4D44BCF1000F23DCAFF30080CCF159
:10D48000000C4FEAEC740CEB1474241164421CF091
:10D490000F0C18BF4FF0010CA4EB0C04B8E7CCF153
:10D4A000000C4FEAEC790CEB19794FEA2919C9F114
:10D4B00000091CF00F0C18BF4FF0010CA9EB0C0C6D
:10D4C000B6E7002D06DB95FBFCF90CFB1955C0F8FF
:10D4D000009011E0C5F1000A9AFBFCF5C5F10009C6
:10D4E0000CFB15A5C0F80090056135B1A9F1010943
:10D4F000ACEB0505C0F8009005615FEA081507D49C
:10D5000095FBFCF80CFB1855C0F80480856010E012
:10D51000C5F1000999FBFCF5C5F100080CFB159558
:10D52000C0E901852DB1A8F10108ACEB0505C0E902
:10D530000185C0F80CC0D6F804C052F82720CCEB07
:10D54000041C00EE10CAD0F800C0D1ED0A1AC2EBDC
:10D550000C1201EE102AF8EEC00A9FED140AB8EE84
:10D56000C11A01EB830260EE800A21EE001A92EDEF
:10D57000000A00EEA10AD1ED091A01EE210A80EDA0
:10D58000070A90ED010AD1ED0A1AD1ED092AB8EE89
:10D59000C02A42EE221AC0ED081AD1ED091AC0EDD8
:10D5A000091AD2ED031A91ED0C2A01E00000803D2A
:10D5B00040EE821A91ED0B2A41EE021AB8EEC02A13
:10D5C000B8EEC00AC0ED0A1AD1ED0C1AD1ED0B2A43
:10D5D00042EE221AC0ED0B1AD1ED0B1AC0ED0C1A57
:10D5E000D2ED061A91ED0E2A40EE821AD1ED0D0A07
:10D5F00041EE201AC0ED0D1AD1ED0E0A91ED0D1A73
:10D6000040EE010AC0ED0E0A91ED0D0A80ED0F0A01
:10D61000BDE8F09F0028B8BF404204BF1F207047FC
:10D620004FF00001020C04BF1021000410F07F4FE6
:10D6300004BF0831000210F0704F04BF091D000143
:10D6400010F0404F04BF891C800010F0004F08BF4D
:10D65000491C481E70472DE9F0470C4605464C22F0
:10D660000021A648FDF7BFFF21682069E3680A1A78
:10D6700061695B1A5A43A368C01A6368591A9F4BC1
:10D6800000FB0120986129692868D4F80CC0421A6F
:10D690006069ACEB000C02FB0CF2D5F808C0A1EB02
:10D6A0000C01D4F804C0ACEB000001FB00221A60AE
:10D6B00021682069AE68A1EB000C2969761A0CFB81
:10D6C00006FC2E68891BA668301A01FB00C0586052
:10D6D0002669D5F808C0A1682F6906FB0CF001FB8C
:10D6E0001700D4F8048000FB08F8206800FB07F955
:10D6F0002F6806FB17967943D4F80C9000FB1C109A
:10D7000006FB0986616900FB0160986069696868C9
:10D71000E668A0EB010C6069361A0CFB06FCEE68AB
:10D72000891B6668301A01FB00C0D8602168206937
:10D73000A1EB000CEE686969761A0CFB06FC6E68BA
:10D74000891BA668301A01FB00C018612169EE68C8
:10D75000D4F808C0686901FB06F70CFB1077D4F811
:10D76000048007FB08F8276807FB00F96868E5688C
:10D7700001FB10910CFB00F001FB058107FB16007B
:10D78000D4F814C000FB0C1058611046FFF742FF9C
:10D79000D861196801FA00F2986992FBF0F100FB78
:10D7A0001120D962D8635868FFF734FF18625968AE
:10D7B00001FA00F2996992FBF1F0186301FB102065
:10D7C0001864D868FFF726FF5862D96801FA00F29A
:10D7D000986992FBF0F100FB1120596358641869B5
:10D7E000FFF718FF9862196901FA00F2986992FB35
:10D7F000F0F100FB112099639864BDE8F0872DE9F2
:10D80000F0014FF0010CDDE90554079F0028BCBF73
:10D8100040424FF0FF3C002DBCBF6D42CCF1000CEC
:10D82000002CBCBF6442CCF1000C45FA01F6D7F8DD
:10D830000080724303FB0683012606FA01F1491EAC
:10D840002940484390FBF4F104FB1100184490FB7D
:10D85000F4F304FB13003860BDE8F00119441144EF
:10D8600001FB0CF070472DE9F0410546234CD5E94A
:10D870000061A06984B000283BD0A16800EBD072A1
:10D8800001EB620103AFCDE90060CDE90271E36B0A
:10D89000E26AE1692068FFF7B2FF0646A06969689D
:10D8A000CDE900100297236C226B216A6068FFF7B4
:10D8B000A6FF0644D4E9051000EBD07201EB62012B
:10D8C00003912968CDE900100297636C626B616A6D
:10D8D000E068FFF794FF8046A0696968CDE9001011
:10D8E0000297A36CA26BA16A2069FFF788FF00EB87
:10D8F0000801C5E9006104B0BDE8F081049600208C
:10D900002DE9F05F0546002092469B468846064674
:10D91000814640241BE0284641464746224600F007
:10D920007BF853465A46C01A914110D31146184607
:10D93000224600F062F82D1A67EB01084F46224696
:10D940000120002100F059F817EB00094E41201E7C
:10D95000A4F10104DFDC484631462A464346BDE8CF
:10D96000F09F40EA01039B0703D009E008C9121F9A
:10D9700008C0042AFAD203E011F8013B00F8013B89
:10D98000521EF9D27047D2B201E000F8012B491EB5
:10D99000FBD270470022F6E710B513460A4604464C
:10D9A0001946FFF7F0FF204610BD000070B5054C8A
:10D9B000054D03E0206820448047241DAC42F9D186
:10D9C00070BD0000C8AE0108D0AE01082DE9F041DD
:10D9D000074615460E46102005F0E8FB04000AD065
:10D9E0006760C4E9026500F027F8016821600460FF
:10D9F0000020BDE8F0810120FBE7202A04DB203A6B
:10DA000000FA02F1002070479140C2F1200320FA91
:10DA100003F3194390407047202A04DB203A21FA8F
:10DA200002F00021704721FA02F3D040C2F1200237
:10DA3000914008431946704700487047BC030020D6
:10DA400070472DE9F0410646FFF7F6FF8046454650
:10DA500013E016B1E068B0420ED120682860D4E926
:10DA60000101D8F800708847204605F013FAD8F86D
:10DA70000000B842EBD100E025462C68002CE8D12C
:10DA8000BDE8F08100207047064C074D06E0E068D5
:10DA900040F0010394E8070098471034AC42F6D3F5
:10DAA000F2F788FB44AE010864AE0108704770B518
:10DAB0008C1810F8015B15F0070301D110F8013B39
:10DAC0002A1106D110F8012B03E010F8016B01F8C0
:10DAD000016B5B1EF9D12B0705D40023521E0DD418
:10DAE00001F8013BFAE710F8013BCB1A921C03E066
:10DAF00013F8015B01F8015B521EF9D5A142D8D39E
:10DB0000002070BDFEE70000014800F085BC000069
:10DB1000D8130020F0B50468059E656C46EA0343FF
:10DB200005F040451D4365640368DA634268B2F559
:10DB3000403F02D00068C160F0BD01F47F4201F4B3
:10DB40007F0C866801F07F4301F47F0701F47F4575
:10DB5000CCB242EA0C02BEB1012E16D001F47F0213
:10DB6000D20CC1F3C401022E11D0032E14D0190F10
:10DB70003A0D2D0B23092C0144EA022242EA01321C
:10DB80001A4300688263F0BD1A432243F9E7AB0AE7
:10DB90005B0143EAC22206E0DB0FEC0A640144EABF
:10DBA000822242EAC3320A43EBE7704701B500988C
:10DBB00001E0401E00900028FBD108BD704730B541
:10DBC000D1E901231A43D1E903352B431A434B69A9
:10DBD0000C681A438B691A43D1E90735012C496A4D
:10DBE000046807D01A432A436FF30E040A43224302
:10DBF00002600AE024F4F8442B4321430B434168BC
:10DC000003606FF30E010A434260002030BD426999
:10DC100042EA4101416100207047F8B514460546CB
:10DC2000D1E9000210438A686FF01F03C96803EB53
:10DC3000421242EA412108430090286100F0C6FEEA
:10DC4000064609E0601C07D024B100F0BFFE801B2F
:10DC5000A04201D90320F8BDA8698006F2D40020B3
:10DC6000F8BD0000F0B56FF00F05D1E9003405EB09
:10DC700004145B1E23432E018C682F0306EB04243F
:10DC800023434FEA054C0C8A8E8ACD68097E4FF0FB
:10DC90007F4E07EB04440CEB06560EEB0161012AA4
:10DCA0000CD082683F1107EB05352B4323433343E8
:10DCB00002F070420B43134383600FE08768084A09
:10DCC00017402A03A2F580523243C5683A432343E2
:10DCD00005F070450B432B438260C3600020F0BD0C
:10DCE000FF0F0FFF00F0E8B97CB500200090802600
:10DCF00001908DF8006048208DF8010006226946E9
:10DD0000BA2000F047F8002819DB9DF802009DF8C2
:10DD100003108DF8006000EB012085B29DF804002F
:10DD20009DF80510032200EB012084B24D208DF8F0
:10DD300001006946BA2000F02DF8002801DA002021
:10DD40007CBD9DF80200224600F00303294602A094
:10DD500004F012F801207CBD3C3C2D4754502D4965
:10DD60004E464F2D3E3E20585F4D4158203D2025C8
:10DD7000642C20595F4D4158203D2025642C2054AF
:10DD8000524947474552203D203078253032780AA5
:10DD900000000000F0B587B00D460221ADF8041078
:10DDA00000240121ADF80240ADF80E108DF80000FE
:10DDB0008DF80C00901EADF81000A81C16460295B8
:10DDC00005900221684602F029F80746022803D090
:10DDD000641C052CF5DB01E0052C06DB28883B469E
:10DDE00041BAB21E024803F0C7FF07B03846F0BD83
:10DDF0006469010838B50C4800256C1E0068009065
:10DE00000BE003226946BA20FFF7C4FF44B2002C9E
:10DE100008DC294605A003F0AFFF28466D1CEDB2D3
:10DE20000528EED3204638BDE84E01083C3C2D477E
:10DE300054502D4552524F522D3E3E2047545020B3
:10DE40006932632074657374206661696C6564204F
:10DE500074696D652025642E0A000000FEB500245B
:10DE6000ADF8024016460F468DF80000ADF80420CC
:10DE700002910121684601F0D1FF0546012803D037
:10DE8000641C052CF5DB01E0052C06DB38882B46ED
:10DE900041BAB21E024803F06FFF2846FEBD0000E3
:10DEA000B46901082DE9F8430025B82401F0B4FF56
:10DEB000FFF7A0FF002802DA20A003F05DFF00F0CA
:10DEC00059F829484078A0B3274FC037DFF89C8025
:10DED000BA26F02108F10200FFF75CFD3246394610
:10DEE00008F10200FFF73DFD02204246A11C135C31
:10DEF000401C2B44DDB28842F9DBE94308EB040007
:10DF0000491C81700121C1700025221D1749BA20CA
:10DF1000FFF7A4FF002802DC6D1C052DF5DB14487B
:10DF20000090401E0090FCD1FFF7DEFE0020BDE80F
:10DF3000F883FFE70C4FBF1DC8E700003C3C2D47AE
:10DF400054502D4552524F522D3E3E2049324320CF
:10DF5000636F6D6D756E69636174696F6E20455294
:10DF6000524F52210A00000030000020AA01002078
:10DF7000FFFF0F0030B52B4985B00822D1E9010120
:10DF8000CDE9030103A9BA20FFF704FF040003D57C
:10DF900025A003F0F1FE41E09DF811002D4D9DF804
:10DFA000121090B19DF813200291CDE900029DF866
:10DFB00010309DF80F209DF80E1027A003F0DCFE16
:10DFC0009DF80E0039281BD028E09DF81300CDE9FC
:10DFD00000019DF810309DF80F209DF80E102AA02A
:10DFE00003F0CAFE9DF80E00392817D19DF80F00E6
:10DFF000312813D19DF8100031280FD101200CE0F9
:10E000009DF80F00312809D19DF81000352805D161
:10E010009DF81100372801D10020687005B0204616
:10E0200030BD0000E84E01083C3C2D4754502D45C2
:10E0300052524F522D3E3E2047545020726561642B
:10E040002076657273696F6E206661696C65640A1B
:10E0500000000000300000203C3C2D4754502D496A
:10E060004E464F2D3E3E204943322056657273691D
:10E070006F6E3A2025632563256325635F25303263
:10E0800078253032780A00003C3C2D4754502D4909
:10E090004E464F2D3E3E20494331205665727369EE
:10E0A0006F6E3A202563256325635F25303278251E
:10E0B0003032780A000000007FB51DA01D4A0068BC
:10E0C000039007CA8DE80700BA244FF0FF350C22F1
:10E0D00069462046FFF75EFE010003D516A003F057
:10E0E0004BFE7FBD9DF802101F48C1B10A060BD53B
:10E0F00001F00F01012907D801210170BDF80410BA
:10E10000BDF8062041808280032203A92046FFF744
:10E11000A5FE0028E5DA15A003F02EFE7FBD0178EC
:10E120000029FBD045808580002101707FBD000063
:10E13000814E0000F44E01083C3C2D4754502D45C3
:10E1400052524F522D3E3E20493243207472616E2E
:10E1500073666572206572726F722E206572726EC0
:10E160006F3A25640A200A00300000203C3C2D470D
:10E1700054502D494E464F2D3E3E20493243207784
:10E180007269746520656E645F636D642065727288
:10E190006F72210A0000000010B5040002D06079FF
:10E1A00010B106E0012010BD00202071204600F0D3
:10E1B00005F801206071002010BD000008B500685E
:10E1C0000649884208D10648016841F4805101603F
:10E1D000006800F48050009008BD0000003002404C
:10E1E000303802402DE9F04104460068016821F012
:10E1F0000501091D016000F0E9FB054600264FF40A
:10E200007A770FE000F0E2FB401BB8420AD954F8DD
:10E210003C0F40F0200044F8040903206070267091
:10E22000BDE8F08120680068C007EBD12068016874
:10E2300021F40C510160012084F8390084F8386021
:10E240000020EDE7F8B504461D46DDE9063094F8F8
:10E250003860012E18D0012684F83860022684F830
:10E2600039602668726100902A462046FFF752FC0A
:10E270002068016841F40C5101602068016841F098
:10E28000010101600020F8BD0220F8BD70470000C8
:10E290002DE9F0410446006800F12405026842F0CF
:10E2A00004020260012901D125681C3500F08EFBB3
:10E2B000064600274FF47A7810E000BF00F086FB96
:10E2C000801B40450AD954F83C0F40F0200044F828
:10E2D0000409032060702770BDE8F081286880067B
:10E2E000ECD42068016821F464510160012084F8B5
:10E2F000390084F838700020EEE7000070B590F81F
:10E300003820012A24D0012680F83860022280F8C3
:10E31000392000EB0112148CD369183243EA04450A
:10E320001E4C0A2B16D0092B14D0137B45EA03632D
:10E330000029016813D0CD69A5431D43CD61036851
:10E340001168196151680A291BD0092919D01DE0EB
:10E35000022070BDD36803F07F432B43E8E74D6A8A
:10E36000A5431D434D6203681168996151680A29EC
:10E3700001D009290AD1D168026821F07F41916258
:10E3800004E0D168026821F07F41116280F83960B1
:10E39000002180F83810084670BD00000F0003FF10
:10E3A00070B5040011D01B480068000217D5206822
:10E3B0000168C90703D02046FFF714FF04E0416A53
:10E3C000890604D5002106E048B1012070BDC0696E
:10E3D000800604D501212046FFF75AFFF4E72068A4
:10E3E0000025056021683F2088602068056120685D
:10E3F00085612068C56120684562206845632046C4
:10E4000000F0C8F8E56384F8395084F838500020EB
:10E4100070BD0000303802402DE9F0470446006826
:10E4200046680568F1074FF004084FF000074FF009
:10E43000010914D0E90512D5016821F48071016049
:10E44000E06B40F00100E0632168C1F8089084F8B7
:10E45000398084F83870616909B120468847B00670
:10E4600015D5A80413D52068016821F40051016076
:10E47000216820208860E06B40F00200E06384F8AF
:10E48000398084F83870616909B1204688473007BF
:10E4900015D5280513D52068016821F400610160B5
:10E4A000216808208860E06B40F00400E06384F895
:10E4B000398084F83870616909B12046884770074F
:10E4C0000CD568050AD52068016821F480610160D7
:10E4D0002168C1F80880204600F05AF8B00713D52B
:10E4E000A80511D52068016821F400710160216838
:10E4F00002208860E06BE06384F8399084F838701B
:10E50000216909B120468847F00612D5E80410D5E4
:10E510002068016821F48051016021681020886022
:10E52000E06BE06384F8399084F838702046FFF798
:10E53000ADFEBDE8F08770B5040004D094F8390052
:10E54000002510B106E0012070BD84F83850204647
:10E5500000F032F8022084F839002068016862680F
:10E5600021F44031114301602068416BA26821F021
:10E570000701114341632068016CE2686FF30D01EC
:10E5800011430164E563012084F83900002070BD67
:10E590007047000000680649884207D105480168B5
:10E5A00021F4000101605A2000F070BD70470000A6
:10E5B00000B002403038024008B500680B4988427C
:10E5C00012D10B48016841F400010160006800228B
:10E5D00000F40000009005215A2000F075FDBDE810
:10E5E00008405A2000F063BD08BD000000B00240A2
:10E5F0003038024038B50446049894F83850012D5C
:10E6000015D0012584F83850022584F8395000903F
:10E610002046FFF77FFA2068016841F40C51016041
:10E620002068016841F001010160002038BD02202E
:10E6300038BD000070B5044600F0C8F90546601CFE
:10E6400002D004480078044400F0C0F9401BA04206
:10E65000FAD370BDA00200202DE9F04F0022DFF8B0
:10E6600054B101264FF00F0906FA02F401EA04033F
:10E67000A3427DD122F003075F44D7F808C895076D
:10E680004FEA157809FA08FA0AEA0C05DFF828C1FA
:10E69000604502D14FF0000C40E0DFF820C160453A
:10E6A00002D14FF0010C39E0DFF814C1604502D10E
:10E6B0004FF0020C32E0DFF80CC1604502D14FF0A0
:10E6C000030C2BE0DFF800C1604502D14FF0040CD1
:10E6D00024E0DFF8F8C0604502D14FF0050C1DE0E2
:10E6E000DFF8ECC0604502D14FF0060C16E0DFF811
:10E6F000E4C0604502D14FF0070C0FE0DFF8D8C04E
:10E70000604502D14FF0080C08E0DFF8D0C060454A
:10E7100002D14FF0090C01E04FF00A0C0CFA08FC92
:10E72000AC4522D12E4DD5F800C02CEA030CC5F81B
:10E7300000C005F1040CDCF800509D43CCF80050FB
:10E740000CF10405D5F800C02CEA030CC5F800C094
:10E750002D1DD5F800C02CEA030CC5F800C0D7F871
:10E76000085825EA0A05C7F808580568570000E068
:10E770001AE00323BB409D430560D50800EB8505E7
:10E78000D5F820C057074FEAD76809FA08F72CEAEE
:10E79000070CC5F820C0C5689D43C5604568A54302
:10E7A000456084689C438460521C102AFFF45CAF6F
:10E7B000BDE8F08F0030014000000240000402403C
:10E7C00000080240000C0240001002400014024009
:10E7D00000180240001C02400020024000240240B9
:10E7E000003C01402DE9F84F00224FF001080325BD
:10E7F0004FF00F0E0B6808FA02F42340A3426ED1CB
:10E800004E68012E05D0022E03D0112E01D0122EFB
:10E8100012D186684FEA420C05FA0CF7BE43CF6866
:10E8200007FA0CF7374387604668A6430C79C4F3B0
:10E830000014944034434460C668570005FA07FC4E
:10E840008C6826EA0C06BC403443C4604C68022C39
:10E8500001D0122C13D1D40800EB8404A346D4F8C1
:10E86000209054074FEAD46A0EFA0AF629EA0609FC
:10E870000E6906FA0AF646EA0906CBF82060046833
:10E880000E7924EA0C0406F00306BE402643066017
:10E890004C68E4006FD53B4C266846F48046266001
:10E8A000246822F0030604F480440094364C344477
:10E8B000A446D4F808489607360F0EFA06F7BC436C
:10E8C000324FB84201D100272EE0314FB84201D17A
:10E8D000012729E02F4FB84202D1022724E04AE065
:10E8E0002D4FB84201D103271EE02C4FB84201D171
:10E8F000042719E02A4FB84201D1052714E0294F17
:10E90000B84201D106270FE0274FB84201D10727AF
:10E910000AE0264FB84201D1082705E0244FB8424B
:10E9200001D1092700E00A27B7402743CCF808782F
:10E93000204E34684F689C43FF0300D51C4334606D
:10E940001C4E361D34684F689C43BF0300D51C43E2
:10E950003460184E083634684F689C43FF0200D577
:10E960001C433460134E0C3634684F689C43BF021E
:10E9700000D51C433460521C102AFFF43BAFBDE8A5
:10E98000F88F00004438024000300140000002408F
:10E990000004024000080240000C02400010024047
:10E9A0000014024000180240001C024000200240F7
:10E9B00000240240003C01400069084000D00120D2
:10E9C00070470AB1816170470904FBE7014880681C
:10E9D00070470000A00200200248816802781144BC
:10E9E00081607047A00200200B4810B5016841F417
:10E9F00000710160016841F480610160016841F4C7
:10EA000080710160032000F07FFB002000F006F819
:10EA100000F020FB002010BD003C024010B5014674
:10EA200088B00022362000F04FFB362000F03FFB7C
:10EA300013480024016841F010010160006805A935
:10EA400000F010000690684600F06CFD00F090FDAC
:10EA50000C494000B0FBF1F10C480B4A491E026022
:10EA600040F2E732C0E90324C0E9011401F016F8CE
:10EA700010B1012008B010BD044801F051F8F9E7C9
:10EA80004038024040420F00001000405C1400205B
:10EA90002DE9F041044690F8A00016460F460128E3
:10EAA0001DD0012584F8A050022084F8A10006EBB7
:10EAB000860000EBC60004EB800034223830FEF7FD
:10EAC00050FF32463946204601F0FEF92068456283
:10EAD00084F8A150002084F8A000BDE8F081022055
:10EAE000FBE710B5044600F015F90020C4F8A400B7
:10EAF00084F8A10084F8A00010BD70472DE9F04112
:10EB000004460068856B466B69074FF004084FF0B8
:10EB1000000715D5710713D5416B21F0040141633E
:10EB20002168C1F83C80D4F8A41041F00101C4F878
:10EB3000A41084F8A18084F8A0702046FFF7DDFFC0
:10EB4000A80716D5B00714D52068416B21F0020143
:10EB5000416321680220C863D4F8A40040F0020099
:10EB6000C4F8A40084F8A18084F8A0702046FFF7C0
:10EB7000C4FF05EA0600C0074FF001080ED0206868
:10EB8000416B21F0010141632168C1F83C8084F8A8
:10EB9000A18084F8A070204600F090F8280710D5D6
:10EBA00030070ED52068416B21F0080141632168D0
:10EBB0000820C86384F8A18084F8A070204600F083
:10EBC000FFF9BDE8F081000070B5040004D094F8AE
:10EBD000A100002510B106E0012070BD84F8A0500E
:10EBE000204600F0E1F8022084F8A1002068816945
:10EBF00021F070418161D4E901010843D4E9031295
:10EC00001143084321688A691043886121688A6832
:10EC1000294802408A60A18A0A0421688B68A66993
:10EC2000334313438B602168CA680240CA60A18BDA
:10EC30000B042168CA68266A32431A43CA602168F5
:10EC40000A6902400A61A18C22680B041169A66A54
:10EC500031431943116121684A6902404A61A08D1C
:10EC6000010420684269236B1A430A43426194F805
:10EC700035002168020294F83600CB6A03F07F4326
:10EC8000CB622168CB6A94F8346042EA0040334397
:10EC90000343CB622068416B41F006014163206869
:10ECA000816941F001018161C4F8A450012084F818
:10ECB000A100002070BD000000F800F0124910B55E
:10ECC0000B68124A124C11888B4211D1518800F006
:10ECD00055F9206810F8661F491C017002F04CFBC2
:10ECE0002068F9F737FDBDE81040002002F091BE22
:10ECF00000F044F9002002F08EFE20680168896966
:10ED0000BDE8104008470000406801402200002094
:10ED1000A403002010B50068194988422FD1194872
:10ED2000016821F08061016040F215611648FFF72B
:10ED300093FC4FF480611548FFF78EFC4AF20811EE
:10ED40001348FFF789FC41F608011248FFF784FCDD
:10ED500040F203311048FFF77FFC4FF4E6510F48B3
:10ED6000FFF77AFC80210E48FFF776FC40210D4822
:10ED7000FFF772FCBDE81040582000F087B910BDC5
:10ED80000068014044380240002002400014024064
:10ED9000001C024000000240000402400018024033
:10EDA00000080240000C02402DE9F04786B00446FE
:10EDB00014216846FEF7EEFD6649206888427DD141
:10EDC00065480024016841F080610160006800F03E
:10EDD0008060059060481438016841F480710160DA
:10EDE000016801F480710591016841F02001016022
:10EDF000016801F020010591016841F08001016086
:10EE0000016801F080010591016841F00101016094
:10EE1000016801F001010591016841F00201016002
:10EE2000016801F002010591016841F040010160B3
:10EE3000016801F040010591016841F004010160A1
:10EE4000016801F004010591016841F008010160C9
:10EE50000068022500F00800059040F2156000905F
:10EE6000CDE901540E26CDE9034669463B48FFF73C
:10EE7000B9FC6F020097CDE90154CDE9034669461C
:10EE80003748FFF7AFFC4AF208100090CDE9015473
:10EE9000CDE9034669463348FFF7A4FC41F6080074
:10EEA0000090CDE90154CDE9034669462E48FFF7AD
:10EEB00099FC03200090CDE9015400E046E04FF0BA
:10EEC0000908DFF8A8A0CDE9034869465046FFF7D6
:10EED00089FC4FF4C6500090CDE90154DFF89090C2
:10EEE000CDE9034669464846FFF77CFC8020009048
:10EEF000CDE90154CDE9034669461E48FFF772FC8F
:10EF000040200090CDE90154CDE9034669461A48F6
:10EF1000FFF768FC0097CDE90154CDE90348694645
:10EF20004846FFF75FFC4FF440700090CDE9015474
:10EF3000CDE9034669465046FFF754FC00220521FF
:10EF4000582000F0C1F8582000F0B1F806B0BDE834
:10EF5000F087000000680140443802400020024071
:10EF600000140240001C0240000002400004024065
:10EF70000018024000080240000C024010B590F852
:10EF8000A020012A17D0012200F8A02F02234370ED
:10EF900050F8A03C5C6B24F001045C63074B1960E3
:10EFA00050F8A01C4B6B43F001034B6342700021EF
:10EFB0000170084610BD022010BD000040680140ED
:10EFC0007047000070B590F8A030012B36D00124B6
:10EFD00080F8A040022380F8A13002EB820303EB0B
:10EFE000C20300EB83039B6C53B3012B2AD0042B89
:10EFF0002AD0022B28D0032B26D0072B24D0012384
:10F0000059430B04B021056801EBC2116A580F4E39
:10F0100032406A500E4A156845F0010515600568D2
:10F020006E581E436E50116841F00101116080F866
:10F03000A140002180F8A010084670BD022070BDDC
:10F040000423DDE70323DBE70223D9E7FFFF00E02A
:10F05000246801400C4882B0016841F4804101609D
:10F06000006800F4804000900748001F016841F0EC
:10F07000805101600068002200F0805000900F2154
:10F08000901E02B000F020B84438024000280DDB8A
:10F0900000F01F02012191404009800000F1E020B2
:10F0A000C0F88011BFF34F8FBFF36F8F70470028F8
:10F0B00009DB00F01F02012191404009800000F1AE
:10F0C000E020C0F800117047F0B40E4B1B680C46EE
:10F0D000C3F30223C3F10705042D00D90425191D2C
:10F0E000072901D2002300E0DB1E012606FA05F104
:10F0F000491E214099409E40761E16403143F0BC87
:10F1000002F062BE0CED00E0064900F0070208685C
:10F110004FF6FF03184040EA0220034A10430860FC
:10F12000704700000CED00E00000FA052DE9F843FF
:10F130001748016841F0805101600068154F00F0E8
:10F140008050012600903E64FFF740FC05464FF4D6
:10F150007A78114C05E000BFFFF738FC401B4045B2
:10F160000DD86068C003F7D57E64FFF72FFC054615
:10F17000464607E0FFF72AFC401BB04202D90320B5
:10F18000BDE8F88360688003F4D50020F8E700004C
:10F190004038024000000E42007000402DE9F84F58
:10F1A00004460068DFF824A2894F8A4DC1074FF05A
:10F1B00001084FF0000603D1810701D4400648D56D
:10F1C000CAF86860FFF702FC814605E0FFF7FEFB26
:10F1D000A0EB090002287DD828680001F6D4207829
:10F1E000C1077D4805D06168227A890141EA027130
:10F1F00001602178890711D501686268237B92013B
:10F20000C1F3027142EA036242EA017101603968A6
:10F21000E26921F01F01521E11433960217849062D
:10F2200008D56168227B890141EA0261227A41EABC
:10F2300002710160CAF86880FFF7C8FB814605E0EB
:10F24000FFF7C4FBA0EB0900022843D8286800019F
:10F25000F6D52068410701D400074ED5CAF8706082
:10F26000FFF7B4FB814605E0FFF7B0FBA0EB090018
:10F2700002282FD82868C0438000F5D520784107A0
:10F28000564814D501682269237D9201C1F30271A9
:10F2900042EA036242EA017101603968226A6FF052
:10F2A000FF0321F4F85103EB022211433960217866
:10F2B000090712D501682269C1F30361920142EA8C
:10F2C0000161227E41EA027101603868616A20F4BE
:10F2D000403000E051E008433860CAF87080FFF722
:10F2E00075FB074605E000BFFFF770FBC01B022857
:10F2F00043D82868C0438000F6D42078800653D5D0
:10F3000034484030016841F0805101600068344D5C
:10F3100000F080500090286840F480702860FFF76B
:10F3200055FB074605E000BFFFF750FBC01B022856
:10F3300023D82868C005F7D5274D143D286810F458
:10F34000407020D0218D01F4407181421BD028688B
:10F3500020F440712348C0F80080066029602868C6
:10F36000C00710D0FFF732FB064641F2883707E0AE
:10F37000FFF72CFB801BB84202D90320BDE8F88FB1
:10F3800028688007F4D5A16A1248C1F30122083029
:10F39000032A13D0016821F4F81101602868218D37
:10F3A000C1F30B01084328602078C00604D50E493C
:10F3B00094F82C00C1F8E0010020DFE702680B4B55
:10F3C00022F4F81219400A430260E7E700004742BE
:10F3D0008C380240003802408438024088380240AD
:10F3E00000700040400E474200104742FFFCFF0FF4
:10F3F0002DE9F0470E46050065D0DFF81481D8F8F6
:10F400000000F7B200F00F00B04207D288F8007099
:10F41000D8F8000000F00F00B04254D128683D4CED
:10F42000810712D5400703D5206840F4E0502060E2
:10F430002878000703D5206840F4604020602068E9
:10F44000A96820F0F000084320602878C0072DD07C
:10F45000304968680839012812D0022813D00328DF
:10F4600011D00968890700292DDA216821F00301EC
:10F4700001432160FFF7AAFA814641F2883A0EE083
:10F4800009688903EFE709688901ECE7FFF79EFA4D
:10F49000A0EB0901514502D90320BDE8F08720689F
:10F4A000696800F00C00B0EB810FEFD1D8F80010C4
:10F4B000404601F00F01B14207D90770006800F023
:10F4C0000F00B04201D00120E7E72878400705D5BA
:10F4D0002068E96820F4E05008432060287800079D
:10F4E00006D52068296920F4604040EAC100206008
:10F4F00000F05EF82168084AC1F30311515CC8406E
:10F500000649086006480068FFF788FA0020C4E74B
:10F51000003C024008380240004F0108AC020020C5
:10F52000A40200200F2202600C4A136803F00303B8
:10F530004360136803F0F0038360136803F4E0533F
:10F54000C36012684FF4E05303EAD2020261044838
:10F55000006800F00F0008607047000008380240A3
:10F56000003C02400148006870470000AC020020E7
:10F570000448054900680968044AC1F38221515CC6
:10F58000C8407047AC02002008380240104F010804
:10F590000448054900680968044AC1F34231515CD6
:10F5A000C8407047AC02002008380240104F0108E4
:10F5B000154810B5006810F00C02144813D0144917
:10F5C000042A0FD0082A0ED10F4C241F226823686A
:10F5D00002F03F025B0207D52068C0F38810A0FB51
:10F5E000010106E0084610BD2168C1F38811A1FBA6
:10F5F00000010023FEF784F92168C1F30141491C91
:10F600004900B0FBF1F010BD083802400024F400BE
:10F6100040787D012DE9F84F040076D02078DFF89E
:10F6200038A3CE4DC00749D0DAF800105046C1F3D8
:10F630008101012908D00068C0F3810002280AD1A5
:10F64000281D0068400206D52868800336D560680A
:10F650000028E2D032E06068B0F5803F10D0B0F50D
:10F66000A02F286810D020F480302860286820F46B
:10F67000802028606068A0B1FFF7A8F906460CE07A
:10F68000286840F48030F4E740F480202860F7E7F1
:10F69000FFF79CF9801B642873D828688003F7D58E
:10F6A0000CE0FFF793F9064605E000BFFFF78EF97F
:10F6B000801B6428F0D828688003F7D42078DFF80E
:10F6C000A08280074FF000093ED5DAF800105046BE
:10F6D00011F00C0F09D00068C0F3810002280BD193
:10F6E0009D48001F0068400206D42868800715D591
:10F6F000E068012809D111E0E068B8B10120C8F83C
:10F700000000FFF763F9064605E020E1FFF75EF928
:10F71000801B0228C0D828688007F7D5286821698F
:10F7200020F0F80040EAC10028600DE0C8F8009021
:10F73000FFF74CF9064604E0FFF748F9801B022862
:10F740001FD828688007F7D42078000722D5824E7A
:10F75000844861696C3671B101210160FFF736F9A7
:10F76000074604E0FFF732F9C01B022809D83068C9
:10F770008007F7D50EE0C0F80090FFF727F907469D
:10F7800005E082E0FFF722F9C01B02287DD830682F
:10F790008007F7D42078400768D5DFF8BCB1002790
:10F7A0000BF1380BDBF80000C0000BD4DBF80010C5
:10F7B00041F08051CBF80010DBF80000012700F089
:10F7C00080500090684E3068C00510D4306840F416
:10F7D00080703060FFF7FAF8009005E0FFF7F6F868
:10F7E0000099401A022850D83068C005F6D55A4E04
:10F7F000A068683601280FD00528306810D020F0A6
:10F8000001003060306820F004003060A068B8B1BA
:10F81000FFF7DCF800900FE0306840F00100F4E7FB
:10F8200040F004003060F7E7FFF7D0F80099411A84
:10F8300041F28830814266D830688007F4D50EE006
:10F84000FFF7C4F8009007E0FFF7C0F80099411AED
:10F8500041F28830814256D830688007F4D42FB105
:10F86000DBF8001021F08051CBF80010A069D0B374
:10F87000DAF800205146C2F38102022A4AD0022857
:10F88000484607D0C8F8600000E03CE0FFF79EF86B
:10F8900004463BE04746C8F86000FFF797F8064685
:10F8A00005E000BFFFF792F8801B02282BD82868DC
:10F8B0008001F7D4D4E907010843A16A2B4A49081B
:10F8C00002EB0141626A41EA8211084394F82C106C
:10F8D00040EA01612048001F016001203866FFF7FF
:10F8E00075F8044605E034E0FFF770F8001B0228C5
:10F8F00009D828688001F7D52BE000BFFFF766F82C
:10F90000001B022802D90320BDE8F88F2868800177
:10F91000F4D41EE00128F7D00868E26900F4800101
:10F92000914214D1226A00F03F0191420FD147F673
:10F93000C071626A0140914209D1A26A00F440316B
:10F94000914204D1E16A00F07060884201D0012048
:10F95000DAE70020D8E7000008380240003802400B
:10F9600000004742800E4742007000400000FFFF49
:10F9700070B50D46040003D094F82C0010B107E0D8
:10F98000012070BD002084F82D00204600F011F801
:10F99000022084F82C00211D2068FEF710F9D4E91C
:10F9A00000022946FEF75EF9012084F82C000020B1
:10F9B00070BD00F02BBE10B5044690F82C00022854
:10F9C00009D0022084F82C002068FEF720F90120DD
:10F9D00084F82C00002010BD70B5044690F82C006F
:10F9E0000D4602280DD0022084F82C002068FEF776
:10F9F00014F92868022805D05FF0010084F82C0073
:10FA0000002070BD0520F9E77047704770B590F889
:10FA10003C20012A32D0012480F83C40022280F8A8
:10FA20003D2003685A689D6822F070060A683243D8
:10FA30005A60134B02689A4214D0B2F1804F11D031
:10FA4000104B9A420ED0104B9A420BD00F4B9A4259
:10FA500008D00F4B9A4205D00E4B9A4202D00E4B63
:10FA60009A4204D1496825F080031943916080F8D7
:10FA70003D40002180F83C10084670BD022070BD5A
:10FA8000000001400004004000080040000C00405D
:10FA900000040140004001400018004010B504007F
:10FAA00003D094F83D0010B107E0012010BD002004
:10FAB00084F83C00204600F00DF8022084F83D0058
:10FAC000211D206800F04EFB012084F83D0000203D
:10FAD00010BD000008B500680649884208D10648F4
:10FAE000016841F020010160006800F020000090F2
:10FAF00008BD00000014004040380240022180F898
:10FB00003D1001688A6802F00702062A03D00A68DD
:10FB100042F001020A60012180F83D100020704788
:10FB20000168CA6842F00102CA600068816801F099
:10FB30000701062903D0016841F00101016000209E
:10FB40007047704770B50446006801694FF00005C2
:10FB5000C943890715D4C168C943890711D4E91E6F
:10FB6000016101202077206880698007204602D04B
:10FB7000FFF7E7FF04E000F098F8204600F096F861
:10FB8000257720680169C943490717D4C168C9436B
:10FB9000490713D46FF00401016102202077206827
:10FBA000806910F4407F204602D0FFF7CAFF04E0CE
:10FBB00000F07BF8204600F079F82577206801698D
:10FBC000C943090716D4C168C943090712D46FF0A5
:10FBD00008010161042020772068C0698007204661
:10FBE00002D0FFF7AEFF04E000F05FF8204600F01F
:10FBF0005DF8257720680169C943C90617D4C16833
:10FC0000C943C90613D46FF01001016108202077A1
:10FC10002068C06910F4407F204602D0FFF791FFB2
:10FC200004E000F042F8204600F040F82577206814
:10FC30000169C943C90708D1C168C943C90704D1CB
:10FC4000891E0161204600F033F820680169C9432C
:10FC5000090609D4C168C943090605D46FF08001BB
:10FC600001612046FFF7D0FE20680169C9434906BB
:10FC700009D4C168C943490605D46FF04001016148
:10FC8000204600F01FF820680169C94389060BD49B
:10FC9000C168C943890607D46FF02001016120467D
:10FCA000BDE87040FFF7B1BE70BD704770470000FF
:10FCB00000680349884201D1FEF78EBE70470000FC
:10FCC00000100040704770B5040004D094F839006B
:10FCD000002510B106E0012070BD84F838502046A0
:10FCE00000F022F8242084F839002068C16821F44B
:10FCF0000051C160204600F099FA2068016921F4A2
:10FD0000904101612068416921F02A014161206828
:10FD1000C16841F40051C160E563202084F83900D6
:10FD200084F83A00002070BD10B586B00446142156
:10FD30006846FDF72FFE14492068884221D11348F8
:10FD4000016841F010010160006800F010000590AA
:10FD50000E481438016841F00101016000686946ED
:10FD600000F0010005904FF4C06000900220019067
:10FD70000120029003200390072004900448FEF71E
:10FD800031FD06B010BD00000010014044380240B3
:10FD900000000240FEE770B514460D46064603F02B
:10FDA00053F946F0010003F019F903F095F988B111
:10FDB00003F072F9012070BD012C03D103F0C0F8EB
:10FDC00003F06AF903F0E0F8641E05F8010BA4B231
:10FDD00003F088F8002CEFD103F05EF9002070BD2D
:10FDE00070B50B4D4FF48054002221462846FEF793
:10FDF000E8FD084E3046FDF7D9FE0122214628468F
:10FE0000FEF7DFFD3046BDE87040FDF7CFBE0000D5
:10FE1000000C0240FFFF0F00FFF7E2BF70B50E4677
:10FE20000546002419E000BF04EB440105EB810006
:10FE30008278D20707D08288836815F82100194696
:10FE4000FFF7A9FF06E00279836815F8210019463B
:10FE500000F007F8641C002802D1B442E4D1204627
:10FE600070BD2DE9F04116460D46804603F014F9A9
:10FE700000244FF47A7703F0E7F8404603F0AEF839
:10FE800003F02AF918B1641CA4B2BC42F3D3BC42FB
:10FE900006D00BE0287803F0A1F803F01DF920B19B
:10FEA00003F0FAF80120BDE8F0816D1C761EF6B271
:10FEB000F0D203F0F1F80020F5E700000148FEF76A
:10FEC0001DBE000030130020F0B503688C88DD688B
:10FED000C5F30B452C442504882404EBC2141E5999
:10FEE00006F470461E5103680F68DE68C6F30B46C1
:10FEF000761C3E442E431E5104688B89E568C5F389
:10FF00000A052B441D048C2303EBC213E65806F4A8
:10FF10007046E65004688F68E668C6F30A06761CE9
:10FF20003E442E43E6509423046803EBC213E55885
:10FF300025F00705E55005680C69EC5091F8313063
:10FF40000C7E1F0226069C24056804EBC21491F85F
:10FF5000323055F804C04FF0000C45F804C091F859
:10FF6000305046EA03433D431D4303681D51982327
:10FF7000046803EBC213E55825F0FF05E55005685A
:10FF80004C69EC50A023046803EBC213E55840F21F
:10FF90000776B543E550D1E907452C430568EC5099
:10FFA000AC23046803EBC213E55844F803C00568AA
:10FFB0004C6AEC500B698BB3012B32D0042B32D03E
:10FFC000022B30D0032B2ED0072B2CD00123B024B2
:10FFD000056804EBC2142E5906F0E0262E51D1E933
:10FFE0000065AD1B0E8D5D435E43ED1C45EA064387
:10FFF00005682B51B423046803EBC213E5586FF373
:020000040801F1
:100000000A05E5500468C96AE1500068842101EBE3
:10001000C211425842F001024250F0BDFFE70423F2
:10002000D5E70323D3E70223D1E7FEE770470000BB
:1000300010B5502080F31188BFF34F8FBFF36F8F3F
:1000400004F068FA18B104494FF0805008600020AD
:1000500080F3118810BD000004ED00E030B59FB0C2
:1000600030216846FDF796FC142118A8FDF792FC94
:1000700030210CA8FDF78EFC20480025016841F0D6
:1000800080510160006800F080501D901C4801689C
:1000900041F4404101600068022400F440401D909A
:1000A00001200090000401908001CDE90640192054
:1000B00008904FF4B470CDE9090404200B90684611
:1000C000FFF7A8FAFFF732F818A90F2081E83100EE
:1000D0004FF4A0501B90E0021C90052118A8FFF7D8
:1000E00087F908200C90FA201090052012901595A1
:1000F0000CA8FFF753F81FB030BD00004038024095
:10010000007000401048016841F4700101600F4820
:10011000016841F0010101600C4A002108321160C0
:1001200002680B4B1A400260031D0A4A1A600268FB
:1001300022F48022026005480C3001600249580612
:10014000803908607047000088ED00E00038024008
:10015000FFFFF6FE103000240148FFF7F3BC00005B
:100160005C140020F0B50268254C264D264E274F22
:10017000274B4FF0804CA04209D0604507D0A842E1
:1001800005D0B04203D0B84201D0984204D122F049
:10019000700E4A6842EA0E02A0421BD0604519D098
:1001A000A84217D0B04215D0B84213D0984211D00F
:1001B000184DA8420ED0184DA8420BD0174DA8429A
:1001C00008D0174DA84205D0164DA84202D0164DB2
:1001D000A84203D122F44075CA682A434D6922F02F
:1001E00080022A4302608A68C2620A688262A04270
:1001F00001D0984201D10969016301214161F0BD3B
:10020000000001400004004000080040000C0040D5
:10021000000401400040014000440140004801400A
:1002200000180040001C0040002000402DE9F04173
:10023000044600680169E26821F4405111430161FC
:100240002169A068E2690843616911430843216894
:10025000CA6849F20C639A430243CA602068416944
:10026000A26921F4407111434161E06919276425B5
:100270003226B0F5004F354A354920684FF0000866
:1002800006D0884201D0904236D1FFF781F935E09F
:10029000884201D0904202D1FFF77AF901E0FFF7DE
:1002A00067F961684A18A0FB070148EB0803FDF7EE
:1002B00027FB0146B0FBF5F00201B1FBF5F06FF052
:1002C0001803584301EB800006EBC000B0FBF5F0CB
:1002D00000F0F80002EB4002B1FBF5F0584301EBEF
:1002E000800006EBC000B0FBF5F000F007002168CD
:1002F00010448860BDE8F081FFF73AF961688B0F20
:100300008A00A0FB0701FDF7FBFA0146B0FBF5F000
:100310006FF01802504301EB800006EB0010B0FBB9
:10032000F5F000F0F002B1FBF5F002EB0012B1FBCA
:10033000F5F06FF01803584301EB800006EB001056
:10034000B0FBF5F000F00F00D1E700000014014011
:1003500000100140FEE7000000B587B01C21684690
:10036000FDF718FB1548144900F1080C0160012144
:1003700041600021042210238CE80E0040234361D9
:100380004FF4C073C0E906315302C0E90831D1020D
:100390008162022007218DE8070003910321CDE946
:1003A0000410069069460548FFF7E2FA002801D0DC
:1003B000FDF704FC07B000BD400100A018140020A8
:1003C00030B58DB02948FEF78CFB28482849002419
:1003D000C0E900148460C46004612E214461C0E956
:1003E00006411721016240F24E31416240F2F7119D
:1003F000816240F26231C16240F20D21016380F8F6
:10040000344080F8354080F83640FEF7DDFB08B117
:10041000FDF7D4FB4FF44875CDE900454FF4F0717A
:1004200002200294CDE903104FF48062CDE9064228
:10043000FF20059007220892CDE90A518DF830007F
:100440004FF050428DF8310009928DF832000022B1
:1004500069460648FEF71CFB08B1FDF7AFFB00221A
:1004600029460248FEF7AEFD0DB030BD3013002026
:10047000006801400100044810B5006800D0012167
:10048000F8F7D0F9012010BDA40300202DE9F04FAA
:1004900087B014216846FDF77DFA534800240168AF
:1004A00041F480710160016801F480710591016877
:1004B00041F020010160016801F02001059101680F
:1004C00041F080010160016801F08001059101683F
:1004D00041F004010160016801F004010591016827
:1004E00041F001010160016801F00101059101681D
:1004F00041F002010160016801F00201059101680B
:1005000041F040010160016801F04001059101687E
:1005100041F010010160016801F0100105910168CE
:1005200041F0080101600068DFF8C09000F00800A9
:100530000590002230214846FEF743FA4FF4E0567A
:10054000012231464846FEF73CFADFF8A4A04FF4FA
:100550008057002239465046FEF733FA0122902197
:100560005046FEF72EFADFF88CB04FF400780022E8
:1005700041465846FEF725FA302000900125CDE986
:100580000154694648460394FEF72CF9CDE900650D
:10059000CDE9025469464846FEF724F90226CDE922
:1005A0000264CDE9007569465046FEF71BF9680301
:1005B00000901148CDE9010469465046FEF712F952
:1005C0009020CDE90005CDE9025469465046FEF77A
:1005D00009F9CDE90264CDE9008569465846FEF780
:1005E00001F907B0BDE8F08F30380240001C02402E
:1005F000000C0240001802400000111000F058BF2B
:1006000000F0CEF8012002F007FEFBE72DE9F041F3
:1006100086B014216846FDF7BDF92B480168002912
:100620004FD14FF00108C0F800802848002401682D
:1006300041F0010101600068022500F00100059011
:100640004FF63F00CDE9000502AA03260C2782E8F9
:10065000D00069461E48FEF7C5F802AA694682E83E
:10066000D000CDE900851B48FEF7BCF848F23310F6
:10067000CDE9000502AA694682E8D0001648FEF7D7
:10068000B1F84FF68370CDE9000502AA694682E809
:10069000D0001248FEF7A6F8C020CDE9000502AA56
:1006A000694682E8D0000E48FEF79CF84CF20370D1
:1006B000CDE9000502AA694682E8D0000948FEF7A4
:1006C00091F806B0BDE8F0812800002038380240DB
:1006D00000140240000802400018024000100240CE
:1006E000001C0240000C02402DE9F8431F4C00257D
:1006F000012608270095C4E90067C4E902654FF6A2
:10070000FF7921464A46A1F13400FFF765F901203F
:10071000FDF790FF0220C4E90007C4E90265214605
:100720004A46A1F13400FFF757F903204FF00408BF
:10073000E56084E8810121464A46A1F13400FFF7D3
:100740004BF94FF40C700090C4E90260C4E90087D3
:1007500021464A46A1F13400FFF73EF9A4F13400E6
:10076000BDE8F84340F26A51FFF725B94C14002068
:1007700010B5FFF7F1FDFFF7B7FFFFF721FEBDE86A
:10078000104001F047B9002809DB00F01F020121E9
:1007900091404009800000F1E020C0F8001170474E
:1007A000024800680168C96808470000A4030020E7
:1007B00030B50468256825F440350D43256001688F
:1007C0004C6B24F0070414434C630068016C6FF316
:1007D0000D0119430164002030BD00280DDB00F03D
:1007E0001F02012191404009800000F1E020C0F883
:1007F0008011BFF34F8FBFF36F8F70470907090E4A
:10080000002804DB00F1E02080F80014704700F0BD
:100810000F0000F1E02080F8141D704702480068C6
:100820004068016849690847A40300207047000038
:1008300000B514488BB00078C0071FD1114801F0F3
:10084000E5FAD8B100201049CDE906100F4908900B
:1008500001220990CDE90220CDE904010421CDE96E
:10086000000102460A230A490A4800F0FDFD0A4A2F
:100870000A49FDF7ABF80348AFF300800BB0054819
:1008800000BD00001C030020A4AC0108804F01083B
:10089000D4AC01088C95002000000008AD140108BC
:1008A00000B514488BB00078C0071FD1114801F083
:1008B000ADFAD8B100201049CDE9061001210F4A48
:1008C00009900890CDE90412CDE902100421CDE988
:1008D0000001142311220A490A4800F0C5FD0A4A02
:1008E0000A49FDF773F80348AFF300800BB00548E1
:1008F00000BD000020030020A8AC0108844F0108BF
:10090000E4AC0108B095002000000008AD14010817
:1009100000B514488BB00078C0071FD1114801F012
:1009200075FAD8B100201049CDE9061001210F4A0F
:1009300009900890CDE90210CDE904120420CDE918
:100940000010282308220A490A4800F08DFD0A4AAF
:100950000A49FDF73BF80348AFF300800BB00548A8
:1009600000BD000024030020D0AC0108884F01081E
:10097000D4AD0108D495002000000008AD14010892
:1009800010B5094C074820602046FDF7D4FD074804
:1009900020610748074960614FF08060C1F800019D
:1009A00010BD000000B00240D81300201D0801084F
:1009B0002D08010808E000E00348007808B1002095
:1009C000704740F2EF107047200000202DE9FC47EF
:1009D000086800260C464FF4003720280DD0402828
:1009E0000BD0042809D0002189464FF4807A802852
:1009F00001D0504503D1012002E00121F4E700209D
:100A0000804600F015FF0168096A8847054620689E
:100A1000402810D004DC04280AD0202821D10AE084
:100A2000802803D050451CD1092604E00A2602E0A4
:100A3000102D19D001264648102D476017D000BF51
:100A40004FF001018160E18A228A8246A1EB020116
:100A5000C160E08A218AA0EB01030BD14FF00202B2
:100A60000AE04FF00007E3E74FF00206E3E74FF03C
:100A70000201E7E74FF0010239463548FFF798FEDB
:100A8000CAF82C60A28A208A5146101ACAF8280097
:100A900059EA080620D0207FFF2804D202200863EC
:100AA000207F486301E000200863B8F1000F06D002
:100AB000102D22D0227FA06940EA02604863E08ABC
:100AC000228A801A8861102D36D00120CAF81C00B5
:100AD00000211F48FDF712FC01211D48FDF70EFC07
:100AE00066B3618A208ACDE90001E268184813469E
:100AF0006168FDF7A7FBBDE8FC87208B1F27C0F3CB
:100B0000C422C2EB0222B2FBF7F3C0F3451200F09D
:100B10001F00C0EB0020B0FBF7F0C2EB02224FF049
:100B20003F0CB2FBFCF2277F3F0647EA034343EA50
:100B3000022202434A63C2E70220C7E7608A0090AC
:100B4000238A0348E2686168FDF754FDD3E700009B
:100B5000D81300202DE9FC470C4600F069FE01681F
:100B6000096A88470646102825D000BF4FF00100CB
:100B7000814623D1208B4FF01F03C0F3C421C0F363
:100B8000451200F01F00C1EB0121C0EB0020B1FBBA
:100B9000F3F1B0FBF3F0C2EB02224FF03F05B2FBE2
:100BA000F5F2237F4FEA036343EA014141EA02275A
:100BB00047EA000706E04FF00200D9E7217FA0696D
:100BC00040EA016720684FF4003A082817D04FF434
:100BD00040352D48102E456013D000BF4FF0010165
:100BE0008160E18A228A8046A1EB0201C160E08A2D
:100BF000218AA0EB010307D14FF0020206E055461F
:100C0000E7E74FF00201EBE74FF0010229461E48EB
:100C1000FFF7CEFD554518D140460121C0E90C171C
:100C20000921C8F82C10E18A228A891AC8F81810FC
:100C3000102E08D05FF00101C8F81C1000211248E6
:100C4000FDF75CFB04E00221F6E70021C8E90A1980
:100C500001210D48FDF752FB55450BD1618A208AD1
:100C6000CDE90001E16808480B460A46FDF7EAFABB
:100C7000BDE8FC87608A0090238A39460248E26812
:100C8000FDF7B8FCF4E70000D81300200168896A7A
:100C90000847000010B500F10C010B46416000212F
:100CA000017241720749016000F12001602218467B
:100CB000F5F71EFC602320220349143001F094F85C
:100CC000203810BDDC5E0108E11A010810B50446A9
:100CD000074820600748FDF763FB07494FF0806035
:100CE000C1F88001BFF34F8FBFF36F8F204610BD57
:100CF000DC5E0108D813002008E000E010B55820A1
:100D0000FFF741FD5A20FFF73EFDBDE81040592096
:100D1000FFF739BD10B55820FFF75FFD5A20FFF7E8
:100D20005CFDBDE810405920FFF757BD074800683B
:100D3000064980B238390968C1F30A01491C884262
:100D400001D200207047401A80B2704744680140C9
:100D5000034801600249012088390860704700009B
:100D6000AC68014010B509215A20FFF747FD092161
:100D7000BDE810405820FFF741BD00000C4810B5F9
:100D800000680C4AC0F30A00401E81B20848118076
:100D9000001D0068C0F30A00401E50800648FEF7A0
:100DA000EDF805480068416B41F00301416310BD57
:100DB0000C6801402200002030130020704700F032
:100DC00077B8704710B500F07FF80149016010BD99
:100DD000EC5F0108014901607047000004660108EA
:100DE00000F00EB97047000010B500F015F9014988
:100DF000016010BD206001080149016070470000DA
:100E00000466010810B500F12C0300F58E7400F59E
:100E1000BC728360C0E9034200F11401134AC0E9C7
:100E200000210846EFF79FFA114940F8181BEFF729
:100E30009AFA104940F8F01BEFF795FA0E49016055
:100E4000A0F58E70024600F5327100F5BC7000F01E
:100E5000ADF900F5A87000F074FAA0F53274A0F5B1
:100E6000A87000F0C1F9204610BD000054600108D0
:100E7000F8680108C46801082C69010810B5084920
:100E8000016000F5BC7000F055FA5C38EFF70EFA1F
:100E9000F038EFF70BFA1838EFF708FA143810BDEE
:100EA0005460010800487047184F0108022070473D
:100EB000704710B5A430814205D1F3F705F9BDE8BC
:100EC000104000F0CBB910BD2DE9FE43F9F7B8FC96
:100ED00000264249C66340F8401B00F019FE404915
:100EE000FF24016080F82640866280F82C60303054
:100EF00000F00EFE3B494FF6FF770160C784866223
:100F000020F82C6F8470C67006714671083000F0AE
:100F1000FFFD866280F82C60012180F824103249A0
:100F20000160C785078680F83240304A00F13405F9
:100F3000A0F1A404D2E90012C5E902122C4BC5E9C4
:100F400000344FF4F0700090002204F140004FF4A0
:100F500048731146804600F0FAFDFF2247461146CD
:100F6000002000F06DFDB86204F17000DF2240F255
:100F70002311074600F011FE00221146104600F032
:100F80005FFDB862BE85ADF8006038460099FAF79B
:100F90002DFAE22240F2F62104F1A40000F0FDFD5A
:100FA0000120ADF8080002AA01A9ADF8046004F11F
:100FB000A400F4F781FF4146201DC4F8CC50F5F79A
:100FC0005DF83946201DF5F759F804F1A401201DFC
:100FD000F5F754F82046BDE8FE830000686001087C
:100FE000146401085067010890650108704F0108FA
:100FF000A46601080149016000F016BD686001089F
:10100000704710B5A430814205D1F3F75DF8BDE813
:10101000104000F00FB910BD2DE9FE43F9F710FCA8
:1010200000264249C66340F8401B00F071FD40496C
:10103000FF24016080F82640866280F82C60303002
:1010400000F066FD3B494FF6FF770160C78486627A
:1010500020F82C6F8470C67006714671083000F05D
:1010600057FD866280F82C60012180F824103249F7
:101070000160C7850786314980F83240A0F1A40499
:1010800000F13405D1E90001C5E902012C4AC5E9A6
:1010900000244FF4F0700090002204F140004FF45F
:1010A00048731146804600F052FD00224746FF215A
:1010B000104600F0C5FCB86204F17000E422EE2195
:1010C000074600F06AFD00221146104600F0B8FC09
:1010D000B862BE850120ADF8000038460099FAF7E5
:1010E00085F9DB2240F2F62104F1A40000F055FD61
:1010F0000120ADF8080002AA01A9ADF8046004F1CE
:10110000A400F4F7D9FE4146201DC4F8CC50F4F7F2
:10111000B5FF3946201DF4F7B1FF04F1A401201DED
:10112000F4F7ACFF2046BDE8FE8300009C60010898
:10113000146401085067010890650108784F0108A0
:10114000BC6601080149016000F074BC9C600108A4
:10115000704770470023034A836002601832426080
:10116000C1607047D0600108704770477047000049
:101170000023034A8360026018324260C1607047F6
:10118000F86001087047022070470000004870476F
:10119000F895002010B50446D0F84C0100F0D0F8C6
:1011A0002046BDE81040F3F757BA000010B500F034
:1011B0008DF80149016010BD2061010810B529B109
:1011C000012907D0022909D0002010BDFFF7DEFF5A
:1011D000006810BDFFF7DAFF406810BDFFF7D6FFCB
:1011E000806810BD704700007FB50446074821465F
:1011F000D0E90023684603F003FE014604F59C7025
:10120000054600F09DFCC4F834517FBD404F0108F5
:1012100008B5D0F84C11009100F59871D0F848212C
:10122000024B034803F00CFB08BD000060030020E4
:101230005C0300207FB5044607482146D0E902231D
:10124000684603F0DDFD014604F59C70054600F09C
:1012500077FCC4F834517FBD404F01087FB5044688
:1012600007482146D0E90423684603F0C9FD01463A
:1012700004F59C70054600F063FCC4F834517FBD52
:10128000404F010808B5D0F84C11009100F5987155
:10129000D0F84821024B034803F02AFB08BD0000A8
:1012A000600300205C03002008B5D0F84C110091C9
:1012B00000F59871D0F84821024B034803F06DFB0C
:1012C00008BD0000600300205C03002070B51446D8
:1012D0000D46F3F72DFD11490021114AC0F83011D8
:1012E000C0F8341110600F4A0646026000F59C7089
:1012F0000D4AC0E900210D4AD2E90A12C0E90212E2
:101300000B48C6E95245006801688A680021904789
:10131000002000F0AFFB304670BD0000A462010861
:101320006403002070610108D4660108404F010881
:10133000A4030020014901607047000070610108AA
:10134000704700210160704710B503220021012081
:1013500002F018FD074CA06020B100231A46194680
:1013600002F078FD01210022084602F00BFD6060CA
:1013700010BD0000100300200B4808B5406800288D
:1013800011D000210B4600916A46074902F012FE77
:101390000098002807D005494FF080500860BFF33F
:1013A0004F8FBFF36F8F08BD1003002004ED00E0E6
:1013B00010B5074900220C46606802F0A7FE2146DE
:1013C0006068BDE810404FF0FF3202F09FBE0000A1
:1013D00010030020034800231A461946806802F0D3
:1013E00039BD00001003002002484FF0FF31806833
:1013F00002F028BF1003002002480021806802F09C
:1014000021BF00001003002008B50020009008480C
:101410006946806802F02CFE0098002807D0054934
:101420004FF080500860BFF34F8FBFF36F8F08BD40
:101430001003002004ED00E07047416070477047E2
:10144000704700000249016000214160017270474D
:10145000C061010870470121017270477047002088
:1014600070470168496C08472DE9F04F87B00DF1CE
:10147000500E81469EE8200C0DF1400EDDE917402C
:101480009EE8C0110495CDE905408DE8C01148469D
:10149000F4F74AFD04490160C0E906AB19990162FD
:1014A00007B0BDE8F08F00005062010870470000EF
:1014B0002DE9FF4100254FF4F070CDE90005134AF6
:1014C0004FF448730295111D1148039503F002FC77
:1014D00001260446009600683346C76F0B480C3857
:1014E000428841682046B847022184F8641004F815
:1014F000496F0848E577657000F084F8054944F8BD
:10150000391C84F82360BDE8FF810000180000202A
:10151000C0060020E012002010B50446D0F83401C7
:1015200000280CD00168C9688847002807D0D4F883
:1015300034010168896888470020C4F8340110BD6F
:1015400070B514460D460646F2F7BEFDF3F7A4FB50
:10155000206838B10168C9688847206810B10168FF
:1015600009688847306810B1016849698847286868
:1015700010B1016849688847306810B1016809688E
:1015800088472868002804D001688968BDE8704051
:10159000084770BD406870474160704770B50646A7
:1015A00000680D461446C1683046884728680168BF
:1015B0002846884721463046F9F702FD2068016930
:1015C00020468847F2F780FD0168896ABDE87040CF
:1015D0000847000002490968496AC06848437047E3
:1015E000F012002010B5044600680269204631B1AF
:1015F0009047A168401A61680844606010BD904738
:10160000A06010BD30B505461C4889B000240168B3
:1016100041F0200101600068009400F02000079074
:10162000184817490194C0E900148460C4608461BB
:10163000FEF734FA08B1FCF7C1FA00946946114884
:101640000194FEF7E3F908B1FCF7B8FA08A902A87B
:10165000FDF768FF059868B1FDF78AFF5FEA40046F
:10166000FDF780FFB0FBF4F0E8600648FEF746FAAD
:1016700009B030BDFDF77CFF0446F1E74038024079
:1016800000140040F01200207047000070B51446AE
:101690000D46FCF727FB09480949B0F90000421C38
:1016A00003D1B1F90020521C05D02860B1F9000027
:1016B0002060012070BD002070BD000032000020BD
:1016C00034000020FCF7EEBB704740680168896970
:1016D00008474068016809680847000070B505467A
:1016E000044690F86A00C8B1022000F095F9002085
:1016F00084F86A0084F869000C48407840B120689A
:10170000816A20468847E16B884208BF216C00D07F
:10171000E16B2068D0F8A820204690472868D0F8D0
:101720009C102846BDE87040084700009403002044
:101730004FF6FF70704780F87410012180F8751023
:10174000704700002DE9F047DFF870900C4607461F
:10175000D9F81010DDF820801D4691F87600164665
:1017600000281ABFC86C002888680168896A884701
:10177000B9F80C102246414300200346002D1CBF3F
:1017800062181046B8F1000F18BF5318082E0CD07D
:1017900006DC012E1CBF022E042E06D0AFF3008003
:1017A000102E1CBF182E202EF8D13968024638465C
:1017B000D1F880C02146BDE8F0476047940300207F
:1017C00010B569B14364C0E90F12111C18BF0121A3
:1017D0000448002B417014BF01210021817010BD0D
:1017E000AFF300809403002010B490F874C090F818
:1017F00034400E48A445C2880189037809D0002BE3
:101800001CBF10BC7047428181810281C1800121CF
:1018100008E0002B04BF10BC704741818281028127
:10182000C1800021017010BC7047000094030020AB
:101830000448016891F8760010B1C86C002800D106
:1018400088687047A4030020826B002A08BF704795
:101850000846104770B5234EDDE9044540C00EC070
:10186000002140F8101900F11C024161816181835F
:10187000C183018441848184C18401859173C162E3
:10188000018640F8381F012341608160C160017406
:101890004374837440F8141F134A8180C18001810E
:1018A000418100F8183F41708170C370017141712E
:1018B0008171C1710172C1604174643810600B4A5A
:1018C000AC4214800A4A15800A4A11700A490C80F9
:1018D0000A490D8001D2012100E0002180F8341076
:1018E00070BD000080640108A40300209A0300205A
:1018F0009C030020940300209E030020A0030020EE
:1019000070B50446DDE9045C00202080616023722C
:1019100084F809C0E56022826082A082E082208390
:101920006083A083A077286841692846884706001D
:1019300023D0E0680168CA68314690470546407B7D
:1019400010F0800018BF4FF48070A97A0843A0837C
:10195000607A042811D1E0682A460168CB6B3146D1
:101960009847697B11F0800118BF4FF48071AA7A03
:1019700011430844A18B0844A083204670BD70B475
:101980000022002942DDD0E9025C4668D0ED0B2A36
:1019900090ED0E2AD0ED081A03689C190460436983
:1019A0005B1C436183695B1E836190ED0A0A30EE24
:1019B000221A80ED0A1A90ED0D0A70EE020AC0EDAF
:1019C0000D0A90ED070A30EE210A80ED070A03693F
:1019D0002B440361634516DB641CA3EB0C0304601A
:1019E000036190ED093A30EE030A80ED070A90EDAD
:1019F0000C0A31EE000A80ED0A0A90ED0F0A30EE73
:101A0000800A80ED0D0A521C8A42C5DB806970BCD9
:101A100070477047704770477047002101804180D0
:101A20008180C1807047000001490160704700005B
:101A3000046601080149016070470000046601085E
:101A400070B505460A480C46016829B191F8760040
:101A500020B1C86C18B901E0AFF300808868134664
:101A600022460168CE6A2946B446BDE87040604708
:101A7000A403002070B5002822D11249114A096838
:101A8000121F41B10B680B4493604B680B44D36049
:101A90008B685C1806E00C4991600C490968D160BC
:101AA0000B490C68002C0BD01080FFF76FFB05462C
:101AB000FFF769FB07490C6007490D60074908807B
:101AC00070BD00002C0300206CAE01088C4F010893
:101AD000C4AE0108A8030020B0030020B403002016
:101AE00000228261704770477047704770477047A7
:101AF00001490160704700000466010890F8251054
:101B000000291DBF90F82410002918607047704705
:101B100030B500258580C580058145818581C581D9
:101B20000582458245618561C56180F824500121A7
:101B300080F825100149016030BD000038660108B9
:101B40004A684260D1E90221C0E90221704770B5BC
:101B5000044600681E46049DD0F834C02046E04785
:101B600020683146826B2046904720682946C26B28
:101B70002046BDE8704010474FF0FF31818101845D
:101B800041841168C16110607047704770477047A9
:101B9000704781807047C180704770B50446006807
:101BA0001546C36A2046984720682946036B20469D
:101BB000BDE8704018470181704741817047704708
:101BC0000148006870470000AC68014010B5C2B120
:101BD000137BB3B1D47A527B02F0070244EA0222AB
:101BE00013440CE0C46934F822408C4205D1C0692A
:101BF000022101EB8201405610BD521C92B2934269
